
SPI_Test_CM7.elf:     file format elf32-littlearm

Sections:
Idx Name          Size      VMA       LMA       File off  Algn
  0 .isr_vector   00000298  08000000  08000000  00010000  2**0
                  CONTENTS, ALLOC, LOAD, READONLY, DATA
  1 .text         000063b0  08000298  08000298  00010298  2**2
                  CONTENTS, ALLOC, LOAD, READONLY, CODE
  2 .rodata       00000018  08006648  08006648  00016648  2**2
                  CONTENTS, ALLOC, LOAD, READONLY, DATA
  3 .ARM.extab    00000000  08006660  08006660  00020010  2**0
                  CONTENTS
  4 .ARM          00000000  08006660  08006660  00020010  2**0
                  CONTENTS
  5 .preinit_array 00000000  08006660  08006660  00020010  2**0
                  CONTENTS, ALLOC, LOAD, DATA
  6 .init_array   00000004  08006660  08006660  00016660  2**2
                  CONTENTS, ALLOC, LOAD, DATA
  7 .fini_array   00000004  08006664  08006664  00016664  2**2
                  CONTENTS, ALLOC, LOAD, DATA
  8 .data         00000010  24000000  08006668  00020000  2**2
                  CONTENTS, ALLOC, LOAD, DATA
  9 .bss          000001e4  24000010  08006678  00020010  2**2
                  ALLOC
 10 ._user_heap_stack 00000604  240001f4  08006678  000201f4  2**0
                  ALLOC
 11 .ARM.attributes 0000002e  00000000  00000000  00020010  2**0
                  CONTENTS, READONLY
 12 .debug_info   000132ca  00000000  00000000  0002003e  2**0
                  CONTENTS, READONLY, DEBUGGING, OCTETS
 13 .debug_abbrev 0000238e  00000000  00000000  00033308  2**0
                  CONTENTS, READONLY, DEBUGGING, OCTETS
 14 .debug_aranges 00001008  00000000  00000000  00035698  2**3
                  CONTENTS, READONLY, DEBUGGING, OCTETS
 15 .debug_ranges 00000f10  00000000  00000000  000366a0  2**3
                  CONTENTS, READONLY, DEBUGGING, OCTETS
 16 .debug_macro  00039893  00000000  00000000  000375b0  2**0
                  CONTENTS, READONLY, DEBUGGING, OCTETS
 17 .debug_line   000140da  00000000  00000000  00070e43  2**0
                  CONTENTS, READONLY, DEBUGGING, OCTETS
 18 .debug_str    001809ec  00000000  00000000  00084f1d  2**0
                  CONTENTS, READONLY, DEBUGGING, OCTETS
 19 .comment      00000050  00000000  00000000  00205909  2**0
                  CONTENTS, READONLY
 20 .debug_frame  00004384  00000000  00000000  0020595c  2**2
                  CONTENTS, READONLY, DEBUGGING, OCTETS

Disassembly of section .text:

08000298 <__do_global_dtors_aux>:
 8000298:	b510      	push	{r4, lr}
 800029a:	4c05      	ldr	r4, [pc, #20]	; (80002b0 <__do_global_dtors_aux+0x18>)
 800029c:	7823      	ldrb	r3, [r4, #0]
 800029e:	b933      	cbnz	r3, 80002ae <__do_global_dtors_aux+0x16>
 80002a0:	4b04      	ldr	r3, [pc, #16]	; (80002b4 <__do_global_dtors_aux+0x1c>)
 80002a2:	b113      	cbz	r3, 80002aa <__do_global_dtors_aux+0x12>
 80002a4:	4804      	ldr	r0, [pc, #16]	; (80002b8 <__do_global_dtors_aux+0x20>)
 80002a6:	f3af 8000 	nop.w
 80002aa:	2301      	movs	r3, #1
 80002ac:	7023      	strb	r3, [r4, #0]
 80002ae:	bd10      	pop	{r4, pc}
 80002b0:	24000010 	.word	0x24000010
 80002b4:	00000000 	.word	0x00000000
 80002b8:	08006630 	.word	0x08006630

080002bc <frame_dummy>:
 80002bc:	b508      	push	{r3, lr}
 80002be:	4b03      	ldr	r3, [pc, #12]	; (80002cc <frame_dummy+0x10>)
 80002c0:	b11b      	cbz	r3, 80002ca <frame_dummy+0xe>
 80002c2:	4903      	ldr	r1, [pc, #12]	; (80002d0 <frame_dummy+0x14>)
 80002c4:	4803      	ldr	r0, [pc, #12]	; (80002d4 <frame_dummy+0x18>)
 80002c6:	f3af 8000 	nop.w
 80002ca:	bd08      	pop	{r3, pc}
 80002cc:	00000000 	.word	0x00000000
 80002d0:	24000014 	.word	0x24000014
 80002d4:	08006630 	.word	0x08006630

080002d8 <SystemInit>:
  *         configuration.
  * @param  None
  * @retval None
  */
void SystemInit (void)
{
 80002d8:	b480      	push	{r7}
 80002da:	af00      	add	r7, sp, #0
  /* FPU settings ------------------------------------------------------------*/
  #if (__FPU_PRESENT == 1) && (__FPU_USED == 1)
    SCB->CPACR |= ((3UL << (10*2))|(3UL << (11*2)));  /* set CP10 and CP11 Full Access */
 80002dc:	4b3d      	ldr	r3, [pc, #244]	; (80003d4 <SystemInit+0xfc>)
 80002de:	f8d3 3088 	ldr.w	r3, [r3, #136]	; 0x88
 80002e2:	4a3c      	ldr	r2, [pc, #240]	; (80003d4 <SystemInit+0xfc>)
 80002e4:	f443 0370 	orr.w	r3, r3, #15728640	; 0xf00000
 80002e8:	f8c2 3088 	str.w	r3, [r2, #136]	; 0x88
  #endif

    /*SEVONPEND enabled so that an interrupt coming from the CPU(n) interrupt signal is
     detectable by the CPU after a WFI/WFE instruction.*/
 SCB->SCR |= SCB_SCR_SEVONPEND_Msk;
 80002ec:	4b39      	ldr	r3, [pc, #228]	; (80003d4 <SystemInit+0xfc>)
 80002ee:	691b      	ldr	r3, [r3, #16]
 80002f0:	4a38      	ldr	r2, [pc, #224]	; (80003d4 <SystemInit+0xfc>)
 80002f2:	f043 0310 	orr.w	r3, r3, #16
 80002f6:	6113      	str	r3, [r2, #16]

#if defined(CORE_CM7)
  /* Reset the RCC clock configuration to the default reset state ------------*/
   /* Increasing the CPU frequency */
  if(FLASH_LATENCY_DEFAULT  > (READ_BIT((FLASH->ACR), FLASH_ACR_LATENCY)))
 80002f8:	4b37      	ldr	r3, [pc, #220]	; (80003d8 <SystemInit+0x100>)
 80002fa:	681b      	ldr	r3, [r3, #0]
 80002fc:	f003 030f 	and.w	r3, r3, #15
 8000300:	2b06      	cmp	r3, #6
 8000302:	d807      	bhi.n	8000314 <SystemInit+0x3c>
  {
    /* Program the new number of wait states to the LATENCY bits in the FLASH_ACR register */
    MODIFY_REG(FLASH->ACR, FLASH_ACR_LATENCY, (uint32_t)(FLASH_LATENCY_DEFAULT));
 8000304:	4b34      	ldr	r3, [pc, #208]	; (80003d8 <SystemInit+0x100>)
 8000306:	681b      	ldr	r3, [r3, #0]
 8000308:	f023 030f 	bic.w	r3, r3, #15
 800030c:	4a32      	ldr	r2, [pc, #200]	; (80003d8 <SystemInit+0x100>)
 800030e:	f043 0307 	orr.w	r3, r3, #7
 8000312:	6013      	str	r3, [r2, #0]
  }

  /* Set HSION bit */
  RCC->CR |= RCC_CR_HSION;
 8000314:	4b31      	ldr	r3, [pc, #196]	; (80003dc <SystemInit+0x104>)
 8000316:	681b      	ldr	r3, [r3, #0]
 8000318:	4a30      	ldr	r2, [pc, #192]	; (80003dc <SystemInit+0x104>)
 800031a:	f043 0301 	orr.w	r3, r3, #1
 800031e:	6013      	str	r3, [r2, #0]

  /* Reset CFGR register */
  RCC->CFGR = 0x00000000;
 8000320:	4b2e      	ldr	r3, [pc, #184]	; (80003dc <SystemInit+0x104>)
 8000322:	2200      	movs	r2, #0
 8000324:	611a      	str	r2, [r3, #16]

  /* Reset HSEON, HSECSSON, CSION, HSI48ON, CSIKERON, PLL1ON, PLL2ON and PLL3ON bits */
  RCC->CR &= 0xEAF6ED7FU;
 8000326:	4b2d      	ldr	r3, [pc, #180]	; (80003dc <SystemInit+0x104>)
 8000328:	681a      	ldr	r2, [r3, #0]
 800032a:	492c      	ldr	r1, [pc, #176]	; (80003dc <SystemInit+0x104>)
 800032c:	4b2c      	ldr	r3, [pc, #176]	; (80003e0 <SystemInit+0x108>)
 800032e:	4013      	ands	r3, r2
 8000330:	600b      	str	r3, [r1, #0]

   /* Decreasing the number of wait states because of lower CPU frequency */
  if(FLASH_LATENCY_DEFAULT  < (READ_BIT((FLASH->ACR), FLASH_ACR_LATENCY)))
 8000332:	4b29      	ldr	r3, [pc, #164]	; (80003d8 <SystemInit+0x100>)
 8000334:	681b      	ldr	r3, [r3, #0]
 8000336:	f003 0308 	and.w	r3, r3, #8
 800033a:	2b00      	cmp	r3, #0
 800033c:	d007      	beq.n	800034e <SystemInit+0x76>
  {
    /* Program the new number of wait states to the LATENCY bits in the FLASH_ACR register */
    MODIFY_REG(FLASH->ACR, FLASH_ACR_LATENCY, (uint32_t)(FLASH_LATENCY_DEFAULT));
 800033e:	4b26      	ldr	r3, [pc, #152]	; (80003d8 <SystemInit+0x100>)
 8000340:	681b      	ldr	r3, [r3, #0]
 8000342:	f023 030f 	bic.w	r3, r3, #15
 8000346:	4a24      	ldr	r2, [pc, #144]	; (80003d8 <SystemInit+0x100>)
 8000348:	f043 0307 	orr.w	r3, r3, #7
 800034c:	6013      	str	r3, [r2, #0]
  }

  /* Reset D1CFGR register */
  RCC->D1CFGR = 0x00000000;
 800034e:	4b23      	ldr	r3, [pc, #140]	; (80003dc <SystemInit+0x104>)
 8000350:	2200      	movs	r2, #0
 8000352:	619a      	str	r2, [r3, #24]

  /* Reset D2CFGR register */
  RCC->D2CFGR = 0x00000000;
 8000354:	4b21      	ldr	r3, [pc, #132]	; (80003dc <SystemInit+0x104>)
 8000356:	2200      	movs	r2, #0
 8000358:	61da      	str	r2, [r3, #28]

  /* Reset D3CFGR register */
  RCC->D3CFGR = 0x00000000;
 800035a:	4b20      	ldr	r3, [pc, #128]	; (80003dc <SystemInit+0x104>)
 800035c:	2200      	movs	r2, #0
 800035e:	621a      	str	r2, [r3, #32]

  /* Reset PLLCKSELR register */
  RCC->PLLCKSELR = 0x02020200;
 8000360:	4b1e      	ldr	r3, [pc, #120]	; (80003dc <SystemInit+0x104>)
 8000362:	4a20      	ldr	r2, [pc, #128]	; (80003e4 <SystemInit+0x10c>)
 8000364:	629a      	str	r2, [r3, #40]	; 0x28

  /* Reset PLLCFGR register */
  RCC->PLLCFGR = 0x01FF0000;
 8000366:	4b1d      	ldr	r3, [pc, #116]	; (80003dc <SystemInit+0x104>)
 8000368:	4a1f      	ldr	r2, [pc, #124]	; (80003e8 <SystemInit+0x110>)
 800036a:	62da      	str	r2, [r3, #44]	; 0x2c
  /* Reset PLL1DIVR register */
  RCC->PLL1DIVR = 0x01010280;
 800036c:	4b1b      	ldr	r3, [pc, #108]	; (80003dc <SystemInit+0x104>)
 800036e:	4a1f      	ldr	r2, [pc, #124]	; (80003ec <SystemInit+0x114>)
 8000370:	631a      	str	r2, [r3, #48]	; 0x30
  /* Reset PLL1FRACR register */
  RCC->PLL1FRACR = 0x00000000;
 8000372:	4b1a      	ldr	r3, [pc, #104]	; (80003dc <SystemInit+0x104>)
 8000374:	2200      	movs	r2, #0
 8000376:	635a      	str	r2, [r3, #52]	; 0x34

  /* Reset PLL2DIVR register */
  RCC->PLL2DIVR = 0x01010280;
 8000378:	4b18      	ldr	r3, [pc, #96]	; (80003dc <SystemInit+0x104>)
 800037a:	4a1c      	ldr	r2, [pc, #112]	; (80003ec <SystemInit+0x114>)
 800037c:	639a      	str	r2, [r3, #56]	; 0x38

  /* Reset PLL2FRACR register */

  RCC->PLL2FRACR = 0x00000000;
 800037e:	4b17      	ldr	r3, [pc, #92]	; (80003dc <SystemInit+0x104>)
 8000380:	2200      	movs	r2, #0
 8000382:	63da      	str	r2, [r3, #60]	; 0x3c
  /* Reset PLL3DIVR register */
  RCC->PLL3DIVR = 0x01010280;
 8000384:	4b15      	ldr	r3, [pc, #84]	; (80003dc <SystemInit+0x104>)
 8000386:	4a19      	ldr	r2, [pc, #100]	; (80003ec <SystemInit+0x114>)
 8000388:	641a      	str	r2, [r3, #64]	; 0x40

  /* Reset PLL3FRACR register */
  RCC->PLL3FRACR = 0x00000000;
 800038a:	4b14      	ldr	r3, [pc, #80]	; (80003dc <SystemInit+0x104>)
 800038c:	2200      	movs	r2, #0
 800038e:	645a      	str	r2, [r3, #68]	; 0x44

  /* Reset HSEBYP bit */
  RCC->CR &= 0xFFFBFFFFU;
 8000390:	4b12      	ldr	r3, [pc, #72]	; (80003dc <SystemInit+0x104>)
 8000392:	681b      	ldr	r3, [r3, #0]
 8000394:	4a11      	ldr	r2, [pc, #68]	; (80003dc <SystemInit+0x104>)
 8000396:	f423 2380 	bic.w	r3, r3, #262144	; 0x40000
 800039a:	6013      	str	r3, [r2, #0]

  /* Disable all interrupts */
  RCC->CIER = 0x00000000;
 800039c:	4b0f      	ldr	r3, [pc, #60]	; (80003dc <SystemInit+0x104>)
 800039e:	2200      	movs	r2, #0
 80003a0:	661a      	str	r2, [r3, #96]	; 0x60

  /* Enable CortexM7 HSEM EXTI line (line 78)*/
  EXTI_D2->EMR3 |= 0x4000UL;
 80003a2:	4b13      	ldr	r3, [pc, #76]	; (80003f0 <SystemInit+0x118>)
 80003a4:	6a5b      	ldr	r3, [r3, #36]	; 0x24
 80003a6:	4a12      	ldr	r2, [pc, #72]	; (80003f0 <SystemInit+0x118>)
 80003a8:	f443 4380 	orr.w	r3, r3, #16384	; 0x4000
 80003ac:	6253      	str	r3, [r2, #36]	; 0x24

  if((DBGMCU->IDCODE & 0xFFFF0000U) < 0x20000000U)
 80003ae:	4b11      	ldr	r3, [pc, #68]	; (80003f4 <SystemInit+0x11c>)
 80003b0:	681a      	ldr	r2, [r3, #0]
 80003b2:	4b11      	ldr	r3, [pc, #68]	; (80003f8 <SystemInit+0x120>)
 80003b4:	4013      	ands	r3, r2
 80003b6:	f1b3 5f00 	cmp.w	r3, #536870912	; 0x20000000
 80003ba:	d202      	bcs.n	80003c2 <SystemInit+0xea>
  {
    /* if stm32h7 revY*/
    /* Change  the switch matrix read issuing capability to 1 for the AXI SRAM target (Target 7) */
    *((__IO uint32_t*)0x51008108) = 0x000000001U;
 80003bc:	4b0f      	ldr	r3, [pc, #60]	; (80003fc <SystemInit+0x124>)
 80003be:	2201      	movs	r2, #1
 80003c0:	601a      	str	r2, [r3, #0]
  /*
   * Disable the FMC bank1 (enabled after reset).
   * This, prevents CPU speculation access on this bank which blocks the use of FMC during
   * 24us. During this time the others FMC master (such as LTDC) cannot use it!
   */
  FMC_Bank1_R->BTCR[0] = 0x000030D2;
 80003c2:	4b0f      	ldr	r3, [pc, #60]	; (8000400 <SystemInit+0x128>)
 80003c4:	f243 02d2 	movw	r2, #12498	; 0x30d2
 80003c8:	601a      	str	r2, [r3, #0]
#endif /* USER_VECT_TAB_ADDRESS */

#else
#error Please #define CORE_CM4 or CORE_CM7
#endif /* CORE_CM4 */
}
 80003ca:	bf00      	nop
 80003cc:	46bd      	mov	sp, r7
 80003ce:	f85d 7b04 	ldr.w	r7, [sp], #4
 80003d2:	4770      	bx	lr
 80003d4:	e000ed00 	.word	0xe000ed00
 80003d8:	52002000 	.word	0x52002000
 80003dc:	58024400 	.word	0x58024400
 80003e0:	eaf6ed7f 	.word	0xeaf6ed7f
 80003e4:	02020200 	.word	0x02020200
 80003e8:	01ff0000 	.word	0x01ff0000
 80003ec:	01010280 	.word	0x01010280
 80003f0:	580000c0 	.word	0x580000c0
 80003f4:	5c001000 	.word	0x5c001000
 80003f8:	ffff0000 	.word	0xffff0000
 80003fc:	51008108 	.word	0x51008108
 8000400:	52004000 	.word	0x52004000

08000404 <main>:
/**
  * @brief  The application entry point.
  * @retval int
  */
int main(void)
{
 8000404:	b580      	push	{r7, lr}
 8000406:	b086      	sub	sp, #24
 8000408:	af00      	add	r7, sp, #0
  /* USER CODE BEGIN 1 */
	MPU_Config();
 800040a:	f000 faa1 	bl	8000950 <MPU_Config>
  \details Turns on I-Cache
  */
__STATIC_FORCEINLINE void SCB_EnableICache (void)
{
  #if defined (__ICACHE_PRESENT) && (__ICACHE_PRESENT == 1U)
    if (SCB->CCR & SCB_CCR_IC_Msk) return;  /* return if ICache is already enabled */
 800040e:	4b59      	ldr	r3, [pc, #356]	; (8000574 <main+0x170>)
 8000410:	695b      	ldr	r3, [r3, #20]
 8000412:	f403 3300 	and.w	r3, r3, #131072	; 0x20000
 8000416:	2b00      	cmp	r3, #0
 8000418:	d11b      	bne.n	8000452 <main+0x4e>
  \details Acts as a special kind of Data Memory Barrier.
           It completes when all explicit memory accesses before this instruction complete.
 */
__STATIC_FORCEINLINE void __DSB(void)
{
  __ASM volatile ("dsb 0xF":::"memory");
 800041a:	f3bf 8f4f 	dsb	sy
}
 800041e:	bf00      	nop
  __ASM volatile ("isb 0xF":::"memory");
 8000420:	f3bf 8f6f 	isb	sy
}
 8000424:	bf00      	nop

    __DSB();
    __ISB();
    SCB->ICIALLU = 0UL;                     /* invalidate I-Cache */
 8000426:	4b53      	ldr	r3, [pc, #332]	; (8000574 <main+0x170>)
 8000428:	2200      	movs	r2, #0
 800042a:	f8c3 2250 	str.w	r2, [r3, #592]	; 0x250
  __ASM volatile ("dsb 0xF":::"memory");
 800042e:	f3bf 8f4f 	dsb	sy
}
 8000432:	bf00      	nop
  __ASM volatile ("isb 0xF":::"memory");
 8000434:	f3bf 8f6f 	isb	sy
}
 8000438:	bf00      	nop
    __DSB();
    __ISB();
    SCB->CCR |=  (uint32_t)SCB_CCR_IC_Msk;  /* enable I-Cache */
 800043a:	4b4e      	ldr	r3, [pc, #312]	; (8000574 <main+0x170>)
 800043c:	695b      	ldr	r3, [r3, #20]
 800043e:	4a4d      	ldr	r2, [pc, #308]	; (8000574 <main+0x170>)
 8000440:	f443 3300 	orr.w	r3, r3, #131072	; 0x20000
 8000444:	6153      	str	r3, [r2, #20]
  __ASM volatile ("dsb 0xF":::"memory");
 8000446:	f3bf 8f4f 	dsb	sy
}
 800044a:	bf00      	nop
  __ASM volatile ("isb 0xF":::"memory");
 800044c:	f3bf 8f6f 	isb	sy
}
 8000450:	e000      	b.n	8000454 <main+0x50>
    if (SCB->CCR & SCB_CCR_IC_Msk) return;  /* return if ICache is already enabled */
 8000452:	bf00      	nop
  #if defined (__DCACHE_PRESENT) && (__DCACHE_PRESENT == 1U)
    uint32_t ccsidr;
    uint32_t sets;
    uint32_t ways;

    if (SCB->CCR & SCB_CCR_DC_Msk) return;  /* return if DCache is already enabled */
 8000454:	4b47      	ldr	r3, [pc, #284]	; (8000574 <main+0x170>)
 8000456:	695b      	ldr	r3, [r3, #20]
 8000458:	f403 3380 	and.w	r3, r3, #65536	; 0x10000
 800045c:	2b00      	cmp	r3, #0
 800045e:	d138      	bne.n	80004d2 <main+0xce>

    SCB->CSSELR = 0U;                       /* select Level 1 data cache */
 8000460:	4b44      	ldr	r3, [pc, #272]	; (8000574 <main+0x170>)
 8000462:	2200      	movs	r2, #0
 8000464:	f8c3 2084 	str.w	r2, [r3, #132]	; 0x84
  __ASM volatile ("dsb 0xF":::"memory");
 8000468:	f3bf 8f4f 	dsb	sy
}
 800046c:	bf00      	nop
    __DSB();

    ccsidr = SCB->CCSIDR;
 800046e:	4b41      	ldr	r3, [pc, #260]	; (8000574 <main+0x170>)
 8000470:	f8d3 3080 	ldr.w	r3, [r3, #128]	; 0x80
 8000474:	613b      	str	r3, [r7, #16]

                                            /* invalidate D-Cache */
    sets = (uint32_t)(CCSIDR_SETS(ccsidr));
 8000476:	693b      	ldr	r3, [r7, #16]
 8000478:	0b5b      	lsrs	r3, r3, #13
 800047a:	f3c3 030e 	ubfx	r3, r3, #0, #15
 800047e:	60fb      	str	r3, [r7, #12]
    do {
      ways = (uint32_t)(CCSIDR_WAYS(ccsidr));
 8000480:	693b      	ldr	r3, [r7, #16]
 8000482:	08db      	lsrs	r3, r3, #3
 8000484:	f3c3 0309 	ubfx	r3, r3, #0, #10
 8000488:	60bb      	str	r3, [r7, #8]
      do {
        SCB->DCISW = (((sets << SCB_DCISW_SET_Pos) & SCB_DCISW_SET_Msk) |
 800048a:	68fb      	ldr	r3, [r7, #12]
 800048c:	015a      	lsls	r2, r3, #5
 800048e:	f643 73e0 	movw	r3, #16352	; 0x3fe0
 8000492:	4013      	ands	r3, r2
                      ((ways << SCB_DCISW_WAY_Pos) & SCB_DCISW_WAY_Msk)  );
 8000494:	68ba      	ldr	r2, [r7, #8]
 8000496:	0792      	lsls	r2, r2, #30
        SCB->DCISW = (((sets << SCB_DCISW_SET_Pos) & SCB_DCISW_SET_Msk) |
 8000498:	4936      	ldr	r1, [pc, #216]	; (8000574 <main+0x170>)
 800049a:	4313      	orrs	r3, r2
 800049c:	f8c1 3260 	str.w	r3, [r1, #608]	; 0x260
        #if defined ( __CC_ARM )
          __schedule_barrier();
        #endif
      } while (ways-- != 0U);
 80004a0:	68bb      	ldr	r3, [r7, #8]
 80004a2:	1e5a      	subs	r2, r3, #1
 80004a4:	60ba      	str	r2, [r7, #8]
 80004a6:	2b00      	cmp	r3, #0
 80004a8:	d1ef      	bne.n	800048a <main+0x86>
    } while(sets-- != 0U);
 80004aa:	68fb      	ldr	r3, [r7, #12]
 80004ac:	1e5a      	subs	r2, r3, #1
 80004ae:	60fa      	str	r2, [r7, #12]
 80004b0:	2b00      	cmp	r3, #0
 80004b2:	d1e5      	bne.n	8000480 <main+0x7c>
  __ASM volatile ("dsb 0xF":::"memory");
 80004b4:	f3bf 8f4f 	dsb	sy
}
 80004b8:	bf00      	nop
    __DSB();

    SCB->CCR |=  (uint32_t)SCB_CCR_DC_Msk;  /* enable D-Cache */
 80004ba:	4b2e      	ldr	r3, [pc, #184]	; (8000574 <main+0x170>)
 80004bc:	695b      	ldr	r3, [r3, #20]
 80004be:	4a2d      	ldr	r2, [pc, #180]	; (8000574 <main+0x170>)
 80004c0:	f443 3380 	orr.w	r3, r3, #65536	; 0x10000
 80004c4:	6153      	str	r3, [r2, #20]
  __ASM volatile ("dsb 0xF":::"memory");
 80004c6:	f3bf 8f4f 	dsb	sy
}
 80004ca:	bf00      	nop
  __ASM volatile ("isb 0xF":::"memory");
 80004cc:	f3bf 8f6f 	isb	sy
}
 80004d0:	e000      	b.n	80004d4 <main+0xd0>
    if (SCB->CCR & SCB_CCR_DC_Msk) return;  /* return if DCache is already enabled */
 80004d2:	bf00      	nop
  /* Enable D-Cache---------------------------------------------------------*/
  SCB_EnableDCache();

/* USER CODE BEGIN Boot_Mode_Sequence_1 */
  /* Wait until CPU2 boots and enters in stop mode or timeout*/
  timeout = 0xFFFF;
 80004d4:	f64f 73ff 	movw	r3, #65535	; 0xffff
 80004d8:	617b      	str	r3, [r7, #20]
  while((__HAL_RCC_GET_FLAG(RCC_FLAG_D2CKRDY) != RESET) && (timeout-- > 0));
 80004da:	bf00      	nop
 80004dc:	4b26      	ldr	r3, [pc, #152]	; (8000578 <main+0x174>)
 80004de:	681b      	ldr	r3, [r3, #0]
 80004e0:	f403 4300 	and.w	r3, r3, #32768	; 0x8000
 80004e4:	2b00      	cmp	r3, #0
 80004e6:	d004      	beq.n	80004f2 <main+0xee>
 80004e8:	697b      	ldr	r3, [r7, #20]
 80004ea:	1e5a      	subs	r2, r3, #1
 80004ec:	617a      	str	r2, [r7, #20]
 80004ee:	2b00      	cmp	r3, #0
 80004f0:	dcf4      	bgt.n	80004dc <main+0xd8>
  if ( timeout < 0 )
 80004f2:	697b      	ldr	r3, [r7, #20]
 80004f4:	2b00      	cmp	r3, #0
 80004f6:	da01      	bge.n	80004fc <main+0xf8>
  {
  Error_Handler();
 80004f8:	f000 fa52 	bl	80009a0 <Error_Handler>
  }
/* USER CODE END Boot_Mode_Sequence_1 */
  /* MCU Configuration--------------------------------------------------------*/

  /* Reset of all peripherals, Initializes the Flash interface and the Systick. */
  HAL_Init();
 80004fc:	f000 fbfa 	bl	8000cf4 <HAL_Init>
  /* USER CODE BEGIN Init */

  /* USER CODE END Init */

  /* Configure the system clock */
  SystemClock_Config();
 8000500:	f000 f83e 	bl	8000580 <SystemClock_Config>

/* Configure the peripherals common clocks */
  PeriphCommonClock_Config();
 8000504:	f000 f8c0 	bl	8000688 <PeriphCommonClock_Config>
/* USER CODE BEGIN Boot_Mode_Sequence_2 */
/* When system initialization is finished, Cortex-M7 will release Cortex-M4 by means of
HSEM notification */
/*HW semaphore Clock enable*/
__HAL_RCC_HSEM_CLK_ENABLE();
 8000508:	4b1b      	ldr	r3, [pc, #108]	; (8000578 <main+0x174>)
 800050a:	f8d3 30e0 	ldr.w	r3, [r3, #224]	; 0xe0
 800050e:	4a1a      	ldr	r2, [pc, #104]	; (8000578 <main+0x174>)
 8000510:	f043 7300 	orr.w	r3, r3, #33554432	; 0x2000000
 8000514:	f8c2 30e0 	str.w	r3, [r2, #224]	; 0xe0
 8000518:	4b17      	ldr	r3, [pc, #92]	; (8000578 <main+0x174>)
 800051a:	f8d3 30e0 	ldr.w	r3, [r3, #224]	; 0xe0
 800051e:	f003 7300 	and.w	r3, r3, #33554432	; 0x2000000
 8000522:	607b      	str	r3, [r7, #4]
 8000524:	687b      	ldr	r3, [r7, #4]
/*Take HSEM */
HAL_HSEM_FastTake(HSEM_ID_0);
 8000526:	2000      	movs	r0, #0
 8000528:	f002 fee0 	bl	80032ec <HAL_HSEM_FastTake>
/*Release HSEM in order to notify the CPU2(CM4)*/
HAL_HSEM_Release(HSEM_ID_0,0);
 800052c:	2100      	movs	r1, #0
 800052e:	2000      	movs	r0, #0
 8000530:	f002 fef6 	bl	8003320 <HAL_HSEM_Release>
/* wait until CPU2 wakes up from stop mode */
timeout = 0xFFFF;
 8000534:	f64f 73ff 	movw	r3, #65535	; 0xffff
 8000538:	617b      	str	r3, [r7, #20]
while((__HAL_RCC_GET_FLAG(RCC_FLAG_D2CKRDY) == RESET) && (timeout-- > 0));
 800053a:	bf00      	nop
 800053c:	4b0e      	ldr	r3, [pc, #56]	; (8000578 <main+0x174>)
 800053e:	681b      	ldr	r3, [r3, #0]
 8000540:	f403 4300 	and.w	r3, r3, #32768	; 0x8000
 8000544:	2b00      	cmp	r3, #0
 8000546:	d104      	bne.n	8000552 <main+0x14e>
 8000548:	697b      	ldr	r3, [r7, #20]
 800054a:	1e5a      	subs	r2, r3, #1
 800054c:	617a      	str	r2, [r7, #20]
 800054e:	2b00      	cmp	r3, #0
 8000550:	dcf4      	bgt.n	800053c <main+0x138>
if ( timeout < 0 )
 8000552:	697b      	ldr	r3, [r7, #20]
 8000554:	2b00      	cmp	r3, #0
 8000556:	da01      	bge.n	800055c <main+0x158>
{
Error_Handler();
 8000558:	f000 fa22 	bl	80009a0 <Error_Handler>
  /* USER CODE BEGIN SysInit */

  /* USER CODE END SysInit */

  /* Initialize all configured peripherals */
  MX_GPIO_Init();
 800055c:	f000 f98a 	bl	8000874 <MX_GPIO_Init>
  MX_DMA_Init();
 8000560:	f000 f960 	bl	8000824 <MX_DMA_Init>
  MX_TIM15_Init();
 8000564:	f000 f90c 	bl	8000780 <MX_TIM15_Init>
  MX_SPI1_Init();
 8000568:	f000 f8ba 	bl	80006e0 <MX_SPI1_Init>
  /* USER CODE BEGIN 2 */
  HAL_TIM_Base_Start_IT(&htim15);
 800056c:	4803      	ldr	r0, [pc, #12]	; (800057c <main+0x178>)
 800056e:	f005 fb97 	bl	8005ca0 <HAL_TIM_Base_Start_IT>
  /* USER CODE END 2 */

  /* Infinite loop */
  /* USER CODE BEGIN WHILE */
  while (1)
 8000572:	e7fe      	b.n	8000572 <main+0x16e>
 8000574:	e000ed00 	.word	0xe000ed00
 8000578:	58024400 	.word	0x58024400
 800057c:	240001a4 	.word	0x240001a4

08000580 <SystemClock_Config>:
/**
  * @brief System Clock Configuration
  * @retval None
  */
void SystemClock_Config(void)
{
 8000580:	b580      	push	{r7, lr}
 8000582:	b09c      	sub	sp, #112	; 0x70
 8000584:	af00      	add	r7, sp, #0
  RCC_OscInitTypeDef RCC_OscInitStruct = {0};
 8000586:	f107 0324 	add.w	r3, r7, #36	; 0x24
 800058a:	224c      	movs	r2, #76	; 0x4c
 800058c:	2100      	movs	r1, #0
 800058e:	4618      	mov	r0, r3
 8000590:	f006 f846 	bl	8006620 <memset>
  RCC_ClkInitTypeDef RCC_ClkInitStruct = {0};
 8000594:	1d3b      	adds	r3, r7, #4
 8000596:	2220      	movs	r2, #32
 8000598:	2100      	movs	r1, #0
 800059a:	4618      	mov	r0, r3
 800059c:	f006 f840 	bl	8006620 <memset>

  /** Supply configuration update enable
  */
  HAL_PWREx_ConfigSupply(PWR_DIRECT_SMPS_SUPPLY);
 80005a0:	2004      	movs	r0, #4
 80005a2:	f002 fef5 	bl	8003390 <HAL_PWREx_ConfigSupply>

  /** Configure the main internal regulator output voltage
  */
  __HAL_PWR_VOLTAGESCALING_CONFIG(PWR_REGULATOR_VOLTAGE_SCALE0);
 80005a6:	2300      	movs	r3, #0
 80005a8:	603b      	str	r3, [r7, #0]
 80005aa:	4b34      	ldr	r3, [pc, #208]	; (800067c <SystemClock_Config+0xfc>)
 80005ac:	699b      	ldr	r3, [r3, #24]
 80005ae:	4a33      	ldr	r2, [pc, #204]	; (800067c <SystemClock_Config+0xfc>)
 80005b0:	f443 4340 	orr.w	r3, r3, #49152	; 0xc000
 80005b4:	6193      	str	r3, [r2, #24]
 80005b6:	4b31      	ldr	r3, [pc, #196]	; (800067c <SystemClock_Config+0xfc>)
 80005b8:	699b      	ldr	r3, [r3, #24]
 80005ba:	f403 4340 	and.w	r3, r3, #49152	; 0xc000
 80005be:	603b      	str	r3, [r7, #0]
 80005c0:	4b2f      	ldr	r3, [pc, #188]	; (8000680 <SystemClock_Config+0x100>)
 80005c2:	6adb      	ldr	r3, [r3, #44]	; 0x2c
 80005c4:	4a2e      	ldr	r2, [pc, #184]	; (8000680 <SystemClock_Config+0x100>)
 80005c6:	f043 0301 	orr.w	r3, r3, #1
 80005ca:	62d3      	str	r3, [r2, #44]	; 0x2c
 80005cc:	4b2c      	ldr	r3, [pc, #176]	; (8000680 <SystemClock_Config+0x100>)
 80005ce:	6adb      	ldr	r3, [r3, #44]	; 0x2c
 80005d0:	f003 0301 	and.w	r3, r3, #1
 80005d4:	603b      	str	r3, [r7, #0]
 80005d6:	683b      	ldr	r3, [r7, #0]

  while(!__HAL_PWR_GET_FLAG(PWR_FLAG_VOSRDY)) {}
 80005d8:	bf00      	nop
 80005da:	4b28      	ldr	r3, [pc, #160]	; (800067c <SystemClock_Config+0xfc>)
 80005dc:	699b      	ldr	r3, [r3, #24]
 80005de:	f403 5300 	and.w	r3, r3, #8192	; 0x2000
 80005e2:	f5b3 5f00 	cmp.w	r3, #8192	; 0x2000
 80005e6:	d1f8      	bne.n	80005da <SystemClock_Config+0x5a>

  /** Macro to configure the PLL clock source
  */
  __HAL_RCC_PLL_PLLSOURCE_CONFIG(RCC_PLLSOURCE_HSI);
 80005e8:	4b26      	ldr	r3, [pc, #152]	; (8000684 <SystemClock_Config+0x104>)
 80005ea:	6a9b      	ldr	r3, [r3, #40]	; 0x28
 80005ec:	4a25      	ldr	r2, [pc, #148]	; (8000684 <SystemClock_Config+0x104>)
 80005ee:	f023 0303 	bic.w	r3, r3, #3
 80005f2:	6293      	str	r3, [r2, #40]	; 0x28

  /** Initializes the RCC Oscillators according to the specified parameters
  * in the RCC_OscInitTypeDef structure.
  */
  RCC_OscInitStruct.OscillatorType = RCC_OSCILLATORTYPE_HSI;
 80005f4:	2302      	movs	r3, #2
 80005f6:	627b      	str	r3, [r7, #36]	; 0x24
  RCC_OscInitStruct.HSIState = RCC_HSI_DIV1;
 80005f8:	2301      	movs	r3, #1
 80005fa:	633b      	str	r3, [r7, #48]	; 0x30
  RCC_OscInitStruct.HSICalibrationValue = RCC_HSICALIBRATION_DEFAULT;
 80005fc:	2340      	movs	r3, #64	; 0x40
 80005fe:	637b      	str	r3, [r7, #52]	; 0x34
  RCC_OscInitStruct.PLL.PLLState = RCC_PLL_ON;
 8000600:	2302      	movs	r3, #2
 8000602:	64bb      	str	r3, [r7, #72]	; 0x48
  RCC_OscInitStruct.PLL.PLLSource = RCC_PLLSOURCE_HSI;
 8000604:	2300      	movs	r3, #0
 8000606:	64fb      	str	r3, [r7, #76]	; 0x4c
  RCC_OscInitStruct.PLL.PLLM = 4;
 8000608:	2304      	movs	r3, #4
 800060a:	653b      	str	r3, [r7, #80]	; 0x50
  RCC_OscInitStruct.PLL.PLLN = 60;
 800060c:	233c      	movs	r3, #60	; 0x3c
 800060e:	657b      	str	r3, [r7, #84]	; 0x54
  RCC_OscInitStruct.PLL.PLLP = 2;
 8000610:	2302      	movs	r3, #2
 8000612:	65bb      	str	r3, [r7, #88]	; 0x58
  RCC_OscInitStruct.PLL.PLLQ = 2;
 8000614:	2302      	movs	r3, #2
 8000616:	65fb      	str	r3, [r7, #92]	; 0x5c
  RCC_OscInitStruct.PLL.PLLR = 2;
 8000618:	2302      	movs	r3, #2
 800061a:	663b      	str	r3, [r7, #96]	; 0x60
  RCC_OscInitStruct.PLL.PLLRGE = RCC_PLL1VCIRANGE_3;
 800061c:	230c      	movs	r3, #12
 800061e:	667b      	str	r3, [r7, #100]	; 0x64
  RCC_OscInitStruct.PLL.PLLVCOSEL = RCC_PLL1VCOWIDE;
 8000620:	2300      	movs	r3, #0
 8000622:	66bb      	str	r3, [r7, #104]	; 0x68
  RCC_OscInitStruct.PLL.PLLFRACN = 0;
 8000624:	2300      	movs	r3, #0
 8000626:	66fb      	str	r3, [r7, #108]	; 0x6c
  if (HAL_RCC_OscConfig(&RCC_OscInitStruct) != HAL_OK)
 8000628:	f107 0324 	add.w	r3, r7, #36	; 0x24
 800062c:	4618      	mov	r0, r3
 800062e:	f002 ff09 	bl	8003444 <HAL_RCC_OscConfig>
 8000632:	4603      	mov	r3, r0
 8000634:	2b00      	cmp	r3, #0
 8000636:	d001      	beq.n	800063c <SystemClock_Config+0xbc>
  {
    Error_Handler();
 8000638:	f000 f9b2 	bl	80009a0 <Error_Handler>
  }

  /** Initializes the CPU, AHB and APB buses clocks
  */
  RCC_ClkInitStruct.ClockType = RCC_CLOCKTYPE_HCLK|RCC_CLOCKTYPE_SYSCLK
 800063c:	233f      	movs	r3, #63	; 0x3f
 800063e:	607b      	str	r3, [r7, #4]
                              |RCC_CLOCKTYPE_PCLK1|RCC_CLOCKTYPE_PCLK2
                              |RCC_CLOCKTYPE_D3PCLK1|RCC_CLOCKTYPE_D1PCLK1;
  RCC_ClkInitStruct.SYSCLKSource = RCC_SYSCLKSOURCE_PLLCLK;
 8000640:	2303      	movs	r3, #3
 8000642:	60bb      	str	r3, [r7, #8]
  RCC_ClkInitStruct.SYSCLKDivider = RCC_SYSCLK_DIV1;
 8000644:	2300      	movs	r3, #0
 8000646:	60fb      	str	r3, [r7, #12]
  RCC_ClkInitStruct.AHBCLKDivider = RCC_HCLK_DIV2;
 8000648:	2308      	movs	r3, #8
 800064a:	613b      	str	r3, [r7, #16]
  RCC_ClkInitStruct.APB3CLKDivider = RCC_APB3_DIV2;
 800064c:	2340      	movs	r3, #64	; 0x40
 800064e:	617b      	str	r3, [r7, #20]
  RCC_ClkInitStruct.APB1CLKDivider = RCC_APB1_DIV2;
 8000650:	2340      	movs	r3, #64	; 0x40
 8000652:	61bb      	str	r3, [r7, #24]
  RCC_ClkInitStruct.APB2CLKDivider = RCC_APB2_DIV2;
 8000654:	f44f 6380 	mov.w	r3, #1024	; 0x400
 8000658:	61fb      	str	r3, [r7, #28]
  RCC_ClkInitStruct.APB4CLKDivider = RCC_APB4_DIV2;
 800065a:	2340      	movs	r3, #64	; 0x40
 800065c:	623b      	str	r3, [r7, #32]

  if (HAL_RCC_ClockConfig(&RCC_ClkInitStruct, FLASH_LATENCY_4) != HAL_OK)
 800065e:	1d3b      	adds	r3, r7, #4
 8000660:	2104      	movs	r1, #4
 8000662:	4618      	mov	r0, r3
 8000664:	f003 fb1c 	bl	8003ca0 <HAL_RCC_ClockConfig>
 8000668:	4603      	mov	r3, r0
 800066a:	2b00      	cmp	r3, #0
 800066c:	d001      	beq.n	8000672 <SystemClock_Config+0xf2>
  {
    Error_Handler();
 800066e:	f000 f997 	bl	80009a0 <Error_Handler>
  }
}
 8000672:	bf00      	nop
 8000674:	3770      	adds	r7, #112	; 0x70
 8000676:	46bd      	mov	sp, r7
 8000678:	bd80      	pop	{r7, pc}
 800067a:	bf00      	nop
 800067c:	58024800 	.word	0x58024800
 8000680:	58000400 	.word	0x58000400
 8000684:	58024400 	.word	0x58024400

08000688 <PeriphCommonClock_Config>:
/**
  * @brief Peripherals Common Clock Configuration
  * @retval None
  */
void PeriphCommonClock_Config(void)
{
 8000688:	b580      	push	{r7, lr}
 800068a:	b0b0      	sub	sp, #192	; 0xc0
 800068c:	af00      	add	r7, sp, #0
  RCC_PeriphCLKInitTypeDef PeriphClkInitStruct = {0};
 800068e:	1d3b      	adds	r3, r7, #4
 8000690:	22bc      	movs	r2, #188	; 0xbc
 8000692:	2100      	movs	r1, #0
 8000694:	4618      	mov	r0, r3
 8000696:	f005 ffc3 	bl	8006620 <memset>

  /** Initializes the peripherals clock
  */
  PeriphClkInitStruct.PeriphClockSelection = RCC_PERIPHCLK_SPI3|RCC_PERIPHCLK_SPI1;
 800069a:	f44f 5380 	mov.w	r3, #4096	; 0x1000
 800069e:	607b      	str	r3, [r7, #4]
  PeriphClkInitStruct.PLL2.PLL2M = 32;
 80006a0:	2320      	movs	r3, #32
 80006a2:	60bb      	str	r3, [r7, #8]
  PeriphClkInitStruct.PLL2.PLL2N = 75;
 80006a4:	234b      	movs	r3, #75	; 0x4b
 80006a6:	60fb      	str	r3, [r7, #12]
  PeriphClkInitStruct.PLL2.PLL2P = 2;
 80006a8:	2302      	movs	r3, #2
 80006aa:	613b      	str	r3, [r7, #16]
  PeriphClkInitStruct.PLL2.PLL2Q = 2;
 80006ac:	2302      	movs	r3, #2
 80006ae:	617b      	str	r3, [r7, #20]
  PeriphClkInitStruct.PLL2.PLL2R = 2;
 80006b0:	2302      	movs	r3, #2
 80006b2:	61bb      	str	r3, [r7, #24]
  PeriphClkInitStruct.PLL2.PLL2RGE = RCC_PLL2VCIRANGE_1;
 80006b4:	2340      	movs	r3, #64	; 0x40
 80006b6:	61fb      	str	r3, [r7, #28]
  PeriphClkInitStruct.PLL2.PLL2VCOSEL = RCC_PLL2VCOMEDIUM;
 80006b8:	2320      	movs	r3, #32
 80006ba:	623b      	str	r3, [r7, #32]
  PeriphClkInitStruct.PLL2.PLL2FRACN = 0;
 80006bc:	2300      	movs	r3, #0
 80006be:	627b      	str	r3, [r7, #36]	; 0x24
  PeriphClkInitStruct.Spi123ClockSelection = RCC_SPI123CLKSOURCE_PLL2;
 80006c0:	f44f 5380 	mov.w	r3, #4096	; 0x1000
 80006c4:	663b      	str	r3, [r7, #96]	; 0x60
  if (HAL_RCCEx_PeriphCLKConfig(&PeriphClkInitStruct) != HAL_OK)
 80006c6:	1d3b      	adds	r3, r7, #4
 80006c8:	4618      	mov	r0, r3
 80006ca:	f003 fe19 	bl	8004300 <HAL_RCCEx_PeriphCLKConfig>
 80006ce:	4603      	mov	r3, r0
 80006d0:	2b00      	cmp	r3, #0
 80006d2:	d001      	beq.n	80006d8 <PeriphCommonClock_Config+0x50>
  {
    Error_Handler();
 80006d4:	f000 f964 	bl	80009a0 <Error_Handler>
  }
}
 80006d8:	bf00      	nop
 80006da:	37c0      	adds	r7, #192	; 0xc0
 80006dc:	46bd      	mov	sp, r7
 80006de:	bd80      	pop	{r7, pc}

080006e0 <MX_SPI1_Init>:
  * @brief SPI1 Initialization Function
  * @param None
  * @retval None
  */
static void MX_SPI1_Init(void)
{
 80006e0:	b580      	push	{r7, lr}
 80006e2:	af00      	add	r7, sp, #0

  /* USER CODE BEGIN SPI1_Init 1 */

  /* USER CODE END SPI1_Init 1 */
  /* SPI1 parameter configuration*/
  hspi1.Instance = SPI1;
 80006e4:	4b24      	ldr	r3, [pc, #144]	; (8000778 <MX_SPI1_Init+0x98>)
 80006e6:	4a25      	ldr	r2, [pc, #148]	; (800077c <MX_SPI1_Init+0x9c>)
 80006e8:	601a      	str	r2, [r3, #0]
  hspi1.Init.Mode = SPI_MODE_SLAVE;
 80006ea:	4b23      	ldr	r3, [pc, #140]	; (8000778 <MX_SPI1_Init+0x98>)
 80006ec:	2200      	movs	r2, #0
 80006ee:	605a      	str	r2, [r3, #4]
  hspi1.Init.Direction = SPI_DIRECTION_2LINES;
 80006f0:	4b21      	ldr	r3, [pc, #132]	; (8000778 <MX_SPI1_Init+0x98>)
 80006f2:	2200      	movs	r2, #0
 80006f4:	609a      	str	r2, [r3, #8]
  hspi1.Init.DataSize = SPI_DATASIZE_8BIT;
 80006f6:	4b20      	ldr	r3, [pc, #128]	; (8000778 <MX_SPI1_Init+0x98>)
 80006f8:	2207      	movs	r2, #7
 80006fa:	60da      	str	r2, [r3, #12]
  hspi1.Init.CLKPolarity = SPI_POLARITY_LOW;
 80006fc:	4b1e      	ldr	r3, [pc, #120]	; (8000778 <MX_SPI1_Init+0x98>)
 80006fe:	2200      	movs	r2, #0
 8000700:	611a      	str	r2, [r3, #16]
  hspi1.Init.CLKPhase = SPI_PHASE_1EDGE;
 8000702:	4b1d      	ldr	r3, [pc, #116]	; (8000778 <MX_SPI1_Init+0x98>)
 8000704:	2200      	movs	r2, #0
 8000706:	615a      	str	r2, [r3, #20]
  hspi1.Init.NSS = SPI_NSS_SOFT;
 8000708:	4b1b      	ldr	r3, [pc, #108]	; (8000778 <MX_SPI1_Init+0x98>)
 800070a:	f04f 6280 	mov.w	r2, #67108864	; 0x4000000
 800070e:	619a      	str	r2, [r3, #24]
  hspi1.Init.FirstBit = SPI_FIRSTBIT_MSB;
 8000710:	4b19      	ldr	r3, [pc, #100]	; (8000778 <MX_SPI1_Init+0x98>)
 8000712:	2200      	movs	r2, #0
 8000714:	621a      	str	r2, [r3, #32]
  hspi1.Init.TIMode = SPI_TIMODE_DISABLE;
 8000716:	4b18      	ldr	r3, [pc, #96]	; (8000778 <MX_SPI1_Init+0x98>)
 8000718:	2200      	movs	r2, #0
 800071a:	625a      	str	r2, [r3, #36]	; 0x24
  hspi1.Init.CRCCalculation = SPI_CRCCALCULATION_DISABLE;
 800071c:	4b16      	ldr	r3, [pc, #88]	; (8000778 <MX_SPI1_Init+0x98>)
 800071e:	2200      	movs	r2, #0
 8000720:	629a      	str	r2, [r3, #40]	; 0x28
  hspi1.Init.CRCPolynomial = 0x0;
 8000722:	4b15      	ldr	r3, [pc, #84]	; (8000778 <MX_SPI1_Init+0x98>)
 8000724:	2200      	movs	r2, #0
 8000726:	62da      	str	r2, [r3, #44]	; 0x2c
  hspi1.Init.NSSPMode = SPI_NSS_PULSE_DISABLE;
 8000728:	4b13      	ldr	r3, [pc, #76]	; (8000778 <MX_SPI1_Init+0x98>)
 800072a:	2200      	movs	r2, #0
 800072c:	635a      	str	r2, [r3, #52]	; 0x34
  hspi1.Init.NSSPolarity = SPI_NSS_POLARITY_LOW;
 800072e:	4b12      	ldr	r3, [pc, #72]	; (8000778 <MX_SPI1_Init+0x98>)
 8000730:	2200      	movs	r2, #0
 8000732:	639a      	str	r2, [r3, #56]	; 0x38
  hspi1.Init.FifoThreshold = SPI_FIFO_THRESHOLD_01DATA;
 8000734:	4b10      	ldr	r3, [pc, #64]	; (8000778 <MX_SPI1_Init+0x98>)
 8000736:	2200      	movs	r2, #0
 8000738:	63da      	str	r2, [r3, #60]	; 0x3c
  hspi1.Init.TxCRCInitializationPattern = SPI_CRC_INITIALIZATION_ALL_ZERO_PATTERN;
 800073a:	4b0f      	ldr	r3, [pc, #60]	; (8000778 <MX_SPI1_Init+0x98>)
 800073c:	2200      	movs	r2, #0
 800073e:	641a      	str	r2, [r3, #64]	; 0x40
  hspi1.Init.RxCRCInitializationPattern = SPI_CRC_INITIALIZATION_ALL_ZERO_PATTERN;
 8000740:	4b0d      	ldr	r3, [pc, #52]	; (8000778 <MX_SPI1_Init+0x98>)
 8000742:	2200      	movs	r2, #0
 8000744:	645a      	str	r2, [r3, #68]	; 0x44
  hspi1.Init.MasterSSIdleness = SPI_MASTER_SS_IDLENESS_00CYCLE;
 8000746:	4b0c      	ldr	r3, [pc, #48]	; (8000778 <MX_SPI1_Init+0x98>)
 8000748:	2200      	movs	r2, #0
 800074a:	649a      	str	r2, [r3, #72]	; 0x48
  hspi1.Init.MasterInterDataIdleness = SPI_MASTER_INTERDATA_IDLENESS_00CYCLE;
 800074c:	4b0a      	ldr	r3, [pc, #40]	; (8000778 <MX_SPI1_Init+0x98>)
 800074e:	2200      	movs	r2, #0
 8000750:	64da      	str	r2, [r3, #76]	; 0x4c
  hspi1.Init.MasterReceiverAutoSusp = SPI_MASTER_RX_AUTOSUSP_DISABLE;
 8000752:	4b09      	ldr	r3, [pc, #36]	; (8000778 <MX_SPI1_Init+0x98>)
 8000754:	2200      	movs	r2, #0
 8000756:	651a      	str	r2, [r3, #80]	; 0x50
  hspi1.Init.MasterKeepIOState = SPI_MASTER_KEEP_IO_STATE_DISABLE;
 8000758:	4b07      	ldr	r3, [pc, #28]	; (8000778 <MX_SPI1_Init+0x98>)
 800075a:	2200      	movs	r2, #0
 800075c:	655a      	str	r2, [r3, #84]	; 0x54
  hspi1.Init.IOSwap = SPI_IO_SWAP_DISABLE;
 800075e:	4b06      	ldr	r3, [pc, #24]	; (8000778 <MX_SPI1_Init+0x98>)
 8000760:	2200      	movs	r2, #0
 8000762:	659a      	str	r2, [r3, #88]	; 0x58
  if (HAL_SPI_Init(&hspi1) != HAL_OK)
 8000764:	4804      	ldr	r0, [pc, #16]	; (8000778 <MX_SPI1_Init+0x98>)
 8000766:	f004 fe75 	bl	8005454 <HAL_SPI_Init>
 800076a:	4603      	mov	r3, r0
 800076c:	2b00      	cmp	r3, #0
 800076e:	d001      	beq.n	8000774 <MX_SPI1_Init+0x94>
  {
    Error_Handler();
 8000770:	f000 f916 	bl	80009a0 <Error_Handler>
  }
  /* USER CODE BEGIN SPI1_Init 2 */

  /* USER CODE END SPI1_Init 2 */

}
 8000774:	bf00      	nop
 8000776:	bd80      	pop	{r7, pc}
 8000778:	2400002c 	.word	0x2400002c
 800077c:	40013000 	.word	0x40013000

08000780 <MX_TIM15_Init>:
  * @brief TIM15 Initialization Function
  * @param None
  * @retval None
  */
static void MX_TIM15_Init(void)
{
 8000780:	b580      	push	{r7, lr}
 8000782:	b088      	sub	sp, #32
 8000784:	af00      	add	r7, sp, #0

  /* USER CODE BEGIN TIM15_Init 0 */

  /* USER CODE END TIM15_Init 0 */

  TIM_ClockConfigTypeDef sClockSourceConfig = {0};
 8000786:	f107 0310 	add.w	r3, r7, #16
 800078a:	2200      	movs	r2, #0
 800078c:	601a      	str	r2, [r3, #0]
 800078e:	605a      	str	r2, [r3, #4]
 8000790:	609a      	str	r2, [r3, #8]
 8000792:	60da      	str	r2, [r3, #12]
  TIM_MasterConfigTypeDef sMasterConfig = {0};
 8000794:	1d3b      	adds	r3, r7, #4
 8000796:	2200      	movs	r2, #0
 8000798:	601a      	str	r2, [r3, #0]
 800079a:	605a      	str	r2, [r3, #4]
 800079c:	609a      	str	r2, [r3, #8]

  /* USER CODE BEGIN TIM15_Init 1 */

  /* USER CODE END TIM15_Init 1 */
  htim15.Instance = TIM15;
 800079e:	4b1f      	ldr	r3, [pc, #124]	; (800081c <MX_TIM15_Init+0x9c>)
 80007a0:	4a1f      	ldr	r2, [pc, #124]	; (8000820 <MX_TIM15_Init+0xa0>)
 80007a2:	601a      	str	r2, [r3, #0]
  htim15.Init.Prescaler = 100-1;
 80007a4:	4b1d      	ldr	r3, [pc, #116]	; (800081c <MX_TIM15_Init+0x9c>)
 80007a6:	2263      	movs	r2, #99	; 0x63
 80007a8:	605a      	str	r2, [r3, #4]
  htim15.Init.CounterMode = TIM_COUNTERMODE_UP;
 80007aa:	4b1c      	ldr	r3, [pc, #112]	; (800081c <MX_TIM15_Init+0x9c>)
 80007ac:	2200      	movs	r2, #0
 80007ae:	609a      	str	r2, [r3, #8]
  htim15.Init.Period = 24000-1;
 80007b0:	4b1a      	ldr	r3, [pc, #104]	; (800081c <MX_TIM15_Init+0x9c>)
 80007b2:	f645 52bf 	movw	r2, #23999	; 0x5dbf
 80007b6:	60da      	str	r2, [r3, #12]
  htim15.Init.ClockDivision = TIM_CLOCKDIVISION_DIV1;
 80007b8:	4b18      	ldr	r3, [pc, #96]	; (800081c <MX_TIM15_Init+0x9c>)
 80007ba:	2200      	movs	r2, #0
 80007bc:	611a      	str	r2, [r3, #16]
  htim15.Init.RepetitionCounter = 0;
 80007be:	4b17      	ldr	r3, [pc, #92]	; (800081c <MX_TIM15_Init+0x9c>)
 80007c0:	2200      	movs	r2, #0
 80007c2:	615a      	str	r2, [r3, #20]
  htim15.Init.AutoReloadPreload = TIM_AUTORELOAD_PRELOAD_DISABLE;
 80007c4:	4b15      	ldr	r3, [pc, #84]	; (800081c <MX_TIM15_Init+0x9c>)
 80007c6:	2200      	movs	r2, #0
 80007c8:	619a      	str	r2, [r3, #24]
  if (HAL_TIM_Base_Init(&htim15) != HAL_OK)
 80007ca:	4814      	ldr	r0, [pc, #80]	; (800081c <MX_TIM15_Init+0x9c>)
 80007cc:	f005 fa11 	bl	8005bf2 <HAL_TIM_Base_Init>
 80007d0:	4603      	mov	r3, r0
 80007d2:	2b00      	cmp	r3, #0
 80007d4:	d001      	beq.n	80007da <MX_TIM15_Init+0x5a>
  {
    Error_Handler();
 80007d6:	f000 f8e3 	bl	80009a0 <Error_Handler>
  }
  sClockSourceConfig.ClockSource = TIM_CLOCKSOURCE_INTERNAL;
 80007da:	f44f 5380 	mov.w	r3, #4096	; 0x1000
 80007de:	613b      	str	r3, [r7, #16]
  if (HAL_TIM_ConfigClockSource(&htim15, &sClockSourceConfig) != HAL_OK)
 80007e0:	f107 0310 	add.w	r3, r7, #16
 80007e4:	4619      	mov	r1, r3
 80007e6:	480d      	ldr	r0, [pc, #52]	; (800081c <MX_TIM15_Init+0x9c>)
 80007e8:	f005 fbf2 	bl	8005fd0 <HAL_TIM_ConfigClockSource>
 80007ec:	4603      	mov	r3, r0
 80007ee:	2b00      	cmp	r3, #0
 80007f0:	d001      	beq.n	80007f6 <MX_TIM15_Init+0x76>
  {
    Error_Handler();
 80007f2:	f000 f8d5 	bl	80009a0 <Error_Handler>
  }
  sMasterConfig.MasterOutputTrigger = TIM_TRGO_RESET;
 80007f6:	2300      	movs	r3, #0
 80007f8:	607b      	str	r3, [r7, #4]
  sMasterConfig.MasterSlaveMode = TIM_MASTERSLAVEMODE_DISABLE;
 80007fa:	2300      	movs	r3, #0
 80007fc:	60fb      	str	r3, [r7, #12]
  if (HAL_TIMEx_MasterConfigSynchronization(&htim15, &sMasterConfig) != HAL_OK)
 80007fe:	1d3b      	adds	r3, r7, #4
 8000800:	4619      	mov	r1, r3
 8000802:	4806      	ldr	r0, [pc, #24]	; (800081c <MX_TIM15_Init+0x9c>)
 8000804:	f005 fe3c 	bl	8006480 <HAL_TIMEx_MasterConfigSynchronization>
 8000808:	4603      	mov	r3, r0
 800080a:	2b00      	cmp	r3, #0
 800080c:	d001      	beq.n	8000812 <MX_TIM15_Init+0x92>
  {
    Error_Handler();
 800080e:	f000 f8c7 	bl	80009a0 <Error_Handler>
  }
  /* USER CODE BEGIN TIM15_Init 2 */

  /* USER CODE END TIM15_Init 2 */

}
 8000812:	bf00      	nop
 8000814:	3720      	adds	r7, #32
 8000816:	46bd      	mov	sp, r7
 8000818:	bd80      	pop	{r7, pc}
 800081a:	bf00      	nop
 800081c:	240001a4 	.word	0x240001a4
 8000820:	40014000 	.word	0x40014000

08000824 <MX_DMA_Init>:

/**
  * Enable DMA controller clock
  */
static void MX_DMA_Init(void)
{
 8000824:	b580      	push	{r7, lr}
 8000826:	b082      	sub	sp, #8
 8000828:	af00      	add	r7, sp, #0

  /* DMA controller clock enable */
  __HAL_RCC_DMA1_CLK_ENABLE();
 800082a:	4b11      	ldr	r3, [pc, #68]	; (8000870 <MX_DMA_Init+0x4c>)
 800082c:	f8d3 30d8 	ldr.w	r3, [r3, #216]	; 0xd8
 8000830:	4a0f      	ldr	r2, [pc, #60]	; (8000870 <MX_DMA_Init+0x4c>)
 8000832:	f043 0301 	orr.w	r3, r3, #1
 8000836:	f8c2 30d8 	str.w	r3, [r2, #216]	; 0xd8
 800083a:	4b0d      	ldr	r3, [pc, #52]	; (8000870 <MX_DMA_Init+0x4c>)
 800083c:	f8d3 30d8 	ldr.w	r3, [r3, #216]	; 0xd8
 8000840:	f003 0301 	and.w	r3, r3, #1
 8000844:	607b      	str	r3, [r7, #4]
 8000846:	687b      	ldr	r3, [r7, #4]

  /* DMA interrupt init */
  /* DMA1_Stream0_IRQn interrupt configuration */
  HAL_NVIC_SetPriority(DMA1_Stream0_IRQn, 0, 0);
 8000848:	2200      	movs	r2, #0
 800084a:	2100      	movs	r1, #0
 800084c:	200b      	movs	r0, #11
 800084e:	f000 fbca 	bl	8000fe6 <HAL_NVIC_SetPriority>
  HAL_NVIC_EnableIRQ(DMA1_Stream0_IRQn);
 8000852:	200b      	movs	r0, #11
 8000854:	f000 fbe1 	bl	800101a <HAL_NVIC_EnableIRQ>
  /* DMA1_Stream1_IRQn interrupt configuration */
  HAL_NVIC_SetPriority(DMA1_Stream1_IRQn, 0, 0);
 8000858:	2200      	movs	r2, #0
 800085a:	2100      	movs	r1, #0
 800085c:	200c      	movs	r0, #12
 800085e:	f000 fbc2 	bl	8000fe6 <HAL_NVIC_SetPriority>
  HAL_NVIC_EnableIRQ(DMA1_Stream1_IRQn);
 8000862:	200c      	movs	r0, #12
 8000864:	f000 fbd9 	bl	800101a <HAL_NVIC_EnableIRQ>

}
 8000868:	bf00      	nop
 800086a:	3708      	adds	r7, #8
 800086c:	46bd      	mov	sp, r7
 800086e:	bd80      	pop	{r7, pc}
 8000870:	58024400 	.word	0x58024400

08000874 <MX_GPIO_Init>:
  * @brief GPIO Initialization Function
  * @param None
  * @retval None
  */
static void MX_GPIO_Init(void)
{
 8000874:	b580      	push	{r7, lr}
 8000876:	b08a      	sub	sp, #40	; 0x28
 8000878:	af00      	add	r7, sp, #0
  GPIO_InitTypeDef GPIO_InitStruct = {0};
 800087a:	f107 0314 	add.w	r3, r7, #20
 800087e:	2200      	movs	r2, #0
 8000880:	601a      	str	r2, [r3, #0]
 8000882:	605a      	str	r2, [r3, #4]
 8000884:	609a      	str	r2, [r3, #8]
 8000886:	60da      	str	r2, [r3, #12]
 8000888:	611a      	str	r2, [r3, #16]

  /* GPIO Ports Clock Enable */
  __HAL_RCC_GPIOH_CLK_ENABLE();
 800088a:	4b2a      	ldr	r3, [pc, #168]	; (8000934 <MX_GPIO_Init+0xc0>)
 800088c:	f8d3 30e0 	ldr.w	r3, [r3, #224]	; 0xe0
 8000890:	4a28      	ldr	r2, [pc, #160]	; (8000934 <MX_GPIO_Init+0xc0>)
 8000892:	f043 0380 	orr.w	r3, r3, #128	; 0x80
 8000896:	f8c2 30e0 	str.w	r3, [r2, #224]	; 0xe0
 800089a:	4b26      	ldr	r3, [pc, #152]	; (8000934 <MX_GPIO_Init+0xc0>)
 800089c:	f8d3 30e0 	ldr.w	r3, [r3, #224]	; 0xe0
 80008a0:	f003 0380 	and.w	r3, r3, #128	; 0x80
 80008a4:	613b      	str	r3, [r7, #16]
 80008a6:	693b      	ldr	r3, [r7, #16]
  __HAL_RCC_GPIOA_CLK_ENABLE();
 80008a8:	4b22      	ldr	r3, [pc, #136]	; (8000934 <MX_GPIO_Init+0xc0>)
 80008aa:	f8d3 30e0 	ldr.w	r3, [r3, #224]	; 0xe0
 80008ae:	4a21      	ldr	r2, [pc, #132]	; (8000934 <MX_GPIO_Init+0xc0>)
 80008b0:	f043 0301 	orr.w	r3, r3, #1
 80008b4:	f8c2 30e0 	str.w	r3, [r2, #224]	; 0xe0
 80008b8:	4b1e      	ldr	r3, [pc, #120]	; (8000934 <MX_GPIO_Init+0xc0>)
 80008ba:	f8d3 30e0 	ldr.w	r3, [r3, #224]	; 0xe0
 80008be:	f003 0301 	and.w	r3, r3, #1
 80008c2:	60fb      	str	r3, [r7, #12]
 80008c4:	68fb      	ldr	r3, [r7, #12]
  __HAL_RCC_GPIOC_CLK_ENABLE();
 80008c6:	4b1b      	ldr	r3, [pc, #108]	; (8000934 <MX_GPIO_Init+0xc0>)
 80008c8:	f8d3 30e0 	ldr.w	r3, [r3, #224]	; 0xe0
 80008cc:	4a19      	ldr	r2, [pc, #100]	; (8000934 <MX_GPIO_Init+0xc0>)
 80008ce:	f043 0304 	orr.w	r3, r3, #4
 80008d2:	f8c2 30e0 	str.w	r3, [r2, #224]	; 0xe0
 80008d6:	4b17      	ldr	r3, [pc, #92]	; (8000934 <MX_GPIO_Init+0xc0>)
 80008d8:	f8d3 30e0 	ldr.w	r3, [r3, #224]	; 0xe0
 80008dc:	f003 0304 	and.w	r3, r3, #4
 80008e0:	60bb      	str	r3, [r7, #8]
 80008e2:	68bb      	ldr	r3, [r7, #8]
  __HAL_RCC_GPIOD_CLK_ENABLE();
 80008e4:	4b13      	ldr	r3, [pc, #76]	; (8000934 <MX_GPIO_Init+0xc0>)
 80008e6:	f8d3 30e0 	ldr.w	r3, [r3, #224]	; 0xe0
 80008ea:	4a12      	ldr	r2, [pc, #72]	; (8000934 <MX_GPIO_Init+0xc0>)
 80008ec:	f043 0308 	orr.w	r3, r3, #8
 80008f0:	f8c2 30e0 	str.w	r3, [r2, #224]	; 0xe0
 80008f4:	4b0f      	ldr	r3, [pc, #60]	; (8000934 <MX_GPIO_Init+0xc0>)
 80008f6:	f8d3 30e0 	ldr.w	r3, [r3, #224]	; 0xe0
 80008fa:	f003 0308 	and.w	r3, r3, #8
 80008fe:	607b      	str	r3, [r7, #4]
 8000900:	687b      	ldr	r3, [r7, #4]

  /*Configure GPIO pin Output Level */
  HAL_GPIO_WritePin(GPIOC, GPIO_PIN_8, GPIO_PIN_SET);
 8000902:	2201      	movs	r2, #1
 8000904:	f44f 7180 	mov.w	r1, #256	; 0x100
 8000908:	480b      	ldr	r0, [pc, #44]	; (8000938 <MX_GPIO_Init+0xc4>)
 800090a:	f002 fcd5 	bl	80032b8 <HAL_GPIO_WritePin>

  /*Configure GPIO pin : PC8 */
  GPIO_InitStruct.Pin = GPIO_PIN_8;
 800090e:	f44f 7380 	mov.w	r3, #256	; 0x100
 8000912:	617b      	str	r3, [r7, #20]
  GPIO_InitStruct.Mode = GPIO_MODE_OUTPUT_PP;
 8000914:	2301      	movs	r3, #1
 8000916:	61bb      	str	r3, [r7, #24]
  GPIO_InitStruct.Pull = GPIO_PULLDOWN;
 8000918:	2302      	movs	r3, #2
 800091a:	61fb      	str	r3, [r7, #28]
  GPIO_InitStruct.Speed = GPIO_SPEED_FREQ_VERY_HIGH;
 800091c:	2303      	movs	r3, #3
 800091e:	623b      	str	r3, [r7, #32]
  HAL_GPIO_Init(GPIOC, &GPIO_InitStruct);
 8000920:	f107 0314 	add.w	r3, r7, #20
 8000924:	4619      	mov	r1, r3
 8000926:	4804      	ldr	r0, [pc, #16]	; (8000938 <MX_GPIO_Init+0xc4>)
 8000928:	f002 fb16 	bl	8002f58 <HAL_GPIO_Init>

}
 800092c:	bf00      	nop
 800092e:	3728      	adds	r7, #40	; 0x28
 8000930:	46bd      	mov	sp, r7
 8000932:	bd80      	pop	{r7, pc}
 8000934:	58024400 	.word	0x58024400
 8000938:	58020800 	.word	0x58020800

0800093c <HAL_TIM_PeriodElapsedCallback>:

/* USER CODE BEGIN 4 */

void HAL_TIM_PeriodElapsedCallback(TIM_HandleTypeDef *htim)
{
 800093c:	b480      	push	{r7}
 800093e:	b083      	sub	sp, #12
 8000940:	af00      	add	r7, sp, #0
 8000942:	6078      	str	r0, [r7, #4]
	}
	j=0;
	i++;
	HAL_GPIO_WritePin(GPIOC,GPIO_PIN_8,SET);
*/
}
 8000944:	bf00      	nop
 8000946:	370c      	adds	r7, #12
 8000948:	46bd      	mov	sp, r7
 800094a:	f85d 7b04 	ldr.w	r7, [sp], #4
 800094e:	4770      	bx	lr

08000950 <MPU_Config>:


static void MPU_Config(void)
{
 8000950:	b580      	push	{r7, lr}
 8000952:	b084      	sub	sp, #16
 8000954:	af00      	add	r7, sp, #0
  MPU_Region_InitTypeDef MPU_InitStruct;

  /* Disable the MPU */
  HAL_MPU_Disable();
 8000956:	f000 fb7b 	bl	8001050 <HAL_MPU_Disable>

  MPU_InitStruct.Enable = MPU_REGION_ENABLE;
 800095a:	2301      	movs	r3, #1
 800095c:	703b      	strb	r3, [r7, #0]
  MPU_InitStruct.Number = MPU_REGION_NUMBER1;
 800095e:	2301      	movs	r3, #1
 8000960:	707b      	strb	r3, [r7, #1]
  MPU_InitStruct.BaseAddress = 0x24030000;
 8000962:	4b0e      	ldr	r3, [pc, #56]	; (800099c <MPU_Config+0x4c>)
 8000964:	607b      	str	r3, [r7, #4]
  MPU_InitStruct.Size = MPU_REGION_SIZE_32KB;
 8000966:	230e      	movs	r3, #14
 8000968:	723b      	strb	r3, [r7, #8]
  MPU_InitStruct.SubRegionDisable = 0x0;
 800096a:	2300      	movs	r3, #0
 800096c:	727b      	strb	r3, [r7, #9]
  MPU_InitStruct.TypeExtField = MPU_TEX_LEVEL0;
 800096e:	2300      	movs	r3, #0
 8000970:	72bb      	strb	r3, [r7, #10]
  MPU_InitStruct.AccessPermission = MPU_REGION_FULL_ACCESS;
 8000972:	2303      	movs	r3, #3
 8000974:	72fb      	strb	r3, [r7, #11]
  MPU_InitStruct.DisableExec = MPU_INSTRUCTION_ACCESS_ENABLE;
 8000976:	2300      	movs	r3, #0
 8000978:	733b      	strb	r3, [r7, #12]
  MPU_InitStruct.IsShareable = MPU_ACCESS_SHAREABLE;
 800097a:	2301      	movs	r3, #1
 800097c:	737b      	strb	r3, [r7, #13]
  MPU_InitStruct.IsCacheable = MPU_ACCESS_NOT_CACHEABLE;
 800097e:	2300      	movs	r3, #0
 8000980:	73bb      	strb	r3, [r7, #14]
  MPU_InitStruct.IsBufferable = MPU_ACCESS_NOT_BUFFERABLE;
 8000982:	2300      	movs	r3, #0
 8000984:	73fb      	strb	r3, [r7, #15]

  HAL_MPU_ConfigRegion(&MPU_InitStruct);
 8000986:	463b      	mov	r3, r7
 8000988:	4618      	mov	r0, r3
 800098a:	f000 fb99 	bl	80010c0 <HAL_MPU_ConfigRegion>

  /* Enable the MPU */
  HAL_MPU_Enable(MPU_PRIVILEGED_DEFAULT);
 800098e:	2004      	movs	r0, #4
 8000990:	f000 fb76 	bl	8001080 <HAL_MPU_Enable>
}
 8000994:	bf00      	nop
 8000996:	3710      	adds	r7, #16
 8000998:	46bd      	mov	sp, r7
 800099a:	bd80      	pop	{r7, pc}
 800099c:	24030000 	.word	0x24030000

080009a0 <Error_Handler>:
/**
  * @brief  This function is executed in case of error occurrence.
  * @retval None
  */
void Error_Handler(void)
{
 80009a0:	b480      	push	{r7}
 80009a2:	af00      	add	r7, sp, #0
  __ASM volatile ("cpsid i" : : : "memory");
 80009a4:	b672      	cpsid	i
}
 80009a6:	bf00      	nop
  /* USER CODE BEGIN Error_Handler_Debug */
  /* User can add his own implementation to report the HAL error return state */
  __disable_irq();
  while (1)
 80009a8:	e7fe      	b.n	80009a8 <Error_Handler+0x8>
	...

080009ac <HAL_MspInit>:
/* USER CODE END 0 */
/**
  * Initializes the Global MSP.
  */
void HAL_MspInit(void)
{
 80009ac:	b580      	push	{r7, lr}
 80009ae:	b082      	sub	sp, #8
 80009b0:	af00      	add	r7, sp, #0
  /* USER CODE BEGIN MspInit 0 */

  /* USER CODE END MspInit 0 */

  __HAL_RCC_SYSCFG_CLK_ENABLE();
 80009b2:	4b0d      	ldr	r3, [pc, #52]	; (80009e8 <HAL_MspInit+0x3c>)
 80009b4:	f8d3 30f4 	ldr.w	r3, [r3, #244]	; 0xf4
 80009b8:	4a0b      	ldr	r2, [pc, #44]	; (80009e8 <HAL_MspInit+0x3c>)
 80009ba:	f043 0302 	orr.w	r3, r3, #2
 80009be:	f8c2 30f4 	str.w	r3, [r2, #244]	; 0xf4
 80009c2:	4b09      	ldr	r3, [pc, #36]	; (80009e8 <HAL_MspInit+0x3c>)
 80009c4:	f8d3 30f4 	ldr.w	r3, [r3, #244]	; 0xf4
 80009c8:	f003 0302 	and.w	r3, r3, #2
 80009cc:	607b      	str	r3, [r7, #4]
 80009ce:	687b      	ldr	r3, [r7, #4]

  /* System interrupt init*/

  /* Peripheral interrupt init */
  /* HSEM1_IRQn interrupt configuration */
  HAL_NVIC_SetPriority(HSEM1_IRQn, 0, 0);
 80009d0:	2200      	movs	r2, #0
 80009d2:	2100      	movs	r1, #0
 80009d4:	207d      	movs	r0, #125	; 0x7d
 80009d6:	f000 fb06 	bl	8000fe6 <HAL_NVIC_SetPriority>
  /* HSEM1_IRQn interrupt configuration */
  HAL_NVIC_EnableIRQ(HSEM1_IRQn);
 80009da:	207d      	movs	r0, #125	; 0x7d
 80009dc:	f000 fb1d 	bl	800101a <HAL_NVIC_EnableIRQ>

  /* USER CODE BEGIN MspInit 1 */

  /* USER CODE END MspInit 1 */
}
 80009e0:	bf00      	nop
 80009e2:	3708      	adds	r7, #8
 80009e4:	46bd      	mov	sp, r7
 80009e6:	bd80      	pop	{r7, pc}
 80009e8:	58024400 	.word	0x58024400

080009ec <HAL_SPI_MspInit>:
* This function configures the hardware resources used in this example
* @param hspi: SPI handle pointer
* @retval None
*/
void HAL_SPI_MspInit(SPI_HandleTypeDef* hspi)
{
 80009ec:	b580      	push	{r7, lr}
 80009ee:	b08a      	sub	sp, #40	; 0x28
 80009f0:	af00      	add	r7, sp, #0
 80009f2:	6078      	str	r0, [r7, #4]
  GPIO_InitTypeDef GPIO_InitStruct = {0};
 80009f4:	f107 0314 	add.w	r3, r7, #20
 80009f8:	2200      	movs	r2, #0
 80009fa:	601a      	str	r2, [r3, #0]
 80009fc:	605a      	str	r2, [r3, #4]
 80009fe:	609a      	str	r2, [r3, #8]
 8000a00:	60da      	str	r2, [r3, #12]
 8000a02:	611a      	str	r2, [r3, #16]
  if(hspi->Instance==SPI1)
 8000a04:	687b      	ldr	r3, [r7, #4]
 8000a06:	681b      	ldr	r3, [r3, #0]
 8000a08:	4a5d      	ldr	r2, [pc, #372]	; (8000b80 <HAL_SPI_MspInit+0x194>)
 8000a0a:	4293      	cmp	r3, r2
 8000a0c:	f040 80b3 	bne.w	8000b76 <HAL_SPI_MspInit+0x18a>
  {
  /* USER CODE BEGIN SPI1_MspInit 0 */

  /* USER CODE END SPI1_MspInit 0 */
    /* Peripheral clock enable */
    __HAL_RCC_SPI1_CLK_ENABLE();
 8000a10:	4b5c      	ldr	r3, [pc, #368]	; (8000b84 <HAL_SPI_MspInit+0x198>)
 8000a12:	f8d3 30f0 	ldr.w	r3, [r3, #240]	; 0xf0
 8000a16:	4a5b      	ldr	r2, [pc, #364]	; (8000b84 <HAL_SPI_MspInit+0x198>)
 8000a18:	f443 5380 	orr.w	r3, r3, #4096	; 0x1000
 8000a1c:	f8c2 30f0 	str.w	r3, [r2, #240]	; 0xf0
 8000a20:	4b58      	ldr	r3, [pc, #352]	; (8000b84 <HAL_SPI_MspInit+0x198>)
 8000a22:	f8d3 30f0 	ldr.w	r3, [r3, #240]	; 0xf0
 8000a26:	f403 5380 	and.w	r3, r3, #4096	; 0x1000
 8000a2a:	613b      	str	r3, [r7, #16]
 8000a2c:	693b      	ldr	r3, [r7, #16]

    __HAL_RCC_GPIOA_CLK_ENABLE();
 8000a2e:	4b55      	ldr	r3, [pc, #340]	; (8000b84 <HAL_SPI_MspInit+0x198>)
 8000a30:	f8d3 30e0 	ldr.w	r3, [r3, #224]	; 0xe0
 8000a34:	4a53      	ldr	r2, [pc, #332]	; (8000b84 <HAL_SPI_MspInit+0x198>)
 8000a36:	f043 0301 	orr.w	r3, r3, #1
 8000a3a:	f8c2 30e0 	str.w	r3, [r2, #224]	; 0xe0
 8000a3e:	4b51      	ldr	r3, [pc, #324]	; (8000b84 <HAL_SPI_MspInit+0x198>)
 8000a40:	f8d3 30e0 	ldr.w	r3, [r3, #224]	; 0xe0
 8000a44:	f003 0301 	and.w	r3, r3, #1
 8000a48:	60fb      	str	r3, [r7, #12]
 8000a4a:	68fb      	ldr	r3, [r7, #12]
    __HAL_RCC_GPIOD_CLK_ENABLE();
 8000a4c:	4b4d      	ldr	r3, [pc, #308]	; (8000b84 <HAL_SPI_MspInit+0x198>)
 8000a4e:	f8d3 30e0 	ldr.w	r3, [r3, #224]	; 0xe0
 8000a52:	4a4c      	ldr	r2, [pc, #304]	; (8000b84 <HAL_SPI_MspInit+0x198>)
 8000a54:	f043 0308 	orr.w	r3, r3, #8
 8000a58:	f8c2 30e0 	str.w	r3, [r2, #224]	; 0xe0
 8000a5c:	4b49      	ldr	r3, [pc, #292]	; (8000b84 <HAL_SPI_MspInit+0x198>)
 8000a5e:	f8d3 30e0 	ldr.w	r3, [r3, #224]	; 0xe0
 8000a62:	f003 0308 	and.w	r3, r3, #8
 8000a66:	60bb      	str	r3, [r7, #8]
 8000a68:	68bb      	ldr	r3, [r7, #8]
    /**SPI1 GPIO Configuration
    PA5     ------> SPI1_SCK
    PA6     ------> SPI1_MISO
    PD7     ------> SPI1_MOSI
    */
    GPIO_InitStruct.Pin = GPIO_PIN_5|GPIO_PIN_6;
 8000a6a:	2360      	movs	r3, #96	; 0x60
 8000a6c:	617b      	str	r3, [r7, #20]
    GPIO_InitStruct.Mode = GPIO_MODE_AF_PP;
 8000a6e:	2302      	movs	r3, #2
 8000a70:	61bb      	str	r3, [r7, #24]
    GPIO_InitStruct.Pull = GPIO_NOPULL;
 8000a72:	2300      	movs	r3, #0
 8000a74:	61fb      	str	r3, [r7, #28]
    GPIO_InitStruct.Speed = GPIO_SPEED_FREQ_LOW;
 8000a76:	2300      	movs	r3, #0
 8000a78:	623b      	str	r3, [r7, #32]
    GPIO_InitStruct.Alternate = GPIO_AF5_SPI1;
 8000a7a:	2305      	movs	r3, #5
 8000a7c:	627b      	str	r3, [r7, #36]	; 0x24
    HAL_GPIO_Init(GPIOA, &GPIO_InitStruct);
 8000a7e:	f107 0314 	add.w	r3, r7, #20
 8000a82:	4619      	mov	r1, r3
 8000a84:	4840      	ldr	r0, [pc, #256]	; (8000b88 <HAL_SPI_MspInit+0x19c>)
 8000a86:	f002 fa67 	bl	8002f58 <HAL_GPIO_Init>

    GPIO_InitStruct.Pin = GPIO_PIN_7;
 8000a8a:	2380      	movs	r3, #128	; 0x80
 8000a8c:	617b      	str	r3, [r7, #20]
    GPIO_InitStruct.Mode = GPIO_MODE_AF_PP;
 8000a8e:	2302      	movs	r3, #2
 8000a90:	61bb      	str	r3, [r7, #24]
    GPIO_InitStruct.Pull = GPIO_NOPULL;
 8000a92:	2300      	movs	r3, #0
 8000a94:	61fb      	str	r3, [r7, #28]
    GPIO_InitStruct.Speed = GPIO_SPEED_FREQ_LOW;
 8000a96:	2300      	movs	r3, #0
 8000a98:	623b      	str	r3, [r7, #32]
    GPIO_InitStruct.Alternate = GPIO_AF5_SPI1;
 8000a9a:	2305      	movs	r3, #5
 8000a9c:	627b      	str	r3, [r7, #36]	; 0x24
    HAL_GPIO_Init(GPIOD, &GPIO_InitStruct);
 8000a9e:	f107 0314 	add.w	r3, r7, #20
 8000aa2:	4619      	mov	r1, r3
 8000aa4:	4839      	ldr	r0, [pc, #228]	; (8000b8c <HAL_SPI_MspInit+0x1a0>)
 8000aa6:	f002 fa57 	bl	8002f58 <HAL_GPIO_Init>

    /* SPI1 DMA Init */
    /* SPI1_RX Init */
    hdma_spi1_rx.Instance = DMA1_Stream0;
 8000aaa:	4b39      	ldr	r3, [pc, #228]	; (8000b90 <HAL_SPI_MspInit+0x1a4>)
 8000aac:	4a39      	ldr	r2, [pc, #228]	; (8000b94 <HAL_SPI_MspInit+0x1a8>)
 8000aae:	601a      	str	r2, [r3, #0]
    hdma_spi1_rx.Init.Request = DMA_REQUEST_SPI1_RX;
 8000ab0:	4b37      	ldr	r3, [pc, #220]	; (8000b90 <HAL_SPI_MspInit+0x1a4>)
 8000ab2:	2225      	movs	r2, #37	; 0x25
 8000ab4:	605a      	str	r2, [r3, #4]
    hdma_spi1_rx.Init.Direction = DMA_PERIPH_TO_MEMORY;
 8000ab6:	4b36      	ldr	r3, [pc, #216]	; (8000b90 <HAL_SPI_MspInit+0x1a4>)
 8000ab8:	2200      	movs	r2, #0
 8000aba:	609a      	str	r2, [r3, #8]
    hdma_spi1_rx.Init.PeriphInc = DMA_PINC_DISABLE;
 8000abc:	4b34      	ldr	r3, [pc, #208]	; (8000b90 <HAL_SPI_MspInit+0x1a4>)
 8000abe:	2200      	movs	r2, #0
 8000ac0:	60da      	str	r2, [r3, #12]
    hdma_spi1_rx.Init.MemInc = DMA_MINC_ENABLE;
 8000ac2:	4b33      	ldr	r3, [pc, #204]	; (8000b90 <HAL_SPI_MspInit+0x1a4>)
 8000ac4:	f44f 6280 	mov.w	r2, #1024	; 0x400
 8000ac8:	611a      	str	r2, [r3, #16]
    hdma_spi1_rx.Init.PeriphDataAlignment = DMA_PDATAALIGN_BYTE;
 8000aca:	4b31      	ldr	r3, [pc, #196]	; (8000b90 <HAL_SPI_MspInit+0x1a4>)
 8000acc:	2200      	movs	r2, #0
 8000ace:	615a      	str	r2, [r3, #20]
    hdma_spi1_rx.Init.MemDataAlignment = DMA_MDATAALIGN_BYTE;
 8000ad0:	4b2f      	ldr	r3, [pc, #188]	; (8000b90 <HAL_SPI_MspInit+0x1a4>)
 8000ad2:	2200      	movs	r2, #0
 8000ad4:	619a      	str	r2, [r3, #24]
    hdma_spi1_rx.Init.Mode = DMA_CIRCULAR;
 8000ad6:	4b2e      	ldr	r3, [pc, #184]	; (8000b90 <HAL_SPI_MspInit+0x1a4>)
 8000ad8:	f44f 7280 	mov.w	r2, #256	; 0x100
 8000adc:	61da      	str	r2, [r3, #28]
    hdma_spi1_rx.Init.Priority = DMA_PRIORITY_VERY_HIGH;
 8000ade:	4b2c      	ldr	r3, [pc, #176]	; (8000b90 <HAL_SPI_MspInit+0x1a4>)
 8000ae0:	f44f 3240 	mov.w	r2, #196608	; 0x30000
 8000ae4:	621a      	str	r2, [r3, #32]
    hdma_spi1_rx.Init.FIFOMode = DMA_FIFOMODE_DISABLE;
 8000ae6:	4b2a      	ldr	r3, [pc, #168]	; (8000b90 <HAL_SPI_MspInit+0x1a4>)
 8000ae8:	2200      	movs	r2, #0
 8000aea:	625a      	str	r2, [r3, #36]	; 0x24
    if (HAL_DMA_Init(&hdma_spi1_rx) != HAL_OK)
 8000aec:	4828      	ldr	r0, [pc, #160]	; (8000b90 <HAL_SPI_MspInit+0x1a4>)
 8000aee:	f000 fb2b 	bl	8001148 <HAL_DMA_Init>
 8000af2:	4603      	mov	r3, r0
 8000af4:	2b00      	cmp	r3, #0
 8000af6:	d001      	beq.n	8000afc <HAL_SPI_MspInit+0x110>
    {
      Error_Handler();
 8000af8:	f7ff ff52 	bl	80009a0 <Error_Handler>
    }

    __HAL_LINKDMA(hspi,hdmarx,hdma_spi1_rx);
 8000afc:	687b      	ldr	r3, [r7, #4]
 8000afe:	4a24      	ldr	r2, [pc, #144]	; (8000b90 <HAL_SPI_MspInit+0x1a4>)
 8000b00:	67da      	str	r2, [r3, #124]	; 0x7c
 8000b02:	4a23      	ldr	r2, [pc, #140]	; (8000b90 <HAL_SPI_MspInit+0x1a4>)
 8000b04:	687b      	ldr	r3, [r7, #4]
 8000b06:	6393      	str	r3, [r2, #56]	; 0x38

    /* SPI1_TX Init */
    hdma_spi1_tx.Instance = DMA1_Stream1;
 8000b08:	4b23      	ldr	r3, [pc, #140]	; (8000b98 <HAL_SPI_MspInit+0x1ac>)
 8000b0a:	4a24      	ldr	r2, [pc, #144]	; (8000b9c <HAL_SPI_MspInit+0x1b0>)
 8000b0c:	601a      	str	r2, [r3, #0]
    hdma_spi1_tx.Init.Request = DMA_REQUEST_SPI1_TX;
 8000b0e:	4b22      	ldr	r3, [pc, #136]	; (8000b98 <HAL_SPI_MspInit+0x1ac>)
 8000b10:	2226      	movs	r2, #38	; 0x26
 8000b12:	605a      	str	r2, [r3, #4]
    hdma_spi1_tx.Init.Direction = DMA_MEMORY_TO_PERIPH;
 8000b14:	4b20      	ldr	r3, [pc, #128]	; (8000b98 <HAL_SPI_MspInit+0x1ac>)
 8000b16:	2240      	movs	r2, #64	; 0x40
 8000b18:	609a      	str	r2, [r3, #8]
    hdma_spi1_tx.Init.PeriphInc = DMA_PINC_DISABLE;
 8000b1a:	4b1f      	ldr	r3, [pc, #124]	; (8000b98 <HAL_SPI_MspInit+0x1ac>)
 8000b1c:	2200      	movs	r2, #0
 8000b1e:	60da      	str	r2, [r3, #12]
    hdma_spi1_tx.Init.MemInc = DMA_MINC_ENABLE;
 8000b20:	4b1d      	ldr	r3, [pc, #116]	; (8000b98 <HAL_SPI_MspInit+0x1ac>)
 8000b22:	f44f 6280 	mov.w	r2, #1024	; 0x400
 8000b26:	611a      	str	r2, [r3, #16]
    hdma_spi1_tx.Init.PeriphDataAlignment = DMA_PDATAALIGN_BYTE;
 8000b28:	4b1b      	ldr	r3, [pc, #108]	; (8000b98 <HAL_SPI_MspInit+0x1ac>)
 8000b2a:	2200      	movs	r2, #0
 8000b2c:	615a      	str	r2, [r3, #20]
    hdma_spi1_tx.Init.MemDataAlignment = DMA_MDATAALIGN_BYTE;
 8000b2e:	4b1a      	ldr	r3, [pc, #104]	; (8000b98 <HAL_SPI_MspInit+0x1ac>)
 8000b30:	2200      	movs	r2, #0
 8000b32:	619a      	str	r2, [r3, #24]
    hdma_spi1_tx.Init.Mode = DMA_CIRCULAR;
 8000b34:	4b18      	ldr	r3, [pc, #96]	; (8000b98 <HAL_SPI_MspInit+0x1ac>)
 8000b36:	f44f 7280 	mov.w	r2, #256	; 0x100
 8000b3a:	61da      	str	r2, [r3, #28]
    hdma_spi1_tx.Init.Priority = DMA_PRIORITY_VERY_HIGH;
 8000b3c:	4b16      	ldr	r3, [pc, #88]	; (8000b98 <HAL_SPI_MspInit+0x1ac>)
 8000b3e:	f44f 3240 	mov.w	r2, #196608	; 0x30000
 8000b42:	621a      	str	r2, [r3, #32]
    hdma_spi1_tx.Init.FIFOMode = DMA_FIFOMODE_DISABLE;
 8000b44:	4b14      	ldr	r3, [pc, #80]	; (8000b98 <HAL_SPI_MspInit+0x1ac>)
 8000b46:	2200      	movs	r2, #0
 8000b48:	625a      	str	r2, [r3, #36]	; 0x24
    if (HAL_DMA_Init(&hdma_spi1_tx) != HAL_OK)
 8000b4a:	4813      	ldr	r0, [pc, #76]	; (8000b98 <HAL_SPI_MspInit+0x1ac>)
 8000b4c:	f000 fafc 	bl	8001148 <HAL_DMA_Init>
 8000b50:	4603      	mov	r3, r0
 8000b52:	2b00      	cmp	r3, #0
 8000b54:	d001      	beq.n	8000b5a <HAL_SPI_MspInit+0x16e>
    {
      Error_Handler();
 8000b56:	f7ff ff23 	bl	80009a0 <Error_Handler>
    }

    __HAL_LINKDMA(hspi,hdmatx,hdma_spi1_tx);
 8000b5a:	687b      	ldr	r3, [r7, #4]
 8000b5c:	4a0e      	ldr	r2, [pc, #56]	; (8000b98 <HAL_SPI_MspInit+0x1ac>)
 8000b5e:	679a      	str	r2, [r3, #120]	; 0x78
 8000b60:	4a0d      	ldr	r2, [pc, #52]	; (8000b98 <HAL_SPI_MspInit+0x1ac>)
 8000b62:	687b      	ldr	r3, [r7, #4]
 8000b64:	6393      	str	r3, [r2, #56]	; 0x38

    /* SPI1 interrupt Init */
    HAL_NVIC_SetPriority(SPI1_IRQn, 0, 0);
 8000b66:	2200      	movs	r2, #0
 8000b68:	2100      	movs	r1, #0
 8000b6a:	2023      	movs	r0, #35	; 0x23
 8000b6c:	f000 fa3b 	bl	8000fe6 <HAL_NVIC_SetPriority>
    HAL_NVIC_EnableIRQ(SPI1_IRQn);
 8000b70:	2023      	movs	r0, #35	; 0x23
 8000b72:	f000 fa52 	bl	800101a <HAL_NVIC_EnableIRQ>
  /* USER CODE BEGIN SPI1_MspInit 1 */

  /* USER CODE END SPI1_MspInit 1 */
  }

}
 8000b76:	bf00      	nop
 8000b78:	3728      	adds	r7, #40	; 0x28
 8000b7a:	46bd      	mov	sp, r7
 8000b7c:	bd80      	pop	{r7, pc}
 8000b7e:	bf00      	nop
 8000b80:	40013000 	.word	0x40013000
 8000b84:	58024400 	.word	0x58024400
 8000b88:	58020000 	.word	0x58020000
 8000b8c:	58020c00 	.word	0x58020c00
 8000b90:	240000b4 	.word	0x240000b4
 8000b94:	40020010 	.word	0x40020010
 8000b98:	2400012c 	.word	0x2400012c
 8000b9c:	40020028 	.word	0x40020028

08000ba0 <HAL_TIM_Base_MspInit>:
* This function configures the hardware resources used in this example
* @param htim_base: TIM_Base handle pointer
* @retval None
*/
void HAL_TIM_Base_MspInit(TIM_HandleTypeDef* htim_base)
{
 8000ba0:	b580      	push	{r7, lr}
 8000ba2:	b084      	sub	sp, #16
 8000ba4:	af00      	add	r7, sp, #0
 8000ba6:	6078      	str	r0, [r7, #4]
  if(htim_base->Instance==TIM15)
 8000ba8:	687b      	ldr	r3, [r7, #4]
 8000baa:	681b      	ldr	r3, [r3, #0]
 8000bac:	4a0e      	ldr	r2, [pc, #56]	; (8000be8 <HAL_TIM_Base_MspInit+0x48>)
 8000bae:	4293      	cmp	r3, r2
 8000bb0:	d116      	bne.n	8000be0 <HAL_TIM_Base_MspInit+0x40>
  {
  /* USER CODE BEGIN TIM15_MspInit 0 */

  /* USER CODE END TIM15_MspInit 0 */
    /* Peripheral clock enable */
    __HAL_RCC_TIM15_CLK_ENABLE();
 8000bb2:	4b0e      	ldr	r3, [pc, #56]	; (8000bec <HAL_TIM_Base_MspInit+0x4c>)
 8000bb4:	f8d3 30f0 	ldr.w	r3, [r3, #240]	; 0xf0
 8000bb8:	4a0c      	ldr	r2, [pc, #48]	; (8000bec <HAL_TIM_Base_MspInit+0x4c>)
 8000bba:	f443 3380 	orr.w	r3, r3, #65536	; 0x10000
 8000bbe:	f8c2 30f0 	str.w	r3, [r2, #240]	; 0xf0
 8000bc2:	4b0a      	ldr	r3, [pc, #40]	; (8000bec <HAL_TIM_Base_MspInit+0x4c>)
 8000bc4:	f8d3 30f0 	ldr.w	r3, [r3, #240]	; 0xf0
 8000bc8:	f403 3380 	and.w	r3, r3, #65536	; 0x10000
 8000bcc:	60fb      	str	r3, [r7, #12]
 8000bce:	68fb      	ldr	r3, [r7, #12]
    /* TIM15 interrupt Init */
    HAL_NVIC_SetPriority(TIM15_IRQn, 0, 0);
 8000bd0:	2200      	movs	r2, #0
 8000bd2:	2100      	movs	r1, #0
 8000bd4:	2074      	movs	r0, #116	; 0x74
 8000bd6:	f000 fa06 	bl	8000fe6 <HAL_NVIC_SetPriority>
    HAL_NVIC_EnableIRQ(TIM15_IRQn);
 8000bda:	2074      	movs	r0, #116	; 0x74
 8000bdc:	f000 fa1d 	bl	800101a <HAL_NVIC_EnableIRQ>
  /* USER CODE BEGIN TIM15_MspInit 1 */

  /* USER CODE END TIM15_MspInit 1 */
  }

}
 8000be0:	bf00      	nop
 8000be2:	3710      	adds	r7, #16
 8000be4:	46bd      	mov	sp, r7
 8000be6:	bd80      	pop	{r7, pc}
 8000be8:	40014000 	.word	0x40014000
 8000bec:	58024400 	.word	0x58024400

08000bf0 <NMI_Handler>:
/******************************************************************************/
/**
  * @brief This function handles Non maskable interrupt.
  */
void NMI_Handler(void)
{
 8000bf0:	b480      	push	{r7}
 8000bf2:	af00      	add	r7, sp, #0
  /* USER CODE BEGIN NonMaskableInt_IRQn 0 */

  /* USER CODE END NonMaskableInt_IRQn 0 */
  /* USER CODE BEGIN NonMaskableInt_IRQn 1 */
  while (1)
 8000bf4:	e7fe      	b.n	8000bf4 <NMI_Handler+0x4>

08000bf6 <HardFault_Handler>:

/**
  * @brief This function handles Hard fault interrupt.
  */
void HardFault_Handler(void)
{
 8000bf6:	b480      	push	{r7}
 8000bf8:	af00      	add	r7, sp, #0
  /* USER CODE BEGIN HardFault_IRQn 0 */

  /* USER CODE END HardFault_IRQn 0 */
  while (1)
 8000bfa:	e7fe      	b.n	8000bfa <HardFault_Handler+0x4>

08000bfc <MemManage_Handler>:

/**
  * @brief This function handles Memory management fault.
  */
void MemManage_Handler(void)
{
 8000bfc:	b480      	push	{r7}
 8000bfe:	af00      	add	r7, sp, #0
  /* USER CODE BEGIN MemoryManagement_IRQn 0 */

  /* USER CODE END MemoryManagement_IRQn 0 */
  while (1)
 8000c00:	e7fe      	b.n	8000c00 <MemManage_Handler+0x4>

08000c02 <BusFault_Handler>:

/**
  * @brief This function handles Pre-fetch fault, memory access fault.
  */
void BusFault_Handler(void)
{
 8000c02:	b480      	push	{r7}
 8000c04:	af00      	add	r7, sp, #0
  /* USER CODE BEGIN BusFault_IRQn 0 */

  /* USER CODE END BusFault_IRQn 0 */
  while (1)
 8000c06:	e7fe      	b.n	8000c06 <BusFault_Handler+0x4>

08000c08 <UsageFault_Handler>:

/**
  * @brief This function handles Undefined instruction or illegal state.
  */
void UsageFault_Handler(void)
{
 8000c08:	b480      	push	{r7}
 8000c0a:	af00      	add	r7, sp, #0
  /* USER CODE BEGIN UsageFault_IRQn 0 */

  /* USER CODE END UsageFault_IRQn 0 */
  while (1)
 8000c0c:	e7fe      	b.n	8000c0c <UsageFault_Handler+0x4>

08000c0e <SVC_Handler>:

/**
  * @brief This function handles System service call via SWI instruction.
  */
void SVC_Handler(void)
{
 8000c0e:	b480      	push	{r7}
 8000c10:	af00      	add	r7, sp, #0

  /* USER CODE END SVCall_IRQn 0 */
  /* USER CODE BEGIN SVCall_IRQn 1 */

  /* USER CODE END SVCall_IRQn 1 */
}
 8000c12:	bf00      	nop
 8000c14:	46bd      	mov	sp, r7
 8000c16:	f85d 7b04 	ldr.w	r7, [sp], #4
 8000c1a:	4770      	bx	lr

08000c1c <DebugMon_Handler>:

/**
  * @brief This function handles Debug monitor.
  */
void DebugMon_Handler(void)
{
 8000c1c:	b480      	push	{r7}
 8000c1e:	af00      	add	r7, sp, #0

  /* USER CODE END DebugMonitor_IRQn 0 */
  /* USER CODE BEGIN DebugMonitor_IRQn 1 */

  /* USER CODE END DebugMonitor_IRQn 1 */
}
 8000c20:	bf00      	nop
 8000c22:	46bd      	mov	sp, r7
 8000c24:	f85d 7b04 	ldr.w	r7, [sp], #4
 8000c28:	4770      	bx	lr

08000c2a <PendSV_Handler>:

/**
  * @brief This function handles Pendable request for system service.
  */
void PendSV_Handler(void)
{
 8000c2a:	b480      	push	{r7}
 8000c2c:	af00      	add	r7, sp, #0

  /* USER CODE END PendSV_IRQn 0 */
  /* USER CODE BEGIN PendSV_IRQn 1 */

  /* USER CODE END PendSV_IRQn 1 */
}
 8000c2e:	bf00      	nop
 8000c30:	46bd      	mov	sp, r7
 8000c32:	f85d 7b04 	ldr.w	r7, [sp], #4
 8000c36:	4770      	bx	lr

08000c38 <SysTick_Handler>:

/**
  * @brief This function handles System tick timer.
  */
void SysTick_Handler(void)
{
 8000c38:	b580      	push	{r7, lr}
 8000c3a:	af00      	add	r7, sp, #0
  /* USER CODE BEGIN SysTick_IRQn 0 */

  /* USER CODE END SysTick_IRQn 0 */
  HAL_IncTick();
 8000c3c:	f000 f8cc 	bl	8000dd8 <HAL_IncTick>
  /* USER CODE BEGIN SysTick_IRQn 1 */

  /* USER CODE END SysTick_IRQn 1 */
}
 8000c40:	bf00      	nop
 8000c42:	bd80      	pop	{r7, pc}

08000c44 <DMA1_Stream0_IRQHandler>:

/**
  * @brief This function handles DMA1 stream0 global interrupt.
  */
void DMA1_Stream0_IRQHandler(void)
{
 8000c44:	b580      	push	{r7, lr}
 8000c46:	af00      	add	r7, sp, #0
  /* USER CODE BEGIN DMA1_Stream0_IRQn 0 */

  /* USER CODE END DMA1_Stream0_IRQn 0 */
  HAL_DMA_IRQHandler(&hdma_spi1_rx);
 8000c48:	4802      	ldr	r0, [pc, #8]	; (8000c54 <DMA1_Stream0_IRQHandler+0x10>)
 8000c4a:	f001 f81f 	bl	8001c8c <HAL_DMA_IRQHandler>
  /* USER CODE BEGIN DMA1_Stream0_IRQn 1 */

  /* USER CODE END DMA1_Stream0_IRQn 1 */
}
 8000c4e:	bf00      	nop
 8000c50:	bd80      	pop	{r7, pc}
 8000c52:	bf00      	nop
 8000c54:	240000b4 	.word	0x240000b4

08000c58 <DMA1_Stream1_IRQHandler>:

/**
  * @brief This function handles DMA1 stream1 global interrupt.
  */
void DMA1_Stream1_IRQHandler(void)
{
 8000c58:	b580      	push	{r7, lr}
 8000c5a:	af00      	add	r7, sp, #0
  /* USER CODE BEGIN DMA1_Stream1_IRQn 0 */

  /* USER CODE END DMA1_Stream1_IRQn 0 */
  HAL_DMA_IRQHandler(&hdma_spi1_tx);
 8000c5c:	4802      	ldr	r0, [pc, #8]	; (8000c68 <DMA1_Stream1_IRQHandler+0x10>)
 8000c5e:	f001 f815 	bl	8001c8c <HAL_DMA_IRQHandler>
  /* USER CODE BEGIN DMA1_Stream1_IRQn 1 */

  /* USER CODE END DMA1_Stream1_IRQn 1 */
}
 8000c62:	bf00      	nop
 8000c64:	bd80      	pop	{r7, pc}
 8000c66:	bf00      	nop
 8000c68:	2400012c 	.word	0x2400012c

08000c6c <SPI1_IRQHandler>:

/**
  * @brief This function handles SPI1 global interrupt.
  */
void SPI1_IRQHandler(void)
{
 8000c6c:	b580      	push	{r7, lr}
 8000c6e:	af00      	add	r7, sp, #0
  /* USER CODE BEGIN SPI1_IRQn 0 */

  /* USER CODE END SPI1_IRQn 0 */
  HAL_SPI_IRQHandler(&hspi1);
 8000c70:	4802      	ldr	r0, [pc, #8]	; (8000c7c <SPI1_IRQHandler+0x10>)
 8000c72:	f004 fcf5 	bl	8005660 <HAL_SPI_IRQHandler>
  /* USER CODE BEGIN SPI1_IRQn 1 */

  /* USER CODE END SPI1_IRQn 1 */
}
 8000c76:	bf00      	nop
 8000c78:	bd80      	pop	{r7, pc}
 8000c7a:	bf00      	nop
 8000c7c:	2400002c 	.word	0x2400002c

08000c80 <TIM15_IRQHandler>:

/**
  * @brief This function handles TIM15 global interrupt.
  */
void TIM15_IRQHandler(void)
{
 8000c80:	b580      	push	{r7, lr}
 8000c82:	af00      	add	r7, sp, #0
  /* USER CODE BEGIN TIM15_IRQn 0 */

  /* USER CODE END TIM15_IRQn 0 */
  HAL_TIM_IRQHandler(&htim15);
 8000c84:	4802      	ldr	r0, [pc, #8]	; (8000c90 <TIM15_IRQHandler+0x10>)
 8000c86:	f005 f883 	bl	8005d90 <HAL_TIM_IRQHandler>
  /* USER CODE BEGIN TIM15_IRQn 1 */

  /* USER CODE END TIM15_IRQn 1 */
}
 8000c8a:	bf00      	nop
 8000c8c:	bd80      	pop	{r7, pc}
 8000c8e:	bf00      	nop
 8000c90:	240001a4 	.word	0x240001a4

08000c94 <HSEM1_IRQHandler>:

/**
  * @brief This function handles HSEM1 global interrupt.
  */
void HSEM1_IRQHandler(void)
{
 8000c94:	b580      	push	{r7, lr}
 8000c96:	af00      	add	r7, sp, #0
  /* USER CODE BEGIN HSEM1_IRQn 0 */

  /* USER CODE END HSEM1_IRQn 0 */
  HAL_HSEM_IRQHandler();
 8000c98:	f002 fb56 	bl	8003348 <HAL_HSEM_IRQHandler>
  /* USER CODE BEGIN HSEM1_IRQn 1 */

  /* USER CODE END HSEM1_IRQn 1 */
}
 8000c9c:	bf00      	nop
 8000c9e:	bd80      	pop	{r7, pc}

08000ca0 <Reset_Handler>:

    .section  .text.Reset_Handler
  .weak  Reset_Handler
  .type  Reset_Handler, %function
Reset_Handler:
  ldr   sp, =_estack      /* set stack pointer */
 8000ca0:	f8df d034 	ldr.w	sp, [pc, #52]	; 8000cd8 <LoopFillZerobss+0xe>

/* Call the clock system initialization function.*/
  bl  SystemInit
 8000ca4:	f7ff fb18 	bl	80002d8 <SystemInit>

/* Copy the data segment initializers from flash to SRAM */
  ldr r0, =_sdata
 8000ca8:	480c      	ldr	r0, [pc, #48]	; (8000cdc <LoopFillZerobss+0x12>)
  ldr r1, =_edata
 8000caa:	490d      	ldr	r1, [pc, #52]	; (8000ce0 <LoopFillZerobss+0x16>)
  ldr r2, =_sidata
 8000cac:	4a0d      	ldr	r2, [pc, #52]	; (8000ce4 <LoopFillZerobss+0x1a>)
  movs r3, #0
 8000cae:	2300      	movs	r3, #0
  b LoopCopyDataInit
 8000cb0:	e002      	b.n	8000cb8 <LoopCopyDataInit>

08000cb2 <CopyDataInit>:

CopyDataInit:
  ldr r4, [r2, r3]
 8000cb2:	58d4      	ldr	r4, [r2, r3]
  str r4, [r0, r3]
 8000cb4:	50c4      	str	r4, [r0, r3]
  adds r3, r3, #4
 8000cb6:	3304      	adds	r3, #4

08000cb8 <LoopCopyDataInit>:

LoopCopyDataInit:
  adds r4, r0, r3
 8000cb8:	18c4      	adds	r4, r0, r3
  cmp r4, r1
 8000cba:	428c      	cmp	r4, r1
  bcc CopyDataInit
 8000cbc:	d3f9      	bcc.n	8000cb2 <CopyDataInit>
/* Zero fill the bss segment. */
  ldr r2, =_sbss
 8000cbe:	4a0a      	ldr	r2, [pc, #40]	; (8000ce8 <LoopFillZerobss+0x1e>)
  ldr r4, =_ebss
 8000cc0:	4c0a      	ldr	r4, [pc, #40]	; (8000cec <LoopFillZerobss+0x22>)
  movs r3, #0
 8000cc2:	2300      	movs	r3, #0
  b LoopFillZerobss
 8000cc4:	e001      	b.n	8000cca <LoopFillZerobss>

08000cc6 <FillZerobss>:

FillZerobss:
  str  r3, [r2]
 8000cc6:	6013      	str	r3, [r2, #0]
  adds r2, r2, #4
 8000cc8:	3204      	adds	r2, #4

08000cca <LoopFillZerobss>:

LoopFillZerobss:
  cmp r2, r4
 8000cca:	42a2      	cmp	r2, r4
  bcc FillZerobss
 8000ccc:	d3fb      	bcc.n	8000cc6 <FillZerobss>

/* Call static constructors */
    bl __libc_init_array
 8000cce:	f005 fc83 	bl	80065d8 <__libc_init_array>
/* Call the application's entry point.*/
  bl  main
 8000cd2:	f7ff fb97 	bl	8000404 <main>
  bx  lr
 8000cd6:	4770      	bx	lr
  ldr   sp, =_estack      /* set stack pointer */
 8000cd8:	24080000 	.word	0x24080000
  ldr r0, =_sdata
 8000cdc:	24000000 	.word	0x24000000
  ldr r1, =_edata
 8000ce0:	24000010 	.word	0x24000010
  ldr r2, =_sidata
 8000ce4:	08006668 	.word	0x08006668
  ldr r2, =_sbss
 8000ce8:	24000010 	.word	0x24000010
  ldr r4, =_ebss
 8000cec:	240001f4 	.word	0x240001f4

08000cf0 <ADC3_IRQHandler>:
 * @retval None
*/
    .section  .text.Default_Handler,"ax",%progbits
Default_Handler:
Infinite_Loop:
  b  Infinite_Loop
 8000cf0:	e7fe      	b.n	8000cf0 <ADC3_IRQHandler>
	...

08000cf4 <HAL_Init>:
  *         need to ensure that the SysTick time base is always set to 1 millisecond
  *         to have correct HAL operation.
  * @retval HAL status
  */
HAL_StatusTypeDef HAL_Init(void)
{
 8000cf4:	b580      	push	{r7, lr}
 8000cf6:	b082      	sub	sp, #8
 8000cf8:	af00      	add	r7, sp, #0
   __HAL_ART_CONFIG_BASE_ADDRESS(0x08100000UL);  /* Configure the Cortex-M4 ART Base address to the Flash Bank 2 : */
   __HAL_ART_ENABLE();                           /* Enable the Cortex-M4 ART */
#endif /* DUAL_CORE &&  CORE_CM4 */

  /* Set Interrupt Group Priority */
  HAL_NVIC_SetPriorityGrouping(NVIC_PRIORITYGROUP_4);
 8000cfa:	2003      	movs	r0, #3
 8000cfc:	f000 f968 	bl	8000fd0 <HAL_NVIC_SetPriorityGrouping>

  /* Update the SystemCoreClock global variable */
#if defined(RCC_D1CFGR_D1CPRE)
  common_system_clock = HAL_RCC_GetSysClockFreq() >> ((D1CorePrescTable[(RCC->D1CFGR & RCC_D1CFGR_D1CPRE)>> RCC_D1CFGR_D1CPRE_Pos]) & 0x1FU);
 8000d00:	f003 f984 	bl	800400c <HAL_RCC_GetSysClockFreq>
 8000d04:	4602      	mov	r2, r0
 8000d06:	4b15      	ldr	r3, [pc, #84]	; (8000d5c <HAL_Init+0x68>)
 8000d08:	699b      	ldr	r3, [r3, #24]
 8000d0a:	0a1b      	lsrs	r3, r3, #8
 8000d0c:	f003 030f 	and.w	r3, r3, #15
 8000d10:	4913      	ldr	r1, [pc, #76]	; (8000d60 <HAL_Init+0x6c>)
 8000d12:	5ccb      	ldrb	r3, [r1, r3]
 8000d14:	f003 031f 	and.w	r3, r3, #31
 8000d18:	fa22 f303 	lsr.w	r3, r2, r3
 8000d1c:	607b      	str	r3, [r7, #4]
  common_system_clock = HAL_RCC_GetSysClockFreq() >> ((D1CorePrescTable[(RCC->CDCFGR1 & RCC_CDCFGR1_CDCPRE)>> RCC_CDCFGR1_CDCPRE_Pos]) & 0x1FU);
#endif

  /* Update the SystemD2Clock global variable */
#if defined(RCC_D1CFGR_HPRE)
  SystemD2Clock = (common_system_clock >> ((D1CorePrescTable[(RCC->D1CFGR & RCC_D1CFGR_HPRE)>> RCC_D1CFGR_HPRE_Pos]) & 0x1FU));
 8000d1e:	4b0f      	ldr	r3, [pc, #60]	; (8000d5c <HAL_Init+0x68>)
 8000d20:	699b      	ldr	r3, [r3, #24]
 8000d22:	f003 030f 	and.w	r3, r3, #15
 8000d26:	4a0e      	ldr	r2, [pc, #56]	; (8000d60 <HAL_Init+0x6c>)
 8000d28:	5cd3      	ldrb	r3, [r2, r3]
 8000d2a:	f003 031f 	and.w	r3, r3, #31
 8000d2e:	687a      	ldr	r2, [r7, #4]
 8000d30:	fa22 f303 	lsr.w	r3, r2, r3
 8000d34:	4a0b      	ldr	r2, [pc, #44]	; (8000d64 <HAL_Init+0x70>)
 8000d36:	6013      	str	r3, [r2, #0]
#endif

#if defined(DUAL_CORE) && defined(CORE_CM4)
  SystemCoreClock = SystemD2Clock;
#else
  SystemCoreClock = common_system_clock;
 8000d38:	4a0b      	ldr	r2, [pc, #44]	; (8000d68 <HAL_Init+0x74>)
 8000d3a:	687b      	ldr	r3, [r7, #4]
 8000d3c:	6013      	str	r3, [r2, #0]
#endif /* DUAL_CORE && CORE_CM4 */

  /* Use systick as time base source and configure 1ms tick (default clock after Reset is HSI) */
  if(HAL_InitTick(TICK_INT_PRIORITY) != HAL_OK)
 8000d3e:	2000      	movs	r0, #0
 8000d40:	f000 f814 	bl	8000d6c <HAL_InitTick>
 8000d44:	4603      	mov	r3, r0
 8000d46:	2b00      	cmp	r3, #0
 8000d48:	d001      	beq.n	8000d4e <HAL_Init+0x5a>
  {
    return HAL_ERROR;
 8000d4a:	2301      	movs	r3, #1
 8000d4c:	e002      	b.n	8000d54 <HAL_Init+0x60>
  }

  /* Init the low level hardware */
  HAL_MspInit();
 8000d4e:	f7ff fe2d 	bl	80009ac <HAL_MspInit>

  /* Return function status */
  return HAL_OK;
 8000d52:	2300      	movs	r3, #0
}
 8000d54:	4618      	mov	r0, r3
 8000d56:	3708      	adds	r7, #8
 8000d58:	46bd      	mov	sp, r7
 8000d5a:	bd80      	pop	{r7, pc}
 8000d5c:	58024400 	.word	0x58024400
 8000d60:	08006648 	.word	0x08006648
 8000d64:	24000004 	.word	0x24000004
 8000d68:	24000000 	.word	0x24000000

08000d6c <HAL_InitTick>:
  *       implementation  in user file.
  * @param TickPriority: Tick interrupt priority.
  * @retval HAL status
  */
__weak HAL_StatusTypeDef HAL_InitTick(uint32_t TickPriority)
{
 8000d6c:	b580      	push	{r7, lr}
 8000d6e:	b082      	sub	sp, #8
 8000d70:	af00      	add	r7, sp, #0
 8000d72:	6078      	str	r0, [r7, #4]
  /* Check uwTickFreq for MisraC 2012 (even if uwTickFreq is a enum type that don't take the value zero)*/
  if((uint32_t)uwTickFreq == 0UL)
 8000d74:	4b15      	ldr	r3, [pc, #84]	; (8000dcc <HAL_InitTick+0x60>)
 8000d76:	781b      	ldrb	r3, [r3, #0]
 8000d78:	2b00      	cmp	r3, #0
 8000d7a:	d101      	bne.n	8000d80 <HAL_InitTick+0x14>
  {
    return HAL_ERROR;
 8000d7c:	2301      	movs	r3, #1
 8000d7e:	e021      	b.n	8000dc4 <HAL_InitTick+0x58>
  }

    /* Configure the SysTick to have interrupt in 1ms time basis*/
    if (HAL_SYSTICK_Config(SystemCoreClock / (1000UL / (uint32_t)uwTickFreq)) > 0U)
 8000d80:	4b13      	ldr	r3, [pc, #76]	; (8000dd0 <HAL_InitTick+0x64>)
 8000d82:	681a      	ldr	r2, [r3, #0]
 8000d84:	4b11      	ldr	r3, [pc, #68]	; (8000dcc <HAL_InitTick+0x60>)
 8000d86:	781b      	ldrb	r3, [r3, #0]
 8000d88:	4619      	mov	r1, r3
 8000d8a:	f44f 737a 	mov.w	r3, #1000	; 0x3e8
 8000d8e:	fbb3 f3f1 	udiv	r3, r3, r1
 8000d92:	fbb2 f3f3 	udiv	r3, r2, r3
 8000d96:	4618      	mov	r0, r3
 8000d98:	f000 f94d 	bl	8001036 <HAL_SYSTICK_Config>
 8000d9c:	4603      	mov	r3, r0
 8000d9e:	2b00      	cmp	r3, #0
 8000da0:	d001      	beq.n	8000da6 <HAL_InitTick+0x3a>
    {
      return HAL_ERROR;
 8000da2:	2301      	movs	r3, #1
 8000da4:	e00e      	b.n	8000dc4 <HAL_InitTick+0x58>
    }

  /* Configure the SysTick IRQ priority */
  if (TickPriority < (1UL << __NVIC_PRIO_BITS))
 8000da6:	687b      	ldr	r3, [r7, #4]
 8000da8:	2b0f      	cmp	r3, #15
 8000daa:	d80a      	bhi.n	8000dc2 <HAL_InitTick+0x56>
  {
    HAL_NVIC_SetPriority(SysTick_IRQn, TickPriority, 0U);
 8000dac:	2200      	movs	r2, #0
 8000dae:	6879      	ldr	r1, [r7, #4]
 8000db0:	f04f 30ff 	mov.w	r0, #4294967295
 8000db4:	f000 f917 	bl	8000fe6 <HAL_NVIC_SetPriority>
    uwTickPrio = TickPriority;
 8000db8:	4a06      	ldr	r2, [pc, #24]	; (8000dd4 <HAL_InitTick+0x68>)
 8000dba:	687b      	ldr	r3, [r7, #4]
 8000dbc:	6013      	str	r3, [r2, #0]
  {
    return HAL_ERROR;
  }

  /* Return function status */
  return HAL_OK;
 8000dbe:	2300      	movs	r3, #0
 8000dc0:	e000      	b.n	8000dc4 <HAL_InitTick+0x58>
    return HAL_ERROR;
 8000dc2:	2301      	movs	r3, #1
}
 8000dc4:	4618      	mov	r0, r3
 8000dc6:	3708      	adds	r7, #8
 8000dc8:	46bd      	mov	sp, r7
 8000dca:	bd80      	pop	{r7, pc}
 8000dcc:	2400000c 	.word	0x2400000c
 8000dd0:	24000000 	.word	0x24000000
 8000dd4:	24000008 	.word	0x24000008

08000dd8 <HAL_IncTick>:
 * @note This function is declared as __weak to be overwritten in case of other
  *      implementations in user file.
  * @retval None
  */
__weak void HAL_IncTick(void)
{
 8000dd8:	b480      	push	{r7}
 8000dda:	af00      	add	r7, sp, #0
  uwTick += (uint32_t)uwTickFreq;
 8000ddc:	4b06      	ldr	r3, [pc, #24]	; (8000df8 <HAL_IncTick+0x20>)
 8000dde:	781b      	ldrb	r3, [r3, #0]
 8000de0:	461a      	mov	r2, r3
 8000de2:	4b06      	ldr	r3, [pc, #24]	; (8000dfc <HAL_IncTick+0x24>)
 8000de4:	681b      	ldr	r3, [r3, #0]
 8000de6:	4413      	add	r3, r2
 8000de8:	4a04      	ldr	r2, [pc, #16]	; (8000dfc <HAL_IncTick+0x24>)
 8000dea:	6013      	str	r3, [r2, #0]
}
 8000dec:	bf00      	nop
 8000dee:	46bd      	mov	sp, r7
 8000df0:	f85d 7b04 	ldr.w	r7, [sp], #4
 8000df4:	4770      	bx	lr
 8000df6:	bf00      	nop
 8000df8:	2400000c 	.word	0x2400000c
 8000dfc:	240001f0 	.word	0x240001f0

08000e00 <HAL_GetTick>:
  * @note This function is declared as __weak to be overwritten in case of other
  *       implementations in user file.
  * @retval tick value
  */
__weak uint32_t HAL_GetTick(void)
{
 8000e00:	b480      	push	{r7}
 8000e02:	af00      	add	r7, sp, #0
  return uwTick;
 8000e04:	4b03      	ldr	r3, [pc, #12]	; (8000e14 <HAL_GetTick+0x14>)
 8000e06:	681b      	ldr	r3, [r3, #0]
}
 8000e08:	4618      	mov	r0, r3
 8000e0a:	46bd      	mov	sp, r7
 8000e0c:	f85d 7b04 	ldr.w	r7, [sp], #4
 8000e10:	4770      	bx	lr
 8000e12:	bf00      	nop
 8000e14:	240001f0 	.word	0x240001f0

08000e18 <HAL_GetREVID>:
/**
  * @brief  Returns the device revision identifier.
  * @retval Device revision identifier
  */
uint32_t HAL_GetREVID(void)
{
 8000e18:	b480      	push	{r7}
 8000e1a:	af00      	add	r7, sp, #0
   return((DBGMCU->IDCODE) >> 16);
 8000e1c:	4b03      	ldr	r3, [pc, #12]	; (8000e2c <HAL_GetREVID+0x14>)
 8000e1e:	681b      	ldr	r3, [r3, #0]
 8000e20:	0c1b      	lsrs	r3, r3, #16
}
 8000e22:	4618      	mov	r0, r3
 8000e24:	46bd      	mov	sp, r7
 8000e26:	f85d 7b04 	ldr.w	r7, [sp], #4
 8000e2a:	4770      	bx	lr
 8000e2c:	5c001000 	.word	0x5c001000

08000e30 <__NVIC_SetPriorityGrouping>:
{
 8000e30:	b480      	push	{r7}
 8000e32:	b085      	sub	sp, #20
 8000e34:	af00      	add	r7, sp, #0
 8000e36:	6078      	str	r0, [r7, #4]
  uint32_t PriorityGroupTmp = (PriorityGroup & (uint32_t)0x07UL);             /* only values 0..7 are used          */
 8000e38:	687b      	ldr	r3, [r7, #4]
 8000e3a:	f003 0307 	and.w	r3, r3, #7
 8000e3e:	60fb      	str	r3, [r7, #12]
  reg_value  =  SCB->AIRCR;                                                   /* read old register configuration    */
 8000e40:	4b0b      	ldr	r3, [pc, #44]	; (8000e70 <__NVIC_SetPriorityGrouping+0x40>)
 8000e42:	68db      	ldr	r3, [r3, #12]
 8000e44:	60bb      	str	r3, [r7, #8]
  reg_value &= ~((uint32_t)(SCB_AIRCR_VECTKEY_Msk | SCB_AIRCR_PRIGROUP_Msk)); /* clear bits to change               */
 8000e46:	68ba      	ldr	r2, [r7, #8]
 8000e48:	f64f 03ff 	movw	r3, #63743	; 0xf8ff
 8000e4c:	4013      	ands	r3, r2
 8000e4e:	60bb      	str	r3, [r7, #8]
                (PriorityGroupTmp << SCB_AIRCR_PRIGROUP_Pos)  );              /* Insert write key and priority group */
 8000e50:	68fb      	ldr	r3, [r7, #12]
 8000e52:	021a      	lsls	r2, r3, #8
                ((uint32_t)0x5FAUL << SCB_AIRCR_VECTKEY_Pos) |
 8000e54:	68bb      	ldr	r3, [r7, #8]
 8000e56:	431a      	orrs	r2, r3
  reg_value  =  (reg_value                                   |
 8000e58:	4b06      	ldr	r3, [pc, #24]	; (8000e74 <__NVIC_SetPriorityGrouping+0x44>)
 8000e5a:	4313      	orrs	r3, r2
 8000e5c:	60bb      	str	r3, [r7, #8]
  SCB->AIRCR =  reg_value;
 8000e5e:	4a04      	ldr	r2, [pc, #16]	; (8000e70 <__NVIC_SetPriorityGrouping+0x40>)
 8000e60:	68bb      	ldr	r3, [r7, #8]
 8000e62:	60d3      	str	r3, [r2, #12]
}
 8000e64:	bf00      	nop
 8000e66:	3714      	adds	r7, #20
 8000e68:	46bd      	mov	sp, r7
 8000e6a:	f85d 7b04 	ldr.w	r7, [sp], #4
 8000e6e:	4770      	bx	lr
 8000e70:	e000ed00 	.word	0xe000ed00
 8000e74:	05fa0000 	.word	0x05fa0000

08000e78 <__NVIC_GetPriorityGrouping>:
{
 8000e78:	b480      	push	{r7}
 8000e7a:	af00      	add	r7, sp, #0
  return ((uint32_t)((SCB->AIRCR & SCB_AIRCR_PRIGROUP_Msk) >> SCB_AIRCR_PRIGROUP_Pos));
 8000e7c:	4b04      	ldr	r3, [pc, #16]	; (8000e90 <__NVIC_GetPriorityGrouping+0x18>)
 8000e7e:	68db      	ldr	r3, [r3, #12]
 8000e80:	0a1b      	lsrs	r3, r3, #8
 8000e82:	f003 0307 	and.w	r3, r3, #7
}
 8000e86:	4618      	mov	r0, r3
 8000e88:	46bd      	mov	sp, r7
 8000e8a:	f85d 7b04 	ldr.w	r7, [sp], #4
 8000e8e:	4770      	bx	lr
 8000e90:	e000ed00 	.word	0xe000ed00

08000e94 <__NVIC_EnableIRQ>:
{
 8000e94:	b480      	push	{r7}
 8000e96:	b083      	sub	sp, #12
 8000e98:	af00      	add	r7, sp, #0
 8000e9a:	4603      	mov	r3, r0
 8000e9c:	80fb      	strh	r3, [r7, #6]
  if ((int32_t)(IRQn) >= 0)
 8000e9e:	f9b7 3006 	ldrsh.w	r3, [r7, #6]
 8000ea2:	2b00      	cmp	r3, #0
 8000ea4:	db0b      	blt.n	8000ebe <__NVIC_EnableIRQ+0x2a>
    NVIC->ISER[(((uint32_t)IRQn) >> 5UL)] = (uint32_t)(1UL << (((uint32_t)IRQn) & 0x1FUL));
 8000ea6:	88fb      	ldrh	r3, [r7, #6]
 8000ea8:	f003 021f 	and.w	r2, r3, #31
 8000eac:	4907      	ldr	r1, [pc, #28]	; (8000ecc <__NVIC_EnableIRQ+0x38>)
 8000eae:	f9b7 3006 	ldrsh.w	r3, [r7, #6]
 8000eb2:	095b      	lsrs	r3, r3, #5
 8000eb4:	2001      	movs	r0, #1
 8000eb6:	fa00 f202 	lsl.w	r2, r0, r2
 8000eba:	f841 2023 	str.w	r2, [r1, r3, lsl #2]
}
 8000ebe:	bf00      	nop
 8000ec0:	370c      	adds	r7, #12
 8000ec2:	46bd      	mov	sp, r7
 8000ec4:	f85d 7b04 	ldr.w	r7, [sp], #4
 8000ec8:	4770      	bx	lr
 8000eca:	bf00      	nop
 8000ecc:	e000e100 	.word	0xe000e100

08000ed0 <__NVIC_SetPriority>:
{
 8000ed0:	b480      	push	{r7}
 8000ed2:	b083      	sub	sp, #12
 8000ed4:	af00      	add	r7, sp, #0
 8000ed6:	4603      	mov	r3, r0
 8000ed8:	6039      	str	r1, [r7, #0]
 8000eda:	80fb      	strh	r3, [r7, #6]
  if ((int32_t)(IRQn) >= 0)
 8000edc:	f9b7 3006 	ldrsh.w	r3, [r7, #6]
 8000ee0:	2b00      	cmp	r3, #0
 8000ee2:	db0a      	blt.n	8000efa <__NVIC_SetPriority+0x2a>
    NVIC->IP[((uint32_t)IRQn)]                = (uint8_t)((priority << (8U - __NVIC_PRIO_BITS)) & (uint32_t)0xFFUL);
 8000ee4:	683b      	ldr	r3, [r7, #0]
 8000ee6:	b2da      	uxtb	r2, r3
 8000ee8:	490c      	ldr	r1, [pc, #48]	; (8000f1c <__NVIC_SetPriority+0x4c>)
 8000eea:	f9b7 3006 	ldrsh.w	r3, [r7, #6]
 8000eee:	0112      	lsls	r2, r2, #4
 8000ef0:	b2d2      	uxtb	r2, r2
 8000ef2:	440b      	add	r3, r1
 8000ef4:	f883 2300 	strb.w	r2, [r3, #768]	; 0x300
}
 8000ef8:	e00a      	b.n	8000f10 <__NVIC_SetPriority+0x40>
    SCB->SHPR[(((uint32_t)IRQn) & 0xFUL)-4UL] = (uint8_t)((priority << (8U - __NVIC_PRIO_BITS)) & (uint32_t)0xFFUL);
 8000efa:	683b      	ldr	r3, [r7, #0]
 8000efc:	b2da      	uxtb	r2, r3
 8000efe:	4908      	ldr	r1, [pc, #32]	; (8000f20 <__NVIC_SetPriority+0x50>)
 8000f00:	88fb      	ldrh	r3, [r7, #6]
 8000f02:	f003 030f 	and.w	r3, r3, #15
 8000f06:	3b04      	subs	r3, #4
 8000f08:	0112      	lsls	r2, r2, #4
 8000f0a:	b2d2      	uxtb	r2, r2
 8000f0c:	440b      	add	r3, r1
 8000f0e:	761a      	strb	r2, [r3, #24]
}
 8000f10:	bf00      	nop
 8000f12:	370c      	adds	r7, #12
 8000f14:	46bd      	mov	sp, r7
 8000f16:	f85d 7b04 	ldr.w	r7, [sp], #4
 8000f1a:	4770      	bx	lr
 8000f1c:	e000e100 	.word	0xe000e100
 8000f20:	e000ed00 	.word	0xe000ed00

08000f24 <NVIC_EncodePriority>:
{
 8000f24:	b480      	push	{r7}
 8000f26:	b089      	sub	sp, #36	; 0x24
 8000f28:	af00      	add	r7, sp, #0
 8000f2a:	60f8      	str	r0, [r7, #12]
 8000f2c:	60b9      	str	r1, [r7, #8]
 8000f2e:	607a      	str	r2, [r7, #4]
  uint32_t PriorityGroupTmp = (PriorityGroup & (uint32_t)0x07UL);   /* only values 0..7 are used          */
 8000f30:	68fb      	ldr	r3, [r7, #12]
 8000f32:	f003 0307 	and.w	r3, r3, #7
 8000f36:	61fb      	str	r3, [r7, #28]
  PreemptPriorityBits = ((7UL - PriorityGroupTmp) > (uint32_t)(__NVIC_PRIO_BITS)) ? (uint32_t)(__NVIC_PRIO_BITS) : (uint32_t)(7UL - PriorityGroupTmp);
 8000f38:	69fb      	ldr	r3, [r7, #28]
 8000f3a:	f1c3 0307 	rsb	r3, r3, #7
 8000f3e:	2b04      	cmp	r3, #4
 8000f40:	bf28      	it	cs
 8000f42:	2304      	movcs	r3, #4
 8000f44:	61bb      	str	r3, [r7, #24]
  SubPriorityBits     = ((PriorityGroupTmp + (uint32_t)(__NVIC_PRIO_BITS)) < (uint32_t)7UL) ? (uint32_t)0UL : (uint32_t)((PriorityGroupTmp - 7UL) + (uint32_t)(__NVIC_PRIO_BITS));
 8000f46:	69fb      	ldr	r3, [r7, #28]
 8000f48:	3304      	adds	r3, #4
 8000f4a:	2b06      	cmp	r3, #6
 8000f4c:	d902      	bls.n	8000f54 <NVIC_EncodePriority+0x30>
 8000f4e:	69fb      	ldr	r3, [r7, #28]
 8000f50:	3b03      	subs	r3, #3
 8000f52:	e000      	b.n	8000f56 <NVIC_EncodePriority+0x32>
 8000f54:	2300      	movs	r3, #0
 8000f56:	617b      	str	r3, [r7, #20]
           ((PreemptPriority & (uint32_t)((1UL << (PreemptPriorityBits)) - 1UL)) << SubPriorityBits) |
 8000f58:	f04f 32ff 	mov.w	r2, #4294967295
 8000f5c:	69bb      	ldr	r3, [r7, #24]
 8000f5e:	fa02 f303 	lsl.w	r3, r2, r3
 8000f62:	43da      	mvns	r2, r3
 8000f64:	68bb      	ldr	r3, [r7, #8]
 8000f66:	401a      	ands	r2, r3
 8000f68:	697b      	ldr	r3, [r7, #20]
 8000f6a:	409a      	lsls	r2, r3
           ((SubPriority     & (uint32_t)((1UL << (SubPriorityBits    )) - 1UL)))
 8000f6c:	f04f 31ff 	mov.w	r1, #4294967295
 8000f70:	697b      	ldr	r3, [r7, #20]
 8000f72:	fa01 f303 	lsl.w	r3, r1, r3
 8000f76:	43d9      	mvns	r1, r3
 8000f78:	687b      	ldr	r3, [r7, #4]
 8000f7a:	400b      	ands	r3, r1
           ((PreemptPriority & (uint32_t)((1UL << (PreemptPriorityBits)) - 1UL)) << SubPriorityBits) |
 8000f7c:	4313      	orrs	r3, r2
}
 8000f7e:	4618      	mov	r0, r3
 8000f80:	3724      	adds	r7, #36	; 0x24
 8000f82:	46bd      	mov	sp, r7
 8000f84:	f85d 7b04 	ldr.w	r7, [sp], #4
 8000f88:	4770      	bx	lr
	...

08000f8c <SysTick_Config>:
  \note    When the variable <b>__Vendor_SysTickConfig</b> is set to 1, then the
           function <b>SysTick_Config</b> is not included. In this case, the file <b><i>device</i>.h</b>
           must contain a vendor-specific implementation of this function.
 */
__STATIC_INLINE uint32_t SysTick_Config(uint32_t ticks)
{
 8000f8c:	b580      	push	{r7, lr}
 8000f8e:	b082      	sub	sp, #8
 8000f90:	af00      	add	r7, sp, #0
 8000f92:	6078      	str	r0, [r7, #4]
  if ((ticks - 1UL) > SysTick_LOAD_RELOAD_Msk)
 8000f94:	687b      	ldr	r3, [r7, #4]
 8000f96:	3b01      	subs	r3, #1
 8000f98:	f1b3 7f80 	cmp.w	r3, #16777216	; 0x1000000
 8000f9c:	d301      	bcc.n	8000fa2 <SysTick_Config+0x16>
  {
    return (1UL);                                                   /* Reload value impossible */
 8000f9e:	2301      	movs	r3, #1
 8000fa0:	e00f      	b.n	8000fc2 <SysTick_Config+0x36>
  }

  SysTick->LOAD  = (uint32_t)(ticks - 1UL);                         /* set reload register */
 8000fa2:	4a0a      	ldr	r2, [pc, #40]	; (8000fcc <SysTick_Config+0x40>)
 8000fa4:	687b      	ldr	r3, [r7, #4]
 8000fa6:	3b01      	subs	r3, #1
 8000fa8:	6053      	str	r3, [r2, #4]
  NVIC_SetPriority (SysTick_IRQn, (1UL << __NVIC_PRIO_BITS) - 1UL); /* set Priority for Systick Interrupt */
 8000faa:	210f      	movs	r1, #15
 8000fac:	f04f 30ff 	mov.w	r0, #4294967295
 8000fb0:	f7ff ff8e 	bl	8000ed0 <__NVIC_SetPriority>
  SysTick->VAL   = 0UL;                                             /* Load the SysTick Counter Value */
 8000fb4:	4b05      	ldr	r3, [pc, #20]	; (8000fcc <SysTick_Config+0x40>)
 8000fb6:	2200      	movs	r2, #0
 8000fb8:	609a      	str	r2, [r3, #8]
  SysTick->CTRL  = SysTick_CTRL_CLKSOURCE_Msk |
 8000fba:	4b04      	ldr	r3, [pc, #16]	; (8000fcc <SysTick_Config+0x40>)
 8000fbc:	2207      	movs	r2, #7
 8000fbe:	601a      	str	r2, [r3, #0]
                   SysTick_CTRL_TICKINT_Msk   |
                   SysTick_CTRL_ENABLE_Msk;                         /* Enable SysTick IRQ and SysTick Timer */
  return (0UL);                                                     /* Function successful */
 8000fc0:	2300      	movs	r3, #0
}
 8000fc2:	4618      	mov	r0, r3
 8000fc4:	3708      	adds	r7, #8
 8000fc6:	46bd      	mov	sp, r7
 8000fc8:	bd80      	pop	{r7, pc}
 8000fca:	bf00      	nop
 8000fcc:	e000e010 	.word	0xe000e010

08000fd0 <HAL_NVIC_SetPriorityGrouping>:
  * @note   When the NVIC_PriorityGroup_0 is selected, IRQ preemption is no more possible.
  *         The pending IRQ priority will be managed only by the subpriority.
  * @retval None
  */
void HAL_NVIC_SetPriorityGrouping(uint32_t PriorityGroup)
{
 8000fd0:	b580      	push	{r7, lr}
 8000fd2:	b082      	sub	sp, #8
 8000fd4:	af00      	add	r7, sp, #0
 8000fd6:	6078      	str	r0, [r7, #4]
  /* Check the parameters */
  assert_param(IS_NVIC_PRIORITY_GROUP(PriorityGroup));

  /* Set the PRIGROUP[10:8] bits according to the PriorityGroup parameter value */
  NVIC_SetPriorityGrouping(PriorityGroup);
 8000fd8:	6878      	ldr	r0, [r7, #4]
 8000fda:	f7ff ff29 	bl	8000e30 <__NVIC_SetPriorityGrouping>
}
 8000fde:	bf00      	nop
 8000fe0:	3708      	adds	r7, #8
 8000fe2:	46bd      	mov	sp, r7
 8000fe4:	bd80      	pop	{r7, pc}

08000fe6 <HAL_NVIC_SetPriority>:
  *         This parameter can be a value between 0 and 15
  *         A lower priority value indicates a higher priority.
  * @retval None
  */
void HAL_NVIC_SetPriority(IRQn_Type IRQn, uint32_t PreemptPriority, uint32_t SubPriority)
{
 8000fe6:	b580      	push	{r7, lr}
 8000fe8:	b086      	sub	sp, #24
 8000fea:	af00      	add	r7, sp, #0
 8000fec:	4603      	mov	r3, r0
 8000fee:	60b9      	str	r1, [r7, #8]
 8000ff0:	607a      	str	r2, [r7, #4]
 8000ff2:	81fb      	strh	r3, [r7, #14]

  /* Check the parameters */
  assert_param(IS_NVIC_SUB_PRIORITY(SubPriority));
  assert_param(IS_NVIC_PREEMPTION_PRIORITY(PreemptPriority));

  prioritygroup = NVIC_GetPriorityGrouping();
 8000ff4:	f7ff ff40 	bl	8000e78 <__NVIC_GetPriorityGrouping>
 8000ff8:	6178      	str	r0, [r7, #20]

  NVIC_SetPriority(IRQn, NVIC_EncodePriority(prioritygroup, PreemptPriority, SubPriority));
 8000ffa:	687a      	ldr	r2, [r7, #4]
 8000ffc:	68b9      	ldr	r1, [r7, #8]
 8000ffe:	6978      	ldr	r0, [r7, #20]
 8001000:	f7ff ff90 	bl	8000f24 <NVIC_EncodePriority>
 8001004:	4602      	mov	r2, r0
 8001006:	f9b7 300e 	ldrsh.w	r3, [r7, #14]
 800100a:	4611      	mov	r1, r2
 800100c:	4618      	mov	r0, r3
 800100e:	f7ff ff5f 	bl	8000ed0 <__NVIC_SetPriority>
}
 8001012:	bf00      	nop
 8001014:	3718      	adds	r7, #24
 8001016:	46bd      	mov	sp, r7
 8001018:	bd80      	pop	{r7, pc}

0800101a <HAL_NVIC_EnableIRQ>:
  *         This parameter can be an enumerator of IRQn_Type enumeration
  *         (For the complete STM32 Devices IRQ Channels list, please refer to the appropriate CMSIS device file (stm32h7xxxx.h))
  * @retval None
  */
void HAL_NVIC_EnableIRQ(IRQn_Type IRQn)
{
 800101a:	b580      	push	{r7, lr}
 800101c:	b082      	sub	sp, #8
 800101e:	af00      	add	r7, sp, #0
 8001020:	4603      	mov	r3, r0
 8001022:	80fb      	strh	r3, [r7, #6]
  /* Check the parameters */
  assert_param(IS_NVIC_DEVICE_IRQ(IRQn));

  /* Enable interrupt */
  NVIC_EnableIRQ(IRQn);
 8001024:	f9b7 3006 	ldrsh.w	r3, [r7, #6]
 8001028:	4618      	mov	r0, r3
 800102a:	f7ff ff33 	bl	8000e94 <__NVIC_EnableIRQ>
}
 800102e:	bf00      	nop
 8001030:	3708      	adds	r7, #8
 8001032:	46bd      	mov	sp, r7
 8001034:	bd80      	pop	{r7, pc}

08001036 <HAL_SYSTICK_Config>:
  * @param  TicksNumb Specifies the ticks Number of ticks between two interrupts.
  * @retval status   - 0  Function succeeded.
  *                  - 1  Function failed.
  */
uint32_t HAL_SYSTICK_Config(uint32_t TicksNumb)
{
 8001036:	b580      	push	{r7, lr}
 8001038:	b082      	sub	sp, #8
 800103a:	af00      	add	r7, sp, #0
 800103c:	6078      	str	r0, [r7, #4]
   return SysTick_Config(TicksNumb);
 800103e:	6878      	ldr	r0, [r7, #4]
 8001040:	f7ff ffa4 	bl	8000f8c <SysTick_Config>
 8001044:	4603      	mov	r3, r0
}
 8001046:	4618      	mov	r0, r3
 8001048:	3708      	adds	r7, #8
 800104a:	46bd      	mov	sp, r7
 800104c:	bd80      	pop	{r7, pc}
	...

08001050 <HAL_MPU_Disable>:
/**
  * @brief  Disables the MPU
  * @retval None
  */
void HAL_MPU_Disable(void)
{
 8001050:	b480      	push	{r7}
 8001052:	af00      	add	r7, sp, #0
  \details Ensures the apparent order of the explicit memory operations before
           and after the instruction, without ensuring their completion.
 */
__STATIC_FORCEINLINE void __DMB(void)
{
  __ASM volatile ("dmb 0xF":::"memory");
 8001054:	f3bf 8f5f 	dmb	sy
}
 8001058:	bf00      	nop
  /* Make sure outstanding transfers are done */
  __DMB();

  /* Disable fault exceptions */
  SCB->SHCSR &= ~SCB_SHCSR_MEMFAULTENA_Msk;
 800105a:	4b07      	ldr	r3, [pc, #28]	; (8001078 <HAL_MPU_Disable+0x28>)
 800105c:	6a5b      	ldr	r3, [r3, #36]	; 0x24
 800105e:	4a06      	ldr	r2, [pc, #24]	; (8001078 <HAL_MPU_Disable+0x28>)
 8001060:	f423 3380 	bic.w	r3, r3, #65536	; 0x10000
 8001064:	6253      	str	r3, [r2, #36]	; 0x24

  /* Disable the MPU and clear the control register*/
  MPU->CTRL = 0;
 8001066:	4b05      	ldr	r3, [pc, #20]	; (800107c <HAL_MPU_Disable+0x2c>)
 8001068:	2200      	movs	r2, #0
 800106a:	605a      	str	r2, [r3, #4]
}
 800106c:	bf00      	nop
 800106e:	46bd      	mov	sp, r7
 8001070:	f85d 7b04 	ldr.w	r7, [sp], #4
 8001074:	4770      	bx	lr
 8001076:	bf00      	nop
 8001078:	e000ed00 	.word	0xe000ed00
 800107c:	e000ed90 	.word	0xe000ed90

08001080 <HAL_MPU_Enable>:
  *            @arg MPU_PRIVILEGED_DEFAULT
  *            @arg MPU_HFNMI_PRIVDEF
  * @retval None
  */
void HAL_MPU_Enable(uint32_t MPU_Control)
{
 8001080:	b480      	push	{r7}
 8001082:	b083      	sub	sp, #12
 8001084:	af00      	add	r7, sp, #0
 8001086:	6078      	str	r0, [r7, #4]
  /* Enable the MPU */
  MPU->CTRL = MPU_Control | MPU_CTRL_ENABLE_Msk;
 8001088:	4a0b      	ldr	r2, [pc, #44]	; (80010b8 <HAL_MPU_Enable+0x38>)
 800108a:	687b      	ldr	r3, [r7, #4]
 800108c:	f043 0301 	orr.w	r3, r3, #1
 8001090:	6053      	str	r3, [r2, #4]

  /* Enable fault exceptions */
  SCB->SHCSR |= SCB_SHCSR_MEMFAULTENA_Msk;
 8001092:	4b0a      	ldr	r3, [pc, #40]	; (80010bc <HAL_MPU_Enable+0x3c>)
 8001094:	6a5b      	ldr	r3, [r3, #36]	; 0x24
 8001096:	4a09      	ldr	r2, [pc, #36]	; (80010bc <HAL_MPU_Enable+0x3c>)
 8001098:	f443 3380 	orr.w	r3, r3, #65536	; 0x10000
 800109c:	6253      	str	r3, [r2, #36]	; 0x24
  __ASM volatile ("dsb 0xF":::"memory");
 800109e:	f3bf 8f4f 	dsb	sy
}
 80010a2:	bf00      	nop
  __ASM volatile ("isb 0xF":::"memory");
 80010a4:	f3bf 8f6f 	isb	sy
}
 80010a8:	bf00      	nop

  /* Ensure MPU setting take effects */
  __DSB();
  __ISB();
}
 80010aa:	bf00      	nop
 80010ac:	370c      	adds	r7, #12
 80010ae:	46bd      	mov	sp, r7
 80010b0:	f85d 7b04 	ldr.w	r7, [sp], #4
 80010b4:	4770      	bx	lr
 80010b6:	bf00      	nop
 80010b8:	e000ed90 	.word	0xe000ed90
 80010bc:	e000ed00 	.word	0xe000ed00

080010c0 <HAL_MPU_ConfigRegion>:
  * @param  MPU_Init Pointer to a MPU_Region_InitTypeDef structure that contains
  *                  the initialization and configuration information.
  * @retval None
  */
void HAL_MPU_ConfigRegion(MPU_Region_InitTypeDef *MPU_Init)
{
 80010c0:	b480      	push	{r7}
 80010c2:	b083      	sub	sp, #12
 80010c4:	af00      	add	r7, sp, #0
 80010c6:	6078      	str	r0, [r7, #4]
  /* Check the parameters */
  assert_param(IS_MPU_REGION_NUMBER(MPU_Init->Number));
  assert_param(IS_MPU_REGION_ENABLE(MPU_Init->Enable));

  /* Set the Region number */
  MPU->RNR = MPU_Init->Number;
 80010c8:	687b      	ldr	r3, [r7, #4]
 80010ca:	785a      	ldrb	r2, [r3, #1]
 80010cc:	4b1d      	ldr	r3, [pc, #116]	; (8001144 <HAL_MPU_ConfigRegion+0x84>)
 80010ce:	609a      	str	r2, [r3, #8]

  if ((MPU_Init->Enable) != 0UL)
 80010d0:	687b      	ldr	r3, [r7, #4]
 80010d2:	781b      	ldrb	r3, [r3, #0]
 80010d4:	2b00      	cmp	r3, #0
 80010d6:	d029      	beq.n	800112c <HAL_MPU_ConfigRegion+0x6c>
    assert_param(IS_MPU_ACCESS_CACHEABLE(MPU_Init->IsCacheable));
    assert_param(IS_MPU_ACCESS_BUFFERABLE(MPU_Init->IsBufferable));
    assert_param(IS_MPU_SUB_REGION_DISABLE(MPU_Init->SubRegionDisable));
    assert_param(IS_MPU_REGION_SIZE(MPU_Init->Size));

    MPU->RBAR = MPU_Init->BaseAddress;
 80010d8:	4a1a      	ldr	r2, [pc, #104]	; (8001144 <HAL_MPU_ConfigRegion+0x84>)
 80010da:	687b      	ldr	r3, [r7, #4]
 80010dc:	685b      	ldr	r3, [r3, #4]
 80010de:	60d3      	str	r3, [r2, #12]
    MPU->RASR = ((uint32_t)MPU_Init->DisableExec             << MPU_RASR_XN_Pos)   |
 80010e0:	687b      	ldr	r3, [r7, #4]
 80010e2:	7b1b      	ldrb	r3, [r3, #12]
 80010e4:	071a      	lsls	r2, r3, #28
                ((uint32_t)MPU_Init->AccessPermission        << MPU_RASR_AP_Pos)   |
 80010e6:	687b      	ldr	r3, [r7, #4]
 80010e8:	7adb      	ldrb	r3, [r3, #11]
 80010ea:	061b      	lsls	r3, r3, #24
    MPU->RASR = ((uint32_t)MPU_Init->DisableExec             << MPU_RASR_XN_Pos)   |
 80010ec:	431a      	orrs	r2, r3
                ((uint32_t)MPU_Init->TypeExtField            << MPU_RASR_TEX_Pos)  |
 80010ee:	687b      	ldr	r3, [r7, #4]
 80010f0:	7a9b      	ldrb	r3, [r3, #10]
 80010f2:	04db      	lsls	r3, r3, #19
                ((uint32_t)MPU_Init->AccessPermission        << MPU_RASR_AP_Pos)   |
 80010f4:	431a      	orrs	r2, r3
                ((uint32_t)MPU_Init->IsShareable             << MPU_RASR_S_Pos)    |
 80010f6:	687b      	ldr	r3, [r7, #4]
 80010f8:	7b5b      	ldrb	r3, [r3, #13]
 80010fa:	049b      	lsls	r3, r3, #18
                ((uint32_t)MPU_Init->TypeExtField            << MPU_RASR_TEX_Pos)  |
 80010fc:	431a      	orrs	r2, r3
                ((uint32_t)MPU_Init->IsCacheable             << MPU_RASR_C_Pos)    |
 80010fe:	687b      	ldr	r3, [r7, #4]
 8001100:	7b9b      	ldrb	r3, [r3, #14]
 8001102:	045b      	lsls	r3, r3, #17
                ((uint32_t)MPU_Init->IsShareable             << MPU_RASR_S_Pos)    |
 8001104:	431a      	orrs	r2, r3
                ((uint32_t)MPU_Init->IsBufferable            << MPU_RASR_B_Pos)    |
 8001106:	687b      	ldr	r3, [r7, #4]
 8001108:	7bdb      	ldrb	r3, [r3, #15]
 800110a:	041b      	lsls	r3, r3, #16
                ((uint32_t)MPU_Init->IsCacheable             << MPU_RASR_C_Pos)    |
 800110c:	431a      	orrs	r2, r3
                ((uint32_t)MPU_Init->SubRegionDisable        << MPU_RASR_SRD_Pos)  |
 800110e:	687b      	ldr	r3, [r7, #4]
 8001110:	7a5b      	ldrb	r3, [r3, #9]
 8001112:	021b      	lsls	r3, r3, #8
                ((uint32_t)MPU_Init->IsBufferable            << MPU_RASR_B_Pos)    |
 8001114:	431a      	orrs	r2, r3
                ((uint32_t)MPU_Init->Size                    << MPU_RASR_SIZE_Pos) |
 8001116:	687b      	ldr	r3, [r7, #4]
 8001118:	7a1b      	ldrb	r3, [r3, #8]
 800111a:	005b      	lsls	r3, r3, #1
                ((uint32_t)MPU_Init->SubRegionDisable        << MPU_RASR_SRD_Pos)  |
 800111c:	4313      	orrs	r3, r2
                ((uint32_t)MPU_Init->Enable                  << MPU_RASR_ENABLE_Pos);
 800111e:	687a      	ldr	r2, [r7, #4]
 8001120:	7812      	ldrb	r2, [r2, #0]
 8001122:	4611      	mov	r1, r2
    MPU->RASR = ((uint32_t)MPU_Init->DisableExec             << MPU_RASR_XN_Pos)   |
 8001124:	4a07      	ldr	r2, [pc, #28]	; (8001144 <HAL_MPU_ConfigRegion+0x84>)
                ((uint32_t)MPU_Init->Size                    << MPU_RASR_SIZE_Pos) |
 8001126:	430b      	orrs	r3, r1
    MPU->RASR = ((uint32_t)MPU_Init->DisableExec             << MPU_RASR_XN_Pos)   |
 8001128:	6113      	str	r3, [r2, #16]
  else
  {
    MPU->RBAR = 0x00;
    MPU->RASR = 0x00;
  }
}
 800112a:	e005      	b.n	8001138 <HAL_MPU_ConfigRegion+0x78>
    MPU->RBAR = 0x00;
 800112c:	4b05      	ldr	r3, [pc, #20]	; (8001144 <HAL_MPU_ConfigRegion+0x84>)
 800112e:	2200      	movs	r2, #0
 8001130:	60da      	str	r2, [r3, #12]
    MPU->RASR = 0x00;
 8001132:	4b04      	ldr	r3, [pc, #16]	; (8001144 <HAL_MPU_ConfigRegion+0x84>)
 8001134:	2200      	movs	r2, #0
 8001136:	611a      	str	r2, [r3, #16]
}
 8001138:	bf00      	nop
 800113a:	370c      	adds	r7, #12
 800113c:	46bd      	mov	sp, r7
 800113e:	f85d 7b04 	ldr.w	r7, [sp], #4
 8001142:	4770      	bx	lr
 8001144:	e000ed90 	.word	0xe000ed90

08001148 <HAL_DMA_Init>:
  * @param  hdma: Pointer to a DMA_HandleTypeDef structure that contains
  *               the configuration information for the specified DMA Stream.
  * @retval HAL status
  */
HAL_StatusTypeDef HAL_DMA_Init(DMA_HandleTypeDef *hdma)
{
 8001148:	b580      	push	{r7, lr}
 800114a:	b086      	sub	sp, #24
 800114c:	af00      	add	r7, sp, #0
 800114e:	6078      	str	r0, [r7, #4]
  uint32_t registerValue;
  uint32_t tickstart = HAL_GetTick();
 8001150:	f7ff fe56 	bl	8000e00 <HAL_GetTick>
 8001154:	6138      	str	r0, [r7, #16]
  DMA_Base_Registers *regs_dma;
  BDMA_Base_Registers *regs_bdma;

  /* Check the DMA peripheral handle */
  if(hdma == NULL)
 8001156:	687b      	ldr	r3, [r7, #4]
 8001158:	2b00      	cmp	r3, #0
 800115a:	d101      	bne.n	8001160 <HAL_DMA_Init+0x18>
  {
    return HAL_ERROR;
 800115c:	2301      	movs	r3, #1
 800115e:	e316      	b.n	800178e <HAL_DMA_Init+0x646>
  assert_param(IS_DMA_PERIPHERAL_DATA_SIZE(hdma->Init.PeriphDataAlignment));
  assert_param(IS_DMA_MEMORY_DATA_SIZE(hdma->Init.MemDataAlignment));
  assert_param(IS_DMA_MODE(hdma->Init.Mode));
  assert_param(IS_DMA_PRIORITY(hdma->Init.Priority));

  if(IS_DMA_STREAM_INSTANCE(hdma->Instance) != 0U) /* DMA1 or DMA2 instance */
 8001160:	687b      	ldr	r3, [r7, #4]
 8001162:	681b      	ldr	r3, [r3, #0]
 8001164:	4a66      	ldr	r2, [pc, #408]	; (8001300 <HAL_DMA_Init+0x1b8>)
 8001166:	4293      	cmp	r3, r2
 8001168:	d04a      	beq.n	8001200 <HAL_DMA_Init+0xb8>
 800116a:	687b      	ldr	r3, [r7, #4]
 800116c:	681b      	ldr	r3, [r3, #0]
 800116e:	4a65      	ldr	r2, [pc, #404]	; (8001304 <HAL_DMA_Init+0x1bc>)
 8001170:	4293      	cmp	r3, r2
 8001172:	d045      	beq.n	8001200 <HAL_DMA_Init+0xb8>
 8001174:	687b      	ldr	r3, [r7, #4]
 8001176:	681b      	ldr	r3, [r3, #0]
 8001178:	4a63      	ldr	r2, [pc, #396]	; (8001308 <HAL_DMA_Init+0x1c0>)
 800117a:	4293      	cmp	r3, r2
 800117c:	d040      	beq.n	8001200 <HAL_DMA_Init+0xb8>
 800117e:	687b      	ldr	r3, [r7, #4]
 8001180:	681b      	ldr	r3, [r3, #0]
 8001182:	4a62      	ldr	r2, [pc, #392]	; (800130c <HAL_DMA_Init+0x1c4>)
 8001184:	4293      	cmp	r3, r2
 8001186:	d03b      	beq.n	8001200 <HAL_DMA_Init+0xb8>
 8001188:	687b      	ldr	r3, [r7, #4]
 800118a:	681b      	ldr	r3, [r3, #0]
 800118c:	4a60      	ldr	r2, [pc, #384]	; (8001310 <HAL_DMA_Init+0x1c8>)
 800118e:	4293      	cmp	r3, r2
 8001190:	d036      	beq.n	8001200 <HAL_DMA_Init+0xb8>
 8001192:	687b      	ldr	r3, [r7, #4]
 8001194:	681b      	ldr	r3, [r3, #0]
 8001196:	4a5f      	ldr	r2, [pc, #380]	; (8001314 <HAL_DMA_Init+0x1cc>)
 8001198:	4293      	cmp	r3, r2
 800119a:	d031      	beq.n	8001200 <HAL_DMA_Init+0xb8>
 800119c:	687b      	ldr	r3, [r7, #4]
 800119e:	681b      	ldr	r3, [r3, #0]
 80011a0:	4a5d      	ldr	r2, [pc, #372]	; (8001318 <HAL_DMA_Init+0x1d0>)
 80011a2:	4293      	cmp	r3, r2
 80011a4:	d02c      	beq.n	8001200 <HAL_DMA_Init+0xb8>
 80011a6:	687b      	ldr	r3, [r7, #4]
 80011a8:	681b      	ldr	r3, [r3, #0]
 80011aa:	4a5c      	ldr	r2, [pc, #368]	; (800131c <HAL_DMA_Init+0x1d4>)
 80011ac:	4293      	cmp	r3, r2
 80011ae:	d027      	beq.n	8001200 <HAL_DMA_Init+0xb8>
 80011b0:	687b      	ldr	r3, [r7, #4]
 80011b2:	681b      	ldr	r3, [r3, #0]
 80011b4:	4a5a      	ldr	r2, [pc, #360]	; (8001320 <HAL_DMA_Init+0x1d8>)
 80011b6:	4293      	cmp	r3, r2
 80011b8:	d022      	beq.n	8001200 <HAL_DMA_Init+0xb8>
 80011ba:	687b      	ldr	r3, [r7, #4]
 80011bc:	681b      	ldr	r3, [r3, #0]
 80011be:	4a59      	ldr	r2, [pc, #356]	; (8001324 <HAL_DMA_Init+0x1dc>)
 80011c0:	4293      	cmp	r3, r2
 80011c2:	d01d      	beq.n	8001200 <HAL_DMA_Init+0xb8>
 80011c4:	687b      	ldr	r3, [r7, #4]
 80011c6:	681b      	ldr	r3, [r3, #0]
 80011c8:	4a57      	ldr	r2, [pc, #348]	; (8001328 <HAL_DMA_Init+0x1e0>)
 80011ca:	4293      	cmp	r3, r2
 80011cc:	d018      	beq.n	8001200 <HAL_DMA_Init+0xb8>
 80011ce:	687b      	ldr	r3, [r7, #4]
 80011d0:	681b      	ldr	r3, [r3, #0]
 80011d2:	4a56      	ldr	r2, [pc, #344]	; (800132c <HAL_DMA_Init+0x1e4>)
 80011d4:	4293      	cmp	r3, r2
 80011d6:	d013      	beq.n	8001200 <HAL_DMA_Init+0xb8>
 80011d8:	687b      	ldr	r3, [r7, #4]
 80011da:	681b      	ldr	r3, [r3, #0]
 80011dc:	4a54      	ldr	r2, [pc, #336]	; (8001330 <HAL_DMA_Init+0x1e8>)
 80011de:	4293      	cmp	r3, r2
 80011e0:	d00e      	beq.n	8001200 <HAL_DMA_Init+0xb8>
 80011e2:	687b      	ldr	r3, [r7, #4]
 80011e4:	681b      	ldr	r3, [r3, #0]
 80011e6:	4a53      	ldr	r2, [pc, #332]	; (8001334 <HAL_DMA_Init+0x1ec>)
 80011e8:	4293      	cmp	r3, r2
 80011ea:	d009      	beq.n	8001200 <HAL_DMA_Init+0xb8>
 80011ec:	687b      	ldr	r3, [r7, #4]
 80011ee:	681b      	ldr	r3, [r3, #0]
 80011f0:	4a51      	ldr	r2, [pc, #324]	; (8001338 <HAL_DMA_Init+0x1f0>)
 80011f2:	4293      	cmp	r3, r2
 80011f4:	d004      	beq.n	8001200 <HAL_DMA_Init+0xb8>
 80011f6:	687b      	ldr	r3, [r7, #4]
 80011f8:	681b      	ldr	r3, [r3, #0]
 80011fa:	4a50      	ldr	r2, [pc, #320]	; (800133c <HAL_DMA_Init+0x1f4>)
 80011fc:	4293      	cmp	r3, r2
 80011fe:	d101      	bne.n	8001204 <HAL_DMA_Init+0xbc>
 8001200:	2301      	movs	r3, #1
 8001202:	e000      	b.n	8001206 <HAL_DMA_Init+0xbe>
 8001204:	2300      	movs	r3, #0
 8001206:	2b00      	cmp	r3, #0
 8001208:	f000 813b 	beq.w	8001482 <HAL_DMA_Init+0x33a>
      assert_param(IS_DMA_MEMORY_BURST(hdma->Init.MemBurst));
      assert_param(IS_DMA_PERIPHERAL_BURST(hdma->Init.PeriphBurst));
    }

    /* Change DMA peripheral state */
    hdma->State = HAL_DMA_STATE_BUSY;
 800120c:	687b      	ldr	r3, [r7, #4]
 800120e:	2202      	movs	r2, #2
 8001210:	f883 2035 	strb.w	r2, [r3, #53]	; 0x35

    /* Allocate lock resource */
    __HAL_UNLOCK(hdma);
 8001214:	687b      	ldr	r3, [r7, #4]
 8001216:	2200      	movs	r2, #0
 8001218:	f883 2034 	strb.w	r2, [r3, #52]	; 0x34

    /* Disable the peripheral */
    __HAL_DMA_DISABLE(hdma);
 800121c:	687b      	ldr	r3, [r7, #4]
 800121e:	681b      	ldr	r3, [r3, #0]
 8001220:	4a37      	ldr	r2, [pc, #220]	; (8001300 <HAL_DMA_Init+0x1b8>)
 8001222:	4293      	cmp	r3, r2
 8001224:	d04a      	beq.n	80012bc <HAL_DMA_Init+0x174>
 8001226:	687b      	ldr	r3, [r7, #4]
 8001228:	681b      	ldr	r3, [r3, #0]
 800122a:	4a36      	ldr	r2, [pc, #216]	; (8001304 <HAL_DMA_Init+0x1bc>)
 800122c:	4293      	cmp	r3, r2
 800122e:	d045      	beq.n	80012bc <HAL_DMA_Init+0x174>
 8001230:	687b      	ldr	r3, [r7, #4]
 8001232:	681b      	ldr	r3, [r3, #0]
 8001234:	4a34      	ldr	r2, [pc, #208]	; (8001308 <HAL_DMA_Init+0x1c0>)
 8001236:	4293      	cmp	r3, r2
 8001238:	d040      	beq.n	80012bc <HAL_DMA_Init+0x174>
 800123a:	687b      	ldr	r3, [r7, #4]
 800123c:	681b      	ldr	r3, [r3, #0]
 800123e:	4a33      	ldr	r2, [pc, #204]	; (800130c <HAL_DMA_Init+0x1c4>)
 8001240:	4293      	cmp	r3, r2
 8001242:	d03b      	beq.n	80012bc <HAL_DMA_Init+0x174>
 8001244:	687b      	ldr	r3, [r7, #4]
 8001246:	681b      	ldr	r3, [r3, #0]
 8001248:	4a31      	ldr	r2, [pc, #196]	; (8001310 <HAL_DMA_Init+0x1c8>)
 800124a:	4293      	cmp	r3, r2
 800124c:	d036      	beq.n	80012bc <HAL_DMA_Init+0x174>
 800124e:	687b      	ldr	r3, [r7, #4]
 8001250:	681b      	ldr	r3, [r3, #0]
 8001252:	4a30      	ldr	r2, [pc, #192]	; (8001314 <HAL_DMA_Init+0x1cc>)
 8001254:	4293      	cmp	r3, r2
 8001256:	d031      	beq.n	80012bc <HAL_DMA_Init+0x174>
 8001258:	687b      	ldr	r3, [r7, #4]
 800125a:	681b      	ldr	r3, [r3, #0]
 800125c:	4a2e      	ldr	r2, [pc, #184]	; (8001318 <HAL_DMA_Init+0x1d0>)
 800125e:	4293      	cmp	r3, r2
 8001260:	d02c      	beq.n	80012bc <HAL_DMA_Init+0x174>
 8001262:	687b      	ldr	r3, [r7, #4]
 8001264:	681b      	ldr	r3, [r3, #0]
 8001266:	4a2d      	ldr	r2, [pc, #180]	; (800131c <HAL_DMA_Init+0x1d4>)
 8001268:	4293      	cmp	r3, r2
 800126a:	d027      	beq.n	80012bc <HAL_DMA_Init+0x174>
 800126c:	687b      	ldr	r3, [r7, #4]
 800126e:	681b      	ldr	r3, [r3, #0]
 8001270:	4a2b      	ldr	r2, [pc, #172]	; (8001320 <HAL_DMA_Init+0x1d8>)
 8001272:	4293      	cmp	r3, r2
 8001274:	d022      	beq.n	80012bc <HAL_DMA_Init+0x174>
 8001276:	687b      	ldr	r3, [r7, #4]
 8001278:	681b      	ldr	r3, [r3, #0]
 800127a:	4a2a      	ldr	r2, [pc, #168]	; (8001324 <HAL_DMA_Init+0x1dc>)
 800127c:	4293      	cmp	r3, r2
 800127e:	d01d      	beq.n	80012bc <HAL_DMA_Init+0x174>
 8001280:	687b      	ldr	r3, [r7, #4]
 8001282:	681b      	ldr	r3, [r3, #0]
 8001284:	4a28      	ldr	r2, [pc, #160]	; (8001328 <HAL_DMA_Init+0x1e0>)
 8001286:	4293      	cmp	r3, r2
 8001288:	d018      	beq.n	80012bc <HAL_DMA_Init+0x174>
 800128a:	687b      	ldr	r3, [r7, #4]
 800128c:	681b      	ldr	r3, [r3, #0]
 800128e:	4a27      	ldr	r2, [pc, #156]	; (800132c <HAL_DMA_Init+0x1e4>)
 8001290:	4293      	cmp	r3, r2
 8001292:	d013      	beq.n	80012bc <HAL_DMA_Init+0x174>
 8001294:	687b      	ldr	r3, [r7, #4]
 8001296:	681b      	ldr	r3, [r3, #0]
 8001298:	4a25      	ldr	r2, [pc, #148]	; (8001330 <HAL_DMA_Init+0x1e8>)
 800129a:	4293      	cmp	r3, r2
 800129c:	d00e      	beq.n	80012bc <HAL_DMA_Init+0x174>
 800129e:	687b      	ldr	r3, [r7, #4]
 80012a0:	681b      	ldr	r3, [r3, #0]
 80012a2:	4a24      	ldr	r2, [pc, #144]	; (8001334 <HAL_DMA_Init+0x1ec>)
 80012a4:	4293      	cmp	r3, r2
 80012a6:	d009      	beq.n	80012bc <HAL_DMA_Init+0x174>
 80012a8:	687b      	ldr	r3, [r7, #4]
 80012aa:	681b      	ldr	r3, [r3, #0]
 80012ac:	4a22      	ldr	r2, [pc, #136]	; (8001338 <HAL_DMA_Init+0x1f0>)
 80012ae:	4293      	cmp	r3, r2
 80012b0:	d004      	beq.n	80012bc <HAL_DMA_Init+0x174>
 80012b2:	687b      	ldr	r3, [r7, #4]
 80012b4:	681b      	ldr	r3, [r3, #0]
 80012b6:	4a21      	ldr	r2, [pc, #132]	; (800133c <HAL_DMA_Init+0x1f4>)
 80012b8:	4293      	cmp	r3, r2
 80012ba:	d108      	bne.n	80012ce <HAL_DMA_Init+0x186>
 80012bc:	687b      	ldr	r3, [r7, #4]
 80012be:	681b      	ldr	r3, [r3, #0]
 80012c0:	681a      	ldr	r2, [r3, #0]
 80012c2:	687b      	ldr	r3, [r7, #4]
 80012c4:	681b      	ldr	r3, [r3, #0]
 80012c6:	f022 0201 	bic.w	r2, r2, #1
 80012ca:	601a      	str	r2, [r3, #0]
 80012cc:	e007      	b.n	80012de <HAL_DMA_Init+0x196>
 80012ce:	687b      	ldr	r3, [r7, #4]
 80012d0:	681b      	ldr	r3, [r3, #0]
 80012d2:	681a      	ldr	r2, [r3, #0]
 80012d4:	687b      	ldr	r3, [r7, #4]
 80012d6:	681b      	ldr	r3, [r3, #0]
 80012d8:	f022 0201 	bic.w	r2, r2, #1
 80012dc:	601a      	str	r2, [r3, #0]

    /* Check if the DMA Stream is effectively disabled */
    while((((DMA_Stream_TypeDef   *)hdma->Instance)->CR & DMA_SxCR_EN) != 0U)
 80012de:	e02f      	b.n	8001340 <HAL_DMA_Init+0x1f8>
    {
      /* Check for the Timeout */
      if((HAL_GetTick() - tickstart ) > HAL_TIMEOUT_DMA_ABORT)
 80012e0:	f7ff fd8e 	bl	8000e00 <HAL_GetTick>
 80012e4:	4602      	mov	r2, r0
 80012e6:	693b      	ldr	r3, [r7, #16]
 80012e8:	1ad3      	subs	r3, r2, r3
 80012ea:	2b05      	cmp	r3, #5
 80012ec:	d928      	bls.n	8001340 <HAL_DMA_Init+0x1f8>
      {
        /* Update error code */
        hdma->ErrorCode = HAL_DMA_ERROR_TIMEOUT;
 80012ee:	687b      	ldr	r3, [r7, #4]
 80012f0:	2220      	movs	r2, #32
 80012f2:	655a      	str	r2, [r3, #84]	; 0x54

        /* Change the DMA state */
        hdma->State = HAL_DMA_STATE_ERROR;
 80012f4:	687b      	ldr	r3, [r7, #4]
 80012f6:	2203      	movs	r2, #3
 80012f8:	f883 2035 	strb.w	r2, [r3, #53]	; 0x35

        return HAL_ERROR;
 80012fc:	2301      	movs	r3, #1
 80012fe:	e246      	b.n	800178e <HAL_DMA_Init+0x646>
 8001300:	40020010 	.word	0x40020010
 8001304:	40020028 	.word	0x40020028
 8001308:	40020040 	.word	0x40020040
 800130c:	40020058 	.word	0x40020058
 8001310:	40020070 	.word	0x40020070
 8001314:	40020088 	.word	0x40020088
 8001318:	400200a0 	.word	0x400200a0
 800131c:	400200b8 	.word	0x400200b8
 8001320:	40020410 	.word	0x40020410
 8001324:	40020428 	.word	0x40020428
 8001328:	40020440 	.word	0x40020440
 800132c:	40020458 	.word	0x40020458
 8001330:	40020470 	.word	0x40020470
 8001334:	40020488 	.word	0x40020488
 8001338:	400204a0 	.word	0x400204a0
 800133c:	400204b8 	.word	0x400204b8
    while((((DMA_Stream_TypeDef   *)hdma->Instance)->CR & DMA_SxCR_EN) != 0U)
 8001340:	687b      	ldr	r3, [r7, #4]
 8001342:	681b      	ldr	r3, [r3, #0]
 8001344:	681b      	ldr	r3, [r3, #0]
 8001346:	f003 0301 	and.w	r3, r3, #1
 800134a:	2b00      	cmp	r3, #0
 800134c:	d1c8      	bne.n	80012e0 <HAL_DMA_Init+0x198>
      }
    }

    /* Get the CR register value */
    registerValue = ((DMA_Stream_TypeDef   *)hdma->Instance)->CR;
 800134e:	687b      	ldr	r3, [r7, #4]
 8001350:	681b      	ldr	r3, [r3, #0]
 8001352:	681b      	ldr	r3, [r3, #0]
 8001354:	617b      	str	r3, [r7, #20]

    /* Clear CHSEL, MBURST, PBURST, PL, MSIZE, PSIZE, MINC, PINC, CIRC, DIR, CT and DBM bits */
    registerValue &= ((uint32_t)~(DMA_SxCR_MBURST | DMA_SxCR_PBURST | \
 8001356:	697a      	ldr	r2, [r7, #20]
 8001358:	4b83      	ldr	r3, [pc, #524]	; (8001568 <HAL_DMA_Init+0x420>)
 800135a:	4013      	ands	r3, r2
 800135c:	617b      	str	r3, [r7, #20]
                        DMA_SxCR_PL    | DMA_SxCR_MSIZE  | DMA_SxCR_PSIZE  | \
                        DMA_SxCR_MINC  | DMA_SxCR_PINC   | DMA_SxCR_CIRC   | \
                        DMA_SxCR_DIR   | DMA_SxCR_CT     | DMA_SxCR_DBM));

    /* Prepare the DMA Stream configuration */
    registerValue |=  hdma->Init.Direction           |
 800135e:	687b      	ldr	r3, [r7, #4]
 8001360:	689a      	ldr	r2, [r3, #8]
            hdma->Init.PeriphInc           | hdma->Init.MemInc           |
 8001362:	687b      	ldr	r3, [r7, #4]
 8001364:	68db      	ldr	r3, [r3, #12]
    registerValue |=  hdma->Init.Direction           |
 8001366:	431a      	orrs	r2, r3
            hdma->Init.PeriphInc           | hdma->Init.MemInc           |
 8001368:	687b      	ldr	r3, [r7, #4]
 800136a:	691b      	ldr	r3, [r3, #16]
 800136c:	431a      	orrs	r2, r3
            hdma->Init.PeriphDataAlignment | hdma->Init.MemDataAlignment |
 800136e:	687b      	ldr	r3, [r7, #4]
 8001370:	695b      	ldr	r3, [r3, #20]
            hdma->Init.PeriphInc           | hdma->Init.MemInc           |
 8001372:	431a      	orrs	r2, r3
            hdma->Init.PeriphDataAlignment | hdma->Init.MemDataAlignment |
 8001374:	687b      	ldr	r3, [r7, #4]
 8001376:	699b      	ldr	r3, [r3, #24]
 8001378:	431a      	orrs	r2, r3
            hdma->Init.Mode                | hdma->Init.Priority;
 800137a:	687b      	ldr	r3, [r7, #4]
 800137c:	69db      	ldr	r3, [r3, #28]
            hdma->Init.PeriphDataAlignment | hdma->Init.MemDataAlignment |
 800137e:	431a      	orrs	r2, r3
            hdma->Init.Mode                | hdma->Init.Priority;
 8001380:	687b      	ldr	r3, [r7, #4]
 8001382:	6a1b      	ldr	r3, [r3, #32]
 8001384:	4313      	orrs	r3, r2
    registerValue |=  hdma->Init.Direction           |
 8001386:	697a      	ldr	r2, [r7, #20]
 8001388:	4313      	orrs	r3, r2
 800138a:	617b      	str	r3, [r7, #20]

    /* the Memory burst and peripheral burst are not used when the FIFO is disabled */
    if(hdma->Init.FIFOMode == DMA_FIFOMODE_ENABLE)
 800138c:	687b      	ldr	r3, [r7, #4]
 800138e:	6a5b      	ldr	r3, [r3, #36]	; 0x24
 8001390:	2b04      	cmp	r3, #4
 8001392:	d107      	bne.n	80013a4 <HAL_DMA_Init+0x25c>
    {
      /* Get memory burst and peripheral burst */
      registerValue |=  hdma->Init.MemBurst | hdma->Init.PeriphBurst;
 8001394:	687b      	ldr	r3, [r7, #4]
 8001396:	6ada      	ldr	r2, [r3, #44]	; 0x2c
 8001398:	687b      	ldr	r3, [r7, #4]
 800139a:	6b1b      	ldr	r3, [r3, #48]	; 0x30
 800139c:	4313      	orrs	r3, r2
 800139e:	697a      	ldr	r2, [r7, #20]
 80013a0:	4313      	orrs	r3, r2
 80013a2:	617b      	str	r3, [r7, #20]
    }

    /* Work around for Errata 2.22: UART/USART- DMA transfer lock: DMA stream could be
                                    lock when transferring data to/from USART/UART */
#if (STM32H7_DEV_ID == 0x450UL)
    if((DBGMCU->IDCODE & 0xFFFF0000U) >= 0x20000000U)
 80013a4:	4b71      	ldr	r3, [pc, #452]	; (800156c <HAL_DMA_Init+0x424>)
 80013a6:	681a      	ldr	r2, [r3, #0]
 80013a8:	4b71      	ldr	r3, [pc, #452]	; (8001570 <HAL_DMA_Init+0x428>)
 80013aa:	4013      	ands	r3, r2
 80013ac:	f1b3 5f00 	cmp.w	r3, #536870912	; 0x20000000
 80013b0:	d328      	bcc.n	8001404 <HAL_DMA_Init+0x2bc>
    {
#endif /* STM32H7_DEV_ID == 0x450UL */
      if(IS_DMA_UART_USART_REQUEST(hdma->Init.Request) != 0U)
 80013b2:	687b      	ldr	r3, [r7, #4]
 80013b4:	685b      	ldr	r3, [r3, #4]
 80013b6:	2b28      	cmp	r3, #40	; 0x28
 80013b8:	d903      	bls.n	80013c2 <HAL_DMA_Init+0x27a>
 80013ba:	687b      	ldr	r3, [r7, #4]
 80013bc:	685b      	ldr	r3, [r3, #4]
 80013be:	2b2e      	cmp	r3, #46	; 0x2e
 80013c0:	d917      	bls.n	80013f2 <HAL_DMA_Init+0x2aa>
 80013c2:	687b      	ldr	r3, [r7, #4]
 80013c4:	685b      	ldr	r3, [r3, #4]
 80013c6:	2b3e      	cmp	r3, #62	; 0x3e
 80013c8:	d903      	bls.n	80013d2 <HAL_DMA_Init+0x28a>
 80013ca:	687b      	ldr	r3, [r7, #4]
 80013cc:	685b      	ldr	r3, [r3, #4]
 80013ce:	2b42      	cmp	r3, #66	; 0x42
 80013d0:	d90f      	bls.n	80013f2 <HAL_DMA_Init+0x2aa>
 80013d2:	687b      	ldr	r3, [r7, #4]
 80013d4:	685b      	ldr	r3, [r3, #4]
 80013d6:	2b46      	cmp	r3, #70	; 0x46
 80013d8:	d903      	bls.n	80013e2 <HAL_DMA_Init+0x29a>
 80013da:	687b      	ldr	r3, [r7, #4]
 80013dc:	685b      	ldr	r3, [r3, #4]
 80013de:	2b48      	cmp	r3, #72	; 0x48
 80013e0:	d907      	bls.n	80013f2 <HAL_DMA_Init+0x2aa>
 80013e2:	687b      	ldr	r3, [r7, #4]
 80013e4:	685b      	ldr	r3, [r3, #4]
 80013e6:	2b4e      	cmp	r3, #78	; 0x4e
 80013e8:	d905      	bls.n	80013f6 <HAL_DMA_Init+0x2ae>
 80013ea:	687b      	ldr	r3, [r7, #4]
 80013ec:	685b      	ldr	r3, [r3, #4]
 80013ee:	2b52      	cmp	r3, #82	; 0x52
 80013f0:	d801      	bhi.n	80013f6 <HAL_DMA_Init+0x2ae>
 80013f2:	2301      	movs	r3, #1
 80013f4:	e000      	b.n	80013f8 <HAL_DMA_Init+0x2b0>
 80013f6:	2300      	movs	r3, #0
 80013f8:	2b00      	cmp	r3, #0
 80013fa:	d003      	beq.n	8001404 <HAL_DMA_Init+0x2bc>
      {
        registerValue |= DMA_SxCR_TRBUFF;
 80013fc:	697b      	ldr	r3, [r7, #20]
 80013fe:	f443 1380 	orr.w	r3, r3, #1048576	; 0x100000
 8001402:	617b      	str	r3, [r7, #20]
#if (STM32H7_DEV_ID == 0x450UL)
    }
#endif /* STM32H7_DEV_ID == 0x450UL */

    /* Write to DMA Stream CR register */
    ((DMA_Stream_TypeDef   *)hdma->Instance)->CR = registerValue;
 8001404:	687b      	ldr	r3, [r7, #4]
 8001406:	681b      	ldr	r3, [r3, #0]
 8001408:	697a      	ldr	r2, [r7, #20]
 800140a:	601a      	str	r2, [r3, #0]

    /* Get the FCR register value */
    registerValue = ((DMA_Stream_TypeDef   *)hdma->Instance)->FCR;
 800140c:	687b      	ldr	r3, [r7, #4]
 800140e:	681b      	ldr	r3, [r3, #0]
 8001410:	695b      	ldr	r3, [r3, #20]
 8001412:	617b      	str	r3, [r7, #20]

    /* Clear Direct mode and FIFO threshold bits */
    registerValue &= (uint32_t)~(DMA_SxFCR_DMDIS | DMA_SxFCR_FTH);
 8001414:	697b      	ldr	r3, [r7, #20]
 8001416:	f023 0307 	bic.w	r3, r3, #7
 800141a:	617b      	str	r3, [r7, #20]

    /* Prepare the DMA Stream FIFO configuration */
    registerValue |= hdma->Init.FIFOMode;
 800141c:	687b      	ldr	r3, [r7, #4]
 800141e:	6a5b      	ldr	r3, [r3, #36]	; 0x24
 8001420:	697a      	ldr	r2, [r7, #20]
 8001422:	4313      	orrs	r3, r2
 8001424:	617b      	str	r3, [r7, #20]

    /* the FIFO threshold is not used when the FIFO mode is disabled */
    if(hdma->Init.FIFOMode == DMA_FIFOMODE_ENABLE)
 8001426:	687b      	ldr	r3, [r7, #4]
 8001428:	6a5b      	ldr	r3, [r3, #36]	; 0x24
 800142a:	2b04      	cmp	r3, #4
 800142c:	d117      	bne.n	800145e <HAL_DMA_Init+0x316>
    {
      /* Get the FIFO threshold */
      registerValue |= hdma->Init.FIFOThreshold;
 800142e:	687b      	ldr	r3, [r7, #4]
 8001430:	6a9b      	ldr	r3, [r3, #40]	; 0x28
 8001432:	697a      	ldr	r2, [r7, #20]
 8001434:	4313      	orrs	r3, r2
 8001436:	617b      	str	r3, [r7, #20]

      /* Check compatibility between FIFO threshold level and size of the memory burst */
      /* for INCR4, INCR8, INCR16 */
      if(hdma->Init.MemBurst != DMA_MBURST_SINGLE)
 8001438:	687b      	ldr	r3, [r7, #4]
 800143a:	6adb      	ldr	r3, [r3, #44]	; 0x2c
 800143c:	2b00      	cmp	r3, #0
 800143e:	d00e      	beq.n	800145e <HAL_DMA_Init+0x316>
      {
        if (DMA_CheckFifoParam(hdma) != HAL_OK)
 8001440:	6878      	ldr	r0, [r7, #4]
 8001442:	f001 fbff 	bl	8002c44 <DMA_CheckFifoParam>
 8001446:	4603      	mov	r3, r0
 8001448:	2b00      	cmp	r3, #0
 800144a:	d008      	beq.n	800145e <HAL_DMA_Init+0x316>
        {
          /* Update error code */
          hdma->ErrorCode = HAL_DMA_ERROR_PARAM;
 800144c:	687b      	ldr	r3, [r7, #4]
 800144e:	2240      	movs	r2, #64	; 0x40
 8001450:	655a      	str	r2, [r3, #84]	; 0x54

          /* Change the DMA state */
          hdma->State = HAL_DMA_STATE_READY;
 8001452:	687b      	ldr	r3, [r7, #4]
 8001454:	2201      	movs	r2, #1
 8001456:	f883 2035 	strb.w	r2, [r3, #53]	; 0x35

          return HAL_ERROR;
 800145a:	2301      	movs	r3, #1
 800145c:	e197      	b.n	800178e <HAL_DMA_Init+0x646>
        }
      }
    }

    /* Write to DMA Stream FCR */
    ((DMA_Stream_TypeDef   *)hdma->Instance)->FCR = registerValue;
 800145e:	687b      	ldr	r3, [r7, #4]
 8001460:	681b      	ldr	r3, [r3, #0]
 8001462:	697a      	ldr	r2, [r7, #20]
 8001464:	615a      	str	r2, [r3, #20]

    /* Initialize StreamBaseAddress and StreamIndex parameters to be used to calculate
       DMA steam Base Address needed by HAL_DMA_IRQHandler() and HAL_DMA_PollForTransfer() */
    regs_dma = (DMA_Base_Registers *)DMA_CalcBaseAndBitshift(hdma);
 8001466:	6878      	ldr	r0, [r7, #4]
 8001468:	f001 fb3a 	bl	8002ae0 <DMA_CalcBaseAndBitshift>
 800146c:	4603      	mov	r3, r0
 800146e:	60bb      	str	r3, [r7, #8]

    /* Clear all interrupt flags */
    regs_dma->IFCR = 0x3FUL << (hdma->StreamIndex & 0x1FU);
 8001470:	687b      	ldr	r3, [r7, #4]
 8001472:	6ddb      	ldr	r3, [r3, #92]	; 0x5c
 8001474:	f003 031f 	and.w	r3, r3, #31
 8001478:	223f      	movs	r2, #63	; 0x3f
 800147a:	409a      	lsls	r2, r3
 800147c:	68bb      	ldr	r3, [r7, #8]
 800147e:	609a      	str	r2, [r3, #8]
 8001480:	e0cd      	b.n	800161e <HAL_DMA_Init+0x4d6>
  }
  else if(IS_BDMA_CHANNEL_INSTANCE(hdma->Instance) != 0U) /* BDMA instance(s) */
 8001482:	687b      	ldr	r3, [r7, #4]
 8001484:	681b      	ldr	r3, [r3, #0]
 8001486:	4a3b      	ldr	r2, [pc, #236]	; (8001574 <HAL_DMA_Init+0x42c>)
 8001488:	4293      	cmp	r3, r2
 800148a:	d022      	beq.n	80014d2 <HAL_DMA_Init+0x38a>
 800148c:	687b      	ldr	r3, [r7, #4]
 800148e:	681b      	ldr	r3, [r3, #0]
 8001490:	4a39      	ldr	r2, [pc, #228]	; (8001578 <HAL_DMA_Init+0x430>)
 8001492:	4293      	cmp	r3, r2
 8001494:	d01d      	beq.n	80014d2 <HAL_DMA_Init+0x38a>
 8001496:	687b      	ldr	r3, [r7, #4]
 8001498:	681b      	ldr	r3, [r3, #0]
 800149a:	4a38      	ldr	r2, [pc, #224]	; (800157c <HAL_DMA_Init+0x434>)
 800149c:	4293      	cmp	r3, r2
 800149e:	d018      	beq.n	80014d2 <HAL_DMA_Init+0x38a>
 80014a0:	687b      	ldr	r3, [r7, #4]
 80014a2:	681b      	ldr	r3, [r3, #0]
 80014a4:	4a36      	ldr	r2, [pc, #216]	; (8001580 <HAL_DMA_Init+0x438>)
 80014a6:	4293      	cmp	r3, r2
 80014a8:	d013      	beq.n	80014d2 <HAL_DMA_Init+0x38a>
 80014aa:	687b      	ldr	r3, [r7, #4]
 80014ac:	681b      	ldr	r3, [r3, #0]
 80014ae:	4a35      	ldr	r2, [pc, #212]	; (8001584 <HAL_DMA_Init+0x43c>)
 80014b0:	4293      	cmp	r3, r2
 80014b2:	d00e      	beq.n	80014d2 <HAL_DMA_Init+0x38a>
 80014b4:	687b      	ldr	r3, [r7, #4]
 80014b6:	681b      	ldr	r3, [r3, #0]
 80014b8:	4a33      	ldr	r2, [pc, #204]	; (8001588 <HAL_DMA_Init+0x440>)
 80014ba:	4293      	cmp	r3, r2
 80014bc:	d009      	beq.n	80014d2 <HAL_DMA_Init+0x38a>
 80014be:	687b      	ldr	r3, [r7, #4]
 80014c0:	681b      	ldr	r3, [r3, #0]
 80014c2:	4a32      	ldr	r2, [pc, #200]	; (800158c <HAL_DMA_Init+0x444>)
 80014c4:	4293      	cmp	r3, r2
 80014c6:	d004      	beq.n	80014d2 <HAL_DMA_Init+0x38a>
 80014c8:	687b      	ldr	r3, [r7, #4]
 80014ca:	681b      	ldr	r3, [r3, #0]
 80014cc:	4a30      	ldr	r2, [pc, #192]	; (8001590 <HAL_DMA_Init+0x448>)
 80014ce:	4293      	cmp	r3, r2
 80014d0:	d101      	bne.n	80014d6 <HAL_DMA_Init+0x38e>
 80014d2:	2301      	movs	r3, #1
 80014d4:	e000      	b.n	80014d8 <HAL_DMA_Init+0x390>
 80014d6:	2300      	movs	r3, #0
 80014d8:	2b00      	cmp	r3, #0
 80014da:	f000 8097 	beq.w	800160c <HAL_DMA_Init+0x4c4>
  {
    if(IS_BDMA_CHANNEL_DMAMUX_INSTANCE(hdma->Instance) != 0U)
 80014de:	687b      	ldr	r3, [r7, #4]
 80014e0:	681b      	ldr	r3, [r3, #0]
 80014e2:	4a24      	ldr	r2, [pc, #144]	; (8001574 <HAL_DMA_Init+0x42c>)
 80014e4:	4293      	cmp	r3, r2
 80014e6:	d021      	beq.n	800152c <HAL_DMA_Init+0x3e4>
 80014e8:	687b      	ldr	r3, [r7, #4]
 80014ea:	681b      	ldr	r3, [r3, #0]
 80014ec:	4a22      	ldr	r2, [pc, #136]	; (8001578 <HAL_DMA_Init+0x430>)
 80014ee:	4293      	cmp	r3, r2
 80014f0:	d01c      	beq.n	800152c <HAL_DMA_Init+0x3e4>
 80014f2:	687b      	ldr	r3, [r7, #4]
 80014f4:	681b      	ldr	r3, [r3, #0]
 80014f6:	4a21      	ldr	r2, [pc, #132]	; (800157c <HAL_DMA_Init+0x434>)
 80014f8:	4293      	cmp	r3, r2
 80014fa:	d017      	beq.n	800152c <HAL_DMA_Init+0x3e4>
 80014fc:	687b      	ldr	r3, [r7, #4]
 80014fe:	681b      	ldr	r3, [r3, #0]
 8001500:	4a1f      	ldr	r2, [pc, #124]	; (8001580 <HAL_DMA_Init+0x438>)
 8001502:	4293      	cmp	r3, r2
 8001504:	d012      	beq.n	800152c <HAL_DMA_Init+0x3e4>
 8001506:	687b      	ldr	r3, [r7, #4]
 8001508:	681b      	ldr	r3, [r3, #0]
 800150a:	4a1e      	ldr	r2, [pc, #120]	; (8001584 <HAL_DMA_Init+0x43c>)
 800150c:	4293      	cmp	r3, r2
 800150e:	d00d      	beq.n	800152c <HAL_DMA_Init+0x3e4>
 8001510:	687b      	ldr	r3, [r7, #4]
 8001512:	681b      	ldr	r3, [r3, #0]
 8001514:	4a1c      	ldr	r2, [pc, #112]	; (8001588 <HAL_DMA_Init+0x440>)
 8001516:	4293      	cmp	r3, r2
 8001518:	d008      	beq.n	800152c <HAL_DMA_Init+0x3e4>
 800151a:	687b      	ldr	r3, [r7, #4]
 800151c:	681b      	ldr	r3, [r3, #0]
 800151e:	4a1b      	ldr	r2, [pc, #108]	; (800158c <HAL_DMA_Init+0x444>)
 8001520:	4293      	cmp	r3, r2
 8001522:	d003      	beq.n	800152c <HAL_DMA_Init+0x3e4>
 8001524:	687b      	ldr	r3, [r7, #4]
 8001526:	681b      	ldr	r3, [r3, #0]
 8001528:	4a19      	ldr	r2, [pc, #100]	; (8001590 <HAL_DMA_Init+0x448>)
 800152a:	4293      	cmp	r3, r2
 800152c:	bf00      	nop
      /* Check the request parameter */
      assert_param(IS_BDMA_REQUEST(hdma->Init.Request));
    }

    /* Change DMA peripheral state */
    hdma->State = HAL_DMA_STATE_BUSY;
 800152e:	687b      	ldr	r3, [r7, #4]
 8001530:	2202      	movs	r2, #2
 8001532:	f883 2035 	strb.w	r2, [r3, #53]	; 0x35

    /* Allocate lock resource */
    __HAL_UNLOCK(hdma);
 8001536:	687b      	ldr	r3, [r7, #4]
 8001538:	2200      	movs	r2, #0
 800153a:	f883 2034 	strb.w	r2, [r3, #52]	; 0x34

    /* Get the CR register value */
    registerValue = ((BDMA_Channel_TypeDef *)hdma->Instance)->CCR;
 800153e:	687b      	ldr	r3, [r7, #4]
 8001540:	681b      	ldr	r3, [r3, #0]
 8001542:	681b      	ldr	r3, [r3, #0]
 8001544:	617b      	str	r3, [r7, #20]

    /* Clear PL, MSIZE, PSIZE, MINC, PINC, CIRC, DIR, MEM2MEM, DBM and CT bits */
    registerValue &= ((uint32_t)~(BDMA_CCR_PL    | BDMA_CCR_MSIZE   | BDMA_CCR_PSIZE  | \
 8001546:	697a      	ldr	r2, [r7, #20]
 8001548:	4b12      	ldr	r3, [pc, #72]	; (8001594 <HAL_DMA_Init+0x44c>)
 800154a:	4013      	ands	r3, r2
 800154c:	617b      	str	r3, [r7, #20]
                                  BDMA_CCR_MINC  | BDMA_CCR_PINC    | BDMA_CCR_CIRC   | \
                                  BDMA_CCR_DIR   | BDMA_CCR_MEM2MEM | BDMA_CCR_DBM    | \
                                  BDMA_CCR_CT));

    /* Prepare the DMA Channel configuration */
    registerValue |=  DMA_TO_BDMA_DIRECTION(hdma->Init.Direction)            |
 800154e:	687b      	ldr	r3, [r7, #4]
 8001550:	689b      	ldr	r3, [r3, #8]
 8001552:	2b40      	cmp	r3, #64	; 0x40
 8001554:	d020      	beq.n	8001598 <HAL_DMA_Init+0x450>
 8001556:	687b      	ldr	r3, [r7, #4]
 8001558:	689b      	ldr	r3, [r3, #8]
 800155a:	2b80      	cmp	r3, #128	; 0x80
 800155c:	d102      	bne.n	8001564 <HAL_DMA_Init+0x41c>
 800155e:	f44f 4380 	mov.w	r3, #16384	; 0x4000
 8001562:	e01a      	b.n	800159a <HAL_DMA_Init+0x452>
 8001564:	2300      	movs	r3, #0
 8001566:	e018      	b.n	800159a <HAL_DMA_Init+0x452>
 8001568:	fe10803f 	.word	0xfe10803f
 800156c:	5c001000 	.word	0x5c001000
 8001570:	ffff0000 	.word	0xffff0000
 8001574:	58025408 	.word	0x58025408
 8001578:	5802541c 	.word	0x5802541c
 800157c:	58025430 	.word	0x58025430
 8001580:	58025444 	.word	0x58025444
 8001584:	58025458 	.word	0x58025458
 8001588:	5802546c 	.word	0x5802546c
 800158c:	58025480 	.word	0x58025480
 8001590:	58025494 	.word	0x58025494
 8001594:	fffe000f 	.word	0xfffe000f
 8001598:	2310      	movs	r3, #16
                      DMA_TO_BDMA_PERIPHERAL_INC(hdma->Init.PeriphInc)       |
 800159a:	687a      	ldr	r2, [r7, #4]
 800159c:	68d2      	ldr	r2, [r2, #12]
 800159e:	08d2      	lsrs	r2, r2, #3
    registerValue |=  DMA_TO_BDMA_DIRECTION(hdma->Init.Direction)            |
 80015a0:	431a      	orrs	r2, r3
                      DMA_TO_BDMA_MEMORY_INC(hdma->Init.MemInc)              |
 80015a2:	687b      	ldr	r3, [r7, #4]
 80015a4:	691b      	ldr	r3, [r3, #16]
 80015a6:	08db      	lsrs	r3, r3, #3
                      DMA_TO_BDMA_PERIPHERAL_INC(hdma->Init.PeriphInc)       |
 80015a8:	431a      	orrs	r2, r3
                      DMA_TO_BDMA_PDATA_SIZE(hdma->Init.PeriphDataAlignment) |
 80015aa:	687b      	ldr	r3, [r7, #4]
 80015ac:	695b      	ldr	r3, [r3, #20]
 80015ae:	08db      	lsrs	r3, r3, #3
                      DMA_TO_BDMA_MEMORY_INC(hdma->Init.MemInc)              |
 80015b0:	431a      	orrs	r2, r3
                      DMA_TO_BDMA_MDATA_SIZE(hdma->Init.MemDataAlignment)    |
 80015b2:	687b      	ldr	r3, [r7, #4]
 80015b4:	699b      	ldr	r3, [r3, #24]
 80015b6:	08db      	lsrs	r3, r3, #3
                      DMA_TO_BDMA_PDATA_SIZE(hdma->Init.PeriphDataAlignment) |
 80015b8:	431a      	orrs	r2, r3
                      DMA_TO_BDMA_MODE(hdma->Init.Mode)                      |
 80015ba:	687b      	ldr	r3, [r7, #4]
 80015bc:	69db      	ldr	r3, [r3, #28]
 80015be:	08db      	lsrs	r3, r3, #3
                      DMA_TO_BDMA_MDATA_SIZE(hdma->Init.MemDataAlignment)    |
 80015c0:	431a      	orrs	r2, r3
                      DMA_TO_BDMA_PRIORITY(hdma->Init.Priority);
 80015c2:	687b      	ldr	r3, [r7, #4]
 80015c4:	6a1b      	ldr	r3, [r3, #32]
 80015c6:	091b      	lsrs	r3, r3, #4
                      DMA_TO_BDMA_MODE(hdma->Init.Mode)                      |
 80015c8:	4313      	orrs	r3, r2
    registerValue |=  DMA_TO_BDMA_DIRECTION(hdma->Init.Direction)            |
 80015ca:	697a      	ldr	r2, [r7, #20]
 80015cc:	4313      	orrs	r3, r2
 80015ce:	617b      	str	r3, [r7, #20]

    /* Write to DMA Channel CR register */
    ((BDMA_Channel_TypeDef *)hdma->Instance)->CCR = registerValue;
 80015d0:	687b      	ldr	r3, [r7, #4]
 80015d2:	681b      	ldr	r3, [r3, #0]
 80015d4:	697a      	ldr	r2, [r7, #20]
 80015d6:	601a      	str	r2, [r3, #0]

    /* calculation of the channel index */
    hdma->StreamIndex = (((uint32_t)((uint32_t*)hdma->Instance) - (uint32_t)BDMA_Channel0) / ((uint32_t)BDMA_Channel1 - (uint32_t)BDMA_Channel0)) << 2U;
 80015d8:	687b      	ldr	r3, [r7, #4]
 80015da:	681b      	ldr	r3, [r3, #0]
 80015dc:	461a      	mov	r2, r3
 80015de:	4b6e      	ldr	r3, [pc, #440]	; (8001798 <HAL_DMA_Init+0x650>)
 80015e0:	4413      	add	r3, r2
 80015e2:	4a6e      	ldr	r2, [pc, #440]	; (800179c <HAL_DMA_Init+0x654>)
 80015e4:	fba2 2303 	umull	r2, r3, r2, r3
 80015e8:	091b      	lsrs	r3, r3, #4
 80015ea:	009a      	lsls	r2, r3, #2
 80015ec:	687b      	ldr	r3, [r7, #4]
 80015ee:	65da      	str	r2, [r3, #92]	; 0x5c

    /* Initialize StreamBaseAddress and StreamIndex parameters to be used to calculate
    DMA steam Base Address needed by HAL_DMA_IRQHandler() and HAL_DMA_PollForTransfer() */
    regs_bdma = (BDMA_Base_Registers *)DMA_CalcBaseAndBitshift(hdma);
 80015f0:	6878      	ldr	r0, [r7, #4]
 80015f2:	f001 fa75 	bl	8002ae0 <DMA_CalcBaseAndBitshift>
 80015f6:	4603      	mov	r3, r0
 80015f8:	60fb      	str	r3, [r7, #12]

    /* Clear all interrupt flags */
    regs_bdma->IFCR = ((BDMA_IFCR_CGIF0) << (hdma->StreamIndex & 0x1FU));
 80015fa:	687b      	ldr	r3, [r7, #4]
 80015fc:	6ddb      	ldr	r3, [r3, #92]	; 0x5c
 80015fe:	f003 031f 	and.w	r3, r3, #31
 8001602:	2201      	movs	r2, #1
 8001604:	409a      	lsls	r2, r3
 8001606:	68fb      	ldr	r3, [r7, #12]
 8001608:	605a      	str	r2, [r3, #4]
 800160a:	e008      	b.n	800161e <HAL_DMA_Init+0x4d6>
  }
  else
  {
    hdma->ErrorCode = HAL_DMA_ERROR_PARAM;
 800160c:	687b      	ldr	r3, [r7, #4]
 800160e:	2240      	movs	r2, #64	; 0x40
 8001610:	655a      	str	r2, [r3, #84]	; 0x54
    hdma->State     = HAL_DMA_STATE_ERROR;
 8001612:	687b      	ldr	r3, [r7, #4]
 8001614:	2203      	movs	r2, #3
 8001616:	f883 2035 	strb.w	r2, [r3, #53]	; 0x35

    return HAL_ERROR;
 800161a:	2301      	movs	r3, #1
 800161c:	e0b7      	b.n	800178e <HAL_DMA_Init+0x646>
  }

  if(IS_DMA_DMAMUX_ALL_INSTANCE(hdma->Instance) != 0U) /* No DMAMUX available for BDMA1 */
 800161e:	687b      	ldr	r3, [r7, #4]
 8001620:	681b      	ldr	r3, [r3, #0]
 8001622:	4a5f      	ldr	r2, [pc, #380]	; (80017a0 <HAL_DMA_Init+0x658>)
 8001624:	4293      	cmp	r3, r2
 8001626:	d072      	beq.n	800170e <HAL_DMA_Init+0x5c6>
 8001628:	687b      	ldr	r3, [r7, #4]
 800162a:	681b      	ldr	r3, [r3, #0]
 800162c:	4a5d      	ldr	r2, [pc, #372]	; (80017a4 <HAL_DMA_Init+0x65c>)
 800162e:	4293      	cmp	r3, r2
 8001630:	d06d      	beq.n	800170e <HAL_DMA_Init+0x5c6>
 8001632:	687b      	ldr	r3, [r7, #4]
 8001634:	681b      	ldr	r3, [r3, #0]
 8001636:	4a5c      	ldr	r2, [pc, #368]	; (80017a8 <HAL_DMA_Init+0x660>)
 8001638:	4293      	cmp	r3, r2
 800163a:	d068      	beq.n	800170e <HAL_DMA_Init+0x5c6>
 800163c:	687b      	ldr	r3, [r7, #4]
 800163e:	681b      	ldr	r3, [r3, #0]
 8001640:	4a5a      	ldr	r2, [pc, #360]	; (80017ac <HAL_DMA_Init+0x664>)
 8001642:	4293      	cmp	r3, r2
 8001644:	d063      	beq.n	800170e <HAL_DMA_Init+0x5c6>
 8001646:	687b      	ldr	r3, [r7, #4]
 8001648:	681b      	ldr	r3, [r3, #0]
 800164a:	4a59      	ldr	r2, [pc, #356]	; (80017b0 <HAL_DMA_Init+0x668>)
 800164c:	4293      	cmp	r3, r2
 800164e:	d05e      	beq.n	800170e <HAL_DMA_Init+0x5c6>
 8001650:	687b      	ldr	r3, [r7, #4]
 8001652:	681b      	ldr	r3, [r3, #0]
 8001654:	4a57      	ldr	r2, [pc, #348]	; (80017b4 <HAL_DMA_Init+0x66c>)
 8001656:	4293      	cmp	r3, r2
 8001658:	d059      	beq.n	800170e <HAL_DMA_Init+0x5c6>
 800165a:	687b      	ldr	r3, [r7, #4]
 800165c:	681b      	ldr	r3, [r3, #0]
 800165e:	4a56      	ldr	r2, [pc, #344]	; (80017b8 <HAL_DMA_Init+0x670>)
 8001660:	4293      	cmp	r3, r2
 8001662:	d054      	beq.n	800170e <HAL_DMA_Init+0x5c6>
 8001664:	687b      	ldr	r3, [r7, #4]
 8001666:	681b      	ldr	r3, [r3, #0]
 8001668:	4a54      	ldr	r2, [pc, #336]	; (80017bc <HAL_DMA_Init+0x674>)
 800166a:	4293      	cmp	r3, r2
 800166c:	d04f      	beq.n	800170e <HAL_DMA_Init+0x5c6>
 800166e:	687b      	ldr	r3, [r7, #4]
 8001670:	681b      	ldr	r3, [r3, #0]
 8001672:	4a53      	ldr	r2, [pc, #332]	; (80017c0 <HAL_DMA_Init+0x678>)
 8001674:	4293      	cmp	r3, r2
 8001676:	d04a      	beq.n	800170e <HAL_DMA_Init+0x5c6>
 8001678:	687b      	ldr	r3, [r7, #4]
 800167a:	681b      	ldr	r3, [r3, #0]
 800167c:	4a51      	ldr	r2, [pc, #324]	; (80017c4 <HAL_DMA_Init+0x67c>)
 800167e:	4293      	cmp	r3, r2
 8001680:	d045      	beq.n	800170e <HAL_DMA_Init+0x5c6>
 8001682:	687b      	ldr	r3, [r7, #4]
 8001684:	681b      	ldr	r3, [r3, #0]
 8001686:	4a50      	ldr	r2, [pc, #320]	; (80017c8 <HAL_DMA_Init+0x680>)
 8001688:	4293      	cmp	r3, r2
 800168a:	d040      	beq.n	800170e <HAL_DMA_Init+0x5c6>
 800168c:	687b      	ldr	r3, [r7, #4]
 800168e:	681b      	ldr	r3, [r3, #0]
 8001690:	4a4e      	ldr	r2, [pc, #312]	; (80017cc <HAL_DMA_Init+0x684>)
 8001692:	4293      	cmp	r3, r2
 8001694:	d03b      	beq.n	800170e <HAL_DMA_Init+0x5c6>
 8001696:	687b      	ldr	r3, [r7, #4]
 8001698:	681b      	ldr	r3, [r3, #0]
 800169a:	4a4d      	ldr	r2, [pc, #308]	; (80017d0 <HAL_DMA_Init+0x688>)
 800169c:	4293      	cmp	r3, r2
 800169e:	d036      	beq.n	800170e <HAL_DMA_Init+0x5c6>
 80016a0:	687b      	ldr	r3, [r7, #4]
 80016a2:	681b      	ldr	r3, [r3, #0]
 80016a4:	4a4b      	ldr	r2, [pc, #300]	; (80017d4 <HAL_DMA_Init+0x68c>)
 80016a6:	4293      	cmp	r3, r2
 80016a8:	d031      	beq.n	800170e <HAL_DMA_Init+0x5c6>
 80016aa:	687b      	ldr	r3, [r7, #4]
 80016ac:	681b      	ldr	r3, [r3, #0]
 80016ae:	4a4a      	ldr	r2, [pc, #296]	; (80017d8 <HAL_DMA_Init+0x690>)
 80016b0:	4293      	cmp	r3, r2
 80016b2:	d02c      	beq.n	800170e <HAL_DMA_Init+0x5c6>
 80016b4:	687b      	ldr	r3, [r7, #4]
 80016b6:	681b      	ldr	r3, [r3, #0]
 80016b8:	4a48      	ldr	r2, [pc, #288]	; (80017dc <HAL_DMA_Init+0x694>)
 80016ba:	4293      	cmp	r3, r2
 80016bc:	d027      	beq.n	800170e <HAL_DMA_Init+0x5c6>
 80016be:	687b      	ldr	r3, [r7, #4]
 80016c0:	681b      	ldr	r3, [r3, #0]
 80016c2:	4a47      	ldr	r2, [pc, #284]	; (80017e0 <HAL_DMA_Init+0x698>)
 80016c4:	4293      	cmp	r3, r2
 80016c6:	d022      	beq.n	800170e <HAL_DMA_Init+0x5c6>
 80016c8:	687b      	ldr	r3, [r7, #4]
 80016ca:	681b      	ldr	r3, [r3, #0]
 80016cc:	4a45      	ldr	r2, [pc, #276]	; (80017e4 <HAL_DMA_Init+0x69c>)
 80016ce:	4293      	cmp	r3, r2
 80016d0:	d01d      	beq.n	800170e <HAL_DMA_Init+0x5c6>
 80016d2:	687b      	ldr	r3, [r7, #4]
 80016d4:	681b      	ldr	r3, [r3, #0]
 80016d6:	4a44      	ldr	r2, [pc, #272]	; (80017e8 <HAL_DMA_Init+0x6a0>)
 80016d8:	4293      	cmp	r3, r2
 80016da:	d018      	beq.n	800170e <HAL_DMA_Init+0x5c6>
 80016dc:	687b      	ldr	r3, [r7, #4]
 80016de:	681b      	ldr	r3, [r3, #0]
 80016e0:	4a42      	ldr	r2, [pc, #264]	; (80017ec <HAL_DMA_Init+0x6a4>)
 80016e2:	4293      	cmp	r3, r2
 80016e4:	d013      	beq.n	800170e <HAL_DMA_Init+0x5c6>
 80016e6:	687b      	ldr	r3, [r7, #4]
 80016e8:	681b      	ldr	r3, [r3, #0]
 80016ea:	4a41      	ldr	r2, [pc, #260]	; (80017f0 <HAL_DMA_Init+0x6a8>)
 80016ec:	4293      	cmp	r3, r2
 80016ee:	d00e      	beq.n	800170e <HAL_DMA_Init+0x5c6>
 80016f0:	687b      	ldr	r3, [r7, #4]
 80016f2:	681b      	ldr	r3, [r3, #0]
 80016f4:	4a3f      	ldr	r2, [pc, #252]	; (80017f4 <HAL_DMA_Init+0x6ac>)
 80016f6:	4293      	cmp	r3, r2
 80016f8:	d009      	beq.n	800170e <HAL_DMA_Init+0x5c6>
 80016fa:	687b      	ldr	r3, [r7, #4]
 80016fc:	681b      	ldr	r3, [r3, #0]
 80016fe:	4a3e      	ldr	r2, [pc, #248]	; (80017f8 <HAL_DMA_Init+0x6b0>)
 8001700:	4293      	cmp	r3, r2
 8001702:	d004      	beq.n	800170e <HAL_DMA_Init+0x5c6>
 8001704:	687b      	ldr	r3, [r7, #4]
 8001706:	681b      	ldr	r3, [r3, #0]
 8001708:	4a3c      	ldr	r2, [pc, #240]	; (80017fc <HAL_DMA_Init+0x6b4>)
 800170a:	4293      	cmp	r3, r2
 800170c:	d101      	bne.n	8001712 <HAL_DMA_Init+0x5ca>
 800170e:	2301      	movs	r3, #1
 8001710:	e000      	b.n	8001714 <HAL_DMA_Init+0x5cc>
 8001712:	2300      	movs	r3, #0
 8001714:	2b00      	cmp	r3, #0
 8001716:	d032      	beq.n	800177e <HAL_DMA_Init+0x636>
  {
    /* Initialize parameters for DMAMUX channel :
    DMAmuxChannel, DMAmuxChannelStatus and DMAmuxChannelStatusMask
    */
    DMA_CalcDMAMUXChannelBaseAndMask(hdma);
 8001718:	6878      	ldr	r0, [r7, #4]
 800171a:	f001 fb0f 	bl	8002d3c <DMA_CalcDMAMUXChannelBaseAndMask>

    if(hdma->Init.Direction == DMA_MEMORY_TO_MEMORY)
 800171e:	687b      	ldr	r3, [r7, #4]
 8001720:	689b      	ldr	r3, [r3, #8]
 8001722:	2b80      	cmp	r3, #128	; 0x80
 8001724:	d102      	bne.n	800172c <HAL_DMA_Init+0x5e4>
    {
      /* if memory to memory force the request to 0*/
      hdma->Init.Request = DMA_REQUEST_MEM2MEM;
 8001726:	687b      	ldr	r3, [r7, #4]
 8001728:	2200      	movs	r2, #0
 800172a:	605a      	str	r2, [r3, #4]
    }

    /* Set peripheral request  to DMAMUX channel */
    hdma->DMAmuxChannel->CCR = (hdma->Init.Request & DMAMUX_CxCR_DMAREQ_ID);
 800172c:	687b      	ldr	r3, [r7, #4]
 800172e:	685a      	ldr	r2, [r3, #4]
 8001730:	687b      	ldr	r3, [r7, #4]
 8001732:	6e1b      	ldr	r3, [r3, #96]	; 0x60
 8001734:	b2d2      	uxtb	r2, r2
 8001736:	601a      	str	r2, [r3, #0]

    /* Clear the DMAMUX synchro overrun flag */
    hdma->DMAmuxChannelStatus->CFR = hdma->DMAmuxChannelStatusMask;
 8001738:	687b      	ldr	r3, [r7, #4]
 800173a:	6e5b      	ldr	r3, [r3, #100]	; 0x64
 800173c:	687a      	ldr	r2, [r7, #4]
 800173e:	6e92      	ldr	r2, [r2, #104]	; 0x68
 8001740:	605a      	str	r2, [r3, #4]

    /* Initialize parameters for DMAMUX request generator :
    if the DMA request is DMA_REQUEST_GENERATOR0 to DMA_REQUEST_GENERATOR7
    */
    if((hdma->Init.Request >= DMA_REQUEST_GENERATOR0) && (hdma->Init.Request <= DMA_REQUEST_GENERATOR7))
 8001742:	687b      	ldr	r3, [r7, #4]
 8001744:	685b      	ldr	r3, [r3, #4]
 8001746:	2b00      	cmp	r3, #0
 8001748:	d010      	beq.n	800176c <HAL_DMA_Init+0x624>
 800174a:	687b      	ldr	r3, [r7, #4]
 800174c:	685b      	ldr	r3, [r3, #4]
 800174e:	2b08      	cmp	r3, #8
 8001750:	d80c      	bhi.n	800176c <HAL_DMA_Init+0x624>
    {
      /* Initialize parameters for DMAMUX request generator :
      DMAmuxRequestGen, DMAmuxRequestGenStatus and DMAmuxRequestGenStatusMask */
      DMA_CalcDMAMUXRequestGenBaseAndMask(hdma);
 8001752:	6878      	ldr	r0, [r7, #4]
 8001754:	f001 fb8c 	bl	8002e70 <DMA_CalcDMAMUXRequestGenBaseAndMask>

      /* Reset the DMAMUX request generator register */
      hdma->DMAmuxRequestGen->RGCR = 0U;
 8001758:	687b      	ldr	r3, [r7, #4]
 800175a:	6edb      	ldr	r3, [r3, #108]	; 0x6c
 800175c:	2200      	movs	r2, #0
 800175e:	601a      	str	r2, [r3, #0]

      /* Clear the DMAMUX request generator overrun flag */
      hdma->DMAmuxRequestGenStatus->RGCFR = hdma->DMAmuxRequestGenStatusMask;
 8001760:	687b      	ldr	r3, [r7, #4]
 8001762:	6f1b      	ldr	r3, [r3, #112]	; 0x70
 8001764:	687a      	ldr	r2, [r7, #4]
 8001766:	6f52      	ldr	r2, [r2, #116]	; 0x74
 8001768:	605a      	str	r2, [r3, #4]
 800176a:	e008      	b.n	800177e <HAL_DMA_Init+0x636>
    }
    else
    {
      hdma->DMAmuxRequestGen = 0U;
 800176c:	687b      	ldr	r3, [r7, #4]
 800176e:	2200      	movs	r2, #0
 8001770:	66da      	str	r2, [r3, #108]	; 0x6c
      hdma->DMAmuxRequestGenStatus = 0U;
 8001772:	687b      	ldr	r3, [r7, #4]
 8001774:	2200      	movs	r2, #0
 8001776:	671a      	str	r2, [r3, #112]	; 0x70
      hdma->DMAmuxRequestGenStatusMask = 0U;
 8001778:	687b      	ldr	r3, [r7, #4]
 800177a:	2200      	movs	r2, #0
 800177c:	675a      	str	r2, [r3, #116]	; 0x74
    }
  }

  /* Initialize the error code */
  hdma->ErrorCode = HAL_DMA_ERROR_NONE;
 800177e:	687b      	ldr	r3, [r7, #4]
 8001780:	2200      	movs	r2, #0
 8001782:	655a      	str	r2, [r3, #84]	; 0x54

  /* Initialize the DMA state */
  hdma->State = HAL_DMA_STATE_READY;
 8001784:	687b      	ldr	r3, [r7, #4]
 8001786:	2201      	movs	r2, #1
 8001788:	f883 2035 	strb.w	r2, [r3, #53]	; 0x35

  return HAL_OK;
 800178c:	2300      	movs	r3, #0
}
 800178e:	4618      	mov	r0, r3
 8001790:	3718      	adds	r7, #24
 8001792:	46bd      	mov	sp, r7
 8001794:	bd80      	pop	{r7, pc}
 8001796:	bf00      	nop
 8001798:	a7fdabf8 	.word	0xa7fdabf8
 800179c:	cccccccd 	.word	0xcccccccd
 80017a0:	40020010 	.word	0x40020010
 80017a4:	40020028 	.word	0x40020028
 80017a8:	40020040 	.word	0x40020040
 80017ac:	40020058 	.word	0x40020058
 80017b0:	40020070 	.word	0x40020070
 80017b4:	40020088 	.word	0x40020088
 80017b8:	400200a0 	.word	0x400200a0
 80017bc:	400200b8 	.word	0x400200b8
 80017c0:	40020410 	.word	0x40020410
 80017c4:	40020428 	.word	0x40020428
 80017c8:	40020440 	.word	0x40020440
 80017cc:	40020458 	.word	0x40020458
 80017d0:	40020470 	.word	0x40020470
 80017d4:	40020488 	.word	0x40020488
 80017d8:	400204a0 	.word	0x400204a0
 80017dc:	400204b8 	.word	0x400204b8
 80017e0:	58025408 	.word	0x58025408
 80017e4:	5802541c 	.word	0x5802541c
 80017e8:	58025430 	.word	0x58025430
 80017ec:	58025444 	.word	0x58025444
 80017f0:	58025458 	.word	0x58025458
 80017f4:	5802546c 	.word	0x5802546c
 80017f8:	58025480 	.word	0x58025480
 80017fc:	58025494 	.word	0x58025494

08001800 <HAL_DMA_Abort_IT>:
  * @param  hdma  : pointer to a DMA_HandleTypeDef structure that contains
  *                 the configuration information for the specified DMA Stream.
  * @retval HAL status
  */
HAL_StatusTypeDef HAL_DMA_Abort_IT(DMA_HandleTypeDef *hdma)
{
 8001800:	b580      	push	{r7, lr}
 8001802:	b084      	sub	sp, #16
 8001804:	af00      	add	r7, sp, #0
 8001806:	6078      	str	r0, [r7, #4]
  BDMA_Base_Registers *regs_bdma;

  /* Check the DMA peripheral handle */
  if(hdma == NULL)
 8001808:	687b      	ldr	r3, [r7, #4]
 800180a:	2b00      	cmp	r3, #0
 800180c:	d101      	bne.n	8001812 <HAL_DMA_Abort_IT+0x12>
  {
    return HAL_ERROR;
 800180e:	2301      	movs	r3, #1
 8001810:	e237      	b.n	8001c82 <HAL_DMA_Abort_IT+0x482>
  }

  if(hdma->State != HAL_DMA_STATE_BUSY)
 8001812:	687b      	ldr	r3, [r7, #4]
 8001814:	f893 3035 	ldrb.w	r3, [r3, #53]	; 0x35
 8001818:	b2db      	uxtb	r3, r3
 800181a:	2b02      	cmp	r3, #2
 800181c:	d004      	beq.n	8001828 <HAL_DMA_Abort_IT+0x28>
  {
    hdma->ErrorCode = HAL_DMA_ERROR_NO_XFER;
 800181e:	687b      	ldr	r3, [r7, #4]
 8001820:	2280      	movs	r2, #128	; 0x80
 8001822:	655a      	str	r2, [r3, #84]	; 0x54
    return HAL_ERROR;
 8001824:	2301      	movs	r3, #1
 8001826:	e22c      	b.n	8001c82 <HAL_DMA_Abort_IT+0x482>
  }
  else
  {
    if(IS_DMA_STREAM_INSTANCE(hdma->Instance) != 0U) /* DMA1 or DMA2 instance */
 8001828:	687b      	ldr	r3, [r7, #4]
 800182a:	681b      	ldr	r3, [r3, #0]
 800182c:	4a5c      	ldr	r2, [pc, #368]	; (80019a0 <HAL_DMA_Abort_IT+0x1a0>)
 800182e:	4293      	cmp	r3, r2
 8001830:	d04a      	beq.n	80018c8 <HAL_DMA_Abort_IT+0xc8>
 8001832:	687b      	ldr	r3, [r7, #4]
 8001834:	681b      	ldr	r3, [r3, #0]
 8001836:	4a5b      	ldr	r2, [pc, #364]	; (80019a4 <HAL_DMA_Abort_IT+0x1a4>)
 8001838:	4293      	cmp	r3, r2
 800183a:	d045      	beq.n	80018c8 <HAL_DMA_Abort_IT+0xc8>
 800183c:	687b      	ldr	r3, [r7, #4]
 800183e:	681b      	ldr	r3, [r3, #0]
 8001840:	4a59      	ldr	r2, [pc, #356]	; (80019a8 <HAL_DMA_Abort_IT+0x1a8>)
 8001842:	4293      	cmp	r3, r2
 8001844:	d040      	beq.n	80018c8 <HAL_DMA_Abort_IT+0xc8>
 8001846:	687b      	ldr	r3, [r7, #4]
 8001848:	681b      	ldr	r3, [r3, #0]
 800184a:	4a58      	ldr	r2, [pc, #352]	; (80019ac <HAL_DMA_Abort_IT+0x1ac>)
 800184c:	4293      	cmp	r3, r2
 800184e:	d03b      	beq.n	80018c8 <HAL_DMA_Abort_IT+0xc8>
 8001850:	687b      	ldr	r3, [r7, #4]
 8001852:	681b      	ldr	r3, [r3, #0]
 8001854:	4a56      	ldr	r2, [pc, #344]	; (80019b0 <HAL_DMA_Abort_IT+0x1b0>)
 8001856:	4293      	cmp	r3, r2
 8001858:	d036      	beq.n	80018c8 <HAL_DMA_Abort_IT+0xc8>
 800185a:	687b      	ldr	r3, [r7, #4]
 800185c:	681b      	ldr	r3, [r3, #0]
 800185e:	4a55      	ldr	r2, [pc, #340]	; (80019b4 <HAL_DMA_Abort_IT+0x1b4>)
 8001860:	4293      	cmp	r3, r2
 8001862:	d031      	beq.n	80018c8 <HAL_DMA_Abort_IT+0xc8>
 8001864:	687b      	ldr	r3, [r7, #4]
 8001866:	681b      	ldr	r3, [r3, #0]
 8001868:	4a53      	ldr	r2, [pc, #332]	; (80019b8 <HAL_DMA_Abort_IT+0x1b8>)
 800186a:	4293      	cmp	r3, r2
 800186c:	d02c      	beq.n	80018c8 <HAL_DMA_Abort_IT+0xc8>
 800186e:	687b      	ldr	r3, [r7, #4]
 8001870:	681b      	ldr	r3, [r3, #0]
 8001872:	4a52      	ldr	r2, [pc, #328]	; (80019bc <HAL_DMA_Abort_IT+0x1bc>)
 8001874:	4293      	cmp	r3, r2
 8001876:	d027      	beq.n	80018c8 <HAL_DMA_Abort_IT+0xc8>
 8001878:	687b      	ldr	r3, [r7, #4]
 800187a:	681b      	ldr	r3, [r3, #0]
 800187c:	4a50      	ldr	r2, [pc, #320]	; (80019c0 <HAL_DMA_Abort_IT+0x1c0>)
 800187e:	4293      	cmp	r3, r2
 8001880:	d022      	beq.n	80018c8 <HAL_DMA_Abort_IT+0xc8>
 8001882:	687b      	ldr	r3, [r7, #4]
 8001884:	681b      	ldr	r3, [r3, #0]
 8001886:	4a4f      	ldr	r2, [pc, #316]	; (80019c4 <HAL_DMA_Abort_IT+0x1c4>)
 8001888:	4293      	cmp	r3, r2
 800188a:	d01d      	beq.n	80018c8 <HAL_DMA_Abort_IT+0xc8>
 800188c:	687b      	ldr	r3, [r7, #4]
 800188e:	681b      	ldr	r3, [r3, #0]
 8001890:	4a4d      	ldr	r2, [pc, #308]	; (80019c8 <HAL_DMA_Abort_IT+0x1c8>)
 8001892:	4293      	cmp	r3, r2
 8001894:	d018      	beq.n	80018c8 <HAL_DMA_Abort_IT+0xc8>
 8001896:	687b      	ldr	r3, [r7, #4]
 8001898:	681b      	ldr	r3, [r3, #0]
 800189a:	4a4c      	ldr	r2, [pc, #304]	; (80019cc <HAL_DMA_Abort_IT+0x1cc>)
 800189c:	4293      	cmp	r3, r2
 800189e:	d013      	beq.n	80018c8 <HAL_DMA_Abort_IT+0xc8>
 80018a0:	687b      	ldr	r3, [r7, #4]
 80018a2:	681b      	ldr	r3, [r3, #0]
 80018a4:	4a4a      	ldr	r2, [pc, #296]	; (80019d0 <HAL_DMA_Abort_IT+0x1d0>)
 80018a6:	4293      	cmp	r3, r2
 80018a8:	d00e      	beq.n	80018c8 <HAL_DMA_Abort_IT+0xc8>
 80018aa:	687b      	ldr	r3, [r7, #4]
 80018ac:	681b      	ldr	r3, [r3, #0]
 80018ae:	4a49      	ldr	r2, [pc, #292]	; (80019d4 <HAL_DMA_Abort_IT+0x1d4>)
 80018b0:	4293      	cmp	r3, r2
 80018b2:	d009      	beq.n	80018c8 <HAL_DMA_Abort_IT+0xc8>
 80018b4:	687b      	ldr	r3, [r7, #4]
 80018b6:	681b      	ldr	r3, [r3, #0]
 80018b8:	4a47      	ldr	r2, [pc, #284]	; (80019d8 <HAL_DMA_Abort_IT+0x1d8>)
 80018ba:	4293      	cmp	r3, r2
 80018bc:	d004      	beq.n	80018c8 <HAL_DMA_Abort_IT+0xc8>
 80018be:	687b      	ldr	r3, [r7, #4]
 80018c0:	681b      	ldr	r3, [r3, #0]
 80018c2:	4a46      	ldr	r2, [pc, #280]	; (80019dc <HAL_DMA_Abort_IT+0x1dc>)
 80018c4:	4293      	cmp	r3, r2
 80018c6:	d101      	bne.n	80018cc <HAL_DMA_Abort_IT+0xcc>
 80018c8:	2301      	movs	r3, #1
 80018ca:	e000      	b.n	80018ce <HAL_DMA_Abort_IT+0xce>
 80018cc:	2300      	movs	r3, #0
 80018ce:	2b00      	cmp	r3, #0
 80018d0:	f000 8086 	beq.w	80019e0 <HAL_DMA_Abort_IT+0x1e0>
    {
      /* Set Abort State  */
      hdma->State = HAL_DMA_STATE_ABORT;
 80018d4:	687b      	ldr	r3, [r7, #4]
 80018d6:	2204      	movs	r2, #4
 80018d8:	f883 2035 	strb.w	r2, [r3, #53]	; 0x35

      /* Disable the stream */
      __HAL_DMA_DISABLE(hdma);
 80018dc:	687b      	ldr	r3, [r7, #4]
 80018de:	681b      	ldr	r3, [r3, #0]
 80018e0:	4a2f      	ldr	r2, [pc, #188]	; (80019a0 <HAL_DMA_Abort_IT+0x1a0>)
 80018e2:	4293      	cmp	r3, r2
 80018e4:	d04a      	beq.n	800197c <HAL_DMA_Abort_IT+0x17c>
 80018e6:	687b      	ldr	r3, [r7, #4]
 80018e8:	681b      	ldr	r3, [r3, #0]
 80018ea:	4a2e      	ldr	r2, [pc, #184]	; (80019a4 <HAL_DMA_Abort_IT+0x1a4>)
 80018ec:	4293      	cmp	r3, r2
 80018ee:	d045      	beq.n	800197c <HAL_DMA_Abort_IT+0x17c>
 80018f0:	687b      	ldr	r3, [r7, #4]
 80018f2:	681b      	ldr	r3, [r3, #0]
 80018f4:	4a2c      	ldr	r2, [pc, #176]	; (80019a8 <HAL_DMA_Abort_IT+0x1a8>)
 80018f6:	4293      	cmp	r3, r2
 80018f8:	d040      	beq.n	800197c <HAL_DMA_Abort_IT+0x17c>
 80018fa:	687b      	ldr	r3, [r7, #4]
 80018fc:	681b      	ldr	r3, [r3, #0]
 80018fe:	4a2b      	ldr	r2, [pc, #172]	; (80019ac <HAL_DMA_Abort_IT+0x1ac>)
 8001900:	4293      	cmp	r3, r2
 8001902:	d03b      	beq.n	800197c <HAL_DMA_Abort_IT+0x17c>
 8001904:	687b      	ldr	r3, [r7, #4]
 8001906:	681b      	ldr	r3, [r3, #0]
 8001908:	4a29      	ldr	r2, [pc, #164]	; (80019b0 <HAL_DMA_Abort_IT+0x1b0>)
 800190a:	4293      	cmp	r3, r2
 800190c:	d036      	beq.n	800197c <HAL_DMA_Abort_IT+0x17c>
 800190e:	687b      	ldr	r3, [r7, #4]
 8001910:	681b      	ldr	r3, [r3, #0]
 8001912:	4a28      	ldr	r2, [pc, #160]	; (80019b4 <HAL_DMA_Abort_IT+0x1b4>)
 8001914:	4293      	cmp	r3, r2
 8001916:	d031      	beq.n	800197c <HAL_DMA_Abort_IT+0x17c>
 8001918:	687b      	ldr	r3, [r7, #4]
 800191a:	681b      	ldr	r3, [r3, #0]
 800191c:	4a26      	ldr	r2, [pc, #152]	; (80019b8 <HAL_DMA_Abort_IT+0x1b8>)
 800191e:	4293      	cmp	r3, r2
 8001920:	d02c      	beq.n	800197c <HAL_DMA_Abort_IT+0x17c>
 8001922:	687b      	ldr	r3, [r7, #4]
 8001924:	681b      	ldr	r3, [r3, #0]
 8001926:	4a25      	ldr	r2, [pc, #148]	; (80019bc <HAL_DMA_Abort_IT+0x1bc>)
 8001928:	4293      	cmp	r3, r2
 800192a:	d027      	beq.n	800197c <HAL_DMA_Abort_IT+0x17c>
 800192c:	687b      	ldr	r3, [r7, #4]
 800192e:	681b      	ldr	r3, [r3, #0]
 8001930:	4a23      	ldr	r2, [pc, #140]	; (80019c0 <HAL_DMA_Abort_IT+0x1c0>)
 8001932:	4293      	cmp	r3, r2
 8001934:	d022      	beq.n	800197c <HAL_DMA_Abort_IT+0x17c>
 8001936:	687b      	ldr	r3, [r7, #4]
 8001938:	681b      	ldr	r3, [r3, #0]
 800193a:	4a22      	ldr	r2, [pc, #136]	; (80019c4 <HAL_DMA_Abort_IT+0x1c4>)
 800193c:	4293      	cmp	r3, r2
 800193e:	d01d      	beq.n	800197c <HAL_DMA_Abort_IT+0x17c>
 8001940:	687b      	ldr	r3, [r7, #4]
 8001942:	681b      	ldr	r3, [r3, #0]
 8001944:	4a20      	ldr	r2, [pc, #128]	; (80019c8 <HAL_DMA_Abort_IT+0x1c8>)
 8001946:	4293      	cmp	r3, r2
 8001948:	d018      	beq.n	800197c <HAL_DMA_Abort_IT+0x17c>
 800194a:	687b      	ldr	r3, [r7, #4]
 800194c:	681b      	ldr	r3, [r3, #0]
 800194e:	4a1f      	ldr	r2, [pc, #124]	; (80019cc <HAL_DMA_Abort_IT+0x1cc>)
 8001950:	4293      	cmp	r3, r2
 8001952:	d013      	beq.n	800197c <HAL_DMA_Abort_IT+0x17c>
 8001954:	687b      	ldr	r3, [r7, #4]
 8001956:	681b      	ldr	r3, [r3, #0]
 8001958:	4a1d      	ldr	r2, [pc, #116]	; (80019d0 <HAL_DMA_Abort_IT+0x1d0>)
 800195a:	4293      	cmp	r3, r2
 800195c:	d00e      	beq.n	800197c <HAL_DMA_Abort_IT+0x17c>
 800195e:	687b      	ldr	r3, [r7, #4]
 8001960:	681b      	ldr	r3, [r3, #0]
 8001962:	4a1c      	ldr	r2, [pc, #112]	; (80019d4 <HAL_DMA_Abort_IT+0x1d4>)
 8001964:	4293      	cmp	r3, r2
 8001966:	d009      	beq.n	800197c <HAL_DMA_Abort_IT+0x17c>
 8001968:	687b      	ldr	r3, [r7, #4]
 800196a:	681b      	ldr	r3, [r3, #0]
 800196c:	4a1a      	ldr	r2, [pc, #104]	; (80019d8 <HAL_DMA_Abort_IT+0x1d8>)
 800196e:	4293      	cmp	r3, r2
 8001970:	d004      	beq.n	800197c <HAL_DMA_Abort_IT+0x17c>
 8001972:	687b      	ldr	r3, [r7, #4]
 8001974:	681b      	ldr	r3, [r3, #0]
 8001976:	4a19      	ldr	r2, [pc, #100]	; (80019dc <HAL_DMA_Abort_IT+0x1dc>)
 8001978:	4293      	cmp	r3, r2
 800197a:	d108      	bne.n	800198e <HAL_DMA_Abort_IT+0x18e>
 800197c:	687b      	ldr	r3, [r7, #4]
 800197e:	681b      	ldr	r3, [r3, #0]
 8001980:	681a      	ldr	r2, [r3, #0]
 8001982:	687b      	ldr	r3, [r7, #4]
 8001984:	681b      	ldr	r3, [r3, #0]
 8001986:	f022 0201 	bic.w	r2, r2, #1
 800198a:	601a      	str	r2, [r3, #0]
 800198c:	e178      	b.n	8001c80 <HAL_DMA_Abort_IT+0x480>
 800198e:	687b      	ldr	r3, [r7, #4]
 8001990:	681b      	ldr	r3, [r3, #0]
 8001992:	681a      	ldr	r2, [r3, #0]
 8001994:	687b      	ldr	r3, [r7, #4]
 8001996:	681b      	ldr	r3, [r3, #0]
 8001998:	f022 0201 	bic.w	r2, r2, #1
 800199c:	601a      	str	r2, [r3, #0]
 800199e:	e16f      	b.n	8001c80 <HAL_DMA_Abort_IT+0x480>
 80019a0:	40020010 	.word	0x40020010
 80019a4:	40020028 	.word	0x40020028
 80019a8:	40020040 	.word	0x40020040
 80019ac:	40020058 	.word	0x40020058
 80019b0:	40020070 	.word	0x40020070
 80019b4:	40020088 	.word	0x40020088
 80019b8:	400200a0 	.word	0x400200a0
 80019bc:	400200b8 	.word	0x400200b8
 80019c0:	40020410 	.word	0x40020410
 80019c4:	40020428 	.word	0x40020428
 80019c8:	40020440 	.word	0x40020440
 80019cc:	40020458 	.word	0x40020458
 80019d0:	40020470 	.word	0x40020470
 80019d4:	40020488 	.word	0x40020488
 80019d8:	400204a0 	.word	0x400204a0
 80019dc:	400204b8 	.word	0x400204b8
    }
    else /* BDMA channel */
    {
      /* Disable DMA All Interrupts  */
      ((BDMA_Channel_TypeDef   *)hdma->Instance)->CCR  &= ~(BDMA_CCR_TCIE | BDMA_CCR_HTIE | BDMA_CCR_TEIE);
 80019e0:	687b      	ldr	r3, [r7, #4]
 80019e2:	681b      	ldr	r3, [r3, #0]
 80019e4:	681a      	ldr	r2, [r3, #0]
 80019e6:	687b      	ldr	r3, [r7, #4]
 80019e8:	681b      	ldr	r3, [r3, #0]
 80019ea:	f022 020e 	bic.w	r2, r2, #14
 80019ee:	601a      	str	r2, [r3, #0]

      /* Disable the channel */
      __HAL_DMA_DISABLE(hdma);
 80019f0:	687b      	ldr	r3, [r7, #4]
 80019f2:	681b      	ldr	r3, [r3, #0]
 80019f4:	4a6c      	ldr	r2, [pc, #432]	; (8001ba8 <HAL_DMA_Abort_IT+0x3a8>)
 80019f6:	4293      	cmp	r3, r2
 80019f8:	d04a      	beq.n	8001a90 <HAL_DMA_Abort_IT+0x290>
 80019fa:	687b      	ldr	r3, [r7, #4]
 80019fc:	681b      	ldr	r3, [r3, #0]
 80019fe:	4a6b      	ldr	r2, [pc, #428]	; (8001bac <HAL_DMA_Abort_IT+0x3ac>)
 8001a00:	4293      	cmp	r3, r2
 8001a02:	d045      	beq.n	8001a90 <HAL_DMA_Abort_IT+0x290>
 8001a04:	687b      	ldr	r3, [r7, #4]
 8001a06:	681b      	ldr	r3, [r3, #0]
 8001a08:	4a69      	ldr	r2, [pc, #420]	; (8001bb0 <HAL_DMA_Abort_IT+0x3b0>)
 8001a0a:	4293      	cmp	r3, r2
 8001a0c:	d040      	beq.n	8001a90 <HAL_DMA_Abort_IT+0x290>
 8001a0e:	687b      	ldr	r3, [r7, #4]
 8001a10:	681b      	ldr	r3, [r3, #0]
 8001a12:	4a68      	ldr	r2, [pc, #416]	; (8001bb4 <HAL_DMA_Abort_IT+0x3b4>)
 8001a14:	4293      	cmp	r3, r2
 8001a16:	d03b      	beq.n	8001a90 <HAL_DMA_Abort_IT+0x290>
 8001a18:	687b      	ldr	r3, [r7, #4]
 8001a1a:	681b      	ldr	r3, [r3, #0]
 8001a1c:	4a66      	ldr	r2, [pc, #408]	; (8001bb8 <HAL_DMA_Abort_IT+0x3b8>)
 8001a1e:	4293      	cmp	r3, r2
 8001a20:	d036      	beq.n	8001a90 <HAL_DMA_Abort_IT+0x290>
 8001a22:	687b      	ldr	r3, [r7, #4]
 8001a24:	681b      	ldr	r3, [r3, #0]
 8001a26:	4a65      	ldr	r2, [pc, #404]	; (8001bbc <HAL_DMA_Abort_IT+0x3bc>)
 8001a28:	4293      	cmp	r3, r2
 8001a2a:	d031      	beq.n	8001a90 <HAL_DMA_Abort_IT+0x290>
 8001a2c:	687b      	ldr	r3, [r7, #4]
 8001a2e:	681b      	ldr	r3, [r3, #0]
 8001a30:	4a63      	ldr	r2, [pc, #396]	; (8001bc0 <HAL_DMA_Abort_IT+0x3c0>)
 8001a32:	4293      	cmp	r3, r2
 8001a34:	d02c      	beq.n	8001a90 <HAL_DMA_Abort_IT+0x290>
 8001a36:	687b      	ldr	r3, [r7, #4]
 8001a38:	681b      	ldr	r3, [r3, #0]
 8001a3a:	4a62      	ldr	r2, [pc, #392]	; (8001bc4 <HAL_DMA_Abort_IT+0x3c4>)
 8001a3c:	4293      	cmp	r3, r2
 8001a3e:	d027      	beq.n	8001a90 <HAL_DMA_Abort_IT+0x290>
 8001a40:	687b      	ldr	r3, [r7, #4]
 8001a42:	681b      	ldr	r3, [r3, #0]
 8001a44:	4a60      	ldr	r2, [pc, #384]	; (8001bc8 <HAL_DMA_Abort_IT+0x3c8>)
 8001a46:	4293      	cmp	r3, r2
 8001a48:	d022      	beq.n	8001a90 <HAL_DMA_Abort_IT+0x290>
 8001a4a:	687b      	ldr	r3, [r7, #4]
 8001a4c:	681b      	ldr	r3, [r3, #0]
 8001a4e:	4a5f      	ldr	r2, [pc, #380]	; (8001bcc <HAL_DMA_Abort_IT+0x3cc>)
 8001a50:	4293      	cmp	r3, r2
 8001a52:	d01d      	beq.n	8001a90 <HAL_DMA_Abort_IT+0x290>
 8001a54:	687b      	ldr	r3, [r7, #4]
 8001a56:	681b      	ldr	r3, [r3, #0]
 8001a58:	4a5d      	ldr	r2, [pc, #372]	; (8001bd0 <HAL_DMA_Abort_IT+0x3d0>)
 8001a5a:	4293      	cmp	r3, r2
 8001a5c:	d018      	beq.n	8001a90 <HAL_DMA_Abort_IT+0x290>
 8001a5e:	687b      	ldr	r3, [r7, #4]
 8001a60:	681b      	ldr	r3, [r3, #0]
 8001a62:	4a5c      	ldr	r2, [pc, #368]	; (8001bd4 <HAL_DMA_Abort_IT+0x3d4>)
 8001a64:	4293      	cmp	r3, r2
 8001a66:	d013      	beq.n	8001a90 <HAL_DMA_Abort_IT+0x290>
 8001a68:	687b      	ldr	r3, [r7, #4]
 8001a6a:	681b      	ldr	r3, [r3, #0]
 8001a6c:	4a5a      	ldr	r2, [pc, #360]	; (8001bd8 <HAL_DMA_Abort_IT+0x3d8>)
 8001a6e:	4293      	cmp	r3, r2
 8001a70:	d00e      	beq.n	8001a90 <HAL_DMA_Abort_IT+0x290>
 8001a72:	687b      	ldr	r3, [r7, #4]
 8001a74:	681b      	ldr	r3, [r3, #0]
 8001a76:	4a59      	ldr	r2, [pc, #356]	; (8001bdc <HAL_DMA_Abort_IT+0x3dc>)
 8001a78:	4293      	cmp	r3, r2
 8001a7a:	d009      	beq.n	8001a90 <HAL_DMA_Abort_IT+0x290>
 8001a7c:	687b      	ldr	r3, [r7, #4]
 8001a7e:	681b      	ldr	r3, [r3, #0]
 8001a80:	4a57      	ldr	r2, [pc, #348]	; (8001be0 <HAL_DMA_Abort_IT+0x3e0>)
 8001a82:	4293      	cmp	r3, r2
 8001a84:	d004      	beq.n	8001a90 <HAL_DMA_Abort_IT+0x290>
 8001a86:	687b      	ldr	r3, [r7, #4]
 8001a88:	681b      	ldr	r3, [r3, #0]
 8001a8a:	4a56      	ldr	r2, [pc, #344]	; (8001be4 <HAL_DMA_Abort_IT+0x3e4>)
 8001a8c:	4293      	cmp	r3, r2
 8001a8e:	d108      	bne.n	8001aa2 <HAL_DMA_Abort_IT+0x2a2>
 8001a90:	687b      	ldr	r3, [r7, #4]
 8001a92:	681b      	ldr	r3, [r3, #0]
 8001a94:	681a      	ldr	r2, [r3, #0]
 8001a96:	687b      	ldr	r3, [r7, #4]
 8001a98:	681b      	ldr	r3, [r3, #0]
 8001a9a:	f022 0201 	bic.w	r2, r2, #1
 8001a9e:	601a      	str	r2, [r3, #0]
 8001aa0:	e007      	b.n	8001ab2 <HAL_DMA_Abort_IT+0x2b2>
 8001aa2:	687b      	ldr	r3, [r7, #4]
 8001aa4:	681b      	ldr	r3, [r3, #0]
 8001aa6:	681a      	ldr	r2, [r3, #0]
 8001aa8:	687b      	ldr	r3, [r7, #4]
 8001aaa:	681b      	ldr	r3, [r3, #0]
 8001aac:	f022 0201 	bic.w	r2, r2, #1
 8001ab0:	601a      	str	r2, [r3, #0]

      if(IS_DMA_DMAMUX_ALL_INSTANCE(hdma->Instance) != 0U) /* No DMAMUX available for BDMA1 */
 8001ab2:	687b      	ldr	r3, [r7, #4]
 8001ab4:	681b      	ldr	r3, [r3, #0]
 8001ab6:	4a3c      	ldr	r2, [pc, #240]	; (8001ba8 <HAL_DMA_Abort_IT+0x3a8>)
 8001ab8:	4293      	cmp	r3, r2
 8001aba:	d072      	beq.n	8001ba2 <HAL_DMA_Abort_IT+0x3a2>
 8001abc:	687b      	ldr	r3, [r7, #4]
 8001abe:	681b      	ldr	r3, [r3, #0]
 8001ac0:	4a3a      	ldr	r2, [pc, #232]	; (8001bac <HAL_DMA_Abort_IT+0x3ac>)
 8001ac2:	4293      	cmp	r3, r2
 8001ac4:	d06d      	beq.n	8001ba2 <HAL_DMA_Abort_IT+0x3a2>
 8001ac6:	687b      	ldr	r3, [r7, #4]
 8001ac8:	681b      	ldr	r3, [r3, #0]
 8001aca:	4a39      	ldr	r2, [pc, #228]	; (8001bb0 <HAL_DMA_Abort_IT+0x3b0>)
 8001acc:	4293      	cmp	r3, r2
 8001ace:	d068      	beq.n	8001ba2 <HAL_DMA_Abort_IT+0x3a2>
 8001ad0:	687b      	ldr	r3, [r7, #4]
 8001ad2:	681b      	ldr	r3, [r3, #0]
 8001ad4:	4a37      	ldr	r2, [pc, #220]	; (8001bb4 <HAL_DMA_Abort_IT+0x3b4>)
 8001ad6:	4293      	cmp	r3, r2
 8001ad8:	d063      	beq.n	8001ba2 <HAL_DMA_Abort_IT+0x3a2>
 8001ada:	687b      	ldr	r3, [r7, #4]
 8001adc:	681b      	ldr	r3, [r3, #0]
 8001ade:	4a36      	ldr	r2, [pc, #216]	; (8001bb8 <HAL_DMA_Abort_IT+0x3b8>)
 8001ae0:	4293      	cmp	r3, r2
 8001ae2:	d05e      	beq.n	8001ba2 <HAL_DMA_Abort_IT+0x3a2>
 8001ae4:	687b      	ldr	r3, [r7, #4]
 8001ae6:	681b      	ldr	r3, [r3, #0]
 8001ae8:	4a34      	ldr	r2, [pc, #208]	; (8001bbc <HAL_DMA_Abort_IT+0x3bc>)
 8001aea:	4293      	cmp	r3, r2
 8001aec:	d059      	beq.n	8001ba2 <HAL_DMA_Abort_IT+0x3a2>
 8001aee:	687b      	ldr	r3, [r7, #4]
 8001af0:	681b      	ldr	r3, [r3, #0]
 8001af2:	4a33      	ldr	r2, [pc, #204]	; (8001bc0 <HAL_DMA_Abort_IT+0x3c0>)
 8001af4:	4293      	cmp	r3, r2
 8001af6:	d054      	beq.n	8001ba2 <HAL_DMA_Abort_IT+0x3a2>
 8001af8:	687b      	ldr	r3, [r7, #4]
 8001afa:	681b      	ldr	r3, [r3, #0]
 8001afc:	4a31      	ldr	r2, [pc, #196]	; (8001bc4 <HAL_DMA_Abort_IT+0x3c4>)
 8001afe:	4293      	cmp	r3, r2
 8001b00:	d04f      	beq.n	8001ba2 <HAL_DMA_Abort_IT+0x3a2>
 8001b02:	687b      	ldr	r3, [r7, #4]
 8001b04:	681b      	ldr	r3, [r3, #0]
 8001b06:	4a30      	ldr	r2, [pc, #192]	; (8001bc8 <HAL_DMA_Abort_IT+0x3c8>)
 8001b08:	4293      	cmp	r3, r2
 8001b0a:	d04a      	beq.n	8001ba2 <HAL_DMA_Abort_IT+0x3a2>
 8001b0c:	687b      	ldr	r3, [r7, #4]
 8001b0e:	681b      	ldr	r3, [r3, #0]
 8001b10:	4a2e      	ldr	r2, [pc, #184]	; (8001bcc <HAL_DMA_Abort_IT+0x3cc>)
 8001b12:	4293      	cmp	r3, r2
 8001b14:	d045      	beq.n	8001ba2 <HAL_DMA_Abort_IT+0x3a2>
 8001b16:	687b      	ldr	r3, [r7, #4]
 8001b18:	681b      	ldr	r3, [r3, #0]
 8001b1a:	4a2d      	ldr	r2, [pc, #180]	; (8001bd0 <HAL_DMA_Abort_IT+0x3d0>)
 8001b1c:	4293      	cmp	r3, r2
 8001b1e:	d040      	beq.n	8001ba2 <HAL_DMA_Abort_IT+0x3a2>
 8001b20:	687b      	ldr	r3, [r7, #4]
 8001b22:	681b      	ldr	r3, [r3, #0]
 8001b24:	4a2b      	ldr	r2, [pc, #172]	; (8001bd4 <HAL_DMA_Abort_IT+0x3d4>)
 8001b26:	4293      	cmp	r3, r2
 8001b28:	d03b      	beq.n	8001ba2 <HAL_DMA_Abort_IT+0x3a2>
 8001b2a:	687b      	ldr	r3, [r7, #4]
 8001b2c:	681b      	ldr	r3, [r3, #0]
 8001b2e:	4a2a      	ldr	r2, [pc, #168]	; (8001bd8 <HAL_DMA_Abort_IT+0x3d8>)
 8001b30:	4293      	cmp	r3, r2
 8001b32:	d036      	beq.n	8001ba2 <HAL_DMA_Abort_IT+0x3a2>
 8001b34:	687b      	ldr	r3, [r7, #4]
 8001b36:	681b      	ldr	r3, [r3, #0]
 8001b38:	4a28      	ldr	r2, [pc, #160]	; (8001bdc <HAL_DMA_Abort_IT+0x3dc>)
 8001b3a:	4293      	cmp	r3, r2
 8001b3c:	d031      	beq.n	8001ba2 <HAL_DMA_Abort_IT+0x3a2>
 8001b3e:	687b      	ldr	r3, [r7, #4]
 8001b40:	681b      	ldr	r3, [r3, #0]
 8001b42:	4a27      	ldr	r2, [pc, #156]	; (8001be0 <HAL_DMA_Abort_IT+0x3e0>)
 8001b44:	4293      	cmp	r3, r2
 8001b46:	d02c      	beq.n	8001ba2 <HAL_DMA_Abort_IT+0x3a2>
 8001b48:	687b      	ldr	r3, [r7, #4]
 8001b4a:	681b      	ldr	r3, [r3, #0]
 8001b4c:	4a25      	ldr	r2, [pc, #148]	; (8001be4 <HAL_DMA_Abort_IT+0x3e4>)
 8001b4e:	4293      	cmp	r3, r2
 8001b50:	d027      	beq.n	8001ba2 <HAL_DMA_Abort_IT+0x3a2>
 8001b52:	687b      	ldr	r3, [r7, #4]
 8001b54:	681b      	ldr	r3, [r3, #0]
 8001b56:	4a24      	ldr	r2, [pc, #144]	; (8001be8 <HAL_DMA_Abort_IT+0x3e8>)
 8001b58:	4293      	cmp	r3, r2
 8001b5a:	d022      	beq.n	8001ba2 <HAL_DMA_Abort_IT+0x3a2>
 8001b5c:	687b      	ldr	r3, [r7, #4]
 8001b5e:	681b      	ldr	r3, [r3, #0]
 8001b60:	4a22      	ldr	r2, [pc, #136]	; (8001bec <HAL_DMA_Abort_IT+0x3ec>)
 8001b62:	4293      	cmp	r3, r2
 8001b64:	d01d      	beq.n	8001ba2 <HAL_DMA_Abort_IT+0x3a2>
 8001b66:	687b      	ldr	r3, [r7, #4]
 8001b68:	681b      	ldr	r3, [r3, #0]
 8001b6a:	4a21      	ldr	r2, [pc, #132]	; (8001bf0 <HAL_DMA_Abort_IT+0x3f0>)
 8001b6c:	4293      	cmp	r3, r2
 8001b6e:	d018      	beq.n	8001ba2 <HAL_DMA_Abort_IT+0x3a2>
 8001b70:	687b      	ldr	r3, [r7, #4]
 8001b72:	681b      	ldr	r3, [r3, #0]
 8001b74:	4a1f      	ldr	r2, [pc, #124]	; (8001bf4 <HAL_DMA_Abort_IT+0x3f4>)
 8001b76:	4293      	cmp	r3, r2
 8001b78:	d013      	beq.n	8001ba2 <HAL_DMA_Abort_IT+0x3a2>
 8001b7a:	687b      	ldr	r3, [r7, #4]
 8001b7c:	681b      	ldr	r3, [r3, #0]
 8001b7e:	4a1e      	ldr	r2, [pc, #120]	; (8001bf8 <HAL_DMA_Abort_IT+0x3f8>)
 8001b80:	4293      	cmp	r3, r2
 8001b82:	d00e      	beq.n	8001ba2 <HAL_DMA_Abort_IT+0x3a2>
 8001b84:	687b      	ldr	r3, [r7, #4]
 8001b86:	681b      	ldr	r3, [r3, #0]
 8001b88:	4a1c      	ldr	r2, [pc, #112]	; (8001bfc <HAL_DMA_Abort_IT+0x3fc>)
 8001b8a:	4293      	cmp	r3, r2
 8001b8c:	d009      	beq.n	8001ba2 <HAL_DMA_Abort_IT+0x3a2>
 8001b8e:	687b      	ldr	r3, [r7, #4]
 8001b90:	681b      	ldr	r3, [r3, #0]
 8001b92:	4a1b      	ldr	r2, [pc, #108]	; (8001c00 <HAL_DMA_Abort_IT+0x400>)
 8001b94:	4293      	cmp	r3, r2
 8001b96:	d004      	beq.n	8001ba2 <HAL_DMA_Abort_IT+0x3a2>
 8001b98:	687b      	ldr	r3, [r7, #4]
 8001b9a:	681b      	ldr	r3, [r3, #0]
 8001b9c:	4a19      	ldr	r2, [pc, #100]	; (8001c04 <HAL_DMA_Abort_IT+0x404>)
 8001b9e:	4293      	cmp	r3, r2
 8001ba0:	d132      	bne.n	8001c08 <HAL_DMA_Abort_IT+0x408>
 8001ba2:	2301      	movs	r3, #1
 8001ba4:	e031      	b.n	8001c0a <HAL_DMA_Abort_IT+0x40a>
 8001ba6:	bf00      	nop
 8001ba8:	40020010 	.word	0x40020010
 8001bac:	40020028 	.word	0x40020028
 8001bb0:	40020040 	.word	0x40020040
 8001bb4:	40020058 	.word	0x40020058
 8001bb8:	40020070 	.word	0x40020070
 8001bbc:	40020088 	.word	0x40020088
 8001bc0:	400200a0 	.word	0x400200a0
 8001bc4:	400200b8 	.word	0x400200b8
 8001bc8:	40020410 	.word	0x40020410
 8001bcc:	40020428 	.word	0x40020428
 8001bd0:	40020440 	.word	0x40020440
 8001bd4:	40020458 	.word	0x40020458
 8001bd8:	40020470 	.word	0x40020470
 8001bdc:	40020488 	.word	0x40020488
 8001be0:	400204a0 	.word	0x400204a0
 8001be4:	400204b8 	.word	0x400204b8
 8001be8:	58025408 	.word	0x58025408
 8001bec:	5802541c 	.word	0x5802541c
 8001bf0:	58025430 	.word	0x58025430
 8001bf4:	58025444 	.word	0x58025444
 8001bf8:	58025458 	.word	0x58025458
 8001bfc:	5802546c 	.word	0x5802546c
 8001c00:	58025480 	.word	0x58025480
 8001c04:	58025494 	.word	0x58025494
 8001c08:	2300      	movs	r3, #0
 8001c0a:	2b00      	cmp	r3, #0
 8001c0c:	d028      	beq.n	8001c60 <HAL_DMA_Abort_IT+0x460>
      {
        /* disable the DMAMUX sync overrun IT */
        hdma->DMAmuxChannel->CCR &= ~DMAMUX_CxCR_SOIE;
 8001c0e:	687b      	ldr	r3, [r7, #4]
 8001c10:	6e1b      	ldr	r3, [r3, #96]	; 0x60
 8001c12:	681a      	ldr	r2, [r3, #0]
 8001c14:	687b      	ldr	r3, [r7, #4]
 8001c16:	6e1b      	ldr	r3, [r3, #96]	; 0x60
 8001c18:	f422 7280 	bic.w	r2, r2, #256	; 0x100
 8001c1c:	601a      	str	r2, [r3, #0]

        /* Clear all flags */
        regs_bdma = (BDMA_Base_Registers *)hdma->StreamBaseAddress;
 8001c1e:	687b      	ldr	r3, [r7, #4]
 8001c20:	6d9b      	ldr	r3, [r3, #88]	; 0x58
 8001c22:	60fb      	str	r3, [r7, #12]
        regs_bdma->IFCR = ((BDMA_IFCR_CGIF0) << (hdma->StreamIndex & 0x1FU));
 8001c24:	687b      	ldr	r3, [r7, #4]
 8001c26:	6ddb      	ldr	r3, [r3, #92]	; 0x5c
 8001c28:	f003 031f 	and.w	r3, r3, #31
 8001c2c:	2201      	movs	r2, #1
 8001c2e:	409a      	lsls	r2, r3
 8001c30:	68fb      	ldr	r3, [r7, #12]
 8001c32:	605a      	str	r2, [r3, #4]

        /* Clear the DMAMUX synchro overrun flag */
        hdma->DMAmuxChannelStatus->CFR = hdma->DMAmuxChannelStatusMask;
 8001c34:	687b      	ldr	r3, [r7, #4]
 8001c36:	6e5b      	ldr	r3, [r3, #100]	; 0x64
 8001c38:	687a      	ldr	r2, [r7, #4]
 8001c3a:	6e92      	ldr	r2, [r2, #104]	; 0x68
 8001c3c:	605a      	str	r2, [r3, #4]

        if(hdma->DMAmuxRequestGen != 0U)
 8001c3e:	687b      	ldr	r3, [r7, #4]
 8001c40:	6edb      	ldr	r3, [r3, #108]	; 0x6c
 8001c42:	2b00      	cmp	r3, #0
 8001c44:	d00c      	beq.n	8001c60 <HAL_DMA_Abort_IT+0x460>
        {
          /* if using DMAMUX request generator, disable the DMAMUX request generator overrun IT*/
          /* disable the request gen overrun IT */
          hdma->DMAmuxRequestGen->RGCR &= ~DMAMUX_RGxCR_OIE;
 8001c46:	687b      	ldr	r3, [r7, #4]
 8001c48:	6edb      	ldr	r3, [r3, #108]	; 0x6c
 8001c4a:	681a      	ldr	r2, [r3, #0]
 8001c4c:	687b      	ldr	r3, [r7, #4]
 8001c4e:	6edb      	ldr	r3, [r3, #108]	; 0x6c
 8001c50:	f422 7280 	bic.w	r2, r2, #256	; 0x100
 8001c54:	601a      	str	r2, [r3, #0]

          /* Clear the DMAMUX request generator overrun flag */
          hdma->DMAmuxRequestGenStatus->RGCFR = hdma->DMAmuxRequestGenStatusMask;
 8001c56:	687b      	ldr	r3, [r7, #4]
 8001c58:	6f1b      	ldr	r3, [r3, #112]	; 0x70
 8001c5a:	687a      	ldr	r2, [r7, #4]
 8001c5c:	6f52      	ldr	r2, [r2, #116]	; 0x74
 8001c5e:	605a      	str	r2, [r3, #4]
        }
      }

      /* Change the DMA state */
      hdma->State = HAL_DMA_STATE_READY;
 8001c60:	687b      	ldr	r3, [r7, #4]
 8001c62:	2201      	movs	r2, #1
 8001c64:	f883 2035 	strb.w	r2, [r3, #53]	; 0x35

      /* Process Unlocked */
      __HAL_UNLOCK(hdma);
 8001c68:	687b      	ldr	r3, [r7, #4]
 8001c6a:	2200      	movs	r2, #0
 8001c6c:	f883 2034 	strb.w	r2, [r3, #52]	; 0x34

      /* Call User Abort callback */
      if(hdma->XferAbortCallback != NULL)
 8001c70:	687b      	ldr	r3, [r7, #4]
 8001c72:	6d1b      	ldr	r3, [r3, #80]	; 0x50
 8001c74:	2b00      	cmp	r3, #0
 8001c76:	d003      	beq.n	8001c80 <HAL_DMA_Abort_IT+0x480>
      {
        hdma->XferAbortCallback(hdma);
 8001c78:	687b      	ldr	r3, [r7, #4]
 8001c7a:	6d1b      	ldr	r3, [r3, #80]	; 0x50
 8001c7c:	6878      	ldr	r0, [r7, #4]
 8001c7e:	4798      	blx	r3
      }
    }
  }

  return HAL_OK;
 8001c80:	2300      	movs	r3, #0
}
 8001c82:	4618      	mov	r0, r3
 8001c84:	3710      	adds	r7, #16
 8001c86:	46bd      	mov	sp, r7
 8001c88:	bd80      	pop	{r7, pc}
 8001c8a:	bf00      	nop

08001c8c <HAL_DMA_IRQHandler>:
  * @param  hdma: pointer to a DMA_HandleTypeDef structure that contains
  *               the configuration information for the specified DMA Stream.
  * @retval None
  */
void HAL_DMA_IRQHandler(DMA_HandleTypeDef *hdma)
{
 8001c8c:	b580      	push	{r7, lr}
 8001c8e:	b08a      	sub	sp, #40	; 0x28
 8001c90:	af00      	add	r7, sp, #0
 8001c92:	6078      	str	r0, [r7, #4]
  uint32_t tmpisr_dma, tmpisr_bdma;
  uint32_t ccr_reg;
  __IO uint32_t count = 0U;
 8001c94:	2300      	movs	r3, #0
 8001c96:	60fb      	str	r3, [r7, #12]
  uint32_t timeout = SystemCoreClock / 9600U;
 8001c98:	4b67      	ldr	r3, [pc, #412]	; (8001e38 <HAL_DMA_IRQHandler+0x1ac>)
 8001c9a:	681b      	ldr	r3, [r3, #0]
 8001c9c:	4a67      	ldr	r2, [pc, #412]	; (8001e3c <HAL_DMA_IRQHandler+0x1b0>)
 8001c9e:	fba2 2303 	umull	r2, r3, r2, r3
 8001ca2:	0a9b      	lsrs	r3, r3, #10
 8001ca4:	627b      	str	r3, [r7, #36]	; 0x24

  /* calculate DMA base and stream number */
  DMA_Base_Registers  *regs_dma  = (DMA_Base_Registers *)hdma->StreamBaseAddress;
 8001ca6:	687b      	ldr	r3, [r7, #4]
 8001ca8:	6d9b      	ldr	r3, [r3, #88]	; 0x58
 8001caa:	623b      	str	r3, [r7, #32]
  BDMA_Base_Registers *regs_bdma = (BDMA_Base_Registers *)hdma->StreamBaseAddress;
 8001cac:	687b      	ldr	r3, [r7, #4]
 8001cae:	6d9b      	ldr	r3, [r3, #88]	; 0x58
 8001cb0:	61fb      	str	r3, [r7, #28]

  tmpisr_dma  = regs_dma->ISR;
 8001cb2:	6a3b      	ldr	r3, [r7, #32]
 8001cb4:	681b      	ldr	r3, [r3, #0]
 8001cb6:	61bb      	str	r3, [r7, #24]
  tmpisr_bdma = regs_bdma->ISR;
 8001cb8:	69fb      	ldr	r3, [r7, #28]
 8001cba:	681b      	ldr	r3, [r3, #0]
 8001cbc:	617b      	str	r3, [r7, #20]

  if(IS_DMA_STREAM_INSTANCE(hdma->Instance) != 0U)  /* DMA1 or DMA2 instance */
 8001cbe:	687b      	ldr	r3, [r7, #4]
 8001cc0:	681b      	ldr	r3, [r3, #0]
 8001cc2:	4a5f      	ldr	r2, [pc, #380]	; (8001e40 <HAL_DMA_IRQHandler+0x1b4>)
 8001cc4:	4293      	cmp	r3, r2
 8001cc6:	d04a      	beq.n	8001d5e <HAL_DMA_IRQHandler+0xd2>
 8001cc8:	687b      	ldr	r3, [r7, #4]
 8001cca:	681b      	ldr	r3, [r3, #0]
 8001ccc:	4a5d      	ldr	r2, [pc, #372]	; (8001e44 <HAL_DMA_IRQHandler+0x1b8>)
 8001cce:	4293      	cmp	r3, r2
 8001cd0:	d045      	beq.n	8001d5e <HAL_DMA_IRQHandler+0xd2>
 8001cd2:	687b      	ldr	r3, [r7, #4]
 8001cd4:	681b      	ldr	r3, [r3, #0]
 8001cd6:	4a5c      	ldr	r2, [pc, #368]	; (8001e48 <HAL_DMA_IRQHandler+0x1bc>)
 8001cd8:	4293      	cmp	r3, r2
 8001cda:	d040      	beq.n	8001d5e <HAL_DMA_IRQHandler+0xd2>
 8001cdc:	687b      	ldr	r3, [r7, #4]
 8001cde:	681b      	ldr	r3, [r3, #0]
 8001ce0:	4a5a      	ldr	r2, [pc, #360]	; (8001e4c <HAL_DMA_IRQHandler+0x1c0>)
 8001ce2:	4293      	cmp	r3, r2
 8001ce4:	d03b      	beq.n	8001d5e <HAL_DMA_IRQHandler+0xd2>
 8001ce6:	687b      	ldr	r3, [r7, #4]
 8001ce8:	681b      	ldr	r3, [r3, #0]
 8001cea:	4a59      	ldr	r2, [pc, #356]	; (8001e50 <HAL_DMA_IRQHandler+0x1c4>)
 8001cec:	4293      	cmp	r3, r2
 8001cee:	d036      	beq.n	8001d5e <HAL_DMA_IRQHandler+0xd2>
 8001cf0:	687b      	ldr	r3, [r7, #4]
 8001cf2:	681b      	ldr	r3, [r3, #0]
 8001cf4:	4a57      	ldr	r2, [pc, #348]	; (8001e54 <HAL_DMA_IRQHandler+0x1c8>)
 8001cf6:	4293      	cmp	r3, r2
 8001cf8:	d031      	beq.n	8001d5e <HAL_DMA_IRQHandler+0xd2>
 8001cfa:	687b      	ldr	r3, [r7, #4]
 8001cfc:	681b      	ldr	r3, [r3, #0]
 8001cfe:	4a56      	ldr	r2, [pc, #344]	; (8001e58 <HAL_DMA_IRQHandler+0x1cc>)
 8001d00:	4293      	cmp	r3, r2
 8001d02:	d02c      	beq.n	8001d5e <HAL_DMA_IRQHandler+0xd2>
 8001d04:	687b      	ldr	r3, [r7, #4]
 8001d06:	681b      	ldr	r3, [r3, #0]
 8001d08:	4a54      	ldr	r2, [pc, #336]	; (8001e5c <HAL_DMA_IRQHandler+0x1d0>)
 8001d0a:	4293      	cmp	r3, r2
 8001d0c:	d027      	beq.n	8001d5e <HAL_DMA_IRQHandler+0xd2>
 8001d0e:	687b      	ldr	r3, [r7, #4]
 8001d10:	681b      	ldr	r3, [r3, #0]
 8001d12:	4a53      	ldr	r2, [pc, #332]	; (8001e60 <HAL_DMA_IRQHandler+0x1d4>)
 8001d14:	4293      	cmp	r3, r2
 8001d16:	d022      	beq.n	8001d5e <HAL_DMA_IRQHandler+0xd2>
 8001d18:	687b      	ldr	r3, [r7, #4]
 8001d1a:	681b      	ldr	r3, [r3, #0]
 8001d1c:	4a51      	ldr	r2, [pc, #324]	; (8001e64 <HAL_DMA_IRQHandler+0x1d8>)
 8001d1e:	4293      	cmp	r3, r2
 8001d20:	d01d      	beq.n	8001d5e <HAL_DMA_IRQHandler+0xd2>
 8001d22:	687b      	ldr	r3, [r7, #4]
 8001d24:	681b      	ldr	r3, [r3, #0]
 8001d26:	4a50      	ldr	r2, [pc, #320]	; (8001e68 <HAL_DMA_IRQHandler+0x1dc>)
 8001d28:	4293      	cmp	r3, r2
 8001d2a:	d018      	beq.n	8001d5e <HAL_DMA_IRQHandler+0xd2>
 8001d2c:	687b      	ldr	r3, [r7, #4]
 8001d2e:	681b      	ldr	r3, [r3, #0]
 8001d30:	4a4e      	ldr	r2, [pc, #312]	; (8001e6c <HAL_DMA_IRQHandler+0x1e0>)
 8001d32:	4293      	cmp	r3, r2
 8001d34:	d013      	beq.n	8001d5e <HAL_DMA_IRQHandler+0xd2>
 8001d36:	687b      	ldr	r3, [r7, #4]
 8001d38:	681b      	ldr	r3, [r3, #0]
 8001d3a:	4a4d      	ldr	r2, [pc, #308]	; (8001e70 <HAL_DMA_IRQHandler+0x1e4>)
 8001d3c:	4293      	cmp	r3, r2
 8001d3e:	d00e      	beq.n	8001d5e <HAL_DMA_IRQHandler+0xd2>
 8001d40:	687b      	ldr	r3, [r7, #4]
 8001d42:	681b      	ldr	r3, [r3, #0]
 8001d44:	4a4b      	ldr	r2, [pc, #300]	; (8001e74 <HAL_DMA_IRQHandler+0x1e8>)
 8001d46:	4293      	cmp	r3, r2
 8001d48:	d009      	beq.n	8001d5e <HAL_DMA_IRQHandler+0xd2>
 8001d4a:	687b      	ldr	r3, [r7, #4]
 8001d4c:	681b      	ldr	r3, [r3, #0]
 8001d4e:	4a4a      	ldr	r2, [pc, #296]	; (8001e78 <HAL_DMA_IRQHandler+0x1ec>)
 8001d50:	4293      	cmp	r3, r2
 8001d52:	d004      	beq.n	8001d5e <HAL_DMA_IRQHandler+0xd2>
 8001d54:	687b      	ldr	r3, [r7, #4]
 8001d56:	681b      	ldr	r3, [r3, #0]
 8001d58:	4a48      	ldr	r2, [pc, #288]	; (8001e7c <HAL_DMA_IRQHandler+0x1f0>)
 8001d5a:	4293      	cmp	r3, r2
 8001d5c:	d101      	bne.n	8001d62 <HAL_DMA_IRQHandler+0xd6>
 8001d5e:	2301      	movs	r3, #1
 8001d60:	e000      	b.n	8001d64 <HAL_DMA_IRQHandler+0xd8>
 8001d62:	2300      	movs	r3, #0
 8001d64:	2b00      	cmp	r3, #0
 8001d66:	f000 842b 	beq.w	80025c0 <HAL_DMA_IRQHandler+0x934>
  {
    /* Transfer Error Interrupt management ***************************************/
    if ((tmpisr_dma & (DMA_FLAG_TEIF0_4 << (hdma->StreamIndex & 0x1FU))) != 0U)
 8001d6a:	687b      	ldr	r3, [r7, #4]
 8001d6c:	6ddb      	ldr	r3, [r3, #92]	; 0x5c
 8001d6e:	f003 031f 	and.w	r3, r3, #31
 8001d72:	2208      	movs	r2, #8
 8001d74:	409a      	lsls	r2, r3
 8001d76:	69bb      	ldr	r3, [r7, #24]
 8001d78:	4013      	ands	r3, r2
 8001d7a:	2b00      	cmp	r3, #0
 8001d7c:	f000 80a2 	beq.w	8001ec4 <HAL_DMA_IRQHandler+0x238>
    {
      if(__HAL_DMA_GET_IT_SOURCE(hdma, DMA_IT_TE) != 0U)
 8001d80:	687b      	ldr	r3, [r7, #4]
 8001d82:	681b      	ldr	r3, [r3, #0]
 8001d84:	4a2e      	ldr	r2, [pc, #184]	; (8001e40 <HAL_DMA_IRQHandler+0x1b4>)
 8001d86:	4293      	cmp	r3, r2
 8001d88:	d04a      	beq.n	8001e20 <HAL_DMA_IRQHandler+0x194>
 8001d8a:	687b      	ldr	r3, [r7, #4]
 8001d8c:	681b      	ldr	r3, [r3, #0]
 8001d8e:	4a2d      	ldr	r2, [pc, #180]	; (8001e44 <HAL_DMA_IRQHandler+0x1b8>)
 8001d90:	4293      	cmp	r3, r2
 8001d92:	d045      	beq.n	8001e20 <HAL_DMA_IRQHandler+0x194>
 8001d94:	687b      	ldr	r3, [r7, #4]
 8001d96:	681b      	ldr	r3, [r3, #0]
 8001d98:	4a2b      	ldr	r2, [pc, #172]	; (8001e48 <HAL_DMA_IRQHandler+0x1bc>)
 8001d9a:	4293      	cmp	r3, r2
 8001d9c:	d040      	beq.n	8001e20 <HAL_DMA_IRQHandler+0x194>
 8001d9e:	687b      	ldr	r3, [r7, #4]
 8001da0:	681b      	ldr	r3, [r3, #0]
 8001da2:	4a2a      	ldr	r2, [pc, #168]	; (8001e4c <HAL_DMA_IRQHandler+0x1c0>)
 8001da4:	4293      	cmp	r3, r2
 8001da6:	d03b      	beq.n	8001e20 <HAL_DMA_IRQHandler+0x194>
 8001da8:	687b      	ldr	r3, [r7, #4]
 8001daa:	681b      	ldr	r3, [r3, #0]
 8001dac:	4a28      	ldr	r2, [pc, #160]	; (8001e50 <HAL_DMA_IRQHandler+0x1c4>)
 8001dae:	4293      	cmp	r3, r2
 8001db0:	d036      	beq.n	8001e20 <HAL_DMA_IRQHandler+0x194>
 8001db2:	687b      	ldr	r3, [r7, #4]
 8001db4:	681b      	ldr	r3, [r3, #0]
 8001db6:	4a27      	ldr	r2, [pc, #156]	; (8001e54 <HAL_DMA_IRQHandler+0x1c8>)
 8001db8:	4293      	cmp	r3, r2
 8001dba:	d031      	beq.n	8001e20 <HAL_DMA_IRQHandler+0x194>
 8001dbc:	687b      	ldr	r3, [r7, #4]
 8001dbe:	681b      	ldr	r3, [r3, #0]
 8001dc0:	4a25      	ldr	r2, [pc, #148]	; (8001e58 <HAL_DMA_IRQHandler+0x1cc>)
 8001dc2:	4293      	cmp	r3, r2
 8001dc4:	d02c      	beq.n	8001e20 <HAL_DMA_IRQHandler+0x194>
 8001dc6:	687b      	ldr	r3, [r7, #4]
 8001dc8:	681b      	ldr	r3, [r3, #0]
 8001dca:	4a24      	ldr	r2, [pc, #144]	; (8001e5c <HAL_DMA_IRQHandler+0x1d0>)
 8001dcc:	4293      	cmp	r3, r2
 8001dce:	d027      	beq.n	8001e20 <HAL_DMA_IRQHandler+0x194>
 8001dd0:	687b      	ldr	r3, [r7, #4]
 8001dd2:	681b      	ldr	r3, [r3, #0]
 8001dd4:	4a22      	ldr	r2, [pc, #136]	; (8001e60 <HAL_DMA_IRQHandler+0x1d4>)
 8001dd6:	4293      	cmp	r3, r2
 8001dd8:	d022      	beq.n	8001e20 <HAL_DMA_IRQHandler+0x194>
 8001dda:	687b      	ldr	r3, [r7, #4]
 8001ddc:	681b      	ldr	r3, [r3, #0]
 8001dde:	4a21      	ldr	r2, [pc, #132]	; (8001e64 <HAL_DMA_IRQHandler+0x1d8>)
 8001de0:	4293      	cmp	r3, r2
 8001de2:	d01d      	beq.n	8001e20 <HAL_DMA_IRQHandler+0x194>
 8001de4:	687b      	ldr	r3, [r7, #4]
 8001de6:	681b      	ldr	r3, [r3, #0]
 8001de8:	4a1f      	ldr	r2, [pc, #124]	; (8001e68 <HAL_DMA_IRQHandler+0x1dc>)
 8001dea:	4293      	cmp	r3, r2
 8001dec:	d018      	beq.n	8001e20 <HAL_DMA_IRQHandler+0x194>
 8001dee:	687b      	ldr	r3, [r7, #4]
 8001df0:	681b      	ldr	r3, [r3, #0]
 8001df2:	4a1e      	ldr	r2, [pc, #120]	; (8001e6c <HAL_DMA_IRQHandler+0x1e0>)
 8001df4:	4293      	cmp	r3, r2
 8001df6:	d013      	beq.n	8001e20 <HAL_DMA_IRQHandler+0x194>
 8001df8:	687b      	ldr	r3, [r7, #4]
 8001dfa:	681b      	ldr	r3, [r3, #0]
 8001dfc:	4a1c      	ldr	r2, [pc, #112]	; (8001e70 <HAL_DMA_IRQHandler+0x1e4>)
 8001dfe:	4293      	cmp	r3, r2
 8001e00:	d00e      	beq.n	8001e20 <HAL_DMA_IRQHandler+0x194>
 8001e02:	687b      	ldr	r3, [r7, #4]
 8001e04:	681b      	ldr	r3, [r3, #0]
 8001e06:	4a1b      	ldr	r2, [pc, #108]	; (8001e74 <HAL_DMA_IRQHandler+0x1e8>)
 8001e08:	4293      	cmp	r3, r2
 8001e0a:	d009      	beq.n	8001e20 <HAL_DMA_IRQHandler+0x194>
 8001e0c:	687b      	ldr	r3, [r7, #4]
 8001e0e:	681b      	ldr	r3, [r3, #0]
 8001e10:	4a19      	ldr	r2, [pc, #100]	; (8001e78 <HAL_DMA_IRQHandler+0x1ec>)
 8001e12:	4293      	cmp	r3, r2
 8001e14:	d004      	beq.n	8001e20 <HAL_DMA_IRQHandler+0x194>
 8001e16:	687b      	ldr	r3, [r7, #4]
 8001e18:	681b      	ldr	r3, [r3, #0]
 8001e1a:	4a18      	ldr	r2, [pc, #96]	; (8001e7c <HAL_DMA_IRQHandler+0x1f0>)
 8001e1c:	4293      	cmp	r3, r2
 8001e1e:	d12f      	bne.n	8001e80 <HAL_DMA_IRQHandler+0x1f4>
 8001e20:	687b      	ldr	r3, [r7, #4]
 8001e22:	681b      	ldr	r3, [r3, #0]
 8001e24:	681b      	ldr	r3, [r3, #0]
 8001e26:	f003 0304 	and.w	r3, r3, #4
 8001e2a:	2b00      	cmp	r3, #0
 8001e2c:	bf14      	ite	ne
 8001e2e:	2301      	movne	r3, #1
 8001e30:	2300      	moveq	r3, #0
 8001e32:	b2db      	uxtb	r3, r3
 8001e34:	e02e      	b.n	8001e94 <HAL_DMA_IRQHandler+0x208>
 8001e36:	bf00      	nop
 8001e38:	24000000 	.word	0x24000000
 8001e3c:	1b4e81b5 	.word	0x1b4e81b5
 8001e40:	40020010 	.word	0x40020010
 8001e44:	40020028 	.word	0x40020028
 8001e48:	40020040 	.word	0x40020040
 8001e4c:	40020058 	.word	0x40020058
 8001e50:	40020070 	.word	0x40020070
 8001e54:	40020088 	.word	0x40020088
 8001e58:	400200a0 	.word	0x400200a0
 8001e5c:	400200b8 	.word	0x400200b8
 8001e60:	40020410 	.word	0x40020410
 8001e64:	40020428 	.word	0x40020428
 8001e68:	40020440 	.word	0x40020440
 8001e6c:	40020458 	.word	0x40020458
 8001e70:	40020470 	.word	0x40020470
 8001e74:	40020488 	.word	0x40020488
 8001e78:	400204a0 	.word	0x400204a0
 8001e7c:	400204b8 	.word	0x400204b8
 8001e80:	687b      	ldr	r3, [r7, #4]
 8001e82:	681b      	ldr	r3, [r3, #0]
 8001e84:	681b      	ldr	r3, [r3, #0]
 8001e86:	f003 0308 	and.w	r3, r3, #8
 8001e8a:	2b00      	cmp	r3, #0
 8001e8c:	bf14      	ite	ne
 8001e8e:	2301      	movne	r3, #1
 8001e90:	2300      	moveq	r3, #0
 8001e92:	b2db      	uxtb	r3, r3
 8001e94:	2b00      	cmp	r3, #0
 8001e96:	d015      	beq.n	8001ec4 <HAL_DMA_IRQHandler+0x238>
      {
        /* Disable the transfer error interrupt */
        ((DMA_Stream_TypeDef   *)hdma->Instance)->CR  &= ~(DMA_IT_TE);
 8001e98:	687b      	ldr	r3, [r7, #4]
 8001e9a:	681b      	ldr	r3, [r3, #0]
 8001e9c:	681a      	ldr	r2, [r3, #0]
 8001e9e:	687b      	ldr	r3, [r7, #4]
 8001ea0:	681b      	ldr	r3, [r3, #0]
 8001ea2:	f022 0204 	bic.w	r2, r2, #4
 8001ea6:	601a      	str	r2, [r3, #0]

        /* Clear the transfer error flag */
        regs_dma->IFCR = DMA_FLAG_TEIF0_4 << (hdma->StreamIndex & 0x1FU);
 8001ea8:	687b      	ldr	r3, [r7, #4]
 8001eaa:	6ddb      	ldr	r3, [r3, #92]	; 0x5c
 8001eac:	f003 031f 	and.w	r3, r3, #31
 8001eb0:	2208      	movs	r2, #8
 8001eb2:	409a      	lsls	r2, r3
 8001eb4:	6a3b      	ldr	r3, [r7, #32]
 8001eb6:	609a      	str	r2, [r3, #8]

        /* Update error code */
        hdma->ErrorCode |= HAL_DMA_ERROR_TE;
 8001eb8:	687b      	ldr	r3, [r7, #4]
 8001eba:	6d5b      	ldr	r3, [r3, #84]	; 0x54
 8001ebc:	f043 0201 	orr.w	r2, r3, #1
 8001ec0:	687b      	ldr	r3, [r7, #4]
 8001ec2:	655a      	str	r2, [r3, #84]	; 0x54
      }
    }
    /* FIFO Error Interrupt management ******************************************/
    if ((tmpisr_dma & (DMA_FLAG_FEIF0_4 << (hdma->StreamIndex & 0x1FU))) != 0U)
 8001ec4:	687b      	ldr	r3, [r7, #4]
 8001ec6:	6ddb      	ldr	r3, [r3, #92]	; 0x5c
 8001ec8:	f003 031f 	and.w	r3, r3, #31
 8001ecc:	69ba      	ldr	r2, [r7, #24]
 8001ece:	fa22 f303 	lsr.w	r3, r2, r3
 8001ed2:	f003 0301 	and.w	r3, r3, #1
 8001ed6:	2b00      	cmp	r3, #0
 8001ed8:	d06e      	beq.n	8001fb8 <HAL_DMA_IRQHandler+0x32c>
    {
      if(__HAL_DMA_GET_IT_SOURCE(hdma, DMA_IT_FE) != 0U)
 8001eda:	687b      	ldr	r3, [r7, #4]
 8001edc:	681b      	ldr	r3, [r3, #0]
 8001ede:	4a69      	ldr	r2, [pc, #420]	; (8002084 <HAL_DMA_IRQHandler+0x3f8>)
 8001ee0:	4293      	cmp	r3, r2
 8001ee2:	d04a      	beq.n	8001f7a <HAL_DMA_IRQHandler+0x2ee>
 8001ee4:	687b      	ldr	r3, [r7, #4]
 8001ee6:	681b      	ldr	r3, [r3, #0]
 8001ee8:	4a67      	ldr	r2, [pc, #412]	; (8002088 <HAL_DMA_IRQHandler+0x3fc>)
 8001eea:	4293      	cmp	r3, r2
 8001eec:	d045      	beq.n	8001f7a <HAL_DMA_IRQHandler+0x2ee>
 8001eee:	687b      	ldr	r3, [r7, #4]
 8001ef0:	681b      	ldr	r3, [r3, #0]
 8001ef2:	4a66      	ldr	r2, [pc, #408]	; (800208c <HAL_DMA_IRQHandler+0x400>)
 8001ef4:	4293      	cmp	r3, r2
 8001ef6:	d040      	beq.n	8001f7a <HAL_DMA_IRQHandler+0x2ee>
 8001ef8:	687b      	ldr	r3, [r7, #4]
 8001efa:	681b      	ldr	r3, [r3, #0]
 8001efc:	4a64      	ldr	r2, [pc, #400]	; (8002090 <HAL_DMA_IRQHandler+0x404>)
 8001efe:	4293      	cmp	r3, r2
 8001f00:	d03b      	beq.n	8001f7a <HAL_DMA_IRQHandler+0x2ee>
 8001f02:	687b      	ldr	r3, [r7, #4]
 8001f04:	681b      	ldr	r3, [r3, #0]
 8001f06:	4a63      	ldr	r2, [pc, #396]	; (8002094 <HAL_DMA_IRQHandler+0x408>)
 8001f08:	4293      	cmp	r3, r2
 8001f0a:	d036      	beq.n	8001f7a <HAL_DMA_IRQHandler+0x2ee>
 8001f0c:	687b      	ldr	r3, [r7, #4]
 8001f0e:	681b      	ldr	r3, [r3, #0]
 8001f10:	4a61      	ldr	r2, [pc, #388]	; (8002098 <HAL_DMA_IRQHandler+0x40c>)
 8001f12:	4293      	cmp	r3, r2
 8001f14:	d031      	beq.n	8001f7a <HAL_DMA_IRQHandler+0x2ee>
 8001f16:	687b      	ldr	r3, [r7, #4]
 8001f18:	681b      	ldr	r3, [r3, #0]
 8001f1a:	4a60      	ldr	r2, [pc, #384]	; (800209c <HAL_DMA_IRQHandler+0x410>)
 8001f1c:	4293      	cmp	r3, r2
 8001f1e:	d02c      	beq.n	8001f7a <HAL_DMA_IRQHandler+0x2ee>
 8001f20:	687b      	ldr	r3, [r7, #4]
 8001f22:	681b      	ldr	r3, [r3, #0]
 8001f24:	4a5e      	ldr	r2, [pc, #376]	; (80020a0 <HAL_DMA_IRQHandler+0x414>)
 8001f26:	4293      	cmp	r3, r2
 8001f28:	d027      	beq.n	8001f7a <HAL_DMA_IRQHandler+0x2ee>
 8001f2a:	687b      	ldr	r3, [r7, #4]
 8001f2c:	681b      	ldr	r3, [r3, #0]
 8001f2e:	4a5d      	ldr	r2, [pc, #372]	; (80020a4 <HAL_DMA_IRQHandler+0x418>)
 8001f30:	4293      	cmp	r3, r2
 8001f32:	d022      	beq.n	8001f7a <HAL_DMA_IRQHandler+0x2ee>
 8001f34:	687b      	ldr	r3, [r7, #4]
 8001f36:	681b      	ldr	r3, [r3, #0]
 8001f38:	4a5b      	ldr	r2, [pc, #364]	; (80020a8 <HAL_DMA_IRQHandler+0x41c>)
 8001f3a:	4293      	cmp	r3, r2
 8001f3c:	d01d      	beq.n	8001f7a <HAL_DMA_IRQHandler+0x2ee>
 8001f3e:	687b      	ldr	r3, [r7, #4]
 8001f40:	681b      	ldr	r3, [r3, #0]
 8001f42:	4a5a      	ldr	r2, [pc, #360]	; (80020ac <HAL_DMA_IRQHandler+0x420>)
 8001f44:	4293      	cmp	r3, r2
 8001f46:	d018      	beq.n	8001f7a <HAL_DMA_IRQHandler+0x2ee>
 8001f48:	687b      	ldr	r3, [r7, #4]
 8001f4a:	681b      	ldr	r3, [r3, #0]
 8001f4c:	4a58      	ldr	r2, [pc, #352]	; (80020b0 <HAL_DMA_IRQHandler+0x424>)
 8001f4e:	4293      	cmp	r3, r2
 8001f50:	d013      	beq.n	8001f7a <HAL_DMA_IRQHandler+0x2ee>
 8001f52:	687b      	ldr	r3, [r7, #4]
 8001f54:	681b      	ldr	r3, [r3, #0]
 8001f56:	4a57      	ldr	r2, [pc, #348]	; (80020b4 <HAL_DMA_IRQHandler+0x428>)
 8001f58:	4293      	cmp	r3, r2
 8001f5a:	d00e      	beq.n	8001f7a <HAL_DMA_IRQHandler+0x2ee>
 8001f5c:	687b      	ldr	r3, [r7, #4]
 8001f5e:	681b      	ldr	r3, [r3, #0]
 8001f60:	4a55      	ldr	r2, [pc, #340]	; (80020b8 <HAL_DMA_IRQHandler+0x42c>)
 8001f62:	4293      	cmp	r3, r2
 8001f64:	d009      	beq.n	8001f7a <HAL_DMA_IRQHandler+0x2ee>
 8001f66:	687b      	ldr	r3, [r7, #4]
 8001f68:	681b      	ldr	r3, [r3, #0]
 8001f6a:	4a54      	ldr	r2, [pc, #336]	; (80020bc <HAL_DMA_IRQHandler+0x430>)
 8001f6c:	4293      	cmp	r3, r2
 8001f6e:	d004      	beq.n	8001f7a <HAL_DMA_IRQHandler+0x2ee>
 8001f70:	687b      	ldr	r3, [r7, #4]
 8001f72:	681b      	ldr	r3, [r3, #0]
 8001f74:	4a52      	ldr	r2, [pc, #328]	; (80020c0 <HAL_DMA_IRQHandler+0x434>)
 8001f76:	4293      	cmp	r3, r2
 8001f78:	d10a      	bne.n	8001f90 <HAL_DMA_IRQHandler+0x304>
 8001f7a:	687b      	ldr	r3, [r7, #4]
 8001f7c:	681b      	ldr	r3, [r3, #0]
 8001f7e:	695b      	ldr	r3, [r3, #20]
 8001f80:	f003 0380 	and.w	r3, r3, #128	; 0x80
 8001f84:	2b00      	cmp	r3, #0
 8001f86:	bf14      	ite	ne
 8001f88:	2301      	movne	r3, #1
 8001f8a:	2300      	moveq	r3, #0
 8001f8c:	b2db      	uxtb	r3, r3
 8001f8e:	e003      	b.n	8001f98 <HAL_DMA_IRQHandler+0x30c>
 8001f90:	687b      	ldr	r3, [r7, #4]
 8001f92:	681b      	ldr	r3, [r3, #0]
 8001f94:	681b      	ldr	r3, [r3, #0]
 8001f96:	2300      	movs	r3, #0
 8001f98:	2b00      	cmp	r3, #0
 8001f9a:	d00d      	beq.n	8001fb8 <HAL_DMA_IRQHandler+0x32c>
      {
        /* Clear the FIFO error flag */
        regs_dma->IFCR = DMA_FLAG_FEIF0_4 << (hdma->StreamIndex & 0x1FU);
 8001f9c:	687b      	ldr	r3, [r7, #4]
 8001f9e:	6ddb      	ldr	r3, [r3, #92]	; 0x5c
 8001fa0:	f003 031f 	and.w	r3, r3, #31
 8001fa4:	2201      	movs	r2, #1
 8001fa6:	409a      	lsls	r2, r3
 8001fa8:	6a3b      	ldr	r3, [r7, #32]
 8001faa:	609a      	str	r2, [r3, #8]

        /* Update error code */
        hdma->ErrorCode |= HAL_DMA_ERROR_FE;
 8001fac:	687b      	ldr	r3, [r7, #4]
 8001fae:	6d5b      	ldr	r3, [r3, #84]	; 0x54
 8001fb0:	f043 0202 	orr.w	r2, r3, #2
 8001fb4:	687b      	ldr	r3, [r7, #4]
 8001fb6:	655a      	str	r2, [r3, #84]	; 0x54
      }
    }
    /* Direct Mode Error Interrupt management ***********************************/
    if ((tmpisr_dma & (DMA_FLAG_DMEIF0_4 << (hdma->StreamIndex & 0x1FU))) != 0U)
 8001fb8:	687b      	ldr	r3, [r7, #4]
 8001fba:	6ddb      	ldr	r3, [r3, #92]	; 0x5c
 8001fbc:	f003 031f 	and.w	r3, r3, #31
 8001fc0:	2204      	movs	r2, #4
 8001fc2:	409a      	lsls	r2, r3
 8001fc4:	69bb      	ldr	r3, [r7, #24]
 8001fc6:	4013      	ands	r3, r2
 8001fc8:	2b00      	cmp	r3, #0
 8001fca:	f000 808f 	beq.w	80020ec <HAL_DMA_IRQHandler+0x460>
    {
      if(__HAL_DMA_GET_IT_SOURCE(hdma, DMA_IT_DME) != 0U)
 8001fce:	687b      	ldr	r3, [r7, #4]
 8001fd0:	681b      	ldr	r3, [r3, #0]
 8001fd2:	4a2c      	ldr	r2, [pc, #176]	; (8002084 <HAL_DMA_IRQHandler+0x3f8>)
 8001fd4:	4293      	cmp	r3, r2
 8001fd6:	d04a      	beq.n	800206e <HAL_DMA_IRQHandler+0x3e2>
 8001fd8:	687b      	ldr	r3, [r7, #4]
 8001fda:	681b      	ldr	r3, [r3, #0]
 8001fdc:	4a2a      	ldr	r2, [pc, #168]	; (8002088 <HAL_DMA_IRQHandler+0x3fc>)
 8001fde:	4293      	cmp	r3, r2
 8001fe0:	d045      	beq.n	800206e <HAL_DMA_IRQHandler+0x3e2>
 8001fe2:	687b      	ldr	r3, [r7, #4]
 8001fe4:	681b      	ldr	r3, [r3, #0]
 8001fe6:	4a29      	ldr	r2, [pc, #164]	; (800208c <HAL_DMA_IRQHandler+0x400>)
 8001fe8:	4293      	cmp	r3, r2
 8001fea:	d040      	beq.n	800206e <HAL_DMA_IRQHandler+0x3e2>
 8001fec:	687b      	ldr	r3, [r7, #4]
 8001fee:	681b      	ldr	r3, [r3, #0]
 8001ff0:	4a27      	ldr	r2, [pc, #156]	; (8002090 <HAL_DMA_IRQHandler+0x404>)
 8001ff2:	4293      	cmp	r3, r2
 8001ff4:	d03b      	beq.n	800206e <HAL_DMA_IRQHandler+0x3e2>
 8001ff6:	687b      	ldr	r3, [r7, #4]
 8001ff8:	681b      	ldr	r3, [r3, #0]
 8001ffa:	4a26      	ldr	r2, [pc, #152]	; (8002094 <HAL_DMA_IRQHandler+0x408>)
 8001ffc:	4293      	cmp	r3, r2
 8001ffe:	d036      	beq.n	800206e <HAL_DMA_IRQHandler+0x3e2>
 8002000:	687b      	ldr	r3, [r7, #4]
 8002002:	681b      	ldr	r3, [r3, #0]
 8002004:	4a24      	ldr	r2, [pc, #144]	; (8002098 <HAL_DMA_IRQHandler+0x40c>)
 8002006:	4293      	cmp	r3, r2
 8002008:	d031      	beq.n	800206e <HAL_DMA_IRQHandler+0x3e2>
 800200a:	687b      	ldr	r3, [r7, #4]
 800200c:	681b      	ldr	r3, [r3, #0]
 800200e:	4a23      	ldr	r2, [pc, #140]	; (800209c <HAL_DMA_IRQHandler+0x410>)
 8002010:	4293      	cmp	r3, r2
 8002012:	d02c      	beq.n	800206e <HAL_DMA_IRQHandler+0x3e2>
 8002014:	687b      	ldr	r3, [r7, #4]
 8002016:	681b      	ldr	r3, [r3, #0]
 8002018:	4a21      	ldr	r2, [pc, #132]	; (80020a0 <HAL_DMA_IRQHandler+0x414>)
 800201a:	4293      	cmp	r3, r2
 800201c:	d027      	beq.n	800206e <HAL_DMA_IRQHandler+0x3e2>
 800201e:	687b      	ldr	r3, [r7, #4]
 8002020:	681b      	ldr	r3, [r3, #0]
 8002022:	4a20      	ldr	r2, [pc, #128]	; (80020a4 <HAL_DMA_IRQHandler+0x418>)
 8002024:	4293      	cmp	r3, r2
 8002026:	d022      	beq.n	800206e <HAL_DMA_IRQHandler+0x3e2>
 8002028:	687b      	ldr	r3, [r7, #4]
 800202a:	681b      	ldr	r3, [r3, #0]
 800202c:	4a1e      	ldr	r2, [pc, #120]	; (80020a8 <HAL_DMA_IRQHandler+0x41c>)
 800202e:	4293      	cmp	r3, r2
 8002030:	d01d      	beq.n	800206e <HAL_DMA_IRQHandler+0x3e2>
 8002032:	687b      	ldr	r3, [r7, #4]
 8002034:	681b      	ldr	r3, [r3, #0]
 8002036:	4a1d      	ldr	r2, [pc, #116]	; (80020ac <HAL_DMA_IRQHandler+0x420>)
 8002038:	4293      	cmp	r3, r2
 800203a:	d018      	beq.n	800206e <HAL_DMA_IRQHandler+0x3e2>
 800203c:	687b      	ldr	r3, [r7, #4]
 800203e:	681b      	ldr	r3, [r3, #0]
 8002040:	4a1b      	ldr	r2, [pc, #108]	; (80020b0 <HAL_DMA_IRQHandler+0x424>)
 8002042:	4293      	cmp	r3, r2
 8002044:	d013      	beq.n	800206e <HAL_DMA_IRQHandler+0x3e2>
 8002046:	687b      	ldr	r3, [r7, #4]
 8002048:	681b      	ldr	r3, [r3, #0]
 800204a:	4a1a      	ldr	r2, [pc, #104]	; (80020b4 <HAL_DMA_IRQHandler+0x428>)
 800204c:	4293      	cmp	r3, r2
 800204e:	d00e      	beq.n	800206e <HAL_DMA_IRQHandler+0x3e2>
 8002050:	687b      	ldr	r3, [r7, #4]
 8002052:	681b      	ldr	r3, [r3, #0]
 8002054:	4a18      	ldr	r2, [pc, #96]	; (80020b8 <HAL_DMA_IRQHandler+0x42c>)
 8002056:	4293      	cmp	r3, r2
 8002058:	d009      	beq.n	800206e <HAL_DMA_IRQHandler+0x3e2>
 800205a:	687b      	ldr	r3, [r7, #4]
 800205c:	681b      	ldr	r3, [r3, #0]
 800205e:	4a17      	ldr	r2, [pc, #92]	; (80020bc <HAL_DMA_IRQHandler+0x430>)
 8002060:	4293      	cmp	r3, r2
 8002062:	d004      	beq.n	800206e <HAL_DMA_IRQHandler+0x3e2>
 8002064:	687b      	ldr	r3, [r7, #4]
 8002066:	681b      	ldr	r3, [r3, #0]
 8002068:	4a15      	ldr	r2, [pc, #84]	; (80020c0 <HAL_DMA_IRQHandler+0x434>)
 800206a:	4293      	cmp	r3, r2
 800206c:	d12a      	bne.n	80020c4 <HAL_DMA_IRQHandler+0x438>
 800206e:	687b      	ldr	r3, [r7, #4]
 8002070:	681b      	ldr	r3, [r3, #0]
 8002072:	681b      	ldr	r3, [r3, #0]
 8002074:	f003 0302 	and.w	r3, r3, #2
 8002078:	2b00      	cmp	r3, #0
 800207a:	bf14      	ite	ne
 800207c:	2301      	movne	r3, #1
 800207e:	2300      	moveq	r3, #0
 8002080:	b2db      	uxtb	r3, r3
 8002082:	e023      	b.n	80020cc <HAL_DMA_IRQHandler+0x440>
 8002084:	40020010 	.word	0x40020010
 8002088:	40020028 	.word	0x40020028
 800208c:	40020040 	.word	0x40020040
 8002090:	40020058 	.word	0x40020058
 8002094:	40020070 	.word	0x40020070
 8002098:	40020088 	.word	0x40020088
 800209c:	400200a0 	.word	0x400200a0
 80020a0:	400200b8 	.word	0x400200b8
 80020a4:	40020410 	.word	0x40020410
 80020a8:	40020428 	.word	0x40020428
 80020ac:	40020440 	.word	0x40020440
 80020b0:	40020458 	.word	0x40020458
 80020b4:	40020470 	.word	0x40020470
 80020b8:	40020488 	.word	0x40020488
 80020bc:	400204a0 	.word	0x400204a0
 80020c0:	400204b8 	.word	0x400204b8
 80020c4:	687b      	ldr	r3, [r7, #4]
 80020c6:	681b      	ldr	r3, [r3, #0]
 80020c8:	681b      	ldr	r3, [r3, #0]
 80020ca:	2300      	movs	r3, #0
 80020cc:	2b00      	cmp	r3, #0
 80020ce:	d00d      	beq.n	80020ec <HAL_DMA_IRQHandler+0x460>
      {
        /* Clear the direct mode error flag */
        regs_dma->IFCR = DMA_FLAG_DMEIF0_4 << (hdma->StreamIndex & 0x1FU);
 80020d0:	687b      	ldr	r3, [r7, #4]
 80020d2:	6ddb      	ldr	r3, [r3, #92]	; 0x5c
 80020d4:	f003 031f 	and.w	r3, r3, #31
 80020d8:	2204      	movs	r2, #4
