
SPI_Test_CM4.elf:     file format elf32-littlearm

Sections:
Idx Name          Size      VMA       LMA       File off  Algn
  0 .isr_vector   00000298  08100000  08100000  00010000  2**0
                  CONTENTS, ALLOC, LOAD, READONLY, DATA
  1 .text         00004a14  08100298  08100298  00010298  2**2
                  CONTENTS, ALLOC, LOAD, READONLY, CODE
  2 .rodata       00000018  08104cac  08104cac  00014cac  2**2
                  CONTENTS, ALLOC, LOAD, READONLY, DATA
  3 .init_array   00000004  08104cc4  08104cc4  00014cc4  2**2
                  CONTENTS, ALLOC, LOAD, DATA
  4 .fini_array   00000004  08104cc8  08104cc8  00014cc8  2**2
                  CONTENTS, ALLOC, LOAD, DATA
  5 .data         00000010  10000000  08104ccc  00020000  2**2
                  CONTENTS, ALLOC, LOAD, DATA
  6 .bss          000001a8  10000010  08104cdc  00020010  2**2
                  ALLOC
  7 ._user_heap_stack 00000600  100001b8  08104cdc  000201b8  2**0
                  ALLOC
  8 .ARM.attributes 00000030  00000000  00000000  00020010  2**0
                  CONTENTS, READONLY
  9 .debug_info   0000b58e  00000000  00000000  00020040  2**0
                  CONTENTS, READONLY, DEBUGGING, OCTETS
 10 .debug_abbrev 00001b88  00000000  00000000  0002b5ce  2**0
                  CONTENTS, READONLY, DEBUGGING, OCTETS
 11 .debug_aranges 00000970  00000000  00000000  0002d158  2**3
                  CONTENTS, READONLY, DEBUGGING, OCTETS
 12 .debug_ranges 000008a8  00000000  00000000  0002dac8  2**3
                  CONTENTS, READONLY, DEBUGGING, OCTETS
 13 .debug_macro  00037e7c  00000000  00000000  0002e370  2**0
                  CONTENTS, READONLY, DEBUGGING, OCTETS
 14 .debug_line   0000c35a  00000000  00000000  000661ec  2**0
                  CONTENTS, READONLY, DEBUGGING, OCTETS
 15 .debug_str    00172a0b  00000000  00000000  00072546  2**0
                  CONTENTS, READONLY, DEBUGGING, OCTETS
 16 .comment      00000050  00000000  00000000  001e4f51  2**0
                  CONTENTS, READONLY
 17 .debug_frame  00002578  00000000  00000000  001e4fa4  2**2
                  CONTENTS, READONLY, DEBUGGING, OCTETS

Disassembly of section .text:

08100298 <__do_global_dtors_aux>:
 8100298:	b510      	push	{r4, lr}
 810029a:	4c05      	ldr	r4, [pc, #20]	; (81002b0 <__do_global_dtors_aux+0x18>)
 810029c:	7823      	ldrb	r3, [r4, #0]
 810029e:	b933      	cbnz	r3, 81002ae <__do_global_dtors_aux+0x16>
 81002a0:	4b04      	ldr	r3, [pc, #16]	; (81002b4 <__do_global_dtors_aux+0x1c>)
 81002a2:	b113      	cbz	r3, 81002aa <__do_global_dtors_aux+0x12>
 81002a4:	4804      	ldr	r0, [pc, #16]	; (81002b8 <__do_global_dtors_aux+0x20>)
 81002a6:	f3af 8000 	nop.w
 81002aa:	2301      	movs	r3, #1
 81002ac:	7023      	strb	r3, [r4, #0]
 81002ae:	bd10      	pop	{r4, pc}
 81002b0:	10000010 	.word	0x10000010
 81002b4:	00000000 	.word	0x00000000
 81002b8:	08104c94 	.word	0x08104c94

081002bc <frame_dummy>:
 81002bc:	b508      	push	{r3, lr}
 81002be:	4b03      	ldr	r3, [pc, #12]	; (81002cc <frame_dummy+0x10>)
 81002c0:	b11b      	cbz	r3, 81002ca <frame_dummy+0xe>
 81002c2:	4903      	ldr	r1, [pc, #12]	; (81002d0 <frame_dummy+0x14>)
 81002c4:	4803      	ldr	r0, [pc, #12]	; (81002d4 <frame_dummy+0x18>)
 81002c6:	f3af 8000 	nop.w
 81002ca:	bd08      	pop	{r3, pc}
 81002cc:	00000000 	.word	0x00000000
 81002d0:	10000014 	.word	0x10000014
 81002d4:	08104c94 	.word	0x08104c94

081002d8 <SystemInit>:
  *         configuration.
  * @param  None
  * @retval None
  */
void SystemInit (void)
{
 81002d8:	b480      	push	{r7}
 81002da:	af00      	add	r7, sp, #0
  /* FPU settings ------------------------------------------------------------*/
  #if (__FPU_PRESENT == 1) && (__FPU_USED == 1)
    SCB->CPACR |= ((3UL << (10*2))|(3UL << (11*2)));  /* set CP10 and CP11 Full Access */
 81002dc:	4b09      	ldr	r3, [pc, #36]	; (8100304 <SystemInit+0x2c>)
 81002de:	f8d3 3088 	ldr.w	r3, [r3, #136]	; 0x88
 81002e2:	4a08      	ldr	r2, [pc, #32]	; (8100304 <SystemInit+0x2c>)
 81002e4:	f443 0370 	orr.w	r3, r3, #15728640	; 0xf00000
 81002e8:	f8c2 3088 	str.w	r3, [r2, #136]	; 0x88
  #endif

    /*SEVONPEND enabled so that an interrupt coming from the CPU(n) interrupt signal is
     detectable by the CPU after a WFI/WFE instruction.*/
 SCB->SCR |= SCB_SCR_SEVONPEND_Msk;
 81002ec:	4b05      	ldr	r3, [pc, #20]	; (8100304 <SystemInit+0x2c>)
 81002ee:	691b      	ldr	r3, [r3, #16]
 81002f0:	4a04      	ldr	r2, [pc, #16]	; (8100304 <SystemInit+0x2c>)
 81002f2:	f043 0310 	orr.w	r3, r3, #16
 81002f6:	6113      	str	r3, [r2, #16]
#endif /* USER_VECT_TAB_ADDRESS */

#else
#error Please #define CORE_CM4 or CORE_CM7
#endif /* CORE_CM4 */
}
 81002f8:	bf00      	nop
 81002fa:	46bd      	mov	sp, r7
 81002fc:	f85d 7b04 	ldr.w	r7, [sp], #4
 8100300:	4770      	bx	lr
 8100302:	bf00      	nop
 8100304:	e000ed00 	.word	0xe000ed00

08100308 <main>:
/**
  * @brief  The application entry point.
  * @retval int
  */
int main(void)
{
 8100308:	b580      	push	{r7, lr}
 810030a:	b082      	sub	sp, #8
 810030c:	af00      	add	r7, sp, #0

  /* USER CODE END 1 */

/* USER CODE BEGIN Boot_Mode_Sequence_1 */
  /*HW semaphore Clock enable*/
  __HAL_RCC_HSEM_CLK_ENABLE();
 810030e:	4b1d      	ldr	r3, [pc, #116]	; (8100384 <main+0x7c>)
 8100310:	f8d3 30e0 	ldr.w	r3, [r3, #224]	; 0xe0
 8100314:	4a1b      	ldr	r2, [pc, #108]	; (8100384 <main+0x7c>)
 8100316:	f043 7300 	orr.w	r3, r3, #33554432	; 0x2000000
 810031a:	f8c2 30e0 	str.w	r3, [r2, #224]	; 0xe0
 810031e:	4b19      	ldr	r3, [pc, #100]	; (8100384 <main+0x7c>)
 8100320:	f8d3 30e0 	ldr.w	r3, [r3, #224]	; 0xe0
 8100324:	f003 7300 	and.w	r3, r3, #33554432	; 0x2000000
 8100328:	607b      	str	r3, [r7, #4]
 810032a:	687b      	ldr	r3, [r7, #4]
  /* Activate HSEM notification for Cortex-M4*/
  HAL_HSEM_ActivateNotification(__HAL_HSEM_SEMID_TO_MASK(HSEM_ID_0));
 810032c:	2001      	movs	r0, #1
 810032e:	f003 f93b 	bl	81035a8 <HAL_HSEM_ActivateNotification>
  /*
  Domain D2 goes to STOP mode (Cortex-M4 in deep-sleep) waiting for Cortex-M7 to
  perform system initialization (system clock config, external memory configuration.. )
  */
  HAL_PWREx_ClearPendingEvent();
 8100332:	f003 f9e9 	bl	8103708 <HAL_PWREx_ClearPendingEvent>
  HAL_PWREx_EnterSTOPMode(PWR_MAINREGULATOR_ON, PWR_STOPENTRY_WFE, PWR_D2_DOMAIN);
 8100336:	2201      	movs	r2, #1
 8100338:	2102      	movs	r1, #2
 810033a:	2000      	movs	r0, #0
 810033c:	f003 f96a 	bl	8103614 <HAL_PWREx_EnterSTOPMode>
  /* Clear HSEM flag */
  __HAL_HSEM_CLEAR_FLAG(__HAL_HSEM_SEMID_TO_MASK(HSEM_ID_0));
 8100340:	4b11      	ldr	r3, [pc, #68]	; (8100388 <main+0x80>)
 8100342:	681b      	ldr	r3, [r3, #0]
 8100344:	091b      	lsrs	r3, r3, #4
 8100346:	f003 030f 	and.w	r3, r3, #15
 810034a:	2b07      	cmp	r3, #7
 810034c:	d108      	bne.n	8100360 <main+0x58>
 810034e:	4b0f      	ldr	r3, [pc, #60]	; (810038c <main+0x84>)
 8100350:	f8d3 3104 	ldr.w	r3, [r3, #260]	; 0x104
 8100354:	4a0d      	ldr	r2, [pc, #52]	; (810038c <main+0x84>)
 8100356:	f043 0301 	orr.w	r3, r3, #1
 810035a:	f8c2 3104 	str.w	r3, [r2, #260]	; 0x104
 810035e:	e007      	b.n	8100370 <main+0x68>
 8100360:	4b0a      	ldr	r3, [pc, #40]	; (810038c <main+0x84>)
 8100362:	f8d3 3114 	ldr.w	r3, [r3, #276]	; 0x114
 8100366:	4a09      	ldr	r2, [pc, #36]	; (810038c <main+0x84>)
 8100368:	f043 0301 	orr.w	r3, r3, #1
 810036c:	f8c2 3114 	str.w	r3, [r2, #276]	; 0x114

/* USER CODE END Boot_Mode_Sequence_1 */
  /* MCU Configuration--------------------------------------------------------*/

  /* Reset of all peripherals, Initializes the Flash interface and the Systick. */
  HAL_Init();
 8100370:	f000 fa50 	bl	8100814 <HAL_Init>
  /* USER CODE BEGIN SysInit */

  /* USER CODE END SysInit */

  /* Initialize all configured peripherals */
  MX_DMA_Init();
 8100374:	f000 f862 	bl	810043c <MX_DMA_Init>
  MX_GPIO_Init();
 8100378:	f000 f888 	bl	810048c <MX_GPIO_Init>
  MX_SPI3_Init();
 810037c:	f000 f808 	bl	8100390 <MX_SPI3_Init>

  /* USER CODE END 2 */

  /* Infinite loop */
  /* USER CODE BEGIN WHILE */
  while (1)
 8100380:	e7fe      	b.n	8100380 <main+0x78>
 8100382:	bf00      	nop
 8100384:	58024400 	.word	0x58024400
 8100388:	e000ed00 	.word	0xe000ed00
 810038c:	58026400 	.word	0x58026400

08100390 <MX_SPI3_Init>:
  * @brief SPI3 Initialization Function
  * @param None
  * @retval None
  */
static void MX_SPI3_Init(void)
{
 8100390:	b580      	push	{r7, lr}
 8100392:	af00      	add	r7, sp, #0

  /* USER CODE BEGIN SPI3_Init 1 */

  /* USER CODE END SPI3_Init 1 */
  /* SPI3 parameter configuration*/
  hspi3.Instance = SPI3;
 8100394:	4b27      	ldr	r3, [pc, #156]	; (8100434 <MX_SPI3_Init+0xa4>)
 8100396:	4a28      	ldr	r2, [pc, #160]	; (8100438 <MX_SPI3_Init+0xa8>)
 8100398:	601a      	str	r2, [r3, #0]
  hspi3.Init.Mode = SPI_MODE_MASTER;
 810039a:	4b26      	ldr	r3, [pc, #152]	; (8100434 <MX_SPI3_Init+0xa4>)
 810039c:	f44f 0280 	mov.w	r2, #4194304	; 0x400000
 81003a0:	605a      	str	r2, [r3, #4]
  hspi3.Init.Direction = SPI_DIRECTION_2LINES;
 81003a2:	4b24      	ldr	r3, [pc, #144]	; (8100434 <MX_SPI3_Init+0xa4>)
 81003a4:	2200      	movs	r2, #0
 81003a6:	609a      	str	r2, [r3, #8]
  hspi3.Init.DataSize = SPI_DATASIZE_8BIT;
 81003a8:	4b22      	ldr	r3, [pc, #136]	; (8100434 <MX_SPI3_Init+0xa4>)
 81003aa:	2207      	movs	r2, #7
 81003ac:	60da      	str	r2, [r3, #12]
  hspi3.Init.CLKPolarity = SPI_POLARITY_LOW;
 81003ae:	4b21      	ldr	r3, [pc, #132]	; (8100434 <MX_SPI3_Init+0xa4>)
 81003b0:	2200      	movs	r2, #0
 81003b2:	611a      	str	r2, [r3, #16]
  hspi3.Init.CLKPhase = SPI_PHASE_1EDGE;
 81003b4:	4b1f      	ldr	r3, [pc, #124]	; (8100434 <MX_SPI3_Init+0xa4>)
 81003b6:	2200      	movs	r2, #0
 81003b8:	615a      	str	r2, [r3, #20]
  hspi3.Init.NSS = SPI_NSS_SOFT;
 81003ba:	4b1e      	ldr	r3, [pc, #120]	; (8100434 <MX_SPI3_Init+0xa4>)
 81003bc:	f04f 6280 	mov.w	r2, #67108864	; 0x4000000
 81003c0:	619a      	str	r2, [r3, #24]
  hspi3.Init.BaudRatePrescaler = SPI_BAUDRATEPRESCALER_64;
 81003c2:	4b1c      	ldr	r3, [pc, #112]	; (8100434 <MX_SPI3_Init+0xa4>)
 81003c4:	f04f 42a0 	mov.w	r2, #1342177280	; 0x50000000
 81003c8:	61da      	str	r2, [r3, #28]
  hspi3.Init.FirstBit = SPI_FIRSTBIT_MSB;
 81003ca:	4b1a      	ldr	r3, [pc, #104]	; (8100434 <MX_SPI3_Init+0xa4>)
 81003cc:	2200      	movs	r2, #0
 81003ce:	621a      	str	r2, [r3, #32]
  hspi3.Init.TIMode = SPI_TIMODE_DISABLE;
 81003d0:	4b18      	ldr	r3, [pc, #96]	; (8100434 <MX_SPI3_Init+0xa4>)
 81003d2:	2200      	movs	r2, #0
 81003d4:	625a      	str	r2, [r3, #36]	; 0x24
  hspi3.Init.CRCCalculation = SPI_CRCCALCULATION_DISABLE;
 81003d6:	4b17      	ldr	r3, [pc, #92]	; (8100434 <MX_SPI3_Init+0xa4>)
 81003d8:	2200      	movs	r2, #0
 81003da:	629a      	str	r2, [r3, #40]	; 0x28
  hspi3.Init.CRCPolynomial = 0x0;
 81003dc:	4b15      	ldr	r3, [pc, #84]	; (8100434 <MX_SPI3_Init+0xa4>)
 81003de:	2200      	movs	r2, #0
 81003e0:	62da      	str	r2, [r3, #44]	; 0x2c
  hspi3.Init.NSSPMode = SPI_NSS_PULSE_DISABLE;
 81003e2:	4b14      	ldr	r3, [pc, #80]	; (8100434 <MX_SPI3_Init+0xa4>)
 81003e4:	2200      	movs	r2, #0
 81003e6:	635a      	str	r2, [r3, #52]	; 0x34
  hspi3.Init.NSSPolarity = SPI_NSS_POLARITY_LOW;
 81003e8:	4b12      	ldr	r3, [pc, #72]	; (8100434 <MX_SPI3_Init+0xa4>)
 81003ea:	2200      	movs	r2, #0
 81003ec:	639a      	str	r2, [r3, #56]	; 0x38
  hspi3.Init.FifoThreshold = SPI_FIFO_THRESHOLD_01DATA;
 81003ee:	4b11      	ldr	r3, [pc, #68]	; (8100434 <MX_SPI3_Init+0xa4>)
 81003f0:	2200      	movs	r2, #0
 81003f2:	63da      	str	r2, [r3, #60]	; 0x3c
  hspi3.Init.TxCRCInitializationPattern = SPI_CRC_INITIALIZATION_ALL_ZERO_PATTERN;
 81003f4:	4b0f      	ldr	r3, [pc, #60]	; (8100434 <MX_SPI3_Init+0xa4>)
 81003f6:	2200      	movs	r2, #0
 81003f8:	641a      	str	r2, [r3, #64]	; 0x40
  hspi3.Init.RxCRCInitializationPattern = SPI_CRC_INITIALIZATION_ALL_ZERO_PATTERN;
 81003fa:	4b0e      	ldr	r3, [pc, #56]	; (8100434 <MX_SPI3_Init+0xa4>)
 81003fc:	2200      	movs	r2, #0
 81003fe:	645a      	str	r2, [r3, #68]	; 0x44
  hspi3.Init.MasterSSIdleness = SPI_MASTER_SS_IDLENESS_00CYCLE;
 8100400:	4b0c      	ldr	r3, [pc, #48]	; (8100434 <MX_SPI3_Init+0xa4>)
 8100402:	2200      	movs	r2, #0
 8100404:	649a      	str	r2, [r3, #72]	; 0x48
  hspi3.Init.MasterInterDataIdleness = SPI_MASTER_INTERDATA_IDLENESS_00CYCLE;
 8100406:	4b0b      	ldr	r3, [pc, #44]	; (8100434 <MX_SPI3_Init+0xa4>)
 8100408:	2200      	movs	r2, #0
 810040a:	64da      	str	r2, [r3, #76]	; 0x4c
  hspi3.Init.MasterReceiverAutoSusp = SPI_MASTER_RX_AUTOSUSP_DISABLE;
 810040c:	4b09      	ldr	r3, [pc, #36]	; (8100434 <MX_SPI3_Init+0xa4>)
 810040e:	2200      	movs	r2, #0
 8100410:	651a      	str	r2, [r3, #80]	; 0x50
  hspi3.Init.MasterKeepIOState = SPI_MASTER_KEEP_IO_STATE_DISABLE;
 8100412:	4b08      	ldr	r3, [pc, #32]	; (8100434 <MX_SPI3_Init+0xa4>)
 8100414:	2200      	movs	r2, #0
 8100416:	655a      	str	r2, [r3, #84]	; 0x54
  hspi3.Init.IOSwap = SPI_IO_SWAP_DISABLE;
 8100418:	4b06      	ldr	r3, [pc, #24]	; (8100434 <MX_SPI3_Init+0xa4>)
 810041a:	2200      	movs	r2, #0
 810041c:	659a      	str	r2, [r3, #88]	; 0x58
  if (HAL_SPI_Init(&hspi3) != HAL_OK)
 810041e:	4805      	ldr	r0, [pc, #20]	; (8100434 <MX_SPI3_Init+0xa4>)
 8100420:	f003 fafa 	bl	8103a18 <HAL_SPI_Init>
 8100424:	4603      	mov	r3, r0
 8100426:	2b00      	cmp	r3, #0
 8100428:	d001      	beq.n	810042e <MX_SPI3_Init+0x9e>
  {
    Error_Handler();
 810042a:	f000 f895 	bl	8100558 <Error_Handler>
  }
  /* USER CODE BEGIN SPI3_Init 2 */

  /* USER CODE END SPI3_Init 2 */

}
 810042e:	bf00      	nop
 8100430:	bd80      	pop	{r7, pc}
 8100432:	bf00      	nop
 8100434:	1000003c 	.word	0x1000003c
 8100438:	40003c00 	.word	0x40003c00

0810043c <MX_DMA_Init>:

/**
  * Enable DMA controller clock
  */
static void MX_DMA_Init(void)
{
 810043c:	b580      	push	{r7, lr}
 810043e:	b082      	sub	sp, #8
 8100440:	af00      	add	r7, sp, #0

  /* DMA controller clock enable */
  __HAL_RCC_DMA1_CLK_ENABLE();
 8100442:	4b11      	ldr	r3, [pc, #68]	; (8100488 <MX_DMA_Init+0x4c>)
 8100444:	f8d3 30d8 	ldr.w	r3, [r3, #216]	; 0xd8
 8100448:	4a0f      	ldr	r2, [pc, #60]	; (8100488 <MX_DMA_Init+0x4c>)
 810044a:	f043 0301 	orr.w	r3, r3, #1
 810044e:	f8c2 30d8 	str.w	r3, [r2, #216]	; 0xd8
 8100452:	4b0d      	ldr	r3, [pc, #52]	; (8100488 <MX_DMA_Init+0x4c>)
 8100454:	f8d3 30d8 	ldr.w	r3, [r3, #216]	; 0xd8
 8100458:	f003 0301 	and.w	r3, r3, #1
 810045c:	607b      	str	r3, [r7, #4]
 810045e:	687b      	ldr	r3, [r7, #4]

  /* DMA interrupt init */
  /* DMA1_Stream2_IRQn interrupt configuration */
  HAL_NVIC_SetPriority(DMA1_Stream2_IRQn, 0, 0);
 8100460:	2200      	movs	r2, #0
 8100462:	2100      	movs	r1, #0
 8100464:	200d      	movs	r0, #13
 8100466:	f000 fb64 	bl	8100b32 <HAL_NVIC_SetPriority>
  HAL_NVIC_EnableIRQ(DMA1_Stream2_IRQn);
 810046a:	200d      	movs	r0, #13
 810046c:	f000 fb7b 	bl	8100b66 <HAL_NVIC_EnableIRQ>
  /* DMA1_Stream3_IRQn interrupt configuration */
  HAL_NVIC_SetPriority(DMA1_Stream3_IRQn, 0, 0);
 8100470:	2200      	movs	r2, #0
 8100472:	2100      	movs	r1, #0
 8100474:	200e      	movs	r0, #14
 8100476:	f000 fb5c 	bl	8100b32 <HAL_NVIC_SetPriority>
  HAL_NVIC_EnableIRQ(DMA1_Stream3_IRQn);
 810047a:	200e      	movs	r0, #14
 810047c:	f000 fb73 	bl	8100b66 <HAL_NVIC_EnableIRQ>

}
 8100480:	bf00      	nop
 8100482:	3708      	adds	r7, #8
 8100484:	46bd      	mov	sp, r7
 8100486:	bd80      	pop	{r7, pc}
 8100488:	58024400 	.word	0x58024400

0810048c <MX_GPIO_Init>:
  * @brief GPIO Initialization Function
  * @param None
  * @retval None
  */
static void MX_GPIO_Init(void)
{
 810048c:	b580      	push	{r7, lr}
 810048e:	b088      	sub	sp, #32
 8100490:	af00      	add	r7, sp, #0
  GPIO_InitTypeDef GPIO_InitStruct = {0};
 8100492:	f107 030c 	add.w	r3, r7, #12
 8100496:	2200      	movs	r2, #0
 8100498:	601a      	str	r2, [r3, #0]
 810049a:	605a      	str	r2, [r3, #4]
 810049c:	609a      	str	r2, [r3, #8]
 810049e:	60da      	str	r2, [r3, #12]
 81004a0:	611a      	str	r2, [r3, #16]

  /* GPIO Ports Clock Enable */
  __HAL_RCC_GPIOA_CLK_ENABLE();
 81004a2:	4b1b      	ldr	r3, [pc, #108]	; (8100510 <MX_GPIO_Init+0x84>)
 81004a4:	f8d3 30e0 	ldr.w	r3, [r3, #224]	; 0xe0
 81004a8:	4a19      	ldr	r2, [pc, #100]	; (8100510 <MX_GPIO_Init+0x84>)
 81004aa:	f043 0301 	orr.w	r3, r3, #1
 81004ae:	f8c2 30e0 	str.w	r3, [r2, #224]	; 0xe0
 81004b2:	4b17      	ldr	r3, [pc, #92]	; (8100510 <MX_GPIO_Init+0x84>)
 81004b4:	f8d3 30e0 	ldr.w	r3, [r3, #224]	; 0xe0
 81004b8:	f003 0301 	and.w	r3, r3, #1
 81004bc:	60bb      	str	r3, [r7, #8]
 81004be:	68bb      	ldr	r3, [r7, #8]
  __HAL_RCC_GPIOC_CLK_ENABLE();
 81004c0:	4b13      	ldr	r3, [pc, #76]	; (8100510 <MX_GPIO_Init+0x84>)
 81004c2:	f8d3 30e0 	ldr.w	r3, [r3, #224]	; 0xe0
 81004c6:	4a12      	ldr	r2, [pc, #72]	; (8100510 <MX_GPIO_Init+0x84>)
 81004c8:	f043 0304 	orr.w	r3, r3, #4
 81004cc:	f8c2 30e0 	str.w	r3, [r2, #224]	; 0xe0
 81004d0:	4b0f      	ldr	r3, [pc, #60]	; (8100510 <MX_GPIO_Init+0x84>)
 81004d2:	f8d3 30e0 	ldr.w	r3, [r3, #224]	; 0xe0
 81004d6:	f003 0304 	and.w	r3, r3, #4
 81004da:	607b      	str	r3, [r7, #4]
 81004dc:	687b      	ldr	r3, [r7, #4]

  /*Configure GPIO pin : PA0 */
  GPIO_InitStruct.Pin = GPIO_PIN_0;
 81004de:	2301      	movs	r3, #1
 81004e0:	60fb      	str	r3, [r7, #12]
  GPIO_InitStruct.Mode = GPIO_MODE_IT_FALLING;
 81004e2:	f44f 1304 	mov.w	r3, #2162688	; 0x210000
 81004e6:	613b      	str	r3, [r7, #16]
  GPIO_InitStruct.Pull = GPIO_NOPULL;
 81004e8:	2300      	movs	r3, #0
 81004ea:	617b      	str	r3, [r7, #20]
  HAL_GPIO_Init(GPIOA, &GPIO_InitStruct);
 81004ec:	f107 030c 	add.w	r3, r7, #12
 81004f0:	4619      	mov	r1, r3
 81004f2:	4808      	ldr	r0, [pc, #32]	; (8100514 <MX_GPIO_Init+0x88>)
 81004f4:	f002 fe8e 	bl	8103214 <HAL_GPIO_Init>

  /* EXTI interrupt init*/
  HAL_NVIC_SetPriority(EXTI0_IRQn, 0, 0);
 81004f8:	2200      	movs	r2, #0
 81004fa:	2100      	movs	r1, #0
 81004fc:	2006      	movs	r0, #6
 81004fe:	f000 fb18 	bl	8100b32 <HAL_NVIC_SetPriority>
  HAL_NVIC_EnableIRQ(EXTI0_IRQn);
 8100502:	2006      	movs	r0, #6
 8100504:	f000 fb2f 	bl	8100b66 <HAL_NVIC_EnableIRQ>

}
 8100508:	bf00      	nop
 810050a:	3720      	adds	r7, #32
 810050c:	46bd      	mov	sp, r7
 810050e:	bd80      	pop	{r7, pc}
 8100510:	58024400 	.word	0x58024400
 8100514:	58020000 	.word	0x58020000

08100518 <HAL_GPIO_EXTI_Callback>:

/* USER CODE BEGIN 4 */

void HAL_GPIO_EXTI_Callback( uint16_t GPIO_Pin)
{
 8100518:	b580      	push	{r7, lr}
 810051a:	b082      	sub	sp, #8
 810051c:	af00      	add	r7, sp, #0
 810051e:	4603      	mov	r3, r0
 8100520:	80fb      	strh	r3, [r7, #6]
	cmaster++;
 8100522:	4b09      	ldr	r3, [pc, #36]	; (8100548 <HAL_GPIO_EXTI_Callback+0x30>)
 8100524:	681b      	ldr	r3, [r3, #0]
 8100526:	3301      	adds	r3, #1
 8100528:	4a07      	ldr	r2, [pc, #28]	; (8100548 <HAL_GPIO_EXTI_Callback+0x30>)
 810052a:	6013      	str	r3, [r2, #0]
	HAL_SPI_Transmit_DMA(&hspi3, Master_SData, 8);
 810052c:	2208      	movs	r2, #8
 810052e:	4907      	ldr	r1, [pc, #28]	; (810054c <HAL_GPIO_EXTI_Callback+0x34>)
 8100530:	4807      	ldr	r0, [pc, #28]	; (8100550 <HAL_GPIO_EXTI_Callback+0x38>)
 8100532:	f003 fb77 	bl	8103c24 <HAL_SPI_Transmit_DMA>
	HAL_SPI_Receive_DMA(&hspi3, Master_Data, 8);
 8100536:	2208      	movs	r2, #8
 8100538:	4906      	ldr	r1, [pc, #24]	; (8100554 <HAL_GPIO_EXTI_Callback+0x3c>)
 810053a:	4805      	ldr	r0, [pc, #20]	; (8100550 <HAL_GPIO_EXTI_Callback+0x38>)
 810053c:	f003 fcba 	bl	8103eb4 <HAL_SPI_Receive_DMA>
	//----------------------------------

}
 8100540:	bf00      	nop
 8100542:	3708      	adds	r7, #8
 8100544:	46bd      	mov	sp, r7
 8100546:	bd80      	pop	{r7, pc}
 8100548:	1000002c 	.word	0x1000002c
 810054c:	10000038 	.word	0x10000038
 8100550:	1000003c 	.word	0x1000003c
 8100554:	10000030 	.word	0x10000030

08100558 <Error_Handler>:
/**
  * @brief  This function is executed in case of error occurrence.
  * @retval None
  */
void Error_Handler(void)
{
 8100558:	b480      	push	{r7}
 810055a:	af00      	add	r7, sp, #0
  \details Disables IRQ interrupts by setting the I-bit in the CPSR.
           Can only be executed in Privileged modes.
 */
__STATIC_FORCEINLINE void __disable_irq(void)
{
  __ASM volatile ("cpsid i" : : : "memory");
 810055c:	b672      	cpsid	i
}
 810055e:	bf00      	nop
  /* USER CODE BEGIN Error_Handler_Debug */
  /* User can add his own implementation to report the HAL error return state */
  __disable_irq();
  while (1)
 8100560:	e7fe      	b.n	8100560 <Error_Handler+0x8>
	...

08100564 <HAL_MspInit>:
/* USER CODE END 0 */
/**
  * Initializes the Global MSP.
  */
void HAL_MspInit(void)
{
 8100564:	b580      	push	{r7, lr}
 8100566:	b082      	sub	sp, #8
 8100568:	af00      	add	r7, sp, #0
  /* USER CODE BEGIN MspInit 0 */

  /* USER CODE END MspInit 0 */

  __HAL_RCC_SYSCFG_CLK_ENABLE();
 810056a:	4b0d      	ldr	r3, [pc, #52]	; (81005a0 <HAL_MspInit+0x3c>)
 810056c:	f8d3 30f4 	ldr.w	r3, [r3, #244]	; 0xf4
 8100570:	4a0b      	ldr	r2, [pc, #44]	; (81005a0 <HAL_MspInit+0x3c>)
 8100572:	f043 0302 	orr.w	r3, r3, #2
 8100576:	f8c2 30f4 	str.w	r3, [r2, #244]	; 0xf4
 810057a:	4b09      	ldr	r3, [pc, #36]	; (81005a0 <HAL_MspInit+0x3c>)
 810057c:	f8d3 30f4 	ldr.w	r3, [r3, #244]	; 0xf4
 8100580:	f003 0302 	and.w	r3, r3, #2
 8100584:	607b      	str	r3, [r7, #4]
 8100586:	687b      	ldr	r3, [r7, #4]

  /* System interrupt init*/

  /* Peripheral interrupt init */
  /* HSEM2_IRQn interrupt configuration */
  HAL_NVIC_SetPriority(HSEM2_IRQn, 0, 0);
 8100588:	2200      	movs	r2, #0
 810058a:	2100      	movs	r1, #0
 810058c:	207e      	movs	r0, #126	; 0x7e
 810058e:	f000 fad0 	bl	8100b32 <HAL_NVIC_SetPriority>
  /* HSEM2_IRQn interrupt configuration */
  HAL_NVIC_EnableIRQ(HSEM2_IRQn);
 8100592:	207e      	movs	r0, #126	; 0x7e
 8100594:	f000 fae7 	bl	8100b66 <HAL_NVIC_EnableIRQ>

  /* USER CODE BEGIN MspInit 1 */

  /* USER CODE END MspInit 1 */
}
 8100598:	bf00      	nop
 810059a:	3708      	adds	r7, #8
 810059c:	46bd      	mov	sp, r7
 810059e:	bd80      	pop	{r7, pc}
 81005a0:	58024400 	.word	0x58024400

081005a4 <HAL_SPI_MspInit>:
* This function configures the hardware resources used in this example
* @param hspi: SPI handle pointer
* @retval None
*/
void HAL_SPI_MspInit(SPI_HandleTypeDef* hspi)
{
 81005a4:	b580      	push	{r7, lr}
 81005a6:	b08a      	sub	sp, #40	; 0x28
 81005a8:	af00      	add	r7, sp, #0
 81005aa:	6078      	str	r0, [r7, #4]
  GPIO_InitTypeDef GPIO_InitStruct = {0};
 81005ac:	f107 0314 	add.w	r3, r7, #20
 81005b0:	2200      	movs	r2, #0
 81005b2:	601a      	str	r2, [r3, #0]
 81005b4:	605a      	str	r2, [r3, #4]
 81005b6:	609a      	str	r2, [r3, #8]
 81005b8:	60da      	str	r2, [r3, #12]
 81005ba:	611a      	str	r2, [r3, #16]
  if(hspi->Instance==SPI3)
 81005bc:	687b      	ldr	r3, [r7, #4]
 81005be:	681b      	ldr	r3, [r3, #0]
 81005c0:	4a4d      	ldr	r2, [pc, #308]	; (81006f8 <HAL_SPI_MspInit+0x154>)
 81005c2:	4293      	cmp	r3, r2
 81005c4:	f040 8094 	bne.w	81006f0 <HAL_SPI_MspInit+0x14c>
  {
  /* USER CODE BEGIN SPI3_MspInit 0 */

  /* USER CODE END SPI3_MspInit 0 */
    /* Peripheral clock enable */
    __HAL_RCC_SPI3_CLK_ENABLE();
 81005c8:	4b4c      	ldr	r3, [pc, #304]	; (81006fc <HAL_SPI_MspInit+0x158>)
 81005ca:	f8d3 30e8 	ldr.w	r3, [r3, #232]	; 0xe8
 81005ce:	4a4b      	ldr	r2, [pc, #300]	; (81006fc <HAL_SPI_MspInit+0x158>)
 81005d0:	f443 4300 	orr.w	r3, r3, #32768	; 0x8000
 81005d4:	f8c2 30e8 	str.w	r3, [r2, #232]	; 0xe8
 81005d8:	4b48      	ldr	r3, [pc, #288]	; (81006fc <HAL_SPI_MspInit+0x158>)
 81005da:	f8d3 30e8 	ldr.w	r3, [r3, #232]	; 0xe8
 81005de:	f403 4300 	and.w	r3, r3, #32768	; 0x8000
 81005e2:	613b      	str	r3, [r7, #16]
 81005e4:	693b      	ldr	r3, [r7, #16]

    __HAL_RCC_GPIOC_CLK_ENABLE();
 81005e6:	4b45      	ldr	r3, [pc, #276]	; (81006fc <HAL_SPI_MspInit+0x158>)
 81005e8:	f8d3 30e0 	ldr.w	r3, [r3, #224]	; 0xe0
 81005ec:	4a43      	ldr	r2, [pc, #268]	; (81006fc <HAL_SPI_MspInit+0x158>)
 81005ee:	f043 0304 	orr.w	r3, r3, #4
 81005f2:	f8c2 30e0 	str.w	r3, [r2, #224]	; 0xe0
 81005f6:	4b41      	ldr	r3, [pc, #260]	; (81006fc <HAL_SPI_MspInit+0x158>)
 81005f8:	f8d3 30e0 	ldr.w	r3, [r3, #224]	; 0xe0
 81005fc:	f003 0304 	and.w	r3, r3, #4
 8100600:	60fb      	str	r3, [r7, #12]
 8100602:	68fb      	ldr	r3, [r7, #12]
    /**SPI3 GPIO Configuration
    PC10     ------> SPI3_SCK
    PC11     ------> SPI3_MISO
    PC12     ------> SPI3_MOSI
    */
    GPIO_InitStruct.Pin = GPIO_PIN_10|GPIO_PIN_11|GPIO_PIN_12;
 8100604:	f44f 53e0 	mov.w	r3, #7168	; 0x1c00
 8100608:	617b      	str	r3, [r7, #20]
    GPIO_InitStruct.Mode = GPIO_MODE_AF_PP;
 810060a:	2302      	movs	r3, #2
 810060c:	61bb      	str	r3, [r7, #24]
    GPIO_InitStruct.Pull = GPIO_NOPULL;
 810060e:	2300      	movs	r3, #0
 8100610:	61fb      	str	r3, [r7, #28]
    GPIO_InitStruct.Speed = GPIO_SPEED_FREQ_LOW;
 8100612:	2300      	movs	r3, #0
 8100614:	623b      	str	r3, [r7, #32]
    GPIO_InitStruct.Alternate = GPIO_AF6_SPI3;
 8100616:	2306      	movs	r3, #6
 8100618:	627b      	str	r3, [r7, #36]	; 0x24
    HAL_GPIO_Init(GPIOC, &GPIO_InitStruct);
 810061a:	f107 0314 	add.w	r3, r7, #20
 810061e:	4619      	mov	r1, r3
 8100620:	4837      	ldr	r0, [pc, #220]	; (8100700 <HAL_SPI_MspInit+0x15c>)
 8100622:	f002 fdf7 	bl	8103214 <HAL_GPIO_Init>

    /* SPI3 DMA Init */
    /* SPI3_RX Init */
    hdma_spi3_rx.Instance = DMA1_Stream2;
 8100626:	4b37      	ldr	r3, [pc, #220]	; (8100704 <HAL_SPI_MspInit+0x160>)
 8100628:	4a37      	ldr	r2, [pc, #220]	; (8100708 <HAL_SPI_MspInit+0x164>)
 810062a:	601a      	str	r2, [r3, #0]
    hdma_spi3_rx.Init.Request = DMA_REQUEST_SPI3_RX;
 810062c:	4b35      	ldr	r3, [pc, #212]	; (8100704 <HAL_SPI_MspInit+0x160>)
 810062e:	223d      	movs	r2, #61	; 0x3d
 8100630:	605a      	str	r2, [r3, #4]
    hdma_spi3_rx.Init.Direction = DMA_PERIPH_TO_MEMORY;
 8100632:	4b34      	ldr	r3, [pc, #208]	; (8100704 <HAL_SPI_MspInit+0x160>)
 8100634:	2200      	movs	r2, #0
 8100636:	609a      	str	r2, [r3, #8]
    hdma_spi3_rx.Init.PeriphInc = DMA_PINC_DISABLE;
 8100638:	4b32      	ldr	r3, [pc, #200]	; (8100704 <HAL_SPI_MspInit+0x160>)
 810063a:	2200      	movs	r2, #0
 810063c:	60da      	str	r2, [r3, #12]
    hdma_spi3_rx.Init.MemInc = DMA_MINC_ENABLE;
 810063e:	4b31      	ldr	r3, [pc, #196]	; (8100704 <HAL_SPI_MspInit+0x160>)
 8100640:	f44f 6280 	mov.w	r2, #1024	; 0x400
 8100644:	611a      	str	r2, [r3, #16]
    hdma_spi3_rx.Init.PeriphDataAlignment = DMA_PDATAALIGN_BYTE;
 8100646:	4b2f      	ldr	r3, [pc, #188]	; (8100704 <HAL_SPI_MspInit+0x160>)
 8100648:	2200      	movs	r2, #0
 810064a:	615a      	str	r2, [r3, #20]
    hdma_spi3_rx.Init.MemDataAlignment = DMA_MDATAALIGN_BYTE;
 810064c:	4b2d      	ldr	r3, [pc, #180]	; (8100704 <HAL_SPI_MspInit+0x160>)
 810064e:	2200      	movs	r2, #0
 8100650:	619a      	str	r2, [r3, #24]
    hdma_spi3_rx.Init.Mode = DMA_CIRCULAR;
 8100652:	4b2c      	ldr	r3, [pc, #176]	; (8100704 <HAL_SPI_MspInit+0x160>)
 8100654:	f44f 7280 	mov.w	r2, #256	; 0x100
 8100658:	61da      	str	r2, [r3, #28]
    hdma_spi3_rx.Init.Priority = DMA_PRIORITY_VERY_HIGH;
 810065a:	4b2a      	ldr	r3, [pc, #168]	; (8100704 <HAL_SPI_MspInit+0x160>)
 810065c:	f44f 3240 	mov.w	r2, #196608	; 0x30000
 8100660:	621a      	str	r2, [r3, #32]
    hdma_spi3_rx.Init.FIFOMode = DMA_FIFOMODE_DISABLE;
 8100662:	4b28      	ldr	r3, [pc, #160]	; (8100704 <HAL_SPI_MspInit+0x160>)
 8100664:	2200      	movs	r2, #0
 8100666:	625a      	str	r2, [r3, #36]	; 0x24
    if (HAL_DMA_Init(&hdma_spi3_rx) != HAL_OK)
 8100668:	4826      	ldr	r0, [pc, #152]	; (8100704 <HAL_SPI_MspInit+0x160>)
 810066a:	f000 faab 	bl	8100bc4 <HAL_DMA_Init>
 810066e:	4603      	mov	r3, r0
 8100670:	2b00      	cmp	r3, #0
 8100672:	d001      	beq.n	8100678 <HAL_SPI_MspInit+0xd4>
    {
      Error_Handler();
 8100674:	f7ff ff70 	bl	8100558 <Error_Handler>
    }

    __HAL_LINKDMA(hspi,hdmarx,hdma_spi3_rx);
 8100678:	687b      	ldr	r3, [r7, #4]
 810067a:	4a22      	ldr	r2, [pc, #136]	; (8100704 <HAL_SPI_MspInit+0x160>)
 810067c:	67da      	str	r2, [r3, #124]	; 0x7c
 810067e:	4a21      	ldr	r2, [pc, #132]	; (8100704 <HAL_SPI_MspInit+0x160>)
 8100680:	687b      	ldr	r3, [r7, #4]
 8100682:	6393      	str	r3, [r2, #56]	; 0x38

    /* SPI3_TX Init */
    hdma_spi3_tx.Instance = DMA1_Stream3;
 8100684:	4b21      	ldr	r3, [pc, #132]	; (810070c <HAL_SPI_MspInit+0x168>)
 8100686:	4a22      	ldr	r2, [pc, #136]	; (8100710 <HAL_SPI_MspInit+0x16c>)
 8100688:	601a      	str	r2, [r3, #0]
    hdma_spi3_tx.Init.Request = DMA_REQUEST_SPI3_TX;
 810068a:	4b20      	ldr	r3, [pc, #128]	; (810070c <HAL_SPI_MspInit+0x168>)
 810068c:	223e      	movs	r2, #62	; 0x3e
 810068e:	605a      	str	r2, [r3, #4]
    hdma_spi3_tx.Init.Direction = DMA_MEMORY_TO_PERIPH;
 8100690:	4b1e      	ldr	r3, [pc, #120]	; (810070c <HAL_SPI_MspInit+0x168>)
 8100692:	2240      	movs	r2, #64	; 0x40
 8100694:	609a      	str	r2, [r3, #8]
    hdma_spi3_tx.Init.PeriphInc = DMA_PINC_DISABLE;
 8100696:	4b1d      	ldr	r3, [pc, #116]	; (810070c <HAL_SPI_MspInit+0x168>)
 8100698:	2200      	movs	r2, #0
 810069a:	60da      	str	r2, [r3, #12]
    hdma_spi3_tx.Init.MemInc = DMA_MINC_ENABLE;
 810069c:	4b1b      	ldr	r3, [pc, #108]	; (810070c <HAL_SPI_MspInit+0x168>)
 810069e:	f44f 6280 	mov.w	r2, #1024	; 0x400
 81006a2:	611a      	str	r2, [r3, #16]
    hdma_spi3_tx.Init.PeriphDataAlignment = DMA_PDATAALIGN_BYTE;
 81006a4:	4b19      	ldr	r3, [pc, #100]	; (810070c <HAL_SPI_MspInit+0x168>)
 81006a6:	2200      	movs	r2, #0
 81006a8:	615a      	str	r2, [r3, #20]
    hdma_spi3_tx.Init.MemDataAlignment = DMA_MDATAALIGN_BYTE;
 81006aa:	4b18      	ldr	r3, [pc, #96]	; (810070c <HAL_SPI_MspInit+0x168>)
 81006ac:	2200      	movs	r2, #0
 81006ae:	619a      	str	r2, [r3, #24]
    hdma_spi3_tx.Init.Mode = DMA_CIRCULAR;
 81006b0:	4b16      	ldr	r3, [pc, #88]	; (810070c <HAL_SPI_MspInit+0x168>)
 81006b2:	f44f 7280 	mov.w	r2, #256	; 0x100
 81006b6:	61da      	str	r2, [r3, #28]
    hdma_spi3_tx.Init.Priority = DMA_PRIORITY_LOW;
 81006b8:	4b14      	ldr	r3, [pc, #80]	; (810070c <HAL_SPI_MspInit+0x168>)
 81006ba:	2200      	movs	r2, #0
 81006bc:	621a      	str	r2, [r3, #32]
    hdma_spi3_tx.Init.FIFOMode = DMA_FIFOMODE_DISABLE;
 81006be:	4b13      	ldr	r3, [pc, #76]	; (810070c <HAL_SPI_MspInit+0x168>)
 81006c0:	2200      	movs	r2, #0
 81006c2:	625a      	str	r2, [r3, #36]	; 0x24
    if (HAL_DMA_Init(&hdma_spi3_tx) != HAL_OK)
 81006c4:	4811      	ldr	r0, [pc, #68]	; (810070c <HAL_SPI_MspInit+0x168>)
 81006c6:	f000 fa7d 	bl	8100bc4 <HAL_DMA_Init>
 81006ca:	4603      	mov	r3, r0
 81006cc:	2b00      	cmp	r3, #0
 81006ce:	d001      	beq.n	81006d4 <HAL_SPI_MspInit+0x130>
    {
      Error_Handler();
 81006d0:	f7ff ff42 	bl	8100558 <Error_Handler>
    }

    __HAL_LINKDMA(hspi,hdmatx,hdma_spi3_tx);
 81006d4:	687b      	ldr	r3, [r7, #4]
 81006d6:	4a0d      	ldr	r2, [pc, #52]	; (810070c <HAL_SPI_MspInit+0x168>)
 81006d8:	679a      	str	r2, [r3, #120]	; 0x78
 81006da:	4a0c      	ldr	r2, [pc, #48]	; (810070c <HAL_SPI_MspInit+0x168>)
 81006dc:	687b      	ldr	r3, [r7, #4]
 81006de:	6393      	str	r3, [r2, #56]	; 0x38

    /* SPI3 interrupt Init */
    HAL_NVIC_SetPriority(SPI3_IRQn, 0, 0);
 81006e0:	2200      	movs	r2, #0
 81006e2:	2100      	movs	r1, #0
 81006e4:	2033      	movs	r0, #51	; 0x33
 81006e6:	f000 fa24 	bl	8100b32 <HAL_NVIC_SetPriority>
    HAL_NVIC_EnableIRQ(SPI3_IRQn);
 81006ea:	2033      	movs	r0, #51	; 0x33
 81006ec:	f000 fa3b 	bl	8100b66 <HAL_NVIC_EnableIRQ>
  /* USER CODE BEGIN SPI3_MspInit 1 */

  /* USER CODE END SPI3_MspInit 1 */
  }

}
 81006f0:	bf00      	nop
 81006f2:	3728      	adds	r7, #40	; 0x28
 81006f4:	46bd      	mov	sp, r7
 81006f6:	bd80      	pop	{r7, pc}
 81006f8:	40003c00 	.word	0x40003c00
 81006fc:	58024400 	.word	0x58024400
 8100700:	58020800 	.word	0x58020800
 8100704:	100000c4 	.word	0x100000c4
 8100708:	40020040 	.word	0x40020040
 810070c:	1000013c 	.word	0x1000013c
 8100710:	40020058 	.word	0x40020058

08100714 <NMI_Handler>:
/******************************************************************************/
/**
  * @brief This function handles Non maskable interrupt.
  */
void NMI_Handler(void)
{
 8100714:	b480      	push	{r7}
 8100716:	af00      	add	r7, sp, #0
  /* USER CODE BEGIN NonMaskableInt_IRQn 0 */

  /* USER CODE END NonMaskableInt_IRQn 0 */
  /* USER CODE BEGIN NonMaskableInt_IRQn 1 */
  while (1)
 8100718:	e7fe      	b.n	8100718 <NMI_Handler+0x4>

0810071a <HardFault_Handler>:

/**
  * @brief This function handles Hard fault interrupt.
  */
void HardFault_Handler(void)
{
 810071a:	b480      	push	{r7}
 810071c:	af00      	add	r7, sp, #0
  /* USER CODE BEGIN HardFault_IRQn 0 */

  /* USER CODE END HardFault_IRQn 0 */
  while (1)
 810071e:	e7fe      	b.n	810071e <HardFault_Handler+0x4>

08100720 <MemManage_Handler>:

/**
  * @brief This function handles Memory management fault.
  */
void MemManage_Handler(void)
{
 8100720:	b480      	push	{r7}
 8100722:	af00      	add	r7, sp, #0
  /* USER CODE BEGIN MemoryManagement_IRQn 0 */

  /* USER CODE END MemoryManagement_IRQn 0 */
  while (1)
 8100724:	e7fe      	b.n	8100724 <MemManage_Handler+0x4>

08100726 <BusFault_Handler>:

/**
  * @brief This function handles Pre-fetch fault, memory access fault.
  */
void BusFault_Handler(void)
{
 8100726:	b480      	push	{r7}
 8100728:	af00      	add	r7, sp, #0
  /* USER CODE BEGIN BusFault_IRQn 0 */

  /* USER CODE END BusFault_IRQn 0 */
  while (1)
 810072a:	e7fe      	b.n	810072a <BusFault_Handler+0x4>

0810072c <UsageFault_Handler>:

/**
  * @brief This function handles Undefined instruction or illegal state.
  */
void UsageFault_Handler(void)
{
 810072c:	b480      	push	{r7}
 810072e:	af00      	add	r7, sp, #0
  /* USER CODE BEGIN UsageFault_IRQn 0 */

  /* USER CODE END UsageFault_IRQn 0 */
  while (1)
 8100730:	e7fe      	b.n	8100730 <UsageFault_Handler+0x4>

08100732 <SVC_Handler>:

/**
  * @brief This function handles System service call via SWI instruction.
  */
void SVC_Handler(void)
{
 8100732:	b480      	push	{r7}
 8100734:	af00      	add	r7, sp, #0

  /* USER CODE END SVCall_IRQn 0 */
  /* USER CODE BEGIN SVCall_IRQn 1 */

  /* USER CODE END SVCall_IRQn 1 */
}
 8100736:	bf00      	nop
 8100738:	46bd      	mov	sp, r7
 810073a:	f85d 7b04 	ldr.w	r7, [sp], #4
 810073e:	4770      	bx	lr

08100740 <DebugMon_Handler>:

/**
  * @brief This function handles Debug monitor.
  */
void DebugMon_Handler(void)
{
 8100740:	b480      	push	{r7}
 8100742:	af00      	add	r7, sp, #0

  /* USER CODE END DebugMonitor_IRQn 0 */
  /* USER CODE BEGIN DebugMonitor_IRQn 1 */

  /* USER CODE END DebugMonitor_IRQn 1 */
}
 8100744:	bf00      	nop
 8100746:	46bd      	mov	sp, r7
 8100748:	f85d 7b04 	ldr.w	r7, [sp], #4
 810074c:	4770      	bx	lr

0810074e <PendSV_Handler>:

/**
  * @brief This function handles Pendable request for system service.
  */
void PendSV_Handler(void)
{
 810074e:	b480      	push	{r7}
 8100750:	af00      	add	r7, sp, #0

  /* USER CODE END PendSV_IRQn 0 */
  /* USER CODE BEGIN PendSV_IRQn 1 */

  /* USER CODE END PendSV_IRQn 1 */
}
 8100752:	bf00      	nop
 8100754:	46bd      	mov	sp, r7
 8100756:	f85d 7b04 	ldr.w	r7, [sp], #4
 810075a:	4770      	bx	lr

0810075c <SysTick_Handler>:

/**
  * @brief This function handles System tick timer.
  */
void SysTick_Handler(void)
{
 810075c:	b580      	push	{r7, lr}
 810075e:	af00      	add	r7, sp, #0
  /* USER CODE BEGIN SysTick_IRQn 0 */

  /* USER CODE END SysTick_IRQn 0 */
  HAL_IncTick();
 8100760:	f000 f8ec 	bl	810093c <HAL_IncTick>
  /* USER CODE BEGIN SysTick_IRQn 1 */

  /* USER CODE END SysTick_IRQn 1 */
}
 8100764:	bf00      	nop
 8100766:	bd80      	pop	{r7, pc}

08100768 <EXTI0_IRQHandler>:

/**
  * @brief This function handles EXTI line0 interrupt.
  */
void EXTI0_IRQHandler(void)
{
 8100768:	b580      	push	{r7, lr}
 810076a:	af00      	add	r7, sp, #0
  /* USER CODE BEGIN EXTI0_IRQn 0 */

  /* USER CODE END EXTI0_IRQn 0 */
  HAL_GPIO_EXTI_IRQHandler(GPIO_PIN_0);
 810076c:	2001      	movs	r0, #1
 810076e:	f002 ff01 	bl	8103574 <HAL_GPIO_EXTI_IRQHandler>
  /* USER CODE BEGIN EXTI0_IRQn 1 */

  /* USER CODE END EXTI0_IRQn 1 */
}
 8100772:	bf00      	nop
 8100774:	bd80      	pop	{r7, pc}
	...

08100778 <DMA1_Stream2_IRQHandler>:

/**
  * @brief This function handles DMA1 stream2 global interrupt.
  */
void DMA1_Stream2_IRQHandler(void)
{
 8100778:	b580      	push	{r7, lr}
 810077a:	af00      	add	r7, sp, #0
  /* USER CODE BEGIN DMA1_Stream2_IRQn 0 */

  /* USER CODE END DMA1_Stream2_IRQn 0 */
  HAL_DMA_IRQHandler(&hdma_spi3_rx);
 810077c:	4802      	ldr	r0, [pc, #8]	; (8100788 <DMA1_Stream2_IRQHandler+0x10>)
 810077e:	f001 fa2b 	bl	8101bd8 <HAL_DMA_IRQHandler>
  /* USER CODE BEGIN DMA1_Stream2_IRQn 1 */

  /* USER CODE END DMA1_Stream2_IRQn 1 */
}
 8100782:	bf00      	nop
 8100784:	bd80      	pop	{r7, pc}
 8100786:	bf00      	nop
 8100788:	100000c4 	.word	0x100000c4

0810078c <DMA1_Stream3_IRQHandler>:

/**
  * @brief This function handles DMA1 stream3 global interrupt.
  */
void DMA1_Stream3_IRQHandler(void)
{
 810078c:	b580      	push	{r7, lr}
 810078e:	af00      	add	r7, sp, #0
  /* USER CODE BEGIN DMA1_Stream3_IRQn 0 */

  /* USER CODE END DMA1_Stream3_IRQn 0 */
  HAL_DMA_IRQHandler(&hdma_spi3_tx);
 8100790:	4802      	ldr	r0, [pc, #8]	; (810079c <DMA1_Stream3_IRQHandler+0x10>)
 8100792:	f001 fa21 	bl	8101bd8 <HAL_DMA_IRQHandler>
  /* USER CODE BEGIN DMA1_Stream3_IRQn 1 */

  /* USER CODE END DMA1_Stream3_IRQn 1 */
}
 8100796:	bf00      	nop
 8100798:	bd80      	pop	{r7, pc}
 810079a:	bf00      	nop
 810079c:	1000013c 	.word	0x1000013c

081007a0 <SPI3_IRQHandler>:

/**
  * @brief This function handles SPI3 global interrupt.
  */
void SPI3_IRQHandler(void)
{
 81007a0:	b580      	push	{r7, lr}
 81007a2:	af00      	add	r7, sp, #0
  /* USER CODE BEGIN SPI3_IRQn 0 */

  /* USER CODE END SPI3_IRQn 0 */
  HAL_SPI_IRQHandler(&hspi3);
 81007a4:	4802      	ldr	r0, [pc, #8]	; (81007b0 <SPI3_IRQHandler+0x10>)
 81007a6:	f003 feb3 	bl	8104510 <HAL_SPI_IRQHandler>
  /* USER CODE BEGIN SPI3_IRQn 1 */

  /* USER CODE END SPI3_IRQn 1 */
}
 81007aa:	bf00      	nop
 81007ac:	bd80      	pop	{r7, pc}
 81007ae:	bf00      	nop
 81007b0:	1000003c 	.word	0x1000003c

081007b4 <HSEM2_IRQHandler>:

/**
  * @brief This function handles HSEM2 global interrupt.
  */
void HSEM2_IRQHandler(void)
{
 81007b4:	b580      	push	{r7, lr}
 81007b6:	af00      	add	r7, sp, #0
  /* USER CODE BEGIN HSEM2_IRQn 0 */

  /* USER CODE END HSEM2_IRQn 0 */
  HAL_HSEM_IRQHandler();
 81007b8:	f002 ff08 	bl	81035cc <HAL_HSEM_IRQHandler>
  /* USER CODE BEGIN HSEM2_IRQn 1 */

  /* USER CODE END HSEM2_IRQn 1 */
}
 81007bc:	bf00      	nop
 81007be:	bd80      	pop	{r7, pc}

081007c0 <Reset_Handler>:

    .section  .text.Reset_Handler
  .weak  Reset_Handler
  .type  Reset_Handler, %function
Reset_Handler:
  ldr   sp, =_estack      /* set stack pointer */
 81007c0:	f8df d034 	ldr.w	sp, [pc, #52]	; 81007f8 <LoopFillZerobss+0xe>

/* Call the clock system initialization function.*/
  bl  SystemInit
 81007c4:	f7ff fd88 	bl	81002d8 <SystemInit>

/* Copy the data segment initializers from flash to SRAM */
  ldr r0, =_sdata
 81007c8:	480c      	ldr	r0, [pc, #48]	; (81007fc <LoopFillZerobss+0x12>)
  ldr r1, =_edata
 81007ca:	490d      	ldr	r1, [pc, #52]	; (8100800 <LoopFillZerobss+0x16>)
  ldr r2, =_sidata
 81007cc:	4a0d      	ldr	r2, [pc, #52]	; (8100804 <LoopFillZerobss+0x1a>)
  movs r3, #0
 81007ce:	2300      	movs	r3, #0
  b LoopCopyDataInit
 81007d0:	e002      	b.n	81007d8 <LoopCopyDataInit>

081007d2 <CopyDataInit>:

CopyDataInit:
  ldr r4, [r2, r3]
 81007d2:	58d4      	ldr	r4, [r2, r3]
  str r4, [r0, r3]
 81007d4:	50c4      	str	r4, [r0, r3]
  adds r3, r3, #4
 81007d6:	3304      	adds	r3, #4

081007d8 <LoopCopyDataInit>:

LoopCopyDataInit:
  adds r4, r0, r3
 81007d8:	18c4      	adds	r4, r0, r3
  cmp r4, r1
 81007da:	428c      	cmp	r4, r1
  bcc CopyDataInit
 81007dc:	d3f9      	bcc.n	81007d2 <CopyDataInit>
/* Zero fill the bss segment. */
  ldr r2, =_sbss
 81007de:	4a0a      	ldr	r2, [pc, #40]	; (8100808 <LoopFillZerobss+0x1e>)
  ldr r4, =_ebss
 81007e0:	4c0a      	ldr	r4, [pc, #40]	; (810080c <LoopFillZerobss+0x22>)
  movs r3, #0
 81007e2:	2300      	movs	r3, #0
  b LoopFillZerobss
 81007e4:	e001      	b.n	81007ea <LoopFillZerobss>

081007e6 <FillZerobss>:

FillZerobss:
  str  r3, [r2]
 81007e6:	6013      	str	r3, [r2, #0]
  adds r2, r2, #4
 81007e8:	3204      	adds	r2, #4

081007ea <LoopFillZerobss>:

LoopFillZerobss:
  cmp r2, r4
 81007ea:	42a2      	cmp	r2, r4
  bcc FillZerobss
 81007ec:	d3fb      	bcc.n	81007e6 <FillZerobss>

/* Call static constructors */
    bl __libc_init_array
 81007ee:	f004 fa2d 	bl	8104c4c <__libc_init_array>
/* Call the application's entry point.*/
  bl  main
 81007f2:	f7ff fd89 	bl	8100308 <main>
  bx  lr
 81007f6:	4770      	bx	lr
  ldr   sp, =_estack      /* set stack pointer */
 81007f8:	10048000 	.word	0x10048000
  ldr r0, =_sdata
 81007fc:	10000000 	.word	0x10000000
  ldr r1, =_edata
 8100800:	10000010 	.word	0x10000010
  ldr r2, =_sidata
 8100804:	08104ccc 	.word	0x08104ccc
  ldr r2, =_sbss
 8100808:	10000010 	.word	0x10000010
  ldr r4, =_ebss
 810080c:	100001b8 	.word	0x100001b8

08100810 <ADC3_IRQHandler>:
 * @retval None
*/
    .section  .text.Default_Handler,"ax",%progbits
Default_Handler:
Infinite_Loop:
  b  Infinite_Loop
 8100810:	e7fe      	b.n	8100810 <ADC3_IRQHandler>
	...

08100814 <HAL_Init>:
  *         need to ensure that the SysTick time base is always set to 1 millisecond
  *         to have correct HAL operation.
  * @retval HAL status
  */
HAL_StatusTypeDef HAL_Init(void)
{
 8100814:	b580      	push	{r7, lr}
 8100816:	b082      	sub	sp, #8
 8100818:	af00      	add	r7, sp, #0

uint32_t common_system_clock;

#if defined(DUAL_CORE) && defined(CORE_CM4)
   /* Configure Cortex-M4 Instruction cache through ART accelerator */
   __HAL_RCC_ART_CLK_ENABLE();                   /* Enable the Cortex-M4 ART Clock */
 810081a:	4b28      	ldr	r3, [pc, #160]	; (81008bc <HAL_Init+0xa8>)
 810081c:	f8d3 30d8 	ldr.w	r3, [r3, #216]	; 0xd8
 8100820:	4a26      	ldr	r2, [pc, #152]	; (81008bc <HAL_Init+0xa8>)
 8100822:	f443 4380 	orr.w	r3, r3, #16384	; 0x4000
 8100826:	f8c2 30d8 	str.w	r3, [r2, #216]	; 0xd8
 810082a:	4b24      	ldr	r3, [pc, #144]	; (81008bc <HAL_Init+0xa8>)
 810082c:	f8d3 30d8 	ldr.w	r3, [r3, #216]	; 0xd8
 8100830:	f403 4380 	and.w	r3, r3, #16384	; 0x4000
 8100834:	603b      	str	r3, [r7, #0]
 8100836:	683b      	ldr	r3, [r7, #0]
   __HAL_ART_CONFIG_BASE_ADDRESS(0x08100000UL);  /* Configure the Cortex-M4 ART Base address to the Flash Bank 2 : */
 8100838:	4b21      	ldr	r3, [pc, #132]	; (81008c0 <HAL_Init+0xac>)
 810083a:	681b      	ldr	r3, [r3, #0]
 810083c:	f423 237f 	bic.w	r3, r3, #1044480	; 0xff000
 8100840:	f423 6370 	bic.w	r3, r3, #3840	; 0xf00
 8100844:	4a1e      	ldr	r2, [pc, #120]	; (81008c0 <HAL_Init+0xac>)
 8100846:	f443 4301 	orr.w	r3, r3, #33024	; 0x8100
 810084a:	6013      	str	r3, [r2, #0]
   __HAL_ART_ENABLE();                           /* Enable the Cortex-M4 ART */
 810084c:	4b1c      	ldr	r3, [pc, #112]	; (81008c0 <HAL_Init+0xac>)
 810084e:	681b      	ldr	r3, [r3, #0]
 8100850:	4a1b      	ldr	r2, [pc, #108]	; (81008c0 <HAL_Init+0xac>)
 8100852:	f043 0301 	orr.w	r3, r3, #1
 8100856:	6013      	str	r3, [r2, #0]
#endif /* DUAL_CORE &&  CORE_CM4 */

  /* Set Interrupt Group Priority */
  HAL_NVIC_SetPriorityGrouping(NVIC_PRIORITYGROUP_4);
 8100858:	2003      	movs	r0, #3
 810085a:	f000 f95f 	bl	8100b1c <HAL_NVIC_SetPriorityGrouping>

  /* Update the SystemCoreClock global variable */
#if defined(RCC_D1CFGR_D1CPRE)
  common_system_clock = HAL_RCC_GetSysClockFreq() >> ((D1CorePrescTable[(RCC->D1CFGR & RCC_D1CFGR_D1CPRE)>> RCC_D1CFGR_D1CPRE_Pos]) & 0x1FU);
 810085e:	f002 ff61 	bl	8103724 <HAL_RCC_GetSysClockFreq>
 8100862:	4602      	mov	r2, r0
 8100864:	4b15      	ldr	r3, [pc, #84]	; (81008bc <HAL_Init+0xa8>)
 8100866:	699b      	ldr	r3, [r3, #24]
 8100868:	0a1b      	lsrs	r3, r3, #8
 810086a:	f003 030f 	and.w	r3, r3, #15
 810086e:	4915      	ldr	r1, [pc, #84]	; (81008c4 <HAL_Init+0xb0>)
 8100870:	5ccb      	ldrb	r3, [r1, r3]
 8100872:	f003 031f 	and.w	r3, r3, #31
 8100876:	fa22 f303 	lsr.w	r3, r2, r3
 810087a:	607b      	str	r3, [r7, #4]
  common_system_clock = HAL_RCC_GetSysClockFreq() >> ((D1CorePrescTable[(RCC->CDCFGR1 & RCC_CDCFGR1_CDCPRE)>> RCC_CDCFGR1_CDCPRE_Pos]) & 0x1FU);
#endif

  /* Update the SystemD2Clock global variable */
#if defined(RCC_D1CFGR_HPRE)
  SystemD2Clock = (common_system_clock >> ((D1CorePrescTable[(RCC->D1CFGR & RCC_D1CFGR_HPRE)>> RCC_D1CFGR_HPRE_Pos]) & 0x1FU));
 810087c:	4b0f      	ldr	r3, [pc, #60]	; (81008bc <HAL_Init+0xa8>)
 810087e:	699b      	ldr	r3, [r3, #24]
 8100880:	f003 030f 	and.w	r3, r3, #15
 8100884:	4a0f      	ldr	r2, [pc, #60]	; (81008c4 <HAL_Init+0xb0>)
 8100886:	5cd3      	ldrb	r3, [r2, r3]
 8100888:	f003 031f 	and.w	r3, r3, #31
 810088c:	687a      	ldr	r2, [r7, #4]
 810088e:	fa22 f303 	lsr.w	r3, r2, r3
 8100892:	4a0d      	ldr	r2, [pc, #52]	; (81008c8 <HAL_Init+0xb4>)
 8100894:	6013      	str	r3, [r2, #0]
#else
  SystemD2Clock = (common_system_clock >> ((D1CorePrescTable[(RCC->CDCFGR1 & RCC_CDCFGR1_HPRE)>> RCC_CDCFGR1_HPRE_Pos]) & 0x1FU));
#endif

#if defined(DUAL_CORE) && defined(CORE_CM4)
  SystemCoreClock = SystemD2Clock;
 8100896:	4b0c      	ldr	r3, [pc, #48]	; (81008c8 <HAL_Init+0xb4>)
 8100898:	681b      	ldr	r3, [r3, #0]
 810089a:	4a0c      	ldr	r2, [pc, #48]	; (81008cc <HAL_Init+0xb8>)
 810089c:	6013      	str	r3, [r2, #0]
#else
  SystemCoreClock = common_system_clock;
#endif /* DUAL_CORE && CORE_CM4 */

  /* Use systick as time base source and configure 1ms tick (default clock after Reset is HSI) */
  if(HAL_InitTick(TICK_INT_PRIORITY) != HAL_OK)
 810089e:	2000      	movs	r0, #0
 81008a0:	f000 f816 	bl	81008d0 <HAL_InitTick>
 81008a4:	4603      	mov	r3, r0
 81008a6:	2b00      	cmp	r3, #0
 81008a8:	d001      	beq.n	81008ae <HAL_Init+0x9a>
  {
    return HAL_ERROR;
 81008aa:	2301      	movs	r3, #1
 81008ac:	e002      	b.n	81008b4 <HAL_Init+0xa0>
  }

  /* Init the low level hardware */
  HAL_MspInit();
 81008ae:	f7ff fe59 	bl	8100564 <HAL_MspInit>

  /* Return function status */
  return HAL_OK;
 81008b2:	2300      	movs	r3, #0
}
 81008b4:	4618      	mov	r0, r3
 81008b6:	3708      	adds	r7, #8
 81008b8:	46bd      	mov	sp, r7
 81008ba:	bd80      	pop	{r7, pc}
 81008bc:	58024400 	.word	0x58024400
 81008c0:	40024400 	.word	0x40024400
 81008c4:	08104cac 	.word	0x08104cac
 81008c8:	10000004 	.word	0x10000004
 81008cc:	10000000 	.word	0x10000000

081008d0 <HAL_InitTick>:
  *       implementation  in user file.
  * @param TickPriority: Tick interrupt priority.
  * @retval HAL status
  */
__weak HAL_StatusTypeDef HAL_InitTick(uint32_t TickPriority)
{
 81008d0:	b580      	push	{r7, lr}
 81008d2:	b082      	sub	sp, #8
 81008d4:	af00      	add	r7, sp, #0
 81008d6:	6078      	str	r0, [r7, #4]
  /* Check uwTickFreq for MisraC 2012 (even if uwTickFreq is a enum type that don't take the value zero)*/
  if((uint32_t)uwTickFreq == 0UL)
 81008d8:	4b15      	ldr	r3, [pc, #84]	; (8100930 <HAL_InitTick+0x60>)
 81008da:	781b      	ldrb	r3, [r3, #0]
 81008dc:	2b00      	cmp	r3, #0
 81008de:	d101      	bne.n	81008e4 <HAL_InitTick+0x14>
  {
    return HAL_ERROR;
 81008e0:	2301      	movs	r3, #1
 81008e2:	e021      	b.n	8100928 <HAL_InitTick+0x58>
  }

    /* Configure the SysTick to have interrupt in 1ms time basis*/
    if (HAL_SYSTICK_Config(SystemCoreClock / (1000UL / (uint32_t)uwTickFreq)) > 0U)
 81008e4:	4b13      	ldr	r3, [pc, #76]	; (8100934 <HAL_InitTick+0x64>)
 81008e6:	681a      	ldr	r2, [r3, #0]
 81008e8:	4b11      	ldr	r3, [pc, #68]	; (8100930 <HAL_InitTick+0x60>)
 81008ea:	781b      	ldrb	r3, [r3, #0]
 81008ec:	4619      	mov	r1, r3
 81008ee:	f44f 737a 	mov.w	r3, #1000	; 0x3e8
 81008f2:	fbb3 f3f1 	udiv	r3, r3, r1
 81008f6:	fbb2 f3f3 	udiv	r3, r2, r3
 81008fa:	4618      	mov	r0, r3
 81008fc:	f000 f941 	bl	8100b82 <HAL_SYSTICK_Config>
 8100900:	4603      	mov	r3, r0
 8100902:	2b00      	cmp	r3, #0
 8100904:	d001      	beq.n	810090a <HAL_InitTick+0x3a>
    {
      return HAL_ERROR;
 8100906:	2301      	movs	r3, #1
 8100908:	e00e      	b.n	8100928 <HAL_InitTick+0x58>
    }

  /* Configure the SysTick IRQ priority */
  if (TickPriority < (1UL << __NVIC_PRIO_BITS))
 810090a:	687b      	ldr	r3, [r7, #4]
 810090c:	2b0f      	cmp	r3, #15
 810090e:	d80a      	bhi.n	8100926 <HAL_InitTick+0x56>
  {
    HAL_NVIC_SetPriority(SysTick_IRQn, TickPriority, 0U);
 8100910:	2200      	movs	r2, #0
 8100912:	6879      	ldr	r1, [r7, #4]
 8100914:	f04f 30ff 	mov.w	r0, #4294967295
 8100918:	f000 f90b 	bl	8100b32 <HAL_NVIC_SetPriority>
    uwTickPrio = TickPriority;
 810091c:	4a06      	ldr	r2, [pc, #24]	; (8100938 <HAL_InitTick+0x68>)
 810091e:	687b      	ldr	r3, [r7, #4]
 8100920:	6013      	str	r3, [r2, #0]
  {
    return HAL_ERROR;
  }

  /* Return function status */
  return HAL_OK;
 8100922:	2300      	movs	r3, #0
 8100924:	e000      	b.n	8100928 <HAL_InitTick+0x58>
    return HAL_ERROR;
 8100926:	2301      	movs	r3, #1
}
 8100928:	4618      	mov	r0, r3
 810092a:	3708      	adds	r7, #8
 810092c:	46bd      	mov	sp, r7
 810092e:	bd80      	pop	{r7, pc}
 8100930:	1000000c 	.word	0x1000000c
 8100934:	10000000 	.word	0x10000000
 8100938:	10000008 	.word	0x10000008

0810093c <HAL_IncTick>:
 * @note This function is declared as __weak to be overwritten in case of other
  *      implementations in user file.
  * @retval None
  */
__weak void HAL_IncTick(void)
{
 810093c:	b480      	push	{r7}
 810093e:	af00      	add	r7, sp, #0
  uwTick += (uint32_t)uwTickFreq;
 8100940:	4b06      	ldr	r3, [pc, #24]	; (810095c <HAL_IncTick+0x20>)
 8100942:	781b      	ldrb	r3, [r3, #0]
 8100944:	461a      	mov	r2, r3
 8100946:	4b06      	ldr	r3, [pc, #24]	; (8100960 <HAL_IncTick+0x24>)
 8100948:	681b      	ldr	r3, [r3, #0]
 810094a:	4413      	add	r3, r2
 810094c:	4a04      	ldr	r2, [pc, #16]	; (8100960 <HAL_IncTick+0x24>)
 810094e:	6013      	str	r3, [r2, #0]
}
 8100950:	bf00      	nop
 8100952:	46bd      	mov	sp, r7
 8100954:	f85d 7b04 	ldr.w	r7, [sp], #4
 8100958:	4770      	bx	lr
 810095a:	bf00      	nop
 810095c:	1000000c 	.word	0x1000000c
 8100960:	100001b4 	.word	0x100001b4

08100964 <HAL_GetTick>:
  * @note This function is declared as __weak to be overwritten in case of other
  *       implementations in user file.
  * @retval tick value
  */
__weak uint32_t HAL_GetTick(void)
{
 8100964:	b480      	push	{r7}
 8100966:	af00      	add	r7, sp, #0
  return uwTick;
 8100968:	4b03      	ldr	r3, [pc, #12]	; (8100978 <HAL_GetTick+0x14>)
 810096a:	681b      	ldr	r3, [r3, #0]
}
 810096c:	4618      	mov	r0, r3
 810096e:	46bd      	mov	sp, r7
 8100970:	f85d 7b04 	ldr.w	r7, [sp], #4
 8100974:	4770      	bx	lr
 8100976:	bf00      	nop
 8100978:	100001b4 	.word	0x100001b4

0810097c <__NVIC_SetPriorityGrouping>:
           In case of a conflict between priority grouping and available
           priority bits (__NVIC_PRIO_BITS), the smallest possible priority group is set.
  \param [in]      PriorityGroup  Priority grouping field.
 */
__STATIC_INLINE void __NVIC_SetPriorityGrouping(uint32_t PriorityGroup)
{
 810097c:	b480      	push	{r7}
 810097e:	b085      	sub	sp, #20
 8100980:	af00      	add	r7, sp, #0
 8100982:	6078      	str	r0, [r7, #4]
  uint32_t reg_value;
  uint32_t PriorityGroupTmp = (PriorityGroup & (uint32_t)0x07UL);             /* only values 0..7 are used          */
 8100984:	687b      	ldr	r3, [r7, #4]
 8100986:	f003 0307 	and.w	r3, r3, #7
 810098a:	60fb      	str	r3, [r7, #12]

  reg_value  =  SCB->AIRCR;                                                   /* read old register configuration    */
 810098c:	4b0c      	ldr	r3, [pc, #48]	; (81009c0 <__NVIC_SetPriorityGrouping+0x44>)
 810098e:	68db      	ldr	r3, [r3, #12]
 8100990:	60bb      	str	r3, [r7, #8]
  reg_value &= ~((uint32_t)(SCB_AIRCR_VECTKEY_Msk | SCB_AIRCR_PRIGROUP_Msk)); /* clear bits to change               */
 8100992:	68ba      	ldr	r2, [r7, #8]
 8100994:	f64f 03ff 	movw	r3, #63743	; 0xf8ff
 8100998:	4013      	ands	r3, r2
 810099a:	60bb      	str	r3, [r7, #8]
  reg_value  =  (reg_value                                   |
                ((uint32_t)0x5FAUL << SCB_AIRCR_VECTKEY_Pos) |
                (PriorityGroupTmp << SCB_AIRCR_PRIGROUP_Pos)  );              /* Insert write key and priority group */
 810099c:	68fb      	ldr	r3, [r7, #12]
 810099e:	021a      	lsls	r2, r3, #8
                ((uint32_t)0x5FAUL << SCB_AIRCR_VECTKEY_Pos) |
 81009a0:	68bb      	ldr	r3, [r7, #8]
 81009a2:	4313      	orrs	r3, r2
  reg_value  =  (reg_value                                   |
 81009a4:	f043 63bf 	orr.w	r3, r3, #100139008	; 0x5f80000
 81009a8:	f443 3300 	orr.w	r3, r3, #131072	; 0x20000
 81009ac:	60bb      	str	r3, [r7, #8]
  SCB->AIRCR =  reg_value;
 81009ae:	4a04      	ldr	r2, [pc, #16]	; (81009c0 <__NVIC_SetPriorityGrouping+0x44>)
 81009b0:	68bb      	ldr	r3, [r7, #8]
 81009b2:	60d3      	str	r3, [r2, #12]
}
 81009b4:	bf00      	nop
 81009b6:	3714      	adds	r7, #20
 81009b8:	46bd      	mov	sp, r7
 81009ba:	f85d 7b04 	ldr.w	r7, [sp], #4
 81009be:	4770      	bx	lr
 81009c0:	e000ed00 	.word	0xe000ed00

081009c4 <__NVIC_GetPriorityGrouping>:
  \brief   Get Priority Grouping
  \details Reads the priority grouping field from the NVIC Interrupt Controller.
  \return                Priority grouping field (SCB->AIRCR [10:8] PRIGROUP field).
 */
__STATIC_INLINE uint32_t __NVIC_GetPriorityGrouping(void)
{
 81009c4:	b480      	push	{r7}
 81009c6:	af00      	add	r7, sp, #0
  return ((uint32_t)((SCB->AIRCR & SCB_AIRCR_PRIGROUP_Msk) >> SCB_AIRCR_PRIGROUP_Pos));
 81009c8:	4b04      	ldr	r3, [pc, #16]	; (81009dc <__NVIC_GetPriorityGrouping+0x18>)
 81009ca:	68db      	ldr	r3, [r3, #12]
 81009cc:	0a1b      	lsrs	r3, r3, #8
 81009ce:	f003 0307 	and.w	r3, r3, #7
}
 81009d2:	4618      	mov	r0, r3
 81009d4:	46bd      	mov	sp, r7
 81009d6:	f85d 7b04 	ldr.w	r7, [sp], #4
 81009da:	4770      	bx	lr
 81009dc:	e000ed00 	.word	0xe000ed00

081009e0 <__NVIC_EnableIRQ>:
  \details Enables a device specific interrupt in the NVIC interrupt controller.
  \param [in]      IRQn  Device specific interrupt number.
  \note    IRQn must not be negative.
 */
__STATIC_INLINE void __NVIC_EnableIRQ(IRQn_Type IRQn)
{
 81009e0:	b480      	push	{r7}
 81009e2:	b083      	sub	sp, #12
 81009e4:	af00      	add	r7, sp, #0
 81009e6:	4603      	mov	r3, r0
 81009e8:	80fb      	strh	r3, [r7, #6]
  if ((int32_t)(IRQn) >= 0)
 81009ea:	f9b7 3006 	ldrsh.w	r3, [r7, #6]
 81009ee:	2b00      	cmp	r3, #0
 81009f0:	db0b      	blt.n	8100a0a <__NVIC_EnableIRQ+0x2a>
  {
    __COMPILER_BARRIER();
    NVIC->ISER[(((uint32_t)IRQn) >> 5UL)] = (uint32_t)(1UL << (((uint32_t)IRQn) & 0x1FUL));
 81009f2:	88fb      	ldrh	r3, [r7, #6]
 81009f4:	f003 021f 	and.w	r2, r3, #31
 81009f8:	4907      	ldr	r1, [pc, #28]	; (8100a18 <__NVIC_EnableIRQ+0x38>)
 81009fa:	f9b7 3006 	ldrsh.w	r3, [r7, #6]
 81009fe:	095b      	lsrs	r3, r3, #5
 8100a00:	2001      	movs	r0, #1
 8100a02:	fa00 f202 	lsl.w	r2, r0, r2
 8100a06:	f841 2023 	str.w	r2, [r1, r3, lsl #2]
    __COMPILER_BARRIER();
  }
}
 8100a0a:	bf00      	nop
 8100a0c:	370c      	adds	r7, #12
 8100a0e:	46bd      	mov	sp, r7
 8100a10:	f85d 7b04 	ldr.w	r7, [sp], #4
 8100a14:	4770      	bx	lr
 8100a16:	bf00      	nop
 8100a18:	e000e100 	.word	0xe000e100

08100a1c <__NVIC_SetPriority>:
  \param [in]      IRQn  Interrupt number.
  \param [in]  priority  Priority to set.
  \note    The priority cannot be set for every processor exception.
 */
__STATIC_INLINE void __NVIC_SetPriority(IRQn_Type IRQn, uint32_t priority)
{
 8100a1c:	b480      	push	{r7}
 8100a1e:	b083      	sub	sp, #12
 8100a20:	af00      	add	r7, sp, #0
 8100a22:	4603      	mov	r3, r0
 8100a24:	6039      	str	r1, [r7, #0]
 8100a26:	80fb      	strh	r3, [r7, #6]
  if ((int32_t)(IRQn) >= 0)
 8100a28:	f9b7 3006 	ldrsh.w	r3, [r7, #6]
 8100a2c:	2b00      	cmp	r3, #0
 8100a2e:	db0a      	blt.n	8100a46 <__NVIC_SetPriority+0x2a>
  {
    NVIC->IP[((uint32_t)IRQn)]               = (uint8_t)((priority << (8U - __NVIC_PRIO_BITS)) & (uint32_t)0xFFUL);
 8100a30:	683b      	ldr	r3, [r7, #0]
 8100a32:	b2da      	uxtb	r2, r3
 8100a34:	490c      	ldr	r1, [pc, #48]	; (8100a68 <__NVIC_SetPriority+0x4c>)
 8100a36:	f9b7 3006 	ldrsh.w	r3, [r7, #6]
 8100a3a:	0112      	lsls	r2, r2, #4
 8100a3c:	b2d2      	uxtb	r2, r2
 8100a3e:	440b      	add	r3, r1
 8100a40:	f883 2300 	strb.w	r2, [r3, #768]	; 0x300
  }
  else
  {
    SCB->SHP[(((uint32_t)IRQn) & 0xFUL)-4UL] = (uint8_t)((priority << (8U - __NVIC_PRIO_BITS)) & (uint32_t)0xFFUL);
  }
}
 8100a44:	e00a      	b.n	8100a5c <__NVIC_SetPriority+0x40>
    SCB->SHP[(((uint32_t)IRQn) & 0xFUL)-4UL] = (uint8_t)((priority << (8U - __NVIC_PRIO_BITS)) & (uint32_t)0xFFUL);
 8100a46:	683b      	ldr	r3, [r7, #0]
 8100a48:	b2da      	uxtb	r2, r3
 8100a4a:	4908      	ldr	r1, [pc, #32]	; (8100a6c <__NVIC_SetPriority+0x50>)
 8100a4c:	88fb      	ldrh	r3, [r7, #6]
 8100a4e:	f003 030f 	and.w	r3, r3, #15
 8100a52:	3b04      	subs	r3, #4
 8100a54:	0112      	lsls	r2, r2, #4
 8100a56:	b2d2      	uxtb	r2, r2
 8100a58:	440b      	add	r3, r1
 8100a5a:	761a      	strb	r2, [r3, #24]
}
 8100a5c:	bf00      	nop
 8100a5e:	370c      	adds	r7, #12
 8100a60:	46bd      	mov	sp, r7
 8100a62:	f85d 7b04 	ldr.w	r7, [sp], #4
 8100a66:	4770      	bx	lr
 8100a68:	e000e100 	.word	0xe000e100
 8100a6c:	e000ed00 	.word	0xe000ed00

08100a70 <NVIC_EncodePriority>:
  \param [in]   PreemptPriority  Preemptive priority value (starting from 0).
  \param [in]       SubPriority  Subpriority value (starting from 0).
  \return                        Encoded priority. Value can be used in the function \ref NVIC_SetPriority().
 */
__STATIC_INLINE uint32_t NVIC_EncodePriority (uint32_t PriorityGroup, uint32_t PreemptPriority, uint32_t SubPriority)
{
 8100a70:	b480      	push	{r7}
 8100a72:	b089      	sub	sp, #36	; 0x24
 8100a74:	af00      	add	r7, sp, #0
 8100a76:	60f8      	str	r0, [r7, #12]
 8100a78:	60b9      	str	r1, [r7, #8]
 8100a7a:	607a      	str	r2, [r7, #4]
  uint32_t PriorityGroupTmp = (PriorityGroup & (uint32_t)0x07UL);   /* only values 0..7 are used          */
 8100a7c:	68fb      	ldr	r3, [r7, #12]
 8100a7e:	f003 0307 	and.w	r3, r3, #7
 8100a82:	61fb      	str	r3, [r7, #28]
  uint32_t PreemptPriorityBits;
  uint32_t SubPriorityBits;

  PreemptPriorityBits = ((7UL - PriorityGroupTmp) > (uint32_t)(__NVIC_PRIO_BITS)) ? (uint32_t)(__NVIC_PRIO_BITS) : (uint32_t)(7UL - PriorityGroupTmp);
 8100a84:	69fb      	ldr	r3, [r7, #28]
 8100a86:	f1c3 0307 	rsb	r3, r3, #7
 8100a8a:	2b04      	cmp	r3, #4
 8100a8c:	bf28      	it	cs
 8100a8e:	2304      	movcs	r3, #4
 8100a90:	61bb      	str	r3, [r7, #24]
  SubPriorityBits     = ((PriorityGroupTmp + (uint32_t)(__NVIC_PRIO_BITS)) < (uint32_t)7UL) ? (uint32_t)0UL : (uint32_t)((PriorityGroupTmp - 7UL) + (uint32_t)(__NVIC_PRIO_BITS));
 8100a92:	69fb      	ldr	r3, [r7, #28]
 8100a94:	3304      	adds	r3, #4
 8100a96:	2b06      	cmp	r3, #6
 8100a98:	d902      	bls.n	8100aa0 <NVIC_EncodePriority+0x30>
 8100a9a:	69fb      	ldr	r3, [r7, #28]
 8100a9c:	3b03      	subs	r3, #3
 8100a9e:	e000      	b.n	8100aa2 <NVIC_EncodePriority+0x32>
 8100aa0:	2300      	movs	r3, #0
 8100aa2:	617b      	str	r3, [r7, #20]

  return (
           ((PreemptPriority & (uint32_t)((1UL << (PreemptPriorityBits)) - 1UL)) << SubPriorityBits) |
 8100aa4:	f04f 32ff 	mov.w	r2, #4294967295
 8100aa8:	69bb      	ldr	r3, [r7, #24]
 8100aaa:	fa02 f303 	lsl.w	r3, r2, r3
 8100aae:	43da      	mvns	r2, r3
 8100ab0:	68bb      	ldr	r3, [r7, #8]
 8100ab2:	401a      	ands	r2, r3
 8100ab4:	697b      	ldr	r3, [r7, #20]
 8100ab6:	409a      	lsls	r2, r3
           ((SubPriority     & (uint32_t)((1UL << (SubPriorityBits    )) - 1UL)))
 8100ab8:	f04f 31ff 	mov.w	r1, #4294967295
 8100abc:	697b      	ldr	r3, [r7, #20]
 8100abe:	fa01 f303 	lsl.w	r3, r1, r3
 8100ac2:	43d9      	mvns	r1, r3
 8100ac4:	687b      	ldr	r3, [r7, #4]
 8100ac6:	400b      	ands	r3, r1
           ((PreemptPriority & (uint32_t)((1UL << (PreemptPriorityBits)) - 1UL)) << SubPriorityBits) |
 8100ac8:	4313      	orrs	r3, r2
         );
}
 8100aca:	4618      	mov	r0, r3
 8100acc:	3724      	adds	r7, #36	; 0x24
 8100ace:	46bd      	mov	sp, r7
 8100ad0:	f85d 7b04 	ldr.w	r7, [sp], #4
 8100ad4:	4770      	bx	lr
	...

08100ad8 <SysTick_Config>:
  \note    When the variable <b>__Vendor_SysTickConfig</b> is set to 1, then the
           function <b>SysTick_Config</b> is not included. In this case, the file <b><i>device</i>.h</b>
           must contain a vendor-specific implementation of this function.
 */
__STATIC_INLINE uint32_t SysTick_Config(uint32_t ticks)
{
 8100ad8:	b580      	push	{r7, lr}
 8100ada:	b082      	sub	sp, #8
 8100adc:	af00      	add	r7, sp, #0
 8100ade:	6078      	str	r0, [r7, #4]
  if ((ticks - 1UL) > SysTick_LOAD_RELOAD_Msk)
 8100ae0:	687b      	ldr	r3, [r7, #4]
 8100ae2:	3b01      	subs	r3, #1
 8100ae4:	f1b3 7f80 	cmp.w	r3, #16777216	; 0x1000000
 8100ae8:	d301      	bcc.n	8100aee <SysTick_Config+0x16>
  {
    return (1UL);                                                   /* Reload value impossible */
 8100aea:	2301      	movs	r3, #1
 8100aec:	e00f      	b.n	8100b0e <SysTick_Config+0x36>
  }

  SysTick->LOAD  = (uint32_t)(ticks - 1UL);                         /* set reload register */
 8100aee:	4a0a      	ldr	r2, [pc, #40]	; (8100b18 <SysTick_Config+0x40>)
 8100af0:	687b      	ldr	r3, [r7, #4]
 8100af2:	3b01      	subs	r3, #1
 8100af4:	6053      	str	r3, [r2, #4]
  NVIC_SetPriority (SysTick_IRQn, (1UL << __NVIC_PRIO_BITS) - 1UL); /* set Priority for Systick Interrupt */
 8100af6:	210f      	movs	r1, #15
 8100af8:	f04f 30ff 	mov.w	r0, #4294967295
 8100afc:	f7ff ff8e 	bl	8100a1c <__NVIC_SetPriority>
  SysTick->VAL   = 0UL;                                             /* Load the SysTick Counter Value */
 8100b00:	4b05      	ldr	r3, [pc, #20]	; (8100b18 <SysTick_Config+0x40>)
 8100b02:	2200      	movs	r2, #0
 8100b04:	609a      	str	r2, [r3, #8]
  SysTick->CTRL  = SysTick_CTRL_CLKSOURCE_Msk |
 8100b06:	4b04      	ldr	r3, [pc, #16]	; (8100b18 <SysTick_Config+0x40>)
 8100b08:	2207      	movs	r2, #7
 8100b0a:	601a      	str	r2, [r3, #0]
                   SysTick_CTRL_TICKINT_Msk   |
                   SysTick_CTRL_ENABLE_Msk;                         /* Enable SysTick IRQ and SysTick Timer */
  return (0UL);                                                     /* Function successful */
 8100b0c:	2300      	movs	r3, #0
}
 8100b0e:	4618      	mov	r0, r3
 8100b10:	3708      	adds	r7, #8
 8100b12:	46bd      	mov	sp, r7
 8100b14:	bd80      	pop	{r7, pc}
 8100b16:	bf00      	nop
 8100b18:	e000e010 	.word	0xe000e010

08100b1c <HAL_NVIC_SetPriorityGrouping>:
  * @note   When the NVIC_PriorityGroup_0 is selected, IRQ preemption is no more possible.
  *         The pending IRQ priority will be managed only by the subpriority.
  * @retval None
  */
void HAL_NVIC_SetPriorityGrouping(uint32_t PriorityGroup)
{
 8100b1c:	b580      	push	{r7, lr}
 8100b1e:	b082      	sub	sp, #8
 8100b20:	af00      	add	r7, sp, #0
 8100b22:	6078      	str	r0, [r7, #4]
  /* Check the parameters */
  assert_param(IS_NVIC_PRIORITY_GROUP(PriorityGroup));

  /* Set the PRIGROUP[10:8] bits according to the PriorityGroup parameter value */
  NVIC_SetPriorityGrouping(PriorityGroup);
 8100b24:	6878      	ldr	r0, [r7, #4]
 8100b26:	f7ff ff29 	bl	810097c <__NVIC_SetPriorityGrouping>
}
 8100b2a:	bf00      	nop
 8100b2c:	3708      	adds	r7, #8
 8100b2e:	46bd      	mov	sp, r7
 8100b30:	bd80      	pop	{r7, pc}

08100b32 <HAL_NVIC_SetPriority>:
  *         This parameter can be a value between 0 and 15
  *         A lower priority value indicates a higher priority.
  * @retval None
  */
void HAL_NVIC_SetPriority(IRQn_Type IRQn, uint32_t PreemptPriority, uint32_t SubPriority)
{
 8100b32:	b580      	push	{r7, lr}
 8100b34:	b086      	sub	sp, #24
 8100b36:	af00      	add	r7, sp, #0
 8100b38:	4603      	mov	r3, r0
 8100b3a:	60b9      	str	r1, [r7, #8]
 8100b3c:	607a      	str	r2, [r7, #4]
 8100b3e:	81fb      	strh	r3, [r7, #14]

  /* Check the parameters */
  assert_param(IS_NVIC_SUB_PRIORITY(SubPriority));
  assert_param(IS_NVIC_PREEMPTION_PRIORITY(PreemptPriority));

  prioritygroup = NVIC_GetPriorityGrouping();
 8100b40:	f7ff ff40 	bl	81009c4 <__NVIC_GetPriorityGrouping>
 8100b44:	6178      	str	r0, [r7, #20]

  NVIC_SetPriority(IRQn, NVIC_EncodePriority(prioritygroup, PreemptPriority, SubPriority));
 8100b46:	687a      	ldr	r2, [r7, #4]
 8100b48:	68b9      	ldr	r1, [r7, #8]
 8100b4a:	6978      	ldr	r0, [r7, #20]
 8100b4c:	f7ff ff90 	bl	8100a70 <NVIC_EncodePriority>
 8100b50:	4602      	mov	r2, r0
 8100b52:	f9b7 300e 	ldrsh.w	r3, [r7, #14]
 8100b56:	4611      	mov	r1, r2
 8100b58:	4618      	mov	r0, r3
 8100b5a:	f7ff ff5f 	bl	8100a1c <__NVIC_SetPriority>
}
 8100b5e:	bf00      	nop
 8100b60:	3718      	adds	r7, #24
 8100b62:	46bd      	mov	sp, r7
 8100b64:	bd80      	pop	{r7, pc}

08100b66 <HAL_NVIC_EnableIRQ>:
  *         This parameter can be an enumerator of IRQn_Type enumeration
  *         (For the complete STM32 Devices IRQ Channels list, please refer to the appropriate CMSIS device file (stm32h7xxxx.h))
  * @retval None
  */
void HAL_NVIC_EnableIRQ(IRQn_Type IRQn)
{
 8100b66:	b580      	push	{r7, lr}
 8100b68:	b082      	sub	sp, #8
 8100b6a:	af00      	add	r7, sp, #0
 8100b6c:	4603      	mov	r3, r0
 8100b6e:	80fb      	strh	r3, [r7, #6]
  /* Check the parameters */
  assert_param(IS_NVIC_DEVICE_IRQ(IRQn));

  /* Enable interrupt */
  NVIC_EnableIRQ(IRQn);
 8100b70:	f9b7 3006 	ldrsh.w	r3, [r7, #6]
 8100b74:	4618      	mov	r0, r3
 8100b76:	f7ff ff33 	bl	81009e0 <__NVIC_EnableIRQ>
}
 8100b7a:	bf00      	nop
 8100b7c:	3708      	adds	r7, #8
 8100b7e:	46bd      	mov	sp, r7
 8100b80:	bd80      	pop	{r7, pc}

08100b82 <HAL_SYSTICK_Config>:
  * @param  TicksNumb Specifies the ticks Number of ticks between two interrupts.
  * @retval status   - 0  Function succeeded.
  *                  - 1  Function failed.
  */
uint32_t HAL_SYSTICK_Config(uint32_t TicksNumb)
{
 8100b82:	b580      	push	{r7, lr}
 8100b84:	b082      	sub	sp, #8
 8100b86:	af00      	add	r7, sp, #0
 8100b88:	6078      	str	r0, [r7, #4]
   return SysTick_Config(TicksNumb);
 8100b8a:	6878      	ldr	r0, [r7, #4]
 8100b8c:	f7ff ffa4 	bl	8100ad8 <SysTick_Config>
 8100b90:	4603      	mov	r3, r0
}
 8100b92:	4618      	mov	r0, r3
 8100b94:	3708      	adds	r7, #8
 8100b96:	46bd      	mov	sp, r7
 8100b98:	bd80      	pop	{r7, pc}
	...

08100b9c <HAL_GetCurrentCPUID>:
/**
  * @brief  Returns the current CPU ID.
  * @retval CPU identifier
  */
uint32_t HAL_GetCurrentCPUID(void)
{
 8100b9c:	b480      	push	{r7}
 8100b9e:	af00      	add	r7, sp, #0
  if (((SCB->CPUID & 0x000000F0U) >> 4 )== 0x7U)
 8100ba0:	4b07      	ldr	r3, [pc, #28]	; (8100bc0 <HAL_GetCurrentCPUID+0x24>)
 8100ba2:	681b      	ldr	r3, [r3, #0]
 8100ba4:	091b      	lsrs	r3, r3, #4
 8100ba6:	f003 030f 	and.w	r3, r3, #15
 8100baa:	2b07      	cmp	r3, #7
 8100bac:	d101      	bne.n	8100bb2 <HAL_GetCurrentCPUID+0x16>
  {
    return  CM7_CPUID;
 8100bae:	2303      	movs	r3, #3
 8100bb0:	e000      	b.n	8100bb4 <HAL_GetCurrentCPUID+0x18>
  }
  else
  {
    return CM4_CPUID;
 8100bb2:	2301      	movs	r3, #1
  }
}
 8100bb4:	4618      	mov	r0, r3
 8100bb6:	46bd      	mov	sp, r7
 8100bb8:	f85d 7b04 	ldr.w	r7, [sp], #4
 8100bbc:	4770      	bx	lr
 8100bbe:	bf00      	nop
 8100bc0:	e000ed00 	.word	0xe000ed00

08100bc4 <HAL_DMA_Init>:
  * @param  hdma: Pointer to a DMA_HandleTypeDef structure that contains
  *               the configuration information for the specified DMA Stream.
  * @retval HAL status
  */
HAL_StatusTypeDef HAL_DMA_Init(DMA_HandleTypeDef *hdma)
{
 8100bc4:	b580      	push	{r7, lr}
 8100bc6:	b086      	sub	sp, #24
 8100bc8:	af00      	add	r7, sp, #0
 8100bca:	6078      	str	r0, [r7, #4]
  uint32_t registerValue;
  uint32_t tickstart = HAL_GetTick();
 8100bcc:	f7ff feca 	bl	8100964 <HAL_GetTick>
 8100bd0:	6138      	str	r0, [r7, #16]
  DMA_Base_Registers *regs_dma;
  BDMA_Base_Registers *regs_bdma;

  /* Check the DMA peripheral handle */
  if(hdma == NULL)
 8100bd2:	687b      	ldr	r3, [r7, #4]
 8100bd4:	2b00      	cmp	r3, #0
 8100bd6:	d101      	bne.n	8100bdc <HAL_DMA_Init+0x18>
  {
    return HAL_ERROR;
 8100bd8:	2301      	movs	r3, #1
 8100bda:	e314      	b.n	8101206 <HAL_DMA_Init+0x642>
  assert_param(IS_DMA_PERIPHERAL_DATA_SIZE(hdma->Init.PeriphDataAlignment));
  assert_param(IS_DMA_MEMORY_DATA_SIZE(hdma->Init.MemDataAlignment));
  assert_param(IS_DMA_MODE(hdma->Init.Mode));
  assert_param(IS_DMA_PRIORITY(hdma->Init.Priority));

  if(IS_DMA_STREAM_INSTANCE(hdma->Instance) != 0U) /* DMA1 or DMA2 instance */
 8100bdc:	687b      	ldr	r3, [r7, #4]
 8100bde:	681b      	ldr	r3, [r3, #0]
 8100be0:	4a66      	ldr	r2, [pc, #408]	; (8100d7c <HAL_DMA_Init+0x1b8>)
 8100be2:	4293      	cmp	r3, r2
 8100be4:	d04a      	beq.n	8100c7c <HAL_DMA_Init+0xb8>
 8100be6:	687b      	ldr	r3, [r7, #4]
 8100be8:	681b      	ldr	r3, [r3, #0]
 8100bea:	4a65      	ldr	r2, [pc, #404]	; (8100d80 <HAL_DMA_Init+0x1bc>)
 8100bec:	4293      	cmp	r3, r2
 8100bee:	d045      	beq.n	8100c7c <HAL_DMA_Init+0xb8>
 8100bf0:	687b      	ldr	r3, [r7, #4]
 8100bf2:	681b      	ldr	r3, [r3, #0]
 8100bf4:	4a63      	ldr	r2, [pc, #396]	; (8100d84 <HAL_DMA_Init+0x1c0>)
 8100bf6:	4293      	cmp	r3, r2
 8100bf8:	d040      	beq.n	8100c7c <HAL_DMA_Init+0xb8>
 8100bfa:	687b      	ldr	r3, [r7, #4]
 8100bfc:	681b      	ldr	r3, [r3, #0]
 8100bfe:	4a62      	ldr	r2, [pc, #392]	; (8100d88 <HAL_DMA_Init+0x1c4>)
 8100c00:	4293      	cmp	r3, r2
 8100c02:	d03b      	beq.n	8100c7c <HAL_DMA_Init+0xb8>
 8100c04:	687b      	ldr	r3, [r7, #4]
 8100c06:	681b      	ldr	r3, [r3, #0]
 8100c08:	4a60      	ldr	r2, [pc, #384]	; (8100d8c <HAL_DMA_Init+0x1c8>)
 8100c0a:	4293      	cmp	r3, r2
 8100c0c:	d036      	beq.n	8100c7c <HAL_DMA_Init+0xb8>
 8100c0e:	687b      	ldr	r3, [r7, #4]
 8100c10:	681b      	ldr	r3, [r3, #0]
 8100c12:	4a5f      	ldr	r2, [pc, #380]	; (8100d90 <HAL_DMA_Init+0x1cc>)
 8100c14:	4293      	cmp	r3, r2
 8100c16:	d031      	beq.n	8100c7c <HAL_DMA_Init+0xb8>
 8100c18:	687b      	ldr	r3, [r7, #4]
 8100c1a:	681b      	ldr	r3, [r3, #0]
 8100c1c:	4a5d      	ldr	r2, [pc, #372]	; (8100d94 <HAL_DMA_Init+0x1d0>)
 8100c1e:	4293      	cmp	r3, r2
 8100c20:	d02c      	beq.n	8100c7c <HAL_DMA_Init+0xb8>
 8100c22:	687b      	ldr	r3, [r7, #4]
 8100c24:	681b      	ldr	r3, [r3, #0]
 8100c26:	4a5c      	ldr	r2, [pc, #368]	; (8100d98 <HAL_DMA_Init+0x1d4>)
 8100c28:	4293      	cmp	r3, r2
 8100c2a:	d027      	beq.n	8100c7c <HAL_DMA_Init+0xb8>
 8100c2c:	687b      	ldr	r3, [r7, #4]
 8100c2e:	681b      	ldr	r3, [r3, #0]
 8100c30:	4a5a      	ldr	r2, [pc, #360]	; (8100d9c <HAL_DMA_Init+0x1d8>)
 8100c32:	4293      	cmp	r3, r2
 8100c34:	d022      	beq.n	8100c7c <HAL_DMA_Init+0xb8>
 8100c36:	687b      	ldr	r3, [r7, #4]
 8100c38:	681b      	ldr	r3, [r3, #0]
 8100c3a:	4a59      	ldr	r2, [pc, #356]	; (8100da0 <HAL_DMA_Init+0x1dc>)
 8100c3c:	4293      	cmp	r3, r2
 8100c3e:	d01d      	beq.n	8100c7c <HAL_DMA_Init+0xb8>
 8100c40:	687b      	ldr	r3, [r7, #4]
 8100c42:	681b      	ldr	r3, [r3, #0]
 8100c44:	4a57      	ldr	r2, [pc, #348]	; (8100da4 <HAL_DMA_Init+0x1e0>)
 8100c46:	4293      	cmp	r3, r2
 8100c48:	d018      	beq.n	8100c7c <HAL_DMA_Init+0xb8>
 8100c4a:	687b      	ldr	r3, [r7, #4]
 8100c4c:	681b      	ldr	r3, [r3, #0]
 8100c4e:	4a56      	ldr	r2, [pc, #344]	; (8100da8 <HAL_DMA_Init+0x1e4>)
 8100c50:	4293      	cmp	r3, r2
 8100c52:	d013      	beq.n	8100c7c <HAL_DMA_Init+0xb8>
 8100c54:	687b      	ldr	r3, [r7, #4]
 8100c56:	681b      	ldr	r3, [r3, #0]
 8100c58:	4a54      	ldr	r2, [pc, #336]	; (8100dac <HAL_DMA_Init+0x1e8>)
 8100c5a:	4293      	cmp	r3, r2
 8100c5c:	d00e      	beq.n	8100c7c <HAL_DMA_Init+0xb8>
 8100c5e:	687b      	ldr	r3, [r7, #4]
 8100c60:	681b      	ldr	r3, [r3, #0]
 8100c62:	4a53      	ldr	r2, [pc, #332]	; (8100db0 <HAL_DMA_Init+0x1ec>)
 8100c64:	4293      	cmp	r3, r2
 8100c66:	d009      	beq.n	8100c7c <HAL_DMA_Init+0xb8>
 8100c68:	687b      	ldr	r3, [r7, #4]
 8100c6a:	681b      	ldr	r3, [r3, #0]
 8100c6c:	4a51      	ldr	r2, [pc, #324]	; (8100db4 <HAL_DMA_Init+0x1f0>)
 8100c6e:	4293      	cmp	r3, r2
 8100c70:	d004      	beq.n	8100c7c <HAL_DMA_Init+0xb8>
 8100c72:	687b      	ldr	r3, [r7, #4]
 8100c74:	681b      	ldr	r3, [r3, #0]
 8100c76:	4a50      	ldr	r2, [pc, #320]	; (8100db8 <HAL_DMA_Init+0x1f4>)
 8100c78:	4293      	cmp	r3, r2
 8100c7a:	d101      	bne.n	8100c80 <HAL_DMA_Init+0xbc>
 8100c7c:	2301      	movs	r3, #1
 8100c7e:	e000      	b.n	8100c82 <HAL_DMA_Init+0xbe>
 8100c80:	2300      	movs	r3, #0
 8100c82:	2b00      	cmp	r3, #0
 8100c84:	f000 813b 	beq.w	8100efe <HAL_DMA_Init+0x33a>
      assert_param(IS_DMA_MEMORY_BURST(hdma->Init.MemBurst));
      assert_param(IS_DMA_PERIPHERAL_BURST(hdma->Init.PeriphBurst));
    }

    /* Change DMA peripheral state */
    hdma->State = HAL_DMA_STATE_BUSY;
 8100c88:	687b      	ldr	r3, [r7, #4]
 8100c8a:	2202      	movs	r2, #2
 8100c8c:	f883 2035 	strb.w	r2, [r3, #53]	; 0x35

    /* Allocate lock resource */
    __HAL_UNLOCK(hdma);
 8100c90:	687b      	ldr	r3, [r7, #4]
 8100c92:	2200      	movs	r2, #0
 8100c94:	f883 2034 	strb.w	r2, [r3, #52]	; 0x34

    /* Disable the peripheral */
    __HAL_DMA_DISABLE(hdma);
 8100c98:	687b      	ldr	r3, [r7, #4]
 8100c9a:	681b      	ldr	r3, [r3, #0]
 8100c9c:	4a37      	ldr	r2, [pc, #220]	; (8100d7c <HAL_DMA_Init+0x1b8>)
 8100c9e:	4293      	cmp	r3, r2
 8100ca0:	d04a      	beq.n	8100d38 <HAL_DMA_Init+0x174>
 8100ca2:	687b      	ldr	r3, [r7, #4]
 8100ca4:	681b      	ldr	r3, [r3, #0]
 8100ca6:	4a36      	ldr	r2, [pc, #216]	; (8100d80 <HAL_DMA_Init+0x1bc>)
 8100ca8:	4293      	cmp	r3, r2
 8100caa:	d045      	beq.n	8100d38 <HAL_DMA_Init+0x174>
 8100cac:	687b      	ldr	r3, [r7, #4]
 8100cae:	681b      	ldr	r3, [r3, #0]
 8100cb0:	4a34      	ldr	r2, [pc, #208]	; (8100d84 <HAL_DMA_Init+0x1c0>)
 8100cb2:	4293      	cmp	r3, r2
 8100cb4:	d040      	beq.n	8100d38 <HAL_DMA_Init+0x174>
 8100cb6:	687b      	ldr	r3, [r7, #4]
 8100cb8:	681b      	ldr	r3, [r3, #0]
 8100cba:	4a33      	ldr	r2, [pc, #204]	; (8100d88 <HAL_DMA_Init+0x1c4>)
 8100cbc:	4293      	cmp	r3, r2
 8100cbe:	d03b      	beq.n	8100d38 <HAL_DMA_Init+0x174>
 8100cc0:	687b      	ldr	r3, [r7, #4]
 8100cc2:	681b      	ldr	r3, [r3, #0]
 8100cc4:	4a31      	ldr	r2, [pc, #196]	; (8100d8c <HAL_DMA_Init+0x1c8>)
 8100cc6:	4293      	cmp	r3, r2
 8100cc8:	d036      	beq.n	8100d38 <HAL_DMA_Init+0x174>
 8100cca:	687b      	ldr	r3, [r7, #4]
 8100ccc:	681b      	ldr	r3, [r3, #0]
 8100cce:	4a30      	ldr	r2, [pc, #192]	; (8100d90 <HAL_DMA_Init+0x1cc>)
 8100cd0:	4293      	cmp	r3, r2
 8100cd2:	d031      	beq.n	8100d38 <HAL_DMA_Init+0x174>
 8100cd4:	687b      	ldr	r3, [r7, #4]
 8100cd6:	681b      	ldr	r3, [r3, #0]
 8100cd8:	4a2e      	ldr	r2, [pc, #184]	; (8100d94 <HAL_DMA_Init+0x1d0>)
 8100cda:	4293      	cmp	r3, r2
 8100cdc:	d02c      	beq.n	8100d38 <HAL_DMA_Init+0x174>
 8100cde:	687b      	ldr	r3, [r7, #4]
 8100ce0:	681b      	ldr	r3, [r3, #0]
 8100ce2:	4a2d      	ldr	r2, [pc, #180]	; (8100d98 <HAL_DMA_Init+0x1d4>)
 8100ce4:	4293      	cmp	r3, r2
 8100ce6:	d027      	beq.n	8100d38 <HAL_DMA_Init+0x174>
 8100ce8:	687b      	ldr	r3, [r7, #4]
 8100cea:	681b      	ldr	r3, [r3, #0]
 8100cec:	4a2b      	ldr	r2, [pc, #172]	; (8100d9c <HAL_DMA_Init+0x1d8>)
 8100cee:	4293      	cmp	r3, r2
 8100cf0:	d022      	beq.n	8100d38 <HAL_DMA_Init+0x174>
 8100cf2:	687b      	ldr	r3, [r7, #4]
 8100cf4:	681b      	ldr	r3, [r3, #0]
 8100cf6:	4a2a      	ldr	r2, [pc, #168]	; (8100da0 <HAL_DMA_Init+0x1dc>)
 8100cf8:	4293      	cmp	r3, r2
 8100cfa:	d01d      	beq.n	8100d38 <HAL_DMA_Init+0x174>
 8100cfc:	687b      	ldr	r3, [r7, #4]
 8100cfe:	681b      	ldr	r3, [r3, #0]
 8100d00:	4a28      	ldr	r2, [pc, #160]	; (8100da4 <HAL_DMA_Init+0x1e0>)
 8100d02:	4293      	cmp	r3, r2
 8100d04:	d018      	beq.n	8100d38 <HAL_DMA_Init+0x174>
 8100d06:	687b      	ldr	r3, [r7, #4]
 8100d08:	681b      	ldr	r3, [r3, #0]
 8100d0a:	4a27      	ldr	r2, [pc, #156]	; (8100da8 <HAL_DMA_Init+0x1e4>)
 8100d0c:	4293      	cmp	r3, r2
 8100d0e:	d013      	beq.n	8100d38 <HAL_DMA_Init+0x174>
 8100d10:	687b      	ldr	r3, [r7, #4]
 8100d12:	681b      	ldr	r3, [r3, #0]
 8100d14:	4a25      	ldr	r2, [pc, #148]	; (8100dac <HAL_DMA_Init+0x1e8>)
 8100d16:	4293      	cmp	r3, r2
 8100d18:	d00e      	beq.n	8100d38 <HAL_DMA_Init+0x174>
 8100d1a:	687b      	ldr	r3, [r7, #4]
 8100d1c:	681b      	ldr	r3, [r3, #0]
 8100d1e:	4a24      	ldr	r2, [pc, #144]	; (8100db0 <HAL_DMA_Init+0x1ec>)
 8100d20:	4293      	cmp	r3, r2
 8100d22:	d009      	beq.n	8100d38 <HAL_DMA_Init+0x174>
 8100d24:	687b      	ldr	r3, [r7, #4]
 8100d26:	681b      	ldr	r3, [r3, #0]
 8100d28:	4a22      	ldr	r2, [pc, #136]	; (8100db4 <HAL_DMA_Init+0x1f0>)
 8100d2a:	4293      	cmp	r3, r2
 8100d2c:	d004      	beq.n	8100d38 <HAL_DMA_Init+0x174>
 8100d2e:	687b      	ldr	r3, [r7, #4]
 8100d30:	681b      	ldr	r3, [r3, #0]
 8100d32:	4a21      	ldr	r2, [pc, #132]	; (8100db8 <HAL_DMA_Init+0x1f4>)
 8100d34:	4293      	cmp	r3, r2
 8100d36:	d108      	bne.n	8100d4a <HAL_DMA_Init+0x186>
 8100d38:	687b      	ldr	r3, [r7, #4]
 8100d3a:	681b      	ldr	r3, [r3, #0]
 8100d3c:	681a      	ldr	r2, [r3, #0]
 8100d3e:	687b      	ldr	r3, [r7, #4]
 8100d40:	681b      	ldr	r3, [r3, #0]
 8100d42:	f022 0201 	bic.w	r2, r2, #1
 8100d46:	601a      	str	r2, [r3, #0]
 8100d48:	e007      	b.n	8100d5a <HAL_DMA_Init+0x196>
 8100d4a:	687b      	ldr	r3, [r7, #4]
 8100d4c:	681b      	ldr	r3, [r3, #0]
 8100d4e:	681a      	ldr	r2, [r3, #0]
 8100d50:	687b      	ldr	r3, [r7, #4]
 8100d52:	681b      	ldr	r3, [r3, #0]
 8100d54:	f022 0201 	bic.w	r2, r2, #1
 8100d58:	601a      	str	r2, [r3, #0]

    /* Check if the DMA Stream is effectively disabled */
    while((((DMA_Stream_TypeDef   *)hdma->Instance)->CR & DMA_SxCR_EN) != 0U)
 8100d5a:	e02f      	b.n	8100dbc <HAL_DMA_Init+0x1f8>
    {
      /* Check for the Timeout */
      if((HAL_GetTick() - tickstart ) > HAL_TIMEOUT_DMA_ABORT)
 8100d5c:	f7ff fe02 	bl	8100964 <HAL_GetTick>
 8100d60:	4602      	mov	r2, r0
 8100d62:	693b      	ldr	r3, [r7, #16]
 8100d64:	1ad3      	subs	r3, r2, r3
 8100d66:	2b05      	cmp	r3, #5
 8100d68:	d928      	bls.n	8100dbc <HAL_DMA_Init+0x1f8>
      {
        /* Update error code */
        hdma->ErrorCode = HAL_DMA_ERROR_TIMEOUT;
 8100d6a:	687b      	ldr	r3, [r7, #4]
 8100d6c:	2220      	movs	r2, #32
 8100d6e:	655a      	str	r2, [r3, #84]	; 0x54

        /* Change the DMA state */
        hdma->State = HAL_DMA_STATE_ERROR;
 8100d70:	687b      	ldr	r3, [r7, #4]
 8100d72:	2203      	movs	r2, #3
 8100d74:	f883 2035 	strb.w	r2, [r3, #53]	; 0x35

        return HAL_ERROR;
 8100d78:	2301      	movs	r3, #1
 8100d7a:	e244      	b.n	8101206 <HAL_DMA_Init+0x642>
 8100d7c:	40020010 	.word	0x40020010
 8100d80:	40020028 	.word	0x40020028
 8100d84:	40020040 	.word	0x40020040
 8100d88:	40020058 	.word	0x40020058
 8100d8c:	40020070 	.word	0x40020070
 8100d90:	40020088 	.word	0x40020088
 8100d94:	400200a0 	.word	0x400200a0
 8100d98:	400200b8 	.word	0x400200b8
 8100d9c:	40020410 	.word	0x40020410
 8100da0:	40020428 	.word	0x40020428
 8100da4:	40020440 	.word	0x40020440
 8100da8:	40020458 	.word	0x40020458
 8100dac:	40020470 	.word	0x40020470
 8100db0:	40020488 	.word	0x40020488
 8100db4:	400204a0 	.word	0x400204a0
 8100db8:	400204b8 	.word	0x400204b8
    while((((DMA_Stream_TypeDef   *)hdma->Instance)->CR & DMA_SxCR_EN) != 0U)
 8100dbc:	687b      	ldr	r3, [r7, #4]
 8100dbe:	681b      	ldr	r3, [r3, #0]
 8100dc0:	681b      	ldr	r3, [r3, #0]
 8100dc2:	f003 0301 	and.w	r3, r3, #1
 8100dc6:	2b00      	cmp	r3, #0
 8100dc8:	d1c8      	bne.n	8100d5c <HAL_DMA_Init+0x198>
      }
    }

    /* Get the CR register value */
    registerValue = ((DMA_Stream_TypeDef   *)hdma->Instance)->CR;
 8100dca:	687b      	ldr	r3, [r7, #4]
 8100dcc:	681b      	ldr	r3, [r3, #0]
 8100dce:	681b      	ldr	r3, [r3, #0]
 8100dd0:	617b      	str	r3, [r7, #20]

    /* Clear CHSEL, MBURST, PBURST, PL, MSIZE, PSIZE, MINC, PINC, CIRC, DIR, CT and DBM bits */
    registerValue &= ((uint32_t)~(DMA_SxCR_MBURST | DMA_SxCR_PBURST | \
 8100dd2:	697a      	ldr	r2, [r7, #20]
 8100dd4:	4b84      	ldr	r3, [pc, #528]	; (8100fe8 <HAL_DMA_Init+0x424>)
 8100dd6:	4013      	ands	r3, r2
 8100dd8:	617b      	str	r3, [r7, #20]
                        DMA_SxCR_PL    | DMA_SxCR_MSIZE  | DMA_SxCR_PSIZE  | \
                        DMA_SxCR_MINC  | DMA_SxCR_PINC   | DMA_SxCR_CIRC   | \
                        DMA_SxCR_DIR   | DMA_SxCR_CT     | DMA_SxCR_DBM));

    /* Prepare the DMA Stream configuration */
    registerValue |=  hdma->Init.Direction           |
 8100dda:	687b      	ldr	r3, [r7, #4]
 8100ddc:	689a      	ldr	r2, [r3, #8]
            hdma->Init.PeriphInc           | hdma->Init.MemInc           |
 8100dde:	687b      	ldr	r3, [r7, #4]
 8100de0:	68db      	ldr	r3, [r3, #12]
    registerValue |=  hdma->Init.Direction           |
 8100de2:	431a      	orrs	r2, r3
            hdma->Init.PeriphInc           | hdma->Init.MemInc           |
 8100de4:	687b      	ldr	r3, [r7, #4]
 8100de6:	691b      	ldr	r3, [r3, #16]
 8100de8:	431a      	orrs	r2, r3
            hdma->Init.PeriphDataAlignment | hdma->Init.MemDataAlignment |
 8100dea:	687b      	ldr	r3, [r7, #4]
 8100dec:	695b      	ldr	r3, [r3, #20]
            hdma->Init.PeriphInc           | hdma->Init.MemInc           |
 8100dee:	431a      	orrs	r2, r3
            hdma->Init.PeriphDataAlignment | hdma->Init.MemDataAlignment |
 8100df0:	687b      	ldr	r3, [r7, #4]
 8100df2:	699b      	ldr	r3, [r3, #24]
 8100df4:	431a      	orrs	r2, r3
            hdma->Init.Mode                | hdma->Init.Priority;
 8100df6:	687b      	ldr	r3, [r7, #4]
 8100df8:	69db      	ldr	r3, [r3, #28]
            hdma->Init.PeriphDataAlignment | hdma->Init.MemDataAlignment |
 8100dfa:	431a      	orrs	r2, r3
            hdma->Init.Mode                | hdma->Init.Priority;
 8100dfc:	687b      	ldr	r3, [r7, #4]
 8100dfe:	6a1b      	ldr	r3, [r3, #32]
 8100e00:	4313      	orrs	r3, r2
    registerValue |=  hdma->Init.Direction           |
 8100e02:	697a      	ldr	r2, [r7, #20]
 8100e04:	4313      	orrs	r3, r2
 8100e06:	617b      	str	r3, [r7, #20]

    /* the Memory burst and peripheral burst are not used when the FIFO is disabled */
    if(hdma->Init.FIFOMode == DMA_FIFOMODE_ENABLE)
 8100e08:	687b      	ldr	r3, [r7, #4]
 8100e0a:	6a5b      	ldr	r3, [r3, #36]	; 0x24
 8100e0c:	2b04      	cmp	r3, #4
 8100e0e:	d107      	bne.n	8100e20 <HAL_DMA_Init+0x25c>
    {
      /* Get memory burst and peripheral burst */
      registerValue |=  hdma->Init.MemBurst | hdma->Init.PeriphBurst;
 8100e10:	687b      	ldr	r3, [r7, #4]
 8100e12:	6ada      	ldr	r2, [r3, #44]	; 0x2c
 8100e14:	687b      	ldr	r3, [r7, #4]
 8100e16:	6b1b      	ldr	r3, [r3, #48]	; 0x30
 8100e18:	4313      	orrs	r3, r2
 8100e1a:	697a      	ldr	r2, [r7, #20]
 8100e1c:	4313      	orrs	r3, r2
 8100e1e:	617b      	str	r3, [r7, #20]
    }

    /* Work around for Errata 2.22: UART/USART- DMA transfer lock: DMA stream could be
                                    lock when transferring data to/from USART/UART */
#if (STM32H7_DEV_ID == 0x450UL)
    if((DBGMCU->IDCODE & 0xFFFF0000U) >= 0x20000000U)
 8100e20:	4b72      	ldr	r3, [pc, #456]	; (8100fec <HAL_DMA_Init+0x428>)
 8100e22:	681b      	ldr	r3, [r3, #0]
 8100e24:	0c1b      	lsrs	r3, r3, #16
 8100e26:	041b      	lsls	r3, r3, #16
 8100e28:	f1b3 5f00 	cmp.w	r3, #536870912	; 0x20000000
 8100e2c:	d328      	bcc.n	8100e80 <HAL_DMA_Init+0x2bc>
    {
#endif /* STM32H7_DEV_ID == 0x450UL */
      if(IS_DMA_UART_USART_REQUEST(hdma->Init.Request) != 0U)
 8100e2e:	687b      	ldr	r3, [r7, #4]
 8100e30:	685b      	ldr	r3, [r3, #4]
 8100e32:	2b28      	cmp	r3, #40	; 0x28
 8100e34:	d903      	bls.n	8100e3e <HAL_DMA_Init+0x27a>
 8100e36:	687b      	ldr	r3, [r7, #4]
 8100e38:	685b      	ldr	r3, [r3, #4]
 8100e3a:	2b2e      	cmp	r3, #46	; 0x2e
 8100e3c:	d917      	bls.n	8100e6e <HAL_DMA_Init+0x2aa>
 8100e3e:	687b      	ldr	r3, [r7, #4]
 8100e40:	685b      	ldr	r3, [r3, #4]
 8100e42:	2b3e      	cmp	r3, #62	; 0x3e
 8100e44:	d903      	bls.n	8100e4e <HAL_DMA_Init+0x28a>
 8100e46:	687b      	ldr	r3, [r7, #4]
 8100e48:	685b      	ldr	r3, [r3, #4]
 8100e4a:	2b42      	cmp	r3, #66	; 0x42
 8100e4c:	d90f      	bls.n	8100e6e <HAL_DMA_Init+0x2aa>
 8100e4e:	687b      	ldr	r3, [r7, #4]
 8100e50:	685b      	ldr	r3, [r3, #4]
 8100e52:	2b46      	cmp	r3, #70	; 0x46
 8100e54:	d903      	bls.n	8100e5e <HAL_DMA_Init+0x29a>
 8100e56:	687b      	ldr	r3, [r7, #4]
 8100e58:	685b      	ldr	r3, [r3, #4]
 8100e5a:	2b48      	cmp	r3, #72	; 0x48
 8100e5c:	d907      	bls.n	8100e6e <HAL_DMA_Init+0x2aa>
 8100e5e:	687b      	ldr	r3, [r7, #4]
 8100e60:	685b      	ldr	r3, [r3, #4]
 8100e62:	2b4e      	cmp	r3, #78	; 0x4e
 8100e64:	d905      	bls.n	8100e72 <HAL_DMA_Init+0x2ae>
 8100e66:	687b      	ldr	r3, [r7, #4]
 8100e68:	685b      	ldr	r3, [r3, #4]
 8100e6a:	2b52      	cmp	r3, #82	; 0x52
 8100e6c:	d801      	bhi.n	8100e72 <HAL_DMA_Init+0x2ae>
 8100e6e:	2301      	movs	r3, #1
 8100e70:	e000      	b.n	8100e74 <HAL_DMA_Init+0x2b0>
 8100e72:	2300      	movs	r3, #0
 8100e74:	2b00      	cmp	r3, #0
 8100e76:	d003      	beq.n	8100e80 <HAL_DMA_Init+0x2bc>
      {
        registerValue |= DMA_SxCR_TRBUFF;
 8100e78:	697b      	ldr	r3, [r7, #20]
 8100e7a:	f443 1380 	orr.w	r3, r3, #1048576	; 0x100000
 8100e7e:	617b      	str	r3, [r7, #20]
#if (STM32H7_DEV_ID == 0x450UL)
    }
#endif /* STM32H7_DEV_ID == 0x450UL */

    /* Write to DMA Stream CR register */
    ((DMA_Stream_TypeDef   *)hdma->Instance)->CR = registerValue;
 8100e80:	687b      	ldr	r3, [r7, #4]
 8100e82:	681b      	ldr	r3, [r3, #0]
 8100e84:	697a      	ldr	r2, [r7, #20]
 8100e86:	601a      	str	r2, [r3, #0]

    /* Get the FCR register value */
    registerValue = ((DMA_Stream_TypeDef   *)hdma->Instance)->FCR;
 8100e88:	687b      	ldr	r3, [r7, #4]
 8100e8a:	681b      	ldr	r3, [r3, #0]
 8100e8c:	695b      	ldr	r3, [r3, #20]
 8100e8e:	617b      	str	r3, [r7, #20]

    /* Clear Direct mode and FIFO threshold bits */
    registerValue &= (uint32_t)~(DMA_SxFCR_DMDIS | DMA_SxFCR_FTH);
 8100e90:	697b      	ldr	r3, [r7, #20]
 8100e92:	f023 0307 	bic.w	r3, r3, #7
 8100e96:	617b      	str	r3, [r7, #20]

    /* Prepare the DMA Stream FIFO configuration */
    registerValue |= hdma->Init.FIFOMode;
 8100e98:	687b      	ldr	r3, [r7, #4]
 8100e9a:	6a5b      	ldr	r3, [r3, #36]	; 0x24
 8100e9c:	697a      	ldr	r2, [r7, #20]
 8100e9e:	4313      	orrs	r3, r2
 8100ea0:	617b      	str	r3, [r7, #20]

    /* the FIFO threshold is not used when the FIFO mode is disabled */
    if(hdma->Init.FIFOMode == DMA_FIFOMODE_ENABLE)
 8100ea2:	687b      	ldr	r3, [r7, #4]
 8100ea4:	6a5b      	ldr	r3, [r3, #36]	; 0x24
 8100ea6:	2b04      	cmp	r3, #4
 8100ea8:	d117      	bne.n	8100eda <HAL_DMA_Init+0x316>
    {
      /* Get the FIFO threshold */
      registerValue |= hdma->Init.FIFOThreshold;
 8100eaa:	687b      	ldr	r3, [r7, #4]
 8100eac:	6a9b      	ldr	r3, [r3, #40]	; 0x28
 8100eae:	697a      	ldr	r2, [r7, #20]
 8100eb0:	4313      	orrs	r3, r2
 8100eb2:	617b      	str	r3, [r7, #20]

      /* Check compatibility between FIFO threshold level and size of the memory burst */
      /* for INCR4, INCR8, INCR16 */
      if(hdma->Init.MemBurst != DMA_MBURST_SINGLE)
 8100eb4:	687b      	ldr	r3, [r7, #4]
 8100eb6:	6adb      	ldr	r3, [r3, #44]	; 0x2c
 8100eb8:	2b00      	cmp	r3, #0
 8100eba:	d00e      	beq.n	8100eda <HAL_DMA_Init+0x316>
      {
        if (DMA_CheckFifoParam(hdma) != HAL_OK)
 8100ebc:	6878      	ldr	r0, [r7, #4]
 8100ebe:	f002 f81f 	bl	8102f00 <DMA_CheckFifoParam>
 8100ec2:	4603      	mov	r3, r0
 8100ec4:	2b00      	cmp	r3, #0
 8100ec6:	d008      	beq.n	8100eda <HAL_DMA_Init+0x316>
        {
          /* Update error code */
          hdma->ErrorCode = HAL_DMA_ERROR_PARAM;
 8100ec8:	687b      	ldr	r3, [r7, #4]
 8100eca:	2240      	movs	r2, #64	; 0x40
 8100ecc:	655a      	str	r2, [r3, #84]	; 0x54

          /* Change the DMA state */
          hdma->State = HAL_DMA_STATE_READY;
 8100ece:	687b      	ldr	r3, [r7, #4]
 8100ed0:	2201      	movs	r2, #1
 8100ed2:	f883 2035 	strb.w	r2, [r3, #53]	; 0x35

          return HAL_ERROR;
 8100ed6:	2301      	movs	r3, #1
 8100ed8:	e195      	b.n	8101206 <HAL_DMA_Init+0x642>
        }
      }
    }

    /* Write to DMA Stream FCR */
    ((DMA_Stream_TypeDef   *)hdma->Instance)->FCR = registerValue;
 8100eda:	687b      	ldr	r3, [r7, #4]
 8100edc:	681b      	ldr	r3, [r3, #0]
 8100ede:	697a      	ldr	r2, [r7, #20]
 8100ee0:	615a      	str	r2, [r3, #20]

    /* Initialize StreamBaseAddress and StreamIndex parameters to be used to calculate
       DMA steam Base Address needed by HAL_DMA_IRQHandler() and HAL_DMA_PollForTransfer() */
    regs_dma = (DMA_Base_Registers *)DMA_CalcBaseAndBitshift(hdma);
 8100ee2:	6878      	ldr	r0, [r7, #4]
 8100ee4:	f001 ff5a 	bl	8102d9c <DMA_CalcBaseAndBitshift>
 8100ee8:	4603      	mov	r3, r0
 8100eea:	60bb      	str	r3, [r7, #8]

    /* Clear all interrupt flags */
    regs_dma->IFCR = 0x3FUL << (hdma->StreamIndex & 0x1FU);
 8100eec:	687b      	ldr	r3, [r7, #4]
 8100eee:	6ddb      	ldr	r3, [r3, #92]	; 0x5c
 8100ef0:	f003 031f 	and.w	r3, r3, #31
 8100ef4:	223f      	movs	r2, #63	; 0x3f
 8100ef6:	409a      	lsls	r2, r3
 8100ef8:	68bb      	ldr	r3, [r7, #8]
 8100efa:	609a      	str	r2, [r3, #8]
 8100efc:	e0cb      	b.n	8101096 <HAL_DMA_Init+0x4d2>
  }
  else if(IS_BDMA_CHANNEL_INSTANCE(hdma->Instance) != 0U) /* BDMA instance(s) */
 8100efe:	687b      	ldr	r3, [r7, #4]
 8100f00:	681b      	ldr	r3, [r3, #0]
 8100f02:	4a3b      	ldr	r2, [pc, #236]	; (8100ff0 <HAL_DMA_Init+0x42c>)
 8100f04:	4293      	cmp	r3, r2
 8100f06:	d022      	beq.n	8100f4e <HAL_DMA_Init+0x38a>
 8100f08:	687b      	ldr	r3, [r7, #4]
 8100f0a:	681b      	ldr	r3, [r3, #0]
 8100f0c:	4a39      	ldr	r2, [pc, #228]	; (8100ff4 <HAL_DMA_Init+0x430>)
 8100f0e:	4293      	cmp	r3, r2
 8100f10:	d01d      	beq.n	8100f4e <HAL_DMA_Init+0x38a>
 8100f12:	687b      	ldr	r3, [r7, #4]
 8100f14:	681b      	ldr	r3, [r3, #0]
 8100f16:	4a38      	ldr	r2, [pc, #224]	; (8100ff8 <HAL_DMA_Init+0x434>)
 8100f18:	4293      	cmp	r3, r2
 8100f1a:	d018      	beq.n	8100f4e <HAL_DMA_Init+0x38a>
 8100f1c:	687b      	ldr	r3, [r7, #4]
 8100f1e:	681b      	ldr	r3, [r3, #0]
 8100f20:	4a36      	ldr	r2, [pc, #216]	; (8100ffc <HAL_DMA_Init+0x438>)
 8100f22:	4293      	cmp	r3, r2
 8100f24:	d013      	beq.n	8100f4e <HAL_DMA_Init+0x38a>
 8100f26:	687b      	ldr	r3, [r7, #4]
 8100f28:	681b      	ldr	r3, [r3, #0]
 8100f2a:	4a35      	ldr	r2, [pc, #212]	; (8101000 <HAL_DMA_Init+0x43c>)
 8100f2c:	4293      	cmp	r3, r2
 8100f2e:	d00e      	beq.n	8100f4e <HAL_DMA_Init+0x38a>
 8100f30:	687b      	ldr	r3, [r7, #4]
 8100f32:	681b      	ldr	r3, [r3, #0]
 8100f34:	4a33      	ldr	r2, [pc, #204]	; (8101004 <HAL_DMA_Init+0x440>)
 8100f36:	4293      	cmp	r3, r2
 8100f38:	d009      	beq.n	8100f4e <HAL_DMA_Init+0x38a>
 8100f3a:	687b      	ldr	r3, [r7, #4]
 8100f3c:	681b      	ldr	r3, [r3, #0]
 8100f3e:	4a32      	ldr	r2, [pc, #200]	; (8101008 <HAL_DMA_Init+0x444>)
 8100f40:	4293      	cmp	r3, r2
 8100f42:	d004      	beq.n	8100f4e <HAL_DMA_Init+0x38a>
 8100f44:	687b      	ldr	r3, [r7, #4]
 8100f46:	681b      	ldr	r3, [r3, #0]
 8100f48:	4a30      	ldr	r2, [pc, #192]	; (810100c <HAL_DMA_Init+0x448>)
 8100f4a:	4293      	cmp	r3, r2
 8100f4c:	d101      	bne.n	8100f52 <HAL_DMA_Init+0x38e>
 8100f4e:	2301      	movs	r3, #1
 8100f50:	e000      	b.n	8100f54 <HAL_DMA_Init+0x390>
 8100f52:	2300      	movs	r3, #0
 8100f54:	2b00      	cmp	r3, #0
 8100f56:	f000 8095 	beq.w	8101084 <HAL_DMA_Init+0x4c0>
  {
    if(IS_BDMA_CHANNEL_DMAMUX_INSTANCE(hdma->Instance) != 0U)
 8100f5a:	687b      	ldr	r3, [r7, #4]
 8100f5c:	681b      	ldr	r3, [r3, #0]
 8100f5e:	4a24      	ldr	r2, [pc, #144]	; (8100ff0 <HAL_DMA_Init+0x42c>)
 8100f60:	4293      	cmp	r3, r2
 8100f62:	d021      	beq.n	8100fa8 <HAL_DMA_Init+0x3e4>
 8100f64:	687b      	ldr	r3, [r7, #4]
 8100f66:	681b      	ldr	r3, [r3, #0]
 8100f68:	4a22      	ldr	r2, [pc, #136]	; (8100ff4 <HAL_DMA_Init+0x430>)
 8100f6a:	4293      	cmp	r3, r2
 8100f6c:	d01c      	beq.n	8100fa8 <HAL_DMA_Init+0x3e4>
 8100f6e:	687b      	ldr	r3, [r7, #4]
 8100f70:	681b      	ldr	r3, [r3, #0]
 8100f72:	4a21      	ldr	r2, [pc, #132]	; (8100ff8 <HAL_DMA_Init+0x434>)
 8100f74:	4293      	cmp	r3, r2
 8100f76:	d017      	beq.n	8100fa8 <HAL_DMA_Init+0x3e4>
 8100f78:	687b      	ldr	r3, [r7, #4]
 8100f7a:	681b      	ldr	r3, [r3, #0]
 8100f7c:	4a1f      	ldr	r2, [pc, #124]	; (8100ffc <HAL_DMA_Init+0x438>)
 8100f7e:	4293      	cmp	r3, r2
 8100f80:	d012      	beq.n	8100fa8 <HAL_DMA_Init+0x3e4>
 8100f82:	687b      	ldr	r3, [r7, #4]
 8100f84:	681b      	ldr	r3, [r3, #0]
 8100f86:	4a1e      	ldr	r2, [pc, #120]	; (8101000 <HAL_DMA_Init+0x43c>)
 8100f88:	4293      	cmp	r3, r2
 8100f8a:	d00d      	beq.n	8100fa8 <HAL_DMA_Init+0x3e4>
 8100f8c:	687b      	ldr	r3, [r7, #4]
 8100f8e:	681b      	ldr	r3, [r3, #0]
 8100f90:	4a1c      	ldr	r2, [pc, #112]	; (8101004 <HAL_DMA_Init+0x440>)
 8100f92:	4293      	cmp	r3, r2
 8100f94:	d008      	beq.n	8100fa8 <HAL_DMA_Init+0x3e4>
 8100f96:	687b      	ldr	r3, [r7, #4]
 8100f98:	681b      	ldr	r3, [r3, #0]
 8100f9a:	4a1b      	ldr	r2, [pc, #108]	; (8101008 <HAL_DMA_Init+0x444>)
 8100f9c:	4293      	cmp	r3, r2
 8100f9e:	d003      	beq.n	8100fa8 <HAL_DMA_Init+0x3e4>
 8100fa0:	687b      	ldr	r3, [r7, #4]
 8100fa2:	681b      	ldr	r3, [r3, #0]
 8100fa4:	4a19      	ldr	r2, [pc, #100]	; (810100c <HAL_DMA_Init+0x448>)
 8100fa6:	4293      	cmp	r3, r2
 8100fa8:	bf00      	nop
      /* Check the request parameter */
      assert_param(IS_BDMA_REQUEST(hdma->Init.Request));
    }

    /* Change DMA peripheral state */
    hdma->State = HAL_DMA_STATE_BUSY;
 8100faa:	687b      	ldr	r3, [r7, #4]
 8100fac:	2202      	movs	r2, #2
 8100fae:	f883 2035 	strb.w	r2, [r3, #53]	; 0x35

    /* Allocate lock resource */
    __HAL_UNLOCK(hdma);
 8100fb2:	687b      	ldr	r3, [r7, #4]
 8100fb4:	2200      	movs	r2, #0
 8100fb6:	f883 2034 	strb.w	r2, [r3, #52]	; 0x34

    /* Get the CR register value */
    registerValue = ((BDMA_Channel_TypeDef *)hdma->Instance)->CCR;
 8100fba:	687b      	ldr	r3, [r7, #4]
 8100fbc:	681b      	ldr	r3, [r3, #0]
 8100fbe:	681b      	ldr	r3, [r3, #0]
 8100fc0:	617b      	str	r3, [r7, #20]

    /* Clear PL, MSIZE, PSIZE, MINC, PINC, CIRC, DIR, MEM2MEM, DBM and CT bits */
    registerValue &= ((uint32_t)~(BDMA_CCR_PL    | BDMA_CCR_MSIZE   | BDMA_CCR_PSIZE  | \
 8100fc2:	697b      	ldr	r3, [r7, #20]
 8100fc4:	f423 33ff 	bic.w	r3, r3, #130560	; 0x1fe00
 8100fc8:	f423 73f8 	bic.w	r3, r3, #496	; 0x1f0
 8100fcc:	617b      	str	r3, [r7, #20]
                                  BDMA_CCR_MINC  | BDMA_CCR_PINC    | BDMA_CCR_CIRC   | \
                                  BDMA_CCR_DIR   | BDMA_CCR_MEM2MEM | BDMA_CCR_DBM    | \
                                  BDMA_CCR_CT));

    /* Prepare the DMA Channel configuration */
    registerValue |=  DMA_TO_BDMA_DIRECTION(hdma->Init.Direction)            |
 8100fce:	687b      	ldr	r3, [r7, #4]
 8100fd0:	689b      	ldr	r3, [r3, #8]
 8100fd2:	2b40      	cmp	r3, #64	; 0x40
 8100fd4:	d01c      	beq.n	8101010 <HAL_DMA_Init+0x44c>
 8100fd6:	687b      	ldr	r3, [r7, #4]
 8100fd8:	689b      	ldr	r3, [r3, #8]
 8100fda:	2b80      	cmp	r3, #128	; 0x80
 8100fdc:	d102      	bne.n	8100fe4 <HAL_DMA_Init+0x420>
 8100fde:	f44f 4380 	mov.w	r3, #16384	; 0x4000
 8100fe2:	e016      	b.n	8101012 <HAL_DMA_Init+0x44e>
 8100fe4:	2300      	movs	r3, #0
 8100fe6:	e014      	b.n	8101012 <HAL_DMA_Init+0x44e>
 8100fe8:	fe10803f 	.word	0xfe10803f
 8100fec:	5c001000 	.word	0x5c001000
 8100ff0:	58025408 	.word	0x58025408
 8100ff4:	5802541c 	.word	0x5802541c
 8100ff8:	58025430 	.word	0x58025430
 8100ffc:	58025444 	.word	0x58025444
 8101000:	58025458 	.word	0x58025458
 8101004:	5802546c 	.word	0x5802546c
 8101008:	58025480 	.word	0x58025480
 810100c:	58025494 	.word	0x58025494
 8101010:	2310      	movs	r3, #16
                      DMA_TO_BDMA_PERIPHERAL_INC(hdma->Init.PeriphInc)       |
 8101012:	687a      	ldr	r2, [r7, #4]
 8101014:	68d2      	ldr	r2, [r2, #12]
 8101016:	08d2      	lsrs	r2, r2, #3
    registerValue |=  DMA_TO_BDMA_DIRECTION(hdma->Init.Direction)            |
 8101018:	431a      	orrs	r2, r3
                      DMA_TO_BDMA_MEMORY_INC(hdma->Init.MemInc)              |
 810101a:	687b      	ldr	r3, [r7, #4]
 810101c:	691b      	ldr	r3, [r3, #16]
 810101e:	08db      	lsrs	r3, r3, #3
                      DMA_TO_BDMA_PERIPHERAL_INC(hdma->Init.PeriphInc)       |
 8101020:	431a      	orrs	r2, r3
                      DMA_TO_BDMA_PDATA_SIZE(hdma->Init.PeriphDataAlignment) |
 8101022:	687b      	ldr	r3, [r7, #4]
 8101024:	695b      	ldr	r3, [r3, #20]
 8101026:	08db      	lsrs	r3, r3, #3
                      DMA_TO_BDMA_MEMORY_INC(hdma->Init.MemInc)              |
 8101028:	431a      	orrs	r2, r3
                      DMA_TO_BDMA_MDATA_SIZE(hdma->Init.MemDataAlignment)    |
 810102a:	687b      	ldr	r3, [r7, #4]
 810102c:	699b      	ldr	r3, [r3, #24]
 810102e:	08db      	lsrs	r3, r3, #3
                      DMA_TO_BDMA_PDATA_SIZE(hdma->Init.PeriphDataAlignment) |
 8101030:	431a      	orrs	r2, r3
                      DMA_TO_BDMA_MODE(hdma->Init.Mode)                      |
 8101032:	687b      	ldr	r3, [r7, #4]
 8101034:	69db      	ldr	r3, [r3, #28]
 8101036:	08db      	lsrs	r3, r3, #3
                      DMA_TO_BDMA_MDATA_SIZE(hdma->Init.MemDataAlignment)    |
 8101038:	431a      	orrs	r2, r3
                      DMA_TO_BDMA_PRIORITY(hdma->Init.Priority);
 810103a:	687b      	ldr	r3, [r7, #4]
 810103c:	6a1b      	ldr	r3, [r3, #32]
 810103e:	091b      	lsrs	r3, r3, #4
                      DMA_TO_BDMA_MODE(hdma->Init.Mode)                      |
 8101040:	4313      	orrs	r3, r2
    registerValue |=  DMA_TO_BDMA_DIRECTION(hdma->Init.Direction)            |
 8101042:	697a      	ldr	r2, [r7, #20]
 8101044:	4313      	orrs	r3, r2
 8101046:	617b      	str	r3, [r7, #20]

    /* Write to DMA Channel CR register */
    ((BDMA_Channel_TypeDef *)hdma->Instance)->CCR = registerValue;
 8101048:	687b      	ldr	r3, [r7, #4]
 810104a:	681b      	ldr	r3, [r3, #0]
 810104c:	697a      	ldr	r2, [r7, #20]
 810104e:	601a      	str	r2, [r3, #0]

    /* calculation of the channel index */
    hdma->StreamIndex = (((uint32_t)((uint32_t*)hdma->Instance) - (uint32_t)BDMA_Channel0) / ((uint32_t)BDMA_Channel1 - (uint32_t)BDMA_Channel0)) << 2U;
 8101050:	687b      	ldr	r3, [r7, #4]
 8101052:	681b      	ldr	r3, [r3, #0]
 8101054:	461a      	mov	r2, r3
 8101056:	4b6e      	ldr	r3, [pc, #440]	; (8101210 <HAL_DMA_Init+0x64c>)
 8101058:	4413      	add	r3, r2
 810105a:	4a6e      	ldr	r2, [pc, #440]	; (8101214 <HAL_DMA_Init+0x650>)
 810105c:	fba2 2303 	umull	r2, r3, r2, r3
 8101060:	091b      	lsrs	r3, r3, #4
 8101062:	009a      	lsls	r2, r3, #2
 8101064:	687b      	ldr	r3, [r7, #4]
 8101066:	65da      	str	r2, [r3, #92]	; 0x5c

    /* Initialize StreamBaseAddress and StreamIndex parameters to be used to calculate
    DMA steam Base Address needed by HAL_DMA_IRQHandler() and HAL_DMA_PollForTransfer() */
    regs_bdma = (BDMA_Base_Registers *)DMA_CalcBaseAndBitshift(hdma);
 8101068:	6878      	ldr	r0, [r7, #4]
 810106a:	f001 fe97 	bl	8102d9c <DMA_CalcBaseAndBitshift>
 810106e:	4603      	mov	r3, r0
 8101070:	60fb      	str	r3, [r7, #12]

    /* Clear all interrupt flags */
    regs_bdma->IFCR = ((BDMA_IFCR_CGIF0) << (hdma->StreamIndex & 0x1FU));
 8101072:	687b      	ldr	r3, [r7, #4]
 8101074:	6ddb      	ldr	r3, [r3, #92]	; 0x5c
 8101076:	f003 031f 	and.w	r3, r3, #31
 810107a:	2201      	movs	r2, #1
 810107c:	409a      	lsls	r2, r3
 810107e:	68fb      	ldr	r3, [r7, #12]
 8101080:	605a      	str	r2, [r3, #4]
 8101082:	e008      	b.n	8101096 <HAL_DMA_Init+0x4d2>
  }
  else
  {
    hdma->ErrorCode = HAL_DMA_ERROR_PARAM;
 8101084:	687b      	ldr	r3, [r7, #4]
 8101086:	2240      	movs	r2, #64	; 0x40
 8101088:	655a      	str	r2, [r3, #84]	; 0x54
    hdma->State     = HAL_DMA_STATE_ERROR;
 810108a:	687b      	ldr	r3, [r7, #4]
 810108c:	2203      	movs	r2, #3
 810108e:	f883 2035 	strb.w	r2, [r3, #53]	; 0x35

    return HAL_ERROR;
 8101092:	2301      	movs	r3, #1
 8101094:	e0b7      	b.n	8101206 <HAL_DMA_Init+0x642>
  }

  if(IS_DMA_DMAMUX_ALL_INSTANCE(hdma->Instance) != 0U) /* No DMAMUX available for BDMA1 */
 8101096:	687b      	ldr	r3, [r7, #4]
 8101098:	681b      	ldr	r3, [r3, #0]
 810109a:	4a5f      	ldr	r2, [pc, #380]	; (8101218 <HAL_DMA_Init+0x654>)
 810109c:	4293      	cmp	r3, r2
 810109e:	d072      	beq.n	8101186 <HAL_DMA_Init+0x5c2>
 81010a0:	687b      	ldr	r3, [r7, #4]
 81010a2:	681b      	ldr	r3, [r3, #0]
 81010a4:	4a5d      	ldr	r2, [pc, #372]	; (810121c <HAL_DMA_Init+0x658>)
 81010a6:	4293      	cmp	r3, r2
 81010a8:	d06d      	beq.n	8101186 <HAL_DMA_Init+0x5c2>
 81010aa:	687b      	ldr	r3, [r7, #4]
 81010ac:	681b      	ldr	r3, [r3, #0]
 81010ae:	4a5c      	ldr	r2, [pc, #368]	; (8101220 <HAL_DMA_Init+0x65c>)
 81010b0:	4293      	cmp	r3, r2
 81010b2:	d068      	beq.n	8101186 <HAL_DMA_Init+0x5c2>
 81010b4:	687b      	ldr	r3, [r7, #4]
 81010b6:	681b      	ldr	r3, [r3, #0]
 81010b8:	4a5a      	ldr	r2, [pc, #360]	; (8101224 <HAL_DMA_Init+0x660>)
 81010ba:	4293      	cmp	r3, r2
 81010bc:	d063      	beq.n	8101186 <HAL_DMA_Init+0x5c2>
 81010be:	687b      	ldr	r3, [r7, #4]
 81010c0:	681b      	ldr	r3, [r3, #0]
 81010c2:	4a59      	ldr	r2, [pc, #356]	; (8101228 <HAL_DMA_Init+0x664>)
 81010c4:	4293      	cmp	r3, r2
 81010c6:	d05e      	beq.n	8101186 <HAL_DMA_Init+0x5c2>
 81010c8:	687b      	ldr	r3, [r7, #4]
 81010ca:	681b      	ldr	r3, [r3, #0]
 81010cc:	4a57      	ldr	r2, [pc, #348]	; (810122c <HAL_DMA_Init+0x668>)
 81010ce:	4293      	cmp	r3, r2
 81010d0:	d059      	beq.n	8101186 <HAL_DMA_Init+0x5c2>
 81010d2:	687b      	ldr	r3, [r7, #4]
 81010d4:	681b      	ldr	r3, [r3, #0]
 81010d6:	4a56      	ldr	r2, [pc, #344]	; (8101230 <HAL_DMA_Init+0x66c>)
 81010d8:	4293      	cmp	r3, r2
 81010da:	d054      	beq.n	8101186 <HAL_DMA_Init+0x5c2>
 81010dc:	687b      	ldr	r3, [r7, #4]
 81010de:	681b      	ldr	r3, [r3, #0]
 81010e0:	4a54      	ldr	r2, [pc, #336]	; (8101234 <HAL_DMA_Init+0x670>)
 81010e2:	4293      	cmp	r3, r2
 81010e4:	d04f      	beq.n	8101186 <HAL_DMA_Init+0x5c2>
 81010e6:	687b      	ldr	r3, [r7, #4]
 81010e8:	681b      	ldr	r3, [r3, #0]
 81010ea:	4a53      	ldr	r2, [pc, #332]	; (8101238 <HAL_DMA_Init+0x674>)
 81010ec:	4293      	cmp	r3, r2
 81010ee:	d04a      	beq.n	8101186 <HAL_DMA_Init+0x5c2>
 81010f0:	687b      	ldr	r3, [r7, #4]
 81010f2:	681b      	ldr	r3, [r3, #0]
 81010f4:	4a51      	ldr	r2, [pc, #324]	; (810123c <HAL_DMA_Init+0x678>)
 81010f6:	4293      	cmp	r3, r2
 81010f8:	d045      	beq.n	8101186 <HAL_DMA_Init+0x5c2>
 81010fa:	687b      	ldr	r3, [r7, #4]
 81010fc:	681b      	ldr	r3, [r3, #0]
 81010fe:	4a50      	ldr	r2, [pc, #320]	; (8101240 <HAL_DMA_Init+0x67c>)
 8101100:	4293      	cmp	r3, r2
 8101102:	d040      	beq.n	8101186 <HAL_DMA_Init+0x5c2>
 8101104:	687b      	ldr	r3, [r7, #4]
 8101106:	681b      	ldr	r3, [r3, #0]
 8101108:	4a4e      	ldr	r2, [pc, #312]	; (8101244 <HAL_DMA_Init+0x680>)
 810110a:	4293      	cmp	r3, r2
 810110c:	d03b      	beq.n	8101186 <HAL_DMA_Init+0x5c2>
 810110e:	687b      	ldr	r3, [r7, #4]
 8101110:	681b      	ldr	r3, [r3, #0]
 8101112:	4a4d      	ldr	r2, [pc, #308]	; (8101248 <HAL_DMA_Init+0x684>)
 8101114:	4293      	cmp	r3, r2
 8101116:	d036      	beq.n	8101186 <HAL_DMA_Init+0x5c2>
 8101118:	687b      	ldr	r3, [r7, #4]
 810111a:	681b      	ldr	r3, [r3, #0]
 810111c:	4a4b      	ldr	r2, [pc, #300]	; (810124c <HAL_DMA_Init+0x688>)
 810111e:	4293      	cmp	r3, r2
 8101120:	d031      	beq.n	8101186 <HAL_DMA_Init+0x5c2>
 8101122:	687b      	ldr	r3, [r7, #4]
 8101124:	681b      	ldr	r3, [r3, #0]
 8101126:	4a4a      	ldr	r2, [pc, #296]	; (8101250 <HAL_DMA_Init+0x68c>)
 8101128:	4293      	cmp	r3, r2
 810112a:	d02c      	beq.n	8101186 <HAL_DMA_Init+0x5c2>
 810112c:	687b      	ldr	r3, [r7, #4]
 810112e:	681b      	ldr	r3, [r3, #0]
 8101130:	4a48      	ldr	r2, [pc, #288]	; (8101254 <HAL_DMA_Init+0x690>)
 8101132:	4293      	cmp	r3, r2
 8101134:	d027      	beq.n	8101186 <HAL_DMA_Init+0x5c2>
 8101136:	687b      	ldr	r3, [r7, #4]
 8101138:	681b      	ldr	r3, [r3, #0]
 810113a:	4a47      	ldr	r2, [pc, #284]	; (8101258 <HAL_DMA_Init+0x694>)
 810113c:	4293      	cmp	r3, r2
 810113e:	d022      	beq.n	8101186 <HAL_DMA_Init+0x5c2>
 8101140:	687b      	ldr	r3, [r7, #4]
 8101142:	681b      	ldr	r3, [r3, #0]
 8101144:	4a45      	ldr	r2, [pc, #276]	; (810125c <HAL_DMA_Init+0x698>)
 8101146:	4293      	cmp	r3, r2
 8101148:	d01d      	beq.n	8101186 <HAL_DMA_Init+0x5c2>
 810114a:	687b      	ldr	r3, [r7, #4]
 810114c:	681b      	ldr	r3, [r3, #0]
 810114e:	4a44      	ldr	r2, [pc, #272]	; (8101260 <HAL_DMA_Init+0x69c>)
 8101150:	4293      	cmp	r3, r2
 8101152:	d018      	beq.n	8101186 <HAL_DMA_Init+0x5c2>
 8101154:	687b      	ldr	r3, [r7, #4]
 8101156:	681b      	ldr	r3, [r3, #0]
 8101158:	4a42      	ldr	r2, [pc, #264]	; (8101264 <HAL_DMA_Init+0x6a0>)
 810115a:	4293      	cmp	r3, r2
 810115c:	d013      	beq.n	8101186 <HAL_DMA_Init+0x5c2>
 810115e:	687b      	ldr	r3, [r7, #4]
 8101160:	681b      	ldr	r3, [r3, #0]
 8101162:	4a41      	ldr	r2, [pc, #260]	; (8101268 <HAL_DMA_Init+0x6a4>)
 8101164:	4293      	cmp	r3, r2
 8101166:	d00e      	beq.n	8101186 <HAL_DMA_Init+0x5c2>
 8101168:	687b      	ldr	r3, [r7, #4]
 810116a:	681b      	ldr	r3, [r3, #0]
 810116c:	4a3f      	ldr	r2, [pc, #252]	; (810126c <HAL_DMA_Init+0x6a8>)
 810116e:	4293      	cmp	r3, r2
 8101170:	d009      	beq.n	8101186 <HAL_DMA_Init+0x5c2>
 8101172:	687b      	ldr	r3, [r7, #4]
 8101174:	681b      	ldr	r3, [r3, #0]
 8101176:	4a3e      	ldr	r2, [pc, #248]	; (8101270 <HAL_DMA_Init+0x6ac>)
 8101178:	4293      	cmp	r3, r2
 810117a:	d004      	beq.n	8101186 <HAL_DMA_Init+0x5c2>
 810117c:	687b      	ldr	r3, [r7, #4]
 810117e:	681b      	ldr	r3, [r3, #0]
 8101180:	4a3c      	ldr	r2, [pc, #240]	; (8101274 <HAL_DMA_Init+0x6b0>)
 8101182:	4293      	cmp	r3, r2
 8101184:	d101      	bne.n	810118a <HAL_DMA_Init+0x5c6>
 8101186:	2301      	movs	r3, #1
 8101188:	e000      	b.n	810118c <HAL_DMA_Init+0x5c8>
 810118a:	2300      	movs	r3, #0
 810118c:	2b00      	cmp	r3, #0
 810118e:	d032      	beq.n	81011f6 <HAL_DMA_Init+0x632>
  {
    /* Initialize parameters for DMAMUX channel :
    DMAmuxChannel, DMAmuxChannelStatus and DMAmuxChannelStatusMask
    */
    DMA_CalcDMAMUXChannelBaseAndMask(hdma);
 8101190:	6878      	ldr	r0, [r7, #4]
 8101192:	f001 ff31 	bl	8102ff8 <DMA_CalcDMAMUXChannelBaseAndMask>

    if(hdma->Init.Direction == DMA_MEMORY_TO_MEMORY)
 8101196:	687b      	ldr	r3, [r7, #4]
 8101198:	689b      	ldr	r3, [r3, #8]
 810119a:	2b80      	cmp	r3, #128	; 0x80
 810119c:	d102      	bne.n	81011a4 <HAL_DMA_Init+0x5e0>
    {
      /* if memory to memory force the request to 0*/
      hdma->Init.Request = DMA_REQUEST_MEM2MEM;
 810119e:	687b      	ldr	r3, [r7, #4]
 81011a0:	2200      	movs	r2, #0
 81011a2:	605a      	str	r2, [r3, #4]
    }

    /* Set peripheral request  to DMAMUX channel */
    hdma->DMAmuxChannel->CCR = (hdma->Init.Request & DMAMUX_CxCR_DMAREQ_ID);
 81011a4:	687b      	ldr	r3, [r7, #4]
 81011a6:	685a      	ldr	r2, [r3, #4]
 81011a8:	687b      	ldr	r3, [r7, #4]
 81011aa:	6e1b      	ldr	r3, [r3, #96]	; 0x60
 81011ac:	b2d2      	uxtb	r2, r2
 81011ae:	601a      	str	r2, [r3, #0]

    /* Clear the DMAMUX synchro overrun flag */
    hdma->DMAmuxChannelStatus->CFR = hdma->DMAmuxChannelStatusMask;
 81011b0:	687b      	ldr	r3, [r7, #4]
 81011b2:	6e5b      	ldr	r3, [r3, #100]	; 0x64
 81011b4:	687a      	ldr	r2, [r7, #4]
 81011b6:	6e92      	ldr	r2, [r2, #104]	; 0x68
 81011b8:	605a      	str	r2, [r3, #4]

    /* Initialize parameters for DMAMUX request generator :
    if the DMA request is DMA_REQUEST_GENERATOR0 to DMA_REQUEST_GENERATOR7
    */
    if((hdma->Init.Request >= DMA_REQUEST_GENERATOR0) && (hdma->Init.Request <= DMA_REQUEST_GENERATOR7))
 81011ba:	687b      	ldr	r3, [r7, #4]
 81011bc:	685b      	ldr	r3, [r3, #4]
 81011be:	2b00      	cmp	r3, #0
 81011c0:	d010      	beq.n	81011e4 <HAL_DMA_Init+0x620>
 81011c2:	687b      	ldr	r3, [r7, #4]
 81011c4:	685b      	ldr	r3, [r3, #4]
 81011c6:	2b08      	cmp	r3, #8
 81011c8:	d80c      	bhi.n	81011e4 <HAL_DMA_Init+0x620>
    {
      /* Initialize parameters for DMAMUX request generator :
      DMAmuxRequestGen, DMAmuxRequestGenStatus and DMAmuxRequestGenStatusMask */
      DMA_CalcDMAMUXRequestGenBaseAndMask(hdma);
 81011ca:	6878      	ldr	r0, [r7, #4]
 81011cc:	f001 ffae 	bl	810312c <DMA_CalcDMAMUXRequestGenBaseAndMask>

      /* Reset the DMAMUX request generator register */
      hdma->DMAmuxRequestGen->RGCR = 0U;
 81011d0:	687b      	ldr	r3, [r7, #4]
 81011d2:	6edb      	ldr	r3, [r3, #108]	; 0x6c
 81011d4:	2200      	movs	r2, #0
 81011d6:	601a      	str	r2, [r3, #0]

      /* Clear the DMAMUX request generator overrun flag */
      hdma->DMAmuxRequestGenStatus->RGCFR = hdma->DMAmuxRequestGenStatusMask;
 81011d8:	687b      	ldr	r3, [r7, #4]
 81011da:	6f1b      	ldr	r3, [r3, #112]	; 0x70
 81011dc:	687a      	ldr	r2, [r7, #4]
 81011de:	6f52      	ldr	r2, [r2, #116]	; 0x74
 81011e0:	605a      	str	r2, [r3, #4]
 81011e2:	e008      	b.n	81011f6 <HAL_DMA_Init+0x632>
    }
    else
    {
      hdma->DMAmuxRequestGen = 0U;
 81011e4:	687b      	ldr	r3, [r7, #4]
 81011e6:	2200      	movs	r2, #0
 81011e8:	66da      	str	r2, [r3, #108]	; 0x6c
      hdma->DMAmuxRequestGenStatus = 0U;
 81011ea:	687b      	ldr	r3, [r7, #4]
 81011ec:	2200      	movs	r2, #0
 81011ee:	671a      	str	r2, [r3, #112]	; 0x70
      hdma->DMAmuxRequestGenStatusMask = 0U;
 81011f0:	687b      	ldr	r3, [r7, #4]
 81011f2:	2200      	movs	r2, #0
 81011f4:	675a      	str	r2, [r3, #116]	; 0x74
    }
  }

  /* Initialize the error code */
  hdma->ErrorCode = HAL_DMA_ERROR_NONE;
 81011f6:	687b      	ldr	r3, [r7, #4]
 81011f8:	2200      	movs	r2, #0
 81011fa:	655a      	str	r2, [r3, #84]	; 0x54

  /* Initialize the DMA state */
  hdma->State = HAL_DMA_STATE_READY;
 81011fc:	687b      	ldr	r3, [r7, #4]
 81011fe:	2201      	movs	r2, #1
 8101200:	f883 2035 	strb.w	r2, [r3, #53]	; 0x35

  return HAL_OK;
 8101204:	2300      	movs	r3, #0
}
 8101206:	4618      	mov	r0, r3
 8101208:	3718      	adds	r7, #24
 810120a:	46bd      	mov	sp, r7
 810120c:	bd80      	pop	{r7, pc}
 810120e:	bf00      	nop
 8101210:	a7fdabf8 	.word	0xa7fdabf8
 8101214:	cccccccd 	.word	0xcccccccd
 8101218:	40020010 	.word	0x40020010
 810121c:	40020028 	.word	0x40020028
 8101220:	40020040 	.word	0x40020040
 8101224:	40020058 	.word	0x40020058
 8101228:	40020070 	.word	0x40020070
 810122c:	40020088 	.word	0x40020088
 8101230:	400200a0 	.word	0x400200a0
 8101234:	400200b8 	.word	0x400200b8
 8101238:	40020410 	.word	0x40020410
 810123c:	40020428 	.word	0x40020428
 8101240:	40020440 	.word	0x40020440
 8101244:	40020458 	.word	0x40020458
 8101248:	40020470 	.word	0x40020470
 810124c:	40020488 	.word	0x40020488
 8101250:	400204a0 	.word	0x400204a0
 8101254:	400204b8 	.word	0x400204b8
 8101258:	58025408 	.word	0x58025408
 810125c:	5802541c 	.word	0x5802541c
 8101260:	58025430 	.word	0x58025430
 8101264:	58025444 	.word	0x58025444
 8101268:	58025458 	.word	0x58025458
 810126c:	5802546c 	.word	0x5802546c
 8101270:	58025480 	.word	0x58025480
 8101274:	58025494 	.word	0x58025494

08101278 <HAL_DMA_Start_IT>:
  * @param  DstAddress: The destination memory Buffer address
  * @param  DataLength: The length of data to be transferred from source to destination
  * @retval HAL status
  */
HAL_StatusTypeDef HAL_DMA_Start_IT(DMA_HandleTypeDef *hdma, uint32_t SrcAddress, uint32_t DstAddress, uint32_t DataLength)
{
 8101278:	b580      	push	{r7, lr}
 810127a:	b086      	sub	sp, #24
 810127c:	af00      	add	r7, sp, #0
 810127e:	60f8      	str	r0, [r7, #12]
 8101280:	60b9      	str	r1, [r7, #8]
 8101282:	607a      	str	r2, [r7, #4]
 8101284:	603b      	str	r3, [r7, #0]
  HAL_StatusTypeDef status = HAL_OK;
 8101286:	2300      	movs	r3, #0
 8101288:	75fb      	strb	r3, [r7, #23]

  /* Check the parameters */
  assert_param(IS_DMA_BUFFER_SIZE(DataLength));

  /* Check the DMA peripheral handle */
  if(hdma == NULL)
 810128a:	68fb      	ldr	r3, [r7, #12]
 810128c:	2b00      	cmp	r3, #0
 810128e:	d101      	bne.n	8101294 <HAL_DMA_Start_IT+0x1c>
  {
    return HAL_ERROR;
 8101290:	2301      	movs	r3, #1
 8101292:	e226      	b.n	81016e2 <HAL_DMA_Start_IT+0x46a>
  }

  /* Process locked */
  __HAL_LOCK(hdma);
 8101294:	68fb      	ldr	r3, [r7, #12]
 8101296:	f893 3034 	ldrb.w	r3, [r3, #52]	; 0x34
 810129a:	2b01      	cmp	r3, #1
 810129c:	d101      	bne.n	81012a2 <HAL_DMA_Start_IT+0x2a>
 810129e:	2302      	movs	r3, #2
 81012a0:	e21f      	b.n	81016e2 <HAL_DMA_Start_IT+0x46a>
 81012a2:	68fb      	ldr	r3, [r7, #12]
 81012a4:	2201      	movs	r2, #1
 81012a6:	f883 2034 	strb.w	r2, [r3, #52]	; 0x34

  if(HAL_DMA_STATE_READY == hdma->State)
 81012aa:	68fb      	ldr	r3, [r7, #12]
 81012ac:	f893 3035 	ldrb.w	r3, [r3, #53]	; 0x35
 81012b0:	b2db      	uxtb	r3, r3
 81012b2:	2b01      	cmp	r3, #1
 81012b4:	f040 820a 	bne.w	81016cc <HAL_DMA_Start_IT+0x454>
  {
    /* Change DMA peripheral state */
    hdma->State = HAL_DMA_STATE_BUSY;
 81012b8:	68fb      	ldr	r3, [r7, #12]
 81012ba:	2202      	movs	r2, #2
 81012bc:	f883 2035 	strb.w	r2, [r3, #53]	; 0x35

    /* Initialize the error code */
    hdma->ErrorCode = HAL_DMA_ERROR_NONE;
 81012c0:	68fb      	ldr	r3, [r7, #12]
 81012c2:	2200      	movs	r2, #0
 81012c4:	655a      	str	r2, [r3, #84]	; 0x54

    /* Disable the peripheral */
    __HAL_DMA_DISABLE(hdma);
 81012c6:	68fb      	ldr	r3, [r7, #12]
 81012c8:	681b      	ldr	r3, [r3, #0]
 81012ca:	4a68      	ldr	r2, [pc, #416]	; (810146c <HAL_DMA_Start_IT+0x1f4>)
 81012cc:	4293      	cmp	r3, r2
 81012ce:	d04a      	beq.n	8101366 <HAL_DMA_Start_IT+0xee>
 81012d0:	68fb      	ldr	r3, [r7, #12]
 81012d2:	681b      	ldr	r3, [r3, #0]
 81012d4:	4a66      	ldr	r2, [pc, #408]	; (8101470 <HAL_DMA_Start_IT+0x1f8>)
 81012d6:	4293      	cmp	r3, r2
 81012d8:	d045      	beq.n	8101366 <HAL_DMA_Start_IT+0xee>
 81012da:	68fb      	ldr	r3, [r7, #12]
 81012dc:	681b      	ldr	r3, [r3, #0]
 81012de:	4a65      	ldr	r2, [pc, #404]	; (8101474 <HAL_DMA_Start_IT+0x1fc>)
 81012e0:	4293      	cmp	r3, r2
 81012e2:	d040      	beq.n	8101366 <HAL_DMA_Start_IT+0xee>
 81012e4:	68fb      	ldr	r3, [r7, #12]
 81012e6:	681b      	ldr	r3, [r3, #0]
 81012e8:	4a63      	ldr	r2, [pc, #396]	; (8101478 <HAL_DMA_Start_IT+0x200>)
 81012ea:	4293      	cmp	r3, r2
 81012ec:	d03b      	beq.n	8101366 <HAL_DMA_Start_IT+0xee>
 81012ee:	68fb      	ldr	r3, [r7, #12]
 81012f0:	681b      	ldr	r3, [r3, #0]
 81012f2:	4a62      	ldr	r2, [pc, #392]	; (810147c <HAL_DMA_Start_IT+0x204>)
 81012f4:	4293      	cmp	r3, r2
 81012f6:	d036      	beq.n	8101366 <HAL_DMA_Start_IT+0xee>
 81012f8:	68fb      	ldr	r3, [r7, #12]
 81012fa:	681b      	ldr	r3, [r3, #0]
 81012fc:	4a60      	ldr	r2, [pc, #384]	; (8101480 <HAL_DMA_Start_IT+0x208>)
 81012fe:	4293      	cmp	r3, r2
 8101300:	d031      	beq.n	8101366 <HAL_DMA_Start_IT+0xee>
 8101302:	68fb      	ldr	r3, [r7, #12]
 8101304:	681b      	ldr	r3, [r3, #0]
 8101306:	4a5f      	ldr	r2, [pc, #380]	; (8101484 <HAL_DMA_Start_IT+0x20c>)
 8101308:	4293      	cmp	r3, r2
 810130a:	d02c      	beq.n	8101366 <HAL_DMA_Start_IT+0xee>
 810130c:	68fb      	ldr	r3, [r7, #12]
 810130e:	681b      	ldr	r3, [r3, #0]
 8101310:	4a5d      	ldr	r2, [pc, #372]	; (8101488 <HAL_DMA_Start_IT+0x210>)
 8101312:	4293      	cmp	r3, r2
 8101314:	d027      	beq.n	8101366 <HAL_DMA_Start_IT+0xee>
 8101316:	68fb      	ldr	r3, [r7, #12]
 8101318:	681b      	ldr	r3, [r3, #0]
 810131a:	4a5c      	ldr	r2, [pc, #368]	; (810148c <HAL_DMA_Start_IT+0x214>)
 810131c:	4293      	cmp	r3, r2
 810131e:	d022      	beq.n	8101366 <HAL_DMA_Start_IT+0xee>
 8101320:	68fb      	ldr	r3, [r7, #12]
 8101322:	681b      	ldr	r3, [r3, #0]
 8101324:	4a5a      	ldr	r2, [pc, #360]	; (8101490 <HAL_DMA_Start_IT+0x218>)
 8101326:	4293      	cmp	r3, r2
 8101328:	d01d      	beq.n	8101366 <HAL_DMA_Start_IT+0xee>
 810132a:	68fb      	ldr	r3, [r7, #12]
 810132c:	681b      	ldr	r3, [r3, #0]
 810132e:	4a59      	ldr	r2, [pc, #356]	; (8101494 <HAL_DMA_Start_IT+0x21c>)
 8101330:	4293      	cmp	r3, r2
 8101332:	d018      	beq.n	8101366 <HAL_DMA_Start_IT+0xee>
 8101334:	68fb      	ldr	r3, [r7, #12]
 8101336:	681b      	ldr	r3, [r3, #0]
 8101338:	4a57      	ldr	r2, [pc, #348]	; (8101498 <HAL_DMA_Start_IT+0x220>)
 810133a:	4293      	cmp	r3, r2
 810133c:	d013      	beq.n	8101366 <HAL_DMA_Start_IT+0xee>
 810133e:	68fb      	ldr	r3, [r7, #12]
 8101340:	681b      	ldr	r3, [r3, #0]
 8101342:	4a56      	ldr	r2, [pc, #344]	; (810149c <HAL_DMA_Start_IT+0x224>)
 8101344:	4293      	cmp	r3, r2
 8101346:	d00e      	beq.n	8101366 <HAL_DMA_Start_IT+0xee>
 8101348:	68fb      	ldr	r3, [r7, #12]
 810134a:	681b      	ldr	r3, [r3, #0]
 810134c:	4a54      	ldr	r2, [pc, #336]	; (81014a0 <HAL_DMA_Start_IT+0x228>)
 810134e:	4293      	cmp	r3, r2
 8101350:	d009      	beq.n	8101366 <HAL_DMA_Start_IT+0xee>
 8101352:	68fb      	ldr	r3, [r7, #12]
 8101354:	681b      	ldr	r3, [r3, #0]
 8101356:	4a53      	ldr	r2, [pc, #332]	; (81014a4 <HAL_DMA_Start_IT+0x22c>)
 8101358:	4293      	cmp	r3, r2
 810135a:	d004      	beq.n	8101366 <HAL_DMA_Start_IT+0xee>
 810135c:	68fb      	ldr	r3, [r7, #12]
 810135e:	681b      	ldr	r3, [r3, #0]
 8101360:	4a51      	ldr	r2, [pc, #324]	; (81014a8 <HAL_DMA_Start_IT+0x230>)
 8101362:	4293      	cmp	r3, r2
 8101364:	d108      	bne.n	8101378 <HAL_DMA_Start_IT+0x100>
 8101366:	68fb      	ldr	r3, [r7, #12]
 8101368:	681b      	ldr	r3, [r3, #0]
 810136a:	681a      	ldr	r2, [r3, #0]
 810136c:	68fb      	ldr	r3, [r7, #12]
 810136e:	681b      	ldr	r3, [r3, #0]
 8101370:	f022 0201 	bic.w	r2, r2, #1
 8101374:	601a      	str	r2, [r3, #0]
 8101376:	e007      	b.n	8101388 <HAL_DMA_Start_IT+0x110>
 8101378:	68fb      	ldr	r3, [r7, #12]
 810137a:	681b      	ldr	r3, [r3, #0]
 810137c:	681a      	ldr	r2, [r3, #0]
 810137e:	68fb      	ldr	r3, [r7, #12]
 8101380:	681b      	ldr	r3, [r3, #0]
 8101382:	f022 0201 	bic.w	r2, r2, #1
 8101386:	601a      	str	r2, [r3, #0]

    /* Configure the source, destination address and the data length */
    DMA_SetConfig(hdma, SrcAddress, DstAddress, DataLength);
 8101388:	683b      	ldr	r3, [r7, #0]
 810138a:	687a      	ldr	r2, [r7, #4]
 810138c:	68b9      	ldr	r1, [r7, #8]
 810138e:	68f8      	ldr	r0, [r7, #12]
 8101390:	f001 fb58 	bl	8102a44 <DMA_SetConfig>

    if(IS_DMA_STREAM_INSTANCE(hdma->Instance) != 0U) /* DMA1 or DMA2 instance */
 8101394:	68fb      	ldr	r3, [r7, #12]
 8101396:	681b      	ldr	r3, [r3, #0]
 8101398:	4a34      	ldr	r2, [pc, #208]	; (810146c <HAL_DMA_Start_IT+0x1f4>)
 810139a:	4293      	cmp	r3, r2
 810139c:	d04a      	beq.n	8101434 <HAL_DMA_Start_IT+0x1bc>
 810139e:	68fb      	ldr	r3, [r7, #12]
 81013a0:	681b      	ldr	r3, [r3, #0]
 81013a2:	4a33      	ldr	r2, [pc, #204]	; (8101470 <HAL_DMA_Start_IT+0x1f8>)
 81013a4:	4293      	cmp	r3, r2
 81013a6:	d045      	beq.n	8101434 <HAL_DMA_Start_IT+0x1bc>
 81013a8:	68fb      	ldr	r3, [r7, #12]
 81013aa:	681b      	ldr	r3, [r3, #0]
 81013ac:	4a31      	ldr	r2, [pc, #196]	; (8101474 <HAL_DMA_Start_IT+0x1fc>)
 81013ae:	4293      	cmp	r3, r2
 81013b0:	d040      	beq.n	8101434 <HAL_DMA_Start_IT+0x1bc>
 81013b2:	68fb      	ldr	r3, [r7, #12]
 81013b4:	681b      	ldr	r3, [r3, #0]
 81013b6:	4a30      	ldr	r2, [pc, #192]	; (8101478 <HAL_DMA_Start_IT+0x200>)
 81013b8:	4293      	cmp	r3, r2
 81013ba:	d03b      	beq.n	8101434 <HAL_DMA_Start_IT+0x1bc>
 81013bc:	68fb      	ldr	r3, [r7, #12]
 81013be:	681b      	ldr	r3, [r3, #0]
 81013c0:	4a2e      	ldr	r2, [pc, #184]	; (810147c <HAL_DMA_Start_IT+0x204>)
 81013c2:	4293      	cmp	r3, r2
 81013c4:	d036      	beq.n	8101434 <HAL_DMA_Start_IT+0x1bc>
 81013c6:	68fb      	ldr	r3, [r7, #12]
 81013c8:	681b      	ldr	r3, [r3, #0]
 81013ca:	4a2d      	ldr	r2, [pc, #180]	; (8101480 <HAL_DMA_Start_IT+0x208>)
 81013cc:	4293      	cmp	r3, r2
 81013ce:	d031      	beq.n	8101434 <HAL_DMA_Start_IT+0x1bc>
 81013d0:	68fb      	ldr	r3, [r7, #12]
 81013d2:	681b      	ldr	r3, [r3, #0]
 81013d4:	4a2b      	ldr	r2, [pc, #172]	; (8101484 <HAL_DMA_Start_IT+0x20c>)
 81013d6:	4293      	cmp	r3, r2
 81013d8:	d02c      	beq.n	8101434 <HAL_DMA_Start_IT+0x1bc>
 81013da:	68fb      	ldr	r3, [r7, #12]
 81013dc:	681b      	ldr	r3, [r3, #0]
 81013de:	4a2a      	ldr	r2, [pc, #168]	; (8101488 <HAL_DMA_Start_IT+0x210>)
 81013e0:	4293      	cmp	r3, r2
 81013e2:	d027      	beq.n	8101434 <HAL_DMA_Start_IT+0x1bc>
 81013e4:	68fb      	ldr	r3, [r7, #12]
 81013e6:	681b      	ldr	r3, [r3, #0]
 81013e8:	4a28      	ldr	r2, [pc, #160]	; (810148c <HAL_DMA_Start_IT+0x214>)
 81013ea:	4293      	cmp	r3, r2
 81013ec:	d022      	beq.n	8101434 <HAL_DMA_Start_IT+0x1bc>
 81013ee:	68fb      	ldr	r3, [r7, #12]
 81013f0:	681b      	ldr	r3, [r3, #0]
 81013f2:	4a27      	ldr	r2, [pc, #156]	; (8101490 <HAL_DMA_Start_IT+0x218>)
 81013f4:	4293      	cmp	r3, r2
 81013f6:	d01d      	beq.n	8101434 <HAL_DMA_Start_IT+0x1bc>
 81013f8:	68fb      	ldr	r3, [r7, #12]
 81013fa:	681b      	ldr	r3, [r3, #0]
 81013fc:	4a25      	ldr	r2, [pc, #148]	; (8101494 <HAL_DMA_Start_IT+0x21c>)
 81013fe:	4293      	cmp	r3, r2
 8101400:	d018      	beq.n	8101434 <HAL_DMA_Start_IT+0x1bc>
 8101402:	68fb      	ldr	r3, [r7, #12]
 8101404:	681b      	ldr	r3, [r3, #0]
 8101406:	4a24      	ldr	r2, [pc, #144]	; (8101498 <HAL_DMA_Start_IT+0x220>)
 8101408:	4293      	cmp	r3, r2
 810140a:	d013      	beq.n	8101434 <HAL_DMA_Start_IT+0x1bc>
 810140c:	68fb      	ldr	r3, [r7, #12]
 810140e:	681b      	ldr	r3, [r3, #0]
 8101410:	4a22      	ldr	r2, [pc, #136]	; (810149c <HAL_DMA_Start_IT+0x224>)
 8101412:	4293      	cmp	r3, r2
 8101414:	d00e      	beq.n	8101434 <HAL_DMA_Start_IT+0x1bc>
 8101416:	68fb      	ldr	r3, [r7, #12]
 8101418:	681b      	ldr	r3, [r3, #0]
 810141a:	4a21      	ldr	r2, [pc, #132]	; (81014a0 <HAL_DMA_Start_IT+0x228>)
 810141c:	4293      	cmp	r3, r2
 810141e:	d009      	beq.n	8101434 <HAL_DMA_Start_IT+0x1bc>
 8101420:	68fb      	ldr	r3, [r7, #12]
 8101422:	681b      	ldr	r3, [r3, #0]
 8101424:	4a1f      	ldr	r2, [pc, #124]	; (81014a4 <HAL_DMA_Start_IT+0x22c>)
 8101426:	4293      	cmp	r3, r2
 8101428:	d004      	beq.n	8101434 <HAL_DMA_Start_IT+0x1bc>
 810142a:	68fb      	ldr	r3, [r7, #12]
 810142c:	681b      	ldr	r3, [r3, #0]
 810142e:	4a1e      	ldr	r2, [pc, #120]	; (81014a8 <HAL_DMA_Start_IT+0x230>)
 8101430:	4293      	cmp	r3, r2
 8101432:	d101      	bne.n	8101438 <HAL_DMA_Start_IT+0x1c0>
 8101434:	2301      	movs	r3, #1
 8101436:	e000      	b.n	810143a <HAL_DMA_Start_IT+0x1c2>
 8101438:	2300      	movs	r3, #0
 810143a:	2b00      	cmp	r3, #0
 810143c:	d036      	beq.n	81014ac <HAL_DMA_Start_IT+0x234>
    {
      /* Enable Common interrupts*/
      MODIFY_REG(((DMA_Stream_TypeDef   *)hdma->Instance)->CR, (DMA_IT_TC | DMA_IT_TE | DMA_IT_DME | DMA_IT_HT), (DMA_IT_TC | DMA_IT_TE | DMA_IT_DME));
 810143e:	68fb      	ldr	r3, [r7, #12]
 8101440:	681b      	ldr	r3, [r3, #0]
 8101442:	681b      	ldr	r3, [r3, #0]
 8101444:	f023 021e 	bic.w	r2, r3, #30
 8101448:	68fb      	ldr	r3, [r7, #12]
 810144a:	681b      	ldr	r3, [r3, #0]
 810144c:	f042 0216 	orr.w	r2, r2, #22
 8101450:	601a      	str	r2, [r3, #0]

      if(hdma->XferHalfCpltCallback != NULL)
 8101452:	68fb      	ldr	r3, [r7, #12]
 8101454:	6c1b      	ldr	r3, [r3, #64]	; 0x40
 8101456:	2b00      	cmp	r3, #0
 8101458:	d03e      	beq.n	81014d8 <HAL_DMA_Start_IT+0x260>
      {
        /* Enable Half Transfer IT if corresponding Callback is set */
        ((DMA_Stream_TypeDef   *)hdma->Instance)->CR  |= DMA_IT_HT;
 810145a:	68fb      	ldr	r3, [r7, #12]
 810145c:	681b      	ldr	r3, [r3, #0]
 810145e:	681a      	ldr	r2, [r3, #0]
 8101460:	68fb      	ldr	r3, [r7, #12]
 8101462:	681b      	ldr	r3, [r3, #0]
 8101464:	f042 0208 	orr.w	r2, r2, #8
 8101468:	601a      	str	r2, [r3, #0]
 810146a:	e035      	b.n	81014d8 <HAL_DMA_Start_IT+0x260>
 810146c:	40020010 	.word	0x40020010
 8101470:	40020028 	.word	0x40020028
 8101474:	40020040 	.word	0x40020040
 8101478:	40020058 	.word	0x40020058
 810147c:	40020070 	.word	0x40020070
 8101480:	40020088 	.word	0x40020088
 8101484:	400200a0 	.word	0x400200a0
 8101488:	400200b8 	.word	0x400200b8
 810148c:	40020410 	.word	0x40020410
 8101490:	40020428 	.word	0x40020428
 8101494:	40020440 	.word	0x40020440
 8101498:	40020458 	.word	0x40020458
 810149c:	40020470 	.word	0x40020470
 81014a0:	40020488 	.word	0x40020488
 81014a4:	400204a0 	.word	0x400204a0
 81014a8:	400204b8 	.word	0x400204b8
      }
    }
    else /* BDMA channel */
    {
      /* Enable Common interrupts */
      MODIFY_REG(((BDMA_Channel_TypeDef   *)hdma->Instance)->CCR, (BDMA_CCR_TCIE | BDMA_CCR_HTIE | BDMA_CCR_TEIE), (BDMA_CCR_TCIE | BDMA_CCR_TEIE));
 81014ac:	68fb      	ldr	r3, [r7, #12]
 81014ae:	681b      	ldr	r3, [r3, #0]
 81014b0:	681b      	ldr	r3, [r3, #0]
 81014b2:	f023 020e 	bic.w	r2, r3, #14
 81014b6:	68fb      	ldr	r3, [r7, #12]
 81014b8:	681b      	ldr	r3, [r3, #0]
 81014ba:	f042 020a 	orr.w	r2, r2, #10
 81014be:	601a      	str	r2, [r3, #0]

      if(hdma->XferHalfCpltCallback != NULL)
 81014c0:	68fb      	ldr	r3, [r7, #12]
 81014c2:	6c1b      	ldr	r3, [r3, #64]	; 0x40
 81014c4:	2b00      	cmp	r3, #0
 81014c6:	d007      	beq.n	81014d8 <HAL_DMA_Start_IT+0x260>
      {
        /*Enable Half Transfer IT if corresponding Callback is set */
        ((BDMA_Channel_TypeDef   *)hdma->Instance)->CCR  |= BDMA_CCR_HTIE;
 81014c8:	68fb      	ldr	r3, [r7, #12]
 81014ca:	681b      	ldr	r3, [r3, #0]
 81014cc:	681a      	ldr	r2, [r3, #0]
 81014ce:	68fb      	ldr	r3, [r7, #12]
 81014d0:	681b      	ldr	r3, [r3, #0]
 81014d2:	f042 0204 	orr.w	r2, r2, #4
 81014d6:	601a      	str	r2, [r3, #0]
      }
    }

    if(IS_DMA_DMAMUX_ALL_INSTANCE(hdma->Instance) != 0U) /* No DMAMUX available for BDMA1 */
 81014d8:	68fb      	ldr	r3, [r7, #12]
 81014da:	681b      	ldr	r3, [r3, #0]
 81014dc:	4a83      	ldr	r2, [pc, #524]	; (81016ec <HAL_DMA_Start_IT+0x474>)
 81014de:	4293      	cmp	r3, r2
 81014e0:	d072      	beq.n	81015c8 <HAL_DMA_Start_IT+0x350>
 81014e2:	68fb      	ldr	r3, [r7, #12]
 81014e4:	681b      	ldr	r3, [r3, #0]
 81014e6:	4a82      	ldr	r2, [pc, #520]	; (81016f0 <HAL_DMA_Start_IT+0x478>)
 81014e8:	4293      	cmp	r3, r2
 81014ea:	d06d      	beq.n	81015c8 <HAL_DMA_Start_IT+0x350>
 81014ec:	68fb      	ldr	r3, [r7, #12]
 81014ee:	681b      	ldr	r3, [r3, #0]
 81014f0:	4a80      	ldr	r2, [pc, #512]	; (81016f4 <HAL_DMA_Start_IT+0x47c>)
 81014f2:	4293      	cmp	r3, r2
 81014f4:	d068      	beq.n	81015c8 <HAL_DMA_Start_IT+0x350>
 81014f6:	68fb      	ldr	r3, [r7, #12]
 81014f8:	681b      	ldr	r3, [r3, #0]
 81014fa:	4a7f      	ldr	r2, [pc, #508]	; (81016f8 <HAL_DMA_Start_IT+0x480>)
 81014fc:	4293      	cmp	r3, r2
 81014fe:	d063      	beq.n	81015c8 <HAL_DMA_Start_IT+0x350>
 8101500:	68fb      	ldr	r3, [r7, #12]
 8101502:	681b      	ldr	r3, [r3, #0]
 8101504:	4a7d      	ldr	r2, [pc, #500]	; (81016fc <HAL_DMA_Start_IT+0x484>)
 8101506:	4293      	cmp	r3, r2
 8101508:	d05e      	beq.n	81015c8 <HAL_DMA_Start_IT+0x350>
 810150a:	68fb      	ldr	r3, [r7, #12]
 810150c:	681b      	ldr	r3, [r3, #0]
 810150e:	4a7c      	ldr	r2, [pc, #496]	; (8101700 <HAL_DMA_Start_IT+0x488>)
 8101510:	4293      	cmp	r3, r2
 8101512:	d059      	beq.n	81015c8 <HAL_DMA_Start_IT+0x350>
 8101514:	68fb      	ldr	r3, [r7, #12]
 8101516:	681b      	ldr	r3, [r3, #0]
 8101518:	4a7a      	ldr	r2, [pc, #488]	; (8101704 <HAL_DMA_Start_IT+0x48c>)
 810151a:	4293      	cmp	r3, r2
 810151c:	d054      	beq.n	81015c8 <HAL_DMA_Start_IT+0x350>
 810151e:	68fb      	ldr	r3, [r7, #12]
 8101520:	681b      	ldr	r3, [r3, #0]
 8101522:	4a79      	ldr	r2, [pc, #484]	; (8101708 <HAL_DMA_Start_IT+0x490>)
 8101524:	4293      	cmp	r3, r2
 8101526:	d04f      	beq.n	81015c8 <HAL_DMA_Start_IT+0x350>
 8101528:	68fb      	ldr	r3, [r7, #12]
 810152a:	681b      	ldr	r3, [r3, #0]
 810152c:	4a77      	ldr	r2, [pc, #476]	; (810170c <HAL_DMA_Start_IT+0x494>)
 810152e:	4293      	cmp	r3, r2
 8101530:	d04a      	beq.n	81015c8 <HAL_DMA_Start_IT+0x350>
 8101532:	68fb      	ldr	r3, [r7, #12]
 8101534:	681b      	ldr	r3, [r3, #0]
 8101536:	4a76      	ldr	r2, [pc, #472]	; (8101710 <HAL_DMA_Start_IT+0x498>)
 8101538:	4293      	cmp	r3, r2
 810153a:	d045      	beq.n	81015c8 <HAL_DMA_Start_IT+0x350>
 810153c:	68fb      	ldr	r3, [r7, #12]
 810153e:	681b      	ldr	r3, [r3, #0]
 8101540:	4a74      	ldr	r2, [pc, #464]	; (8101714 <HAL_DMA_Start_IT+0x49c>)
 8101542:	4293      	cmp	r3, r2
 8101544:	d040      	beq.n	81015c8 <HAL_DMA_Start_IT+0x350>
 8101546:	68fb      	ldr	r3, [r7, #12]
 8101548:	681b      	ldr	r3, [r3, #0]
 810154a:	4a73      	ldr	r2, [pc, #460]	; (8101718 <HAL_DMA_Start_IT+0x4a0>)
 810154c:	4293      	cmp	r3, r2
 810154e:	d03b      	beq.n	81015c8 <HAL_DMA_Start_IT+0x350>
 8101550:	68fb      	ldr	r3, [r7, #12]
 8101552:	681b      	ldr	r3, [r3, #0]
 8101554:	4a71      	ldr	r2, [pc, #452]	; (810171c <HAL_DMA_Start_IT+0x4a4>)
 8101556:	4293      	cmp	r3, r2
 8101558:	d036      	beq.n	81015c8 <HAL_DMA_Start_IT+0x350>
 810155a:	68fb      	ldr	r3, [r7, #12]
 810155c:	681b      	ldr	r3, [r3, #0]
 810155e:	4a70      	ldr	r2, [pc, #448]	; (8101720 <HAL_DMA_Start_IT+0x4a8>)
 8101560:	4293      	cmp	r3, r2
 8101562:	d031      	beq.n	81015c8 <HAL_DMA_Start_IT+0x350>
 8101564:	68fb      	ldr	r3, [r7, #12]
 8101566:	681b      	ldr	r3, [r3, #0]
 8101568:	4a6e      	ldr	r2, [pc, #440]	; (8101724 <HAL_DMA_Start_IT+0x4ac>)
 810156a:	4293      	cmp	r3, r2
 810156c:	d02c      	beq.n	81015c8 <HAL_DMA_Start_IT+0x350>
 810156e:	68fb      	ldr	r3, [r7, #12]
 8101570:	681b      	ldr	r3, [r3, #0]
 8101572:	4a6d      	ldr	r2, [pc, #436]	; (8101728 <HAL_DMA_Start_IT+0x4b0>)
 8101574:	4293      	cmp	r3, r2
 8101576:	d027      	beq.n	81015c8 <HAL_DMA_Start_IT+0x350>
 8101578:	68fb      	ldr	r3, [r7, #12]
 810157a:	681b      	ldr	r3, [r3, #0]
 810157c:	4a6b      	ldr	r2, [pc, #428]	; (810172c <HAL_DMA_Start_IT+0x4b4>)
 810157e:	4293      	cmp	r3, r2
 8101580:	d022      	beq.n	81015c8 <HAL_DMA_Start_IT+0x350>
 8101582:	68fb      	ldr	r3, [r7, #12]
 8101584:	681b      	ldr	r3, [r3, #0]
 8101586:	4a6a      	ldr	r2, [pc, #424]	; (8101730 <HAL_DMA_Start_IT+0x4b8>)
 8101588:	4293      	cmp	r3, r2
 810158a:	d01d      	beq.n	81015c8 <HAL_DMA_Start_IT+0x350>
 810158c:	68fb      	ldr	r3, [r7, #12]
 810158e:	681b      	ldr	r3, [r3, #0]
 8101590:	4a68      	ldr	r2, [pc, #416]	; (8101734 <HAL_DMA_Start_IT+0x4bc>)
 8101592:	4293      	cmp	r3, r2
 8101594:	d018      	beq.n	81015c8 <HAL_DMA_Start_IT+0x350>
 8101596:	68fb      	ldr	r3, [r7, #12]
 8101598:	681b      	ldr	r3, [r3, #0]
 810159a:	4a67      	ldr	r2, [pc, #412]	; (8101738 <HAL_DMA_Start_IT+0x4c0>)
 810159c:	4293      	cmp	r3, r2
 810159e:	d013      	beq.n	81015c8 <HAL_DMA_Start_IT+0x350>
 81015a0:	68fb      	ldr	r3, [r7, #12]
 81015a2:	681b      	ldr	r3, [r3, #0]
 81015a4:	4a65      	ldr	r2, [pc, #404]	; (810173c <HAL_DMA_Start_IT+0x4c4>)
 81015a6:	4293      	cmp	r3, r2
 81015a8:	d00e      	beq.n	81015c8 <HAL_DMA_Start_IT+0x350>
 81015aa:	68fb      	ldr	r3, [r7, #12]
 81015ac:	681b      	ldr	r3, [r3, #0]
 81015ae:	4a64      	ldr	r2, [pc, #400]	; (8101740 <HAL_DMA_Start_IT+0x4c8>)
 81015b0:	4293      	cmp	r3, r2
 81015b2:	d009      	beq.n	81015c8 <HAL_DMA_Start_IT+0x350>
 81015b4:	68fb      	ldr	r3, [r7, #12]
 81015b6:	681b      	ldr	r3, [r3, #0]
 81015b8:	4a62      	ldr	r2, [pc, #392]	; (8101744 <HAL_DMA_Start_IT+0x4cc>)
 81015ba:	4293      	cmp	r3, r2
 81015bc:	d004      	beq.n	81015c8 <HAL_DMA_Start_IT+0x350>
 81015be:	68fb      	ldr	r3, [r7, #12]
 81015c0:	681b      	ldr	r3, [r3, #0]
 81015c2:	4a61      	ldr	r2, [pc, #388]	; (8101748 <HAL_DMA_Start_IT+0x4d0>)
 81015c4:	4293      	cmp	r3, r2
 81015c6:	d101      	bne.n	81015cc <HAL_DMA_Start_IT+0x354>
 81015c8:	2301      	movs	r3, #1
 81015ca:	e000      	b.n	81015ce <HAL_DMA_Start_IT+0x356>
 81015cc:	2300      	movs	r3, #0
 81015ce:	2b00      	cmp	r3, #0
 81015d0:	d01a      	beq.n	8101608 <HAL_DMA_Start_IT+0x390>
    {
      /* Check if DMAMUX Synchronization is enabled */
      if((hdma->DMAmuxChannel->CCR & DMAMUX_CxCR_SE) != 0U)
 81015d2:	68fb      	ldr	r3, [r7, #12]
 81015d4:	6e1b      	ldr	r3, [r3, #96]	; 0x60
 81015d6:	681b      	ldr	r3, [r3, #0]
 81015d8:	f403 3380 	and.w	r3, r3, #65536	; 0x10000
 81015dc:	2b00      	cmp	r3, #0
 81015de:	d007      	beq.n	81015f0 <HAL_DMA_Start_IT+0x378>
      {
        /* Enable DMAMUX sync overrun IT*/
        hdma->DMAmuxChannel->CCR |= DMAMUX_CxCR_SOIE;
 81015e0:	68fb      	ldr	r3, [r7, #12]
 81015e2:	6e1b      	ldr	r3, [r3, #96]	; 0x60
 81015e4:	681a      	ldr	r2, [r3, #0]
 81015e6:	68fb      	ldr	r3, [r7, #12]
 81015e8:	6e1b      	ldr	r3, [r3, #96]	; 0x60
 81015ea:	f442 7280 	orr.w	r2, r2, #256	; 0x100
 81015ee:	601a      	str	r2, [r3, #0]
      }

      if(hdma->DMAmuxRequestGen != 0U)
 81015f0:	68fb      	ldr	r3, [r7, #12]
 81015f2:	6edb      	ldr	r3, [r3, #108]	; 0x6c
 81015f4:	2b00      	cmp	r3, #0
 81015f6:	d007      	beq.n	8101608 <HAL_DMA_Start_IT+0x390>
      {
        /* if using DMAMUX request generator, enable the DMAMUX request generator overrun IT*/
        /* enable the request gen overrun IT */
        hdma->DMAmuxRequestGen->RGCR |= DMAMUX_RGxCR_OIE;
 81015f8:	68fb      	ldr	r3, [r7, #12]
 81015fa:	6edb      	ldr	r3, [r3, #108]	; 0x6c
 81015fc:	681a      	ldr	r2, [r3, #0]
 81015fe:	68fb      	ldr	r3, [r7, #12]
 8101600:	6edb      	ldr	r3, [r3, #108]	; 0x6c
 8101602:	f442 7280 	orr.w	r2, r2, #256	; 0x100
 8101606:	601a      	str	r2, [r3, #0]
      }
    }

    /* Enable the Peripheral */
    __HAL_DMA_ENABLE(hdma);
 8101608:	68fb      	ldr	r3, [r7, #12]
 810160a:	681b      	ldr	r3, [r3, #0]
 810160c:	4a37      	ldr	r2, [pc, #220]	; (81016ec <HAL_DMA_Start_IT+0x474>)
 810160e:	4293      	cmp	r3, r2
 8101610:	d04a      	beq.n	81016a8 <HAL_DMA_Start_IT+0x430>
 8101612:	68fb      	ldr	r3, [r7, #12]
 8101614:	681b      	ldr	r3, [r3, #0]
 8101616:	4a36      	ldr	r2, [pc, #216]	; (81016f0 <HAL_DMA_Start_IT+0x478>)
 8101618:	4293      	cmp	r3, r2
 810161a:	d045      	beq.n	81016a8 <HAL_DMA_Start_IT+0x430>
 810161c:	68fb      	ldr	r3, [r7, #12]
 810161e:	681b      	ldr	r3, [r3, #0]
 8101620:	4a34      	ldr	r2, [pc, #208]	; (81016f4 <HAL_DMA_Start_IT+0x47c>)
 8101622:	4293      	cmp	r3, r2
 8101624:	d040      	beq.n	81016a8 <HAL_DMA_Start_IT+0x430>
 8101626:	68fb      	ldr	r3, [r7, #12]
 8101628:	681b      	ldr	r3, [r3, #0]
 810162a:	4a33      	ldr	r2, [pc, #204]	; (81016f8 <HAL_DMA_Start_IT+0x480>)
 810162c:	4293      	cmp	r3, r2
 810162e:	d03b      	beq.n	81016a8 <HAL_DMA_Start_IT+0x430>
 8101630:	68fb      	ldr	r3, [r7, #12]
 8101632:	681b      	ldr	r3, [r3, #0]
 8101634:	4a31      	ldr	r2, [pc, #196]	; (81016fc <HAL_DMA_Start_IT+0x484>)
 8101636:	4293      	cmp	r3, r2
 8101638:	d036      	beq.n	81016a8 <HAL_DMA_Start_IT+0x430>
 810163a:	68fb      	ldr	r3, [r7, #12]
 810163c:	681b      	ldr	r3, [r3, #0]
 810163e:	4a30      	ldr	r2, [pc, #192]	; (8101700 <HAL_DMA_Start_IT+0x488>)
 8101640:	4293      	cmp	r3, r2
 8101642:	d031      	beq.n	81016a8 <HAL_DMA_Start_IT+0x430>
 8101644:	68fb      	ldr	r3, [r7, #12]
 8101646:	681b      	ldr	r3, [r3, #0]
 8101648:	4a2e      	ldr	r2, [pc, #184]	; (8101704 <HAL_DMA_Start_IT+0x48c>)
 810164a:	4293      	cmp	r3, r2
 810164c:	d02c      	beq.n	81016a8 <HAL_DMA_Start_IT+0x430>
 810164e:	68fb      	ldr	r3, [r7, #12]
 8101650:	681b      	ldr	r3, [r3, #0]
 8101652:	4a2d      	ldr	r2, [pc, #180]	; (8101708 <HAL_DMA_Start_IT+0x490>)
 8101654:	4293      	cmp	r3, r2
 8101656:	d027      	beq.n	81016a8 <HAL_DMA_Start_IT+0x430>
 8101658:	68fb      	ldr	r3, [r7, #12]
 810165a:	681b      	ldr	r3, [r3, #0]
 810165c:	4a2b      	ldr	r2, [pc, #172]	; (810170c <HAL_DMA_Start_IT+0x494>)
 810165e:	4293      	cmp	r3, r2
 8101660:	d022      	beq.n	81016a8 <HAL_DMA_Start_IT+0x430>
 8101662:	68fb      	ldr	r3, [r7, #12]
 8101664:	681b      	ldr	r3, [r3, #0]
 8101666:	4a2a      	ldr	r2, [pc, #168]	; (8101710 <HAL_DMA_Start_IT+0x498>)
 8101668:	4293      	cmp	r3, r2
 810166a:	d01d      	beq.n	81016a8 <HAL_DMA_Start_IT+0x430>
 810166c:	68fb      	ldr	r3, [r7, #12]
 810166e:	681b      	ldr	r3, [r3, #0]
 8101670:	4a28      	ldr	r2, [pc, #160]	; (8101714 <HAL_DMA_Start_IT+0x49c>)
 8101672:	4293      	cmp	r3, r2
 8101674:	d018      	beq.n	81016a8 <HAL_DMA_Start_IT+0x430>
 8101676:	68fb      	ldr	r3, [r7, #12]
 8101678:	681b      	ldr	r3, [r3, #0]
 810167a:	4a27      	ldr	r2, [pc, #156]	; (8101718 <HAL_DMA_Start_IT+0x4a0>)
 810167c:	4293      	cmp	r3, r2
 810167e:	d013      	beq.n	81016a8 <HAL_DMA_Start_IT+0x430>
 8101680:	68fb      	ldr	r3, [r7, #12]
 8101682:	681b      	ldr	r3, [r3, #0]
 8101684:	4a25      	ldr	r2, [pc, #148]	; (810171c <HAL_DMA_Start_IT+0x4a4>)
 8101686:	4293      	cmp	r3, r2
 8101688:	d00e      	beq.n	81016a8 <HAL_DMA_Start_IT+0x430>
 810168a:	68fb      	ldr	r3, [r7, #12]
 810168c:	681b      	ldr	r3, [r3, #0]
 810168e:	4a24      	ldr	r2, [pc, #144]	; (8101720 <HAL_DMA_Start_IT+0x4a8>)
 8101690:	4293      	cmp	r3, r2
 8101692:	d009      	beq.n	81016a8 <HAL_DMA_Start_IT+0x430>
 8101694:	68fb      	ldr	r3, [r7, #12]
 8101696:	681b      	ldr	r3, [r3, #0]
 8101698:	4a22      	ldr	r2, [pc, #136]	; (8101724 <HAL_DMA_Start_IT+0x4ac>)
 810169a:	4293      	cmp	r3, r2
 810169c:	d004      	beq.n	81016a8 <HAL_DMA_Start_IT+0x430>
 810169e:	68fb      	ldr	r3, [r7, #12]
 81016a0:	681b      	ldr	r3, [r3, #0]
 81016a2:	4a21      	ldr	r2, [pc, #132]	; (8101728 <HAL_DMA_Start_IT+0x4b0>)
 81016a4:	4293      	cmp	r3, r2
 81016a6:	d108      	bne.n	81016ba <HAL_DMA_Start_IT+0x442>
 81016a8:	68fb      	ldr	r3, [r7, #12]
 81016aa:	681b      	ldr	r3, [r3, #0]
 81016ac:	681a      	ldr	r2, [r3, #0]
 81016ae:	68fb      	ldr	r3, [r7, #12]
 81016b0:	681b      	ldr	r3, [r3, #0]
 81016b2:	f042 0201 	orr.w	r2, r2, #1
 81016b6:	601a      	str	r2, [r3, #0]
 81016b8:	e012      	b.n	81016e0 <HAL_DMA_Start_IT+0x468>
 81016ba:	68fb      	ldr	r3, [r7, #12]
 81016bc:	681b      	ldr	r3, [r3, #0]
 81016be:	681a      	ldr	r2, [r3, #0]
 81016c0:	68fb      	ldr	r3, [r7, #12]
 81016c2:	681b      	ldr	r3, [r3, #0]
 81016c4:	f042 0201 	orr.w	r2, r2, #1
 81016c8:	601a      	str	r2, [r3, #0]
 81016ca:	e009      	b.n	81016e0 <HAL_DMA_Start_IT+0x468>
  }
  else
  {
    /* Set the error code to busy */
    hdma->ErrorCode = HAL_DMA_ERROR_BUSY;
 81016cc:	68fb      	ldr	r3, [r7, #12]
 81016ce:	f44f 6200 	mov.w	r2, #2048	; 0x800
 81016d2:	655a      	str	r2, [r3, #84]	; 0x54

    /* Process unlocked */
    __HAL_UNLOCK(hdma);
 81016d4:	68fb      	ldr	r3, [r7, #12]
 81016d6:	2200      	movs	r2, #0
 81016d8:	f883 2034 	strb.w	r2, [r3, #52]	; 0x34

    /* Return error status */
    status = HAL_ERROR;
 81016dc:	2301      	movs	r3, #1
 81016de:	75fb      	strb	r3, [r7, #23]
  }

  return status;
 81016e0:	7dfb      	ldrb	r3, [r7, #23]
}
 81016e2:	4618      	mov	r0, r3
 81016e4:	3718      	adds	r7, #24
 81016e6:	46bd      	mov	sp, r7
 81016e8:	bd80      	pop	{r7, pc}
 81016ea:	bf00      	nop
 81016ec:	40020010 	.word	0x40020010
 81016f0:	40020028 	.word	0x40020028
 81016f4:	40020040 	.word	0x40020040
 81016f8:	40020058 	.word	0x40020058
 81016fc:	40020070 	.word	0x40020070
 8101700:	40020088 	.word	0x40020088
 8101704:	400200a0 	.word	0x400200a0
 8101708:	400200b8 	.word	0x400200b8
 810170c:	40020410 	.word	0x40020410
 8101710:	40020428 	.word	0x40020428
 8101714:	40020440 	.word	0x40020440
 8101718:	40020458 	.word	0x40020458
 810171c:	40020470 	.word	0x40020470
 8101720:	40020488 	.word	0x40020488
 8101724:	400204a0 	.word	0x400204a0
 8101728:	400204b8 	.word	0x400204b8
 810172c:	58025408 	.word	0x58025408
 8101730:	5802541c 	.word	0x5802541c
 8101734:	58025430 	.word	0x58025430
 8101738:	58025444 	.word	0x58025444
 810173c:	58025458 	.word	0x58025458
 8101740:	5802546c 	.word	0x5802546c
 8101744:	58025480 	.word	0x58025480
 8101748:	58025494 	.word	0x58025494

0810174c <HAL_DMA_Abort_IT>:
  * @param  hdma  : pointer to a DMA_HandleTypeDef structure that contains
  *                 the configuration information for the specified DMA Stream.
  * @retval HAL status
  */
HAL_StatusTypeDef HAL_DMA_Abort_IT(DMA_HandleTypeDef *hdma)
{
 810174c:	b580      	push	{r7, lr}
 810174e:	b084      	sub	sp, #16
 8101750:	af00      	add	r7, sp, #0
 8101752:	6078      	str	r0, [r7, #4]
  BDMA_Base_Registers *regs_bdma;

  /* Check the DMA peripheral handle */
  if(hdma == NULL)
 8101754:	687b      	ldr	r3, [r7, #4]
 8101756:	2b00      	cmp	r3, #0
 8101758:	d101      	bne.n	810175e <HAL_DMA_Abort_IT+0x12>
  {
    return HAL_ERROR;
 810175a:	2301      	movs	r3, #1
 810175c:	e237      	b.n	8101bce <HAL_DMA_Abort_IT+0x482>
  }

  if(hdma->State != HAL_DMA_STATE_BUSY)
 810175e:	687b      	ldr	r3, [r7, #4]
 8101760:	f893 3035 	ldrb.w	r3, [r3, #53]	; 0x35
 8101764:	b2db      	uxtb	r3, r3
 8101766:	2b02      	cmp	r3, #2
 8101768:	d004      	beq.n	8101774 <HAL_DMA_Abort_IT+0x28>
  {
    hdma->ErrorCode = HAL_DMA_ERROR_NO_XFER;
 810176a:	687b      	ldr	r3, [r7, #4]
 810176c:	2280      	movs	r2, #128	; 0x80
 810176e:	655a      	str	r2, [r3, #84]	; 0x54
    return HAL_ERROR;
 8101770:	2301      	movs	r3, #1
 8101772:	e22c      	b.n	8101bce <HAL_DMA_Abort_IT+0x482>
  }
  else
  {
    if(IS_DMA_STREAM_INSTANCE(hdma->Instance) != 0U) /* DMA1 or DMA2 instance */
 8101774:	687b      	ldr	r3, [r7, #4]
 8101776:	681b      	ldr	r3, [r3, #0]
 8101778:	4a5c      	ldr	r2, [pc, #368]	; (81018ec <HAL_DMA_Abort_IT+0x1a0>)
 810177a:	4293      	cmp	r3, r2
 810177c:	d04a      	beq.n	8101814 <HAL_DMA_Abort_IT+0xc8>
 810177e:	687b      	ldr	r3, [r7, #4]
 8101780:	681b      	ldr	r3, [r3, #0]
 8101782:	4a5b      	ldr	r2, [pc, #364]	; (81018f0 <HAL_DMA_Abort_IT+0x1a4>)
 8101784:	4293      	cmp	r3, r2
 8101786:	d045      	beq.n	8101814 <HAL_DMA_Abort_IT+0xc8>
 8101788:	687b      	ldr	r3, [r7, #4]
 810178a:	681b      	ldr	r3, [r3, #0]
 810178c:	4a59      	ldr	r2, [pc, #356]	; (81018f4 <HAL_DMA_Abort_IT+0x1a8>)
 810178e:	4293      	cmp	r3, r2
 8101790:	d040      	beq.n	8101814 <HAL_DMA_Abort_IT+0xc8>
 8101792:	687b      	ldr	r3, [r7, #4]
 8101794:	681b      	ldr	r3, [r3, #0]
 8101796:	4a58      	ldr	r2, [pc, #352]	; (81018f8 <HAL_DMA_Abort_IT+0x1ac>)
 8101798:	4293      	cmp	r3, r2
 810179a:	d03b      	beq.n	8101814 <HAL_DMA_Abort_IT+0xc8>
 810179c:	687b      	ldr	r3, [r7, #4]
 810179e:	681b      	ldr	r3, [r3, #0]
 81017a0:	4a56      	ldr	r2, [pc, #344]	; (81018fc <HAL_DMA_Abort_IT+0x1b0>)
 81017a2:	4293      	cmp	r3, r2
 81017a4:	d036      	beq.n	8101814 <HAL_DMA_Abort_IT+0xc8>
 81017a6:	687b      	ldr	r3, [r7, #4]
 81017a8:	681b      	ldr	r3, [r3, #0]
 81017aa:	4a55      	ldr	r2, [pc, #340]	; (8101900 <HAL_DMA_Abort_IT+0x1b4>)
 81017ac:	4293      	cmp	r3, r2
 81017ae:	d031      	beq.n	8101814 <HAL_DMA_Abort_IT+0xc8>
 81017b0:	687b      	ldr	r3, [r7, #4]
 81017b2:	681b      	ldr	r3, [r3, #0]
 81017b4:	4a53      	ldr	r2, [pc, #332]	; (8101904 <HAL_DMA_Abort_IT+0x1b8>)
 81017b6:	4293      	cmp	r3, r2
 81017b8:	d02c      	beq.n	8101814 <HAL_DMA_Abort_IT+0xc8>
 81017ba:	687b      	ldr	r3, [r7, #4]
 81017bc:	681b      	ldr	r3, [r3, #0]
 81017be:	4a52      	ldr	r2, [pc, #328]	; (8101908 <HAL_DMA_Abort_IT+0x1bc>)
 81017c0:	4293      	cmp	r3, r2
 81017c2:	d027      	beq.n	8101814 <HAL_DMA_Abort_IT+0xc8>
 81017c4:	687b      	ldr	r3, [r7, #4]
 81017c6:	681b      	ldr	r3, [r3, #0]
 81017c8:	4a50      	ldr	r2, [pc, #320]	; (810190c <HAL_DMA_Abort_IT+0x1c0>)
 81017ca:	4293      	cmp	r3, r2
 81017cc:	d022      	beq.n	8101814 <HAL_DMA_Abort_IT+0xc8>
 81017ce:	687b      	ldr	r3, [r7, #4]
 81017d0:	681b      	ldr	r3, [r3, #0]
 81017d2:	4a4f      	ldr	r2, [pc, #316]	; (8101910 <HAL_DMA_Abort_IT+0x1c4>)
 81017d4:	4293      	cmp	r3, r2
 81017d6:	d01d      	beq.n	8101814 <HAL_DMA_Abort_IT+0xc8>
 81017d8:	687b      	ldr	r3, [r7, #4]
 81017da:	681b      	ldr	r3, [r3, #0]
 81017dc:	4a4d      	ldr	r2, [pc, #308]	; (8101914 <HAL_DMA_Abort_IT+0x1c8>)
 81017de:	4293      	cmp	r3, r2
 81017e0:	d018      	beq.n	8101814 <HAL_DMA_Abort_IT+0xc8>
 81017e2:	687b      	ldr	r3, [r7, #4]
 81017e4:	681b      	ldr	r3, [r3, #0]
 81017e6:	4a4c      	ldr	r2, [pc, #304]	; (8101918 <HAL_DMA_Abort_IT+0x1cc>)
 81017e8:	4293      	cmp	r3, r2
 81017ea:	d013      	beq.n	8101814 <HAL_DMA_Abort_IT+0xc8>
 81017ec:	687b      	ldr	r3, [r7, #4]
 81017ee:	681b      	ldr	r3, [r3, #0]
 81017f0:	4a4a      	ldr	r2, [pc, #296]	; (810191c <HAL_DMA_Abort_IT+0x1d0>)
 81017f2:	4293      	cmp	r3, r2
 81017f4:	d00e      	beq.n	8101814 <HAL_DMA_Abort_IT+0xc8>
 81017f6:	687b      	ldr	r3, [r7, #4]
 81017f8:	681b      	ldr	r3, [r3, #0]
 81017fa:	4a49      	ldr	r2, [pc, #292]	; (8101920 <HAL_DMA_Abort_IT+0x1d4>)
 81017fc:	4293      	cmp	r3, r2
 81017fe:	d009      	beq.n	8101814 <HAL_DMA_Abort_IT+0xc8>
 8101800:	687b      	ldr	r3, [r7, #4]
 8101802:	681b      	ldr	r3, [r3, #0]
 8101804:	4a47      	ldr	r2, [pc, #284]	; (8101924 <HAL_DMA_Abort_IT+0x1d8>)
 8101806:	4293      	cmp	r3, r2
 8101808:	d004      	beq.n	8101814 <HAL_DMA_Abort_IT+0xc8>
 810180a:	687b      	ldr	r3, [r7, #4]
 810180c:	681b      	ldr	r3, [r3, #0]
 810180e:	4a46      	ldr	r2, [pc, #280]	; (8101928 <HAL_DMA_Abort_IT+0x1dc>)
 8101810:	4293      	cmp	r3, r2
 8101812:	d101      	bne.n	8101818 <HAL_DMA_Abort_IT+0xcc>
 8101814:	2301      	movs	r3, #1
 8101816:	e000      	b.n	810181a <HAL_DMA_Abort_IT+0xce>
 8101818:	2300      	movs	r3, #0
 810181a:	2b00      	cmp	r3, #0
 810181c:	f000 8086 	beq.w	810192c <HAL_DMA_Abort_IT+0x1e0>
    {
      /* Set Abort State  */
      hdma->State = HAL_DMA_STATE_ABORT;
 8101820:	687b      	ldr	r3, [r7, #4]
 8101822:	2204      	movs	r2, #4
 8101824:	f883 2035 	strb.w	r2, [r3, #53]	; 0x35

      /* Disable the stream */
      __HAL_DMA_DISABLE(hdma);
 8101828:	687b      	ldr	r3, [r7, #4]
 810182a:	681b      	ldr	r3, [r3, #0]
 810182c:	4a2f      	ldr	r2, [pc, #188]	; (81018ec <HAL_DMA_Abort_IT+0x1a0>)
 810182e:	4293      	cmp	r3, r2
 8101830:	d04a      	beq.n	81018c8 <HAL_DMA_Abort_IT+0x17c>
 8101832:	687b      	ldr	r3, [r7, #4]
 8101834:	681b      	ldr	r3, [r3, #0]
 8101836:	4a2e      	ldr	r2, [pc, #184]	; (81018f0 <HAL_DMA_Abort_IT+0x1a4>)
 8101838:	4293      	cmp	r3, r2
 810183a:	d045      	beq.n	81018c8 <HAL_DMA_Abort_IT+0x17c>
 810183c:	687b      	ldr	r3, [r7, #4]
 810183e:	681b      	ldr	r3, [r3, #0]
 8101840:	4a2c      	ldr	r2, [pc, #176]	; (81018f4 <HAL_DMA_Abort_IT+0x1a8>)
 8101842:	4293      	cmp	r3, r2
 8101844:	d040      	beq.n	81018c8 <HAL_DMA_Abort_IT+0x17c>
 8101846:	687b      	ldr	r3, [r7, #4]
 8101848:	681b      	ldr	r3, [r3, #0]
 810184a:	4a2b      	ldr	r2, [pc, #172]	; (81018f8 <HAL_DMA_Abort_IT+0x1ac>)
 810184c:	4293      	cmp	r3, r2
 810184e:	d03b      	beq.n	81018c8 <HAL_DMA_Abort_IT+0x17c>
 8101850:	687b      	ldr	r3, [r7, #4]
 8101852:	681b      	ldr	r3, [r3, #0]
 8101854:	4a29      	ldr	r2, [pc, #164]	; (81018fc <HAL_DMA_Abort_IT+0x1b0>)
 8101856:	4293      	cmp	r3, r2
 8101858:	d036      	beq.n	81018c8 <HAL_DMA_Abort_IT+0x17c>
 810185a:	687b      	ldr	r3, [r7, #4]
 810185c:	681b      	ldr	r3, [r3, #0]
 810185e:	4a28      	ldr	r2, [pc, #160]	; (8101900 <HAL_DMA_Abort_IT+0x1b4>)
 8101860:	4293      	cmp	r3, r2
 8101862:	d031      	beq.n	81018c8 <HAL_DMA_Abort_IT+0x17c>
 8101864:	687b      	ldr	r3, [r7, #4]
 8101866:	681b      	ldr	r3, [r3, #0]
 8101868:	4a26      	ldr	r2, [pc, #152]	; (8101904 <HAL_DMA_Abort_IT+0x1b8>)
 810186a:	4293      	cmp	r3, r2
 810186c:	d02c      	beq.n	81018c8 <HAL_DMA_Abort_IT+0x17c>
 810186e:	687b      	ldr	r3, [r7, #4]
 8101870:	681b      	ldr	r3, [r3, #0]
 8101872:	4a25      	ldr	r2, [pc, #148]	; (8101908 <HAL_DMA_Abort_IT+0x1bc>)
 8101874:	4293      	cmp	r3, r2
 8101876:	d027      	beq.n	81018c8 <HAL_DMA_Abort_IT+0x17c>
 8101878:	687b      	ldr	r3, [r7, #4]
 810187a:	681b      	ldr	r3, [r3, #0]
 810187c:	4a23      	ldr	r2, [pc, #140]	; (810190c <HAL_DMA_Abort_IT+0x1c0>)
 810187e:	4293      	cmp	r3, r2
 8101880:	d022      	beq.n	81018c8 <HAL_DMA_Abort_IT+0x17c>
 8101882:	687b      	ldr	r3, [r7, #4]
 8101884:	681b      	ldr	r3, [r3, #0]
 8101886:	4a22      	ldr	r2, [pc, #136]	; (8101910 <HAL_DMA_Abort_IT+0x1c4>)
 8101888:	4293      	cmp	r3, r2
 810188a:	d01d      	beq.n	81018c8 <HAL_DMA_Abort_IT+0x17c>
 810188c:	687b      	ldr	r3, [r7, #4]
 810188e:	681b      	ldr	r3, [r3, #0]
 8101890:	4a20      	ldr	r2, [pc, #128]	; (8101914 <HAL_DMA_Abort_IT+0x1c8>)
 8101892:	4293      	cmp	r3, r2
 8101894:	d018      	beq.n	81018c8 <HAL_DMA_Abort_IT+0x17c>
 8101896:	687b      	ldr	r3, [r7, #4]
 8101898:	681b      	ldr	r3, [r3, #0]
 810189a:	4a1f      	ldr	r2, [pc, #124]	; (8101918 <HAL_DMA_Abort_IT+0x1cc>)
 810189c:	4293      	cmp	r3, r2
 810189e:	d013      	beq.n	81018c8 <HAL_DMA_Abort_IT+0x17c>
 81018a0:	687b      	ldr	r3, [r7, #4]
 81018a2:	681b      	ldr	r3, [r3, #0]
 81018a4:	4a1d      	ldr	r2, [pc, #116]	; (810191c <HAL_DMA_Abort_IT+0x1d0>)
 81018a6:	4293      	cmp	r3, r2
 81018a8:	d00e      	beq.n	81018c8 <HAL_DMA_Abort_IT+0x17c>
 81018aa:	687b      	ldr	r3, [r7, #4]
 81018ac:	681b      	ldr	r3, [r3, #0]
 81018ae:	4a1c      	ldr	r2, [pc, #112]	; (8101920 <HAL_DMA_Abort_IT+0x1d4>)
 81018b0:	4293      	cmp	r3, r2
 81018b2:	d009      	beq.n	81018c8 <HAL_DMA_Abort_IT+0x17c>
 81018b4:	687b      	ldr	r3, [r7, #4]
 81018b6:	681b      	ldr	r3, [r3, #0]
 81018b8:	4a1a      	ldr	r2, [pc, #104]	; (8101924 <HAL_DMA_Abort_IT+0x1d8>)
 81018ba:	4293      	cmp	r3, r2
 81018bc:	d004      	beq.n	81018c8 <HAL_DMA_Abort_IT+0x17c>
 81018be:	687b      	ldr	r3, [r7, #4]
 81018c0:	681b      	ldr	r3, [r3, #0]
 81018c2:	4a19      	ldr	r2, [pc, #100]	; (8101928 <HAL_DMA_Abort_IT+0x1dc>)
 81018c4:	4293      	cmp	r3, r2
 81018c6:	d108      	bne.n	81018da <HAL_DMA_Abort_IT+0x18e>
 81018c8:	687b      	ldr	r3, [r7, #4]
 81018ca:	681b      	ldr	r3, [r3, #0]
 81018cc:	681a      	ldr	r2, [r3, #0]
 81018ce:	687b      	ldr	r3, [r7, #4]
 81018d0:	681b      	ldr	r3, [r3, #0]
 81018d2:	f022 0201 	bic.w	r2, r2, #1
 81018d6:	601a      	str	r2, [r3, #0]
 81018d8:	e178      	b.n	8101bcc <HAL_DMA_Abort_IT+0x480>
 81018da:	687b      	ldr	r3, [r7, #4]
 81018dc:	681b      	ldr	r3, [r3, #0]
 81018de:	681a      	ldr	r2, [r3, #0]
 81018e0:	687b      	ldr	r3, [r7, #4]
 81018e2:	681b      	ldr	r3, [r3, #0]
 81018e4:	f022 0201 	bic.w	r2, r2, #1
 81018e8:	601a      	str	r2, [r3, #0]
 81018ea:	e16f      	b.n	8101bcc <HAL_DMA_Abort_IT+0x480>
 81018ec:	40020010 	.word	0x40020010
 81018f0:	40020028 	.word	0x40020028
 81018f4:	40020040 	.word	0x40020040
 81018f8:	40020058 	.word	0x40020058
 81018fc:	40020070 	.word	0x40020070
 8101900:	40020088 	.word	0x40020088
 8101904:	400200a0 	.word	0x400200a0
 8101908:	400200b8 	.word	0x400200b8
 810190c:	40020410 	.word	0x40020410
 8101910:	40020428 	.word	0x40020428
 8101914:	40020440 	.word	0x40020440
 8101918:	40020458 	.word	0x40020458
 810191c:	40020470 	.word	0x40020470
 8101920:	40020488 	.word	0x40020488
 8101924:	400204a0 	.word	0x400204a0
 8101928:	400204b8 	.word	0x400204b8
    }
    else /* BDMA channel */
    {
      /* Disable DMA All Interrupts  */
      ((BDMA_Channel_TypeDef   *)hdma->Instance)->CCR  &= ~(BDMA_CCR_TCIE | BDMA_CCR_HTIE | BDMA_CCR_TEIE);
 810192c:	687b      	ldr	r3, [r7, #4]
 810192e:	681b      	ldr	r3, [r3, #0]
 8101930:	681a      	ldr	r2, [r3, #0]
 8101932:	687b      	ldr	r3, [r7, #4]
 8101934:	681b      	ldr	r3, [r3, #0]
 8101936:	f022 020e 	bic.w	r2, r2, #14
 810193a:	601a      	str	r2, [r3, #0]

      /* Disable the channel */
      __HAL_DMA_DISABLE(hdma);
 810193c:	687b      	ldr	r3, [r7, #4]
 810193e:	681b      	ldr	r3, [r3, #0]
 8101940:	4a6c      	ldr	r2, [pc, #432]	; (8101af4 <HAL_DMA_Abort_IT+0x3a8>)
 8101942:	4293      	cmp	r3, r2
 8101944:	d04a      	beq.n	81019dc <HAL_DMA_Abort_IT+0x290>
 8101946:	687b      	ldr	r3, [r7, #4]
 8101948:	681b      	ldr	r3, [r3, #0]
 810194a:	4a6b      	ldr	r2, [pc, #428]	; (8101af8 <HAL_DMA_Abort_IT+0x3ac>)
 810194c:	4293      	cmp	r3, r2
 810194e:	d045      	beq.n	81019dc <HAL_DMA_Abort_IT+0x290>
 8101950:	687b      	ldr	r3, [r7, #4]
 8101952:	681b      	ldr	r3, [r3, #0]
 8101954:	4a69      	ldr	r2, [pc, #420]	; (8101afc <HAL_DMA_Abort_IT+0x3b0>)
 8101956:	4293      	cmp	r3, r2
 8101958:	d040      	beq.n	81019dc <HAL_DMA_Abort_IT+0x290>
 810195a:	687b      	ldr	r3, [r7, #4]
 810195c:	681b      	ldr	r3, [r3, #0]
 810195e:	4a68      	ldr	r2, [pc, #416]	; (8101b00 <HAL_DMA_Abort_IT+0x3b4>)
 8101960:	4293      	cmp	r3, r2
 8101962:	d03b      	beq.n	81019dc <HAL_DMA_Abort_IT+0x290>
 8101964:	687b      	ldr	r3, [r7, #4]
 8101966:	681b      	ldr	r3, [r3, #0]
 8101968:	4a66      	ldr	r2, [pc, #408]	; (8101b04 <HAL_DMA_Abort_IT+0x3b8>)
 810196a:	4293      	cmp	r3, r2
 810196c:	d036      	beq.n	81019dc <HAL_DMA_Abort_IT+0x290>
 810196e:	687b      	ldr	r3, [r7, #4]
 8101970:	681b      	ldr	r3, [r3, #0]
 8101972:	4a65      	ldr	r2, [pc, #404]	; (8101b08 <HAL_DMA_Abort_IT+0x3bc>)
 8101974:	4293      	cmp	r3, r2
 8101976:	d031      	beq.n	81019dc <HAL_DMA_Abort_IT+0x290>
 8101978:	687b      	ldr	r3, [r7, #4]
 810197a:	681b      	ldr	r3, [r3, #0]
 810197c:	4a63      	ldr	r2, [pc, #396]	; (8101b0c <HAL_DMA_Abort_IT+0x3c0>)
 810197e:	4293      	cmp	r3, r2
 8101980:	d02c      	beq.n	81019dc <HAL_DMA_Abort_IT+0x290>
 8101982:	687b      	ldr	r3, [r7, #4]
 8101984:	681b      	ldr	r3, [r3, #0]
 8101986:	4a62      	ldr	r2, [pc, #392]	; (8101b10 <HAL_DMA_Abort_IT+0x3c4>)
 8101988:	4293      	cmp	r3, r2
 810198a:	d027      	beq.n	81019dc <HAL_DMA_Abort_IT+0x290>
 810198c:	687b      	ldr	r3, [r7, #4]
 810198e:	681b      	ldr	r3, [r3, #0]
 8101990:	4a60      	ldr	r2, [pc, #384]	; (8101b14 <HAL_DMA_Abort_IT+0x3c8>)
 8101992:	4293      	cmp	r3, r2
 8101994:	d022      	beq.n	81019dc <HAL_DMA_Abort_IT+0x290>
 8101996:	687b      	ldr	r3, [r7, #4]
 8101998:	681b      	ldr	r3, [r3, #0]
 810199a:	4a5f      	ldr	r2, [pc, #380]	; (8101b18 <HAL_DMA_Abort_IT+0x3cc>)
 810199c:	4293      	cmp	r3, r2
 810199e:	d01d      	beq.n	81019dc <HAL_DMA_Abort_IT+0x290>
 81019a0:	687b      	ldr	r3, [r7, #4]
 81019a2:	681b      	ldr	r3, [r3, #0]
 81019a4:	4a5d      	ldr	r2, [pc, #372]	; (8101b1c <HAL_DMA_Abort_IT+0x3d0>)
 81019a6:	4293      	cmp	r3, r2
 81019a8:	d018      	beq.n	81019dc <HAL_DMA_Abort_IT+0x290>
 81019aa:	687b      	ldr	r3, [r7, #4]
 81019ac:	681b      	ldr	r3, [r3, #0]
 81019ae:	4a5c      	ldr	r2, [pc, #368]	; (8101b20 <HAL_DMA_Abort_IT+0x3d4>)
 81019b0:	4293      	cmp	r3, r2
 81019b2:	d013      	beq.n	81019dc <HAL_DMA_Abort_IT+0x290>
 81019b4:	687b      	ldr	r3, [r7, #4]
 81019b6:	681b      	ldr	r3, [r3, #0]
 81019b8:	4a5a      	ldr	r2, [pc, #360]	; (8101b24 <HAL_DMA_Abort_IT+0x3d8>)
 81019ba:	4293      	cmp	r3, r2
 81019bc:	d00e      	beq.n	81019dc <HAL_DMA_Abort_IT+0x290>
 81019be:	687b      	ldr	r3, [r7, #4]
 81019c0:	681b      	ldr	r3, [r3, #0]
 81019c2:	4a59      	ldr	r2, [pc, #356]	; (8101b28 <HAL_DMA_Abort_IT+0x3dc>)
 81019c4:	4293      	cmp	r3, r2
 81019c6:	d009      	beq.n	81019dc <HAL_DMA_Abort_IT+0x290>
 81019c8:	687b      	ldr	r3, [r7, #4]
 81019ca:	681b      	ldr	r3, [r3, #0]
 81019cc:	4a57      	ldr	r2, [pc, #348]	; (8101b2c <HAL_DMA_Abort_IT+0x3e0>)
 81019ce:	4293      	cmp	r3, r2
 81019d0:	d004      	beq.n	81019dc <HAL_DMA_Abort_IT+0x290>
 81019d2:	687b      	ldr	r3, [r7, #4]
 81019d4:	681b      	ldr	r3, [r3, #0]
 81019d6:	4a56      	ldr	r2, [pc, #344]	; (8101b30 <HAL_DMA_Abort_IT+0x3e4>)
 81019d8:	4293      	cmp	r3, r2
 81019da:	d108      	bne.n	81019ee <HAL_DMA_Abort_IT+0x2a2>
 81019dc:	687b      	ldr	r3, [r7, #4]
 81019de:	681b      	ldr	r3, [r3, #0]
 81019e0:	681a      	ldr	r2, [r3, #0]
 81019e2:	687b      	ldr	r3, [r7, #4]
 81019e4:	681b      	ldr	r3, [r3, #0]
 81019e6:	f022 0201 	bic.w	r2, r2, #1
 81019ea:	601a      	str	r2, [r3, #0]
 81019ec:	e007      	b.n	81019fe <HAL_DMA_Abort_IT+0x2b2>
 81019ee:	687b      	ldr	r3, [r7, #4]
 81019f0:	681b      	ldr	r3, [r3, #0]
 81019f2:	681a      	ldr	r2, [r3, #0]
 81019f4:	687b      	ldr	r3, [r7, #4]
 81019f6:	681b      	ldr	r3, [r3, #0]
 81019f8:	f022 0201 	bic.w	r2, r2, #1
 81019fc:	601a      	str	r2, [r3, #0]

      if(IS_DMA_DMAMUX_ALL_INSTANCE(hdma->Instance) != 0U) /* No DMAMUX available for BDMA1 */
 81019fe:	687b      	ldr	r3, [r7, #4]
 8101a00:	681b      	ldr	r3, [r3, #0]
 8101a02:	4a3c      	ldr	r2, [pc, #240]	; (8101af4 <HAL_DMA_Abort_IT+0x3a8>)
 8101a04:	4293      	cmp	r3, r2
 8101a06:	d072      	beq.n	8101aee <HAL_DMA_Abort_IT+0x3a2>
 8101a08:	687b      	ldr	r3, [r7, #4]
 8101a0a:	681b      	ldr	r3, [r3, #0]
 8101a0c:	4a3a      	ldr	r2, [pc, #232]	; (8101af8 <HAL_DMA_Abort_IT+0x3ac>)
 8101a0e:	4293      	cmp	r3, r2
 8101a10:	d06d      	beq.n	8101aee <HAL_DMA_Abort_IT+0x3a2>
 8101a12:	687b      	ldr	r3, [r7, #4]
 8101a14:	681b      	ldr	r3, [r3, #0]
 8101a16:	4a39      	ldr	r2, [pc, #228]	; (8101afc <HAL_DMA_Abort_IT+0x3b0>)
 8101a18:	4293      	cmp	r3, r2
 8101a1a:	d068      	beq.n	8101aee <HAL_DMA_Abort_IT+0x3a2>
 8101a1c:	687b      	ldr	r3, [r7, #4]
 8101a1e:	681b      	ldr	r3, [r3, #0]
 8101a20:	4a37      	ldr	r2, [pc, #220]	; (8101b00 <HAL_DMA_Abort_IT+0x3b4>)
 8101a22:	4293      	cmp	r3, r2
 8101a24:	d063      	beq.n	8101aee <HAL_DMA_Abort_IT+0x3a2>
 8101a26:	687b      	ldr	r3, [r7, #4]
 8101a28:	681b      	ldr	r3, [r3, #0]
 8101a2a:	4a36      	ldr	r2, [pc, #216]	; (8101b04 <HAL_DMA_Abort_IT+0x3b8>)
 8101a2c:	4293      	cmp	r3, r2
 8101a2e:	d05e      	beq.n	8101aee <HAL_DMA_Abort_IT+0x3a2>
 8101a30:	687b      	ldr	r3, [r7, #4]
 8101a32:	681b      	ldr	r3, [r3, #0]
 8101a34:	4a34      	ldr	r2, [pc, #208]	; (8101b08 <HAL_DMA_Abort_IT+0x3bc>)
 8101a36:	4293      	cmp	r3, r2
 8101a38:	d059      	beq.n	8101aee <HAL_DMA_Abort_IT+0x3a2>
 8101a3a:	687b      	ldr	r3, [r7, #4]
 8101a3c:	681b      	ldr	r3, [r3, #0]
 8101a3e:	4a33      	ldr	r2, [pc, #204]	; (8101b0c <HAL_DMA_Abort_IT+0x3c0>)
 8101a40:	4293      	cmp	r3, r2
 8101a42:	d054      	beq.n	8101aee <HAL_DMA_Abort_IT+0x3a2>
 8101a44:	687b      	ldr	r3, [r7, #4]
 8101a46:	681b      	ldr	r3, [r3, #0]
 8101a48:	4a31      	ldr	r2, [pc, #196]	; (8101b10 <HAL_DMA_Abort_IT+0x3c4>)
 8101a4a:	4293      	cmp	r3, r2
 8101a4c:	d04f      	beq.n	8101aee <HAL_DMA_Abort_IT+0x3a2>
 8101a4e:	687b      	ldr	r3, [r7, #4]
 8101a50:	681b      	ldr	r3, [r3, #0]
 8101a52:	4a30      	ldr	r2, [pc, #192]	; (8101b14 <HAL_DMA_Abort_IT+0x3c8>)
 8101a54:	4293      	cmp	r3, r2
 8101a56:	d04a      	beq.n	8101aee <HAL_DMA_Abort_IT+0x3a2>
 8101a58:	687b      	ldr	r3, [r7, #4]
 8101a5a:	681b      	ldr	r3, [r3, #0]
 8101a5c:	4a2e      	ldr	r2, [pc, #184]	; (8101b18 <HAL_DMA_Abort_IT+0x3cc>)
 8101a5e:	4293      	cmp	r3, r2
 8101a60:	d045      	beq.n	8101aee <HAL_DMA_Abort_IT+0x3a2>
 8101a62:	687b      	ldr	r3, [r7, #4]
 8101a64:	681b      	ldr	r3, [r3, #0]
 8101a66:	4a2d      	ldr	r2, [pc, #180]	; (8101b1c <HAL_DMA_Abort_IT+0x3d0>)
 8101a68:	4293      	cmp	r3, r2
 8101a6a:	d040      	beq.n	8101aee <HAL_DMA_Abort_IT+0x3a2>
 8101a6c:	687b      	ldr	r3, [r7, #4]
 8101a6e:	681b      	ldr	r3, [r3, #0]
 8101a70:	4a2b      	ldr	r2, [pc, #172]	; (8101b20 <HAL_DMA_Abort_IT+0x3d4>)
 8101a72:	4293      	cmp	r3, r2
 8101a74:	d03b      	beq.n	8101aee <HAL_DMA_Abort_IT+0x3a2>
 8101a76:	687b      	ldr	r3, [r7, #4]
 8101a78:	681b      	ldr	r3, [r3, #0]
 8101a7a:	4a2a      	ldr	r2, [pc, #168]	; (8101b24 <HAL_DMA_Abort_IT+0x3d8>)
 8101a7c:	4293      	cmp	r3, r2
 8101a7e:	d036      	beq.n	8101aee <HAL_DMA_Abort_IT+0x3a2>
 8101a80:	687b      	ldr	r3, [r7, #4]
 8101a82:	681b      	ldr	r3, [r3, #0]
 8101a84:	4a28      	ldr	r2, [pc, #160]	; (8101b28 <HAL_DMA_Abort_IT+0x3dc>)
 8101a86:	4293      	cmp	r3, r2
 8101a88:	d031      	beq.n	8101aee <HAL_DMA_Abort_IT+0x3a2>
 8101a8a:	687b      	ldr	r3, [r7, #4]
 8101a8c:	681b      	ldr	r3, [r3, #0]
 8101a8e:	4a27      	ldr	r2, [pc, #156]	; (8101b2c <HAL_DMA_Abort_IT+0x3e0>)
 8101a90:	4293      	cmp	r3, r2
 8101a92:	d02c      	beq.n	8101aee <HAL_DMA_Abort_IT+0x3a2>
 8101a94:	687b      	ldr	r3, [r7, #4]
 8101a96:	681b      	ldr	r3, [r3, #0]
 8101a98:	4a25      	ldr	r2, [pc, #148]	; (8101b30 <HAL_DMA_Abort_IT+0x3e4>)
 8101a9a:	4293      	cmp	r3, r2
 8101a9c:	d027      	beq.n	8101aee <HAL_DMA_Abort_IT+0x3a2>
 8101a9e:	687b      	ldr	r3, [r7, #4]
 8101aa0:	681b      	ldr	r3, [r3, #0]
 8101aa2:	4a24      	ldr	r2, [pc, #144]	; (8101b34 <HAL_DMA_Abort_IT+0x3e8>)
 8101aa4:	4293      	cmp	r3, r2
 8101aa6:	d022      	beq.n	8101aee <HAL_DMA_Abort_IT+0x3a2>
 8101aa8:	687b      	ldr	r3, [r7, #4]
 8101aaa:	681b      	ldr	r3, [r3, #0]
 8101aac:	4a22      	ldr	r2, [pc, #136]	; (8101b38 <HAL_DMA_Abort_IT+0x3ec>)
 8101aae:	4293      	cmp	r3, r2
 8101ab0:	d01d      	beq.n	8101aee <HAL_DMA_Abort_IT+0x3a2>
 8101ab2:	687b      	ldr	r3, [r7, #4]
 8101ab4:	681b      	ldr	r3, [r3, #0]
 8101ab6:	4a21      	ldr	r2, [pc, #132]	; (8101b3c <HAL_DMA_Abort_IT+0x3f0>)
 8101ab8:	4293      	cmp	r3, r2
 8101aba:	d018      	beq.n	8101aee <HAL_DMA_Abort_IT+0x3a2>
 8101abc:	687b      	ldr	r3, [r7, #4]
 8101abe:	681b      	ldr	r3, [r3, #0]
 8101ac0:	4a1f      	ldr	r2, [pc, #124]	; (8101b40 <HAL_DMA_Abort_IT+0x3f4>)
 8101ac2:	4293      	cmp	r3, r2
 8101ac4:	d013      	beq.n	8101aee <HAL_DMA_Abort_IT+0x3a2>
 8101ac6:	687b      	ldr	r3, [r7, #4]
 8101ac8:	681b      	ldr	r3, [r3, #0]
 8101aca:	4a1e      	ldr	r2, [pc, #120]	; (8101b44 <HAL_DMA_Abort_IT+0x3f8>)
 8101acc:	4293      	cmp	r3, r2
 8101ace:	d00e      	beq.n	8101aee <HAL_DMA_Abort_IT+0x3a2>
 8101ad0:	687b      	ldr	r3, [r7, #4]
 8101ad2:	681b      	ldr	r3, [r3, #0]
 8101ad4:	4a1c      	ldr	r2, [pc, #112]	; (8101b48 <HAL_DMA_Abort_IT+0x3fc>)
 8101ad6:	4293      	cmp	r3, r2
 8101ad8:	d009      	beq.n	8101aee <HAL_DMA_Abort_IT+0x3a2>
 8101ada:	687b      	ldr	r3, [r7, #4]
 8101adc:	681b      	ldr	r3, [r3, #0]
 8101ade:	4a1b      	ldr	r2, [pc, #108]	; (8101b4c <HAL_DMA_Abort_IT+0x400>)
 8101ae0:	4293      	cmp	r3, r2
 8101ae2:	d004      	beq.n	8101aee <HAL_DMA_Abort_IT+0x3a2>
 8101ae4:	687b      	ldr	r3, [r7, #4]
 8101ae6:	681b      	ldr	r3, [r3, #0]
 8101ae8:	4a19      	ldr	r2, [pc, #100]	; (8101b50 <HAL_DMA_Abort_IT+0x404>)
 8101aea:	4293      	cmp	r3, r2
 8101aec:	d132      	bne.n	8101b54 <HAL_DMA_Abort_IT+0x408>
 8101aee:	2301      	movs	r3, #1
 8101af0:	e031      	b.n	8101b56 <HAL_DMA_Abort_IT+0x40a>
 8101af2:	bf00      	nop
 8101af4:	40020010 	.word	0x40020010
 8101af8:	40020028 	.word	0x40020028
 8101afc:	40020040 	.word	0x40020040
 8101b00:	40020058 	.word	0x40020058
 8101b04:	40020070 	.word	0x40020070
 8101b08:	40020088 	.word	0x40020088
 8101b0c:	400200a0 	.word	0x400200a0
 8101b10:	400200b8 	.word	0x400200b8
 8101b14:	40020410 	.word	0x40020410
 8101b18:	40020428 	.word	0x40020428
 8101b1c:	40020440 	.word	0x40020440
 8101b20:	40020458 	.word	0x40020458
 8101b24:	40020470 	.word	0x40020470
 8101b28:	40020488 	.word	0x40020488
 8101b2c:	400204a0 	.word	0x400204a0
 8101b30:	400204b8 	.word	0x400204b8
 8101b34:	58025408 	.word	0x58025408
 8101b38:	5802541c 	.word	0x5802541c
 8101b3c:	58025430 	.word	0x58025430
 8101b40:	58025444 	.word	0x58025444
 8101b44:	58025458 	.word	0x58025458
 8101b48:	5802546c 	.word	0x5802546c
 8101b4c:	58025480 	.word	0x58025480
 8101b50:	58025494 	.word	0x58025494
 8101b54:	2300      	movs	r3, #0
 8101b56:	2b00      	cmp	r3, #0
 8101b58:	d028      	beq.n	8101bac <HAL_DMA_Abort_IT+0x460>
      {
        /* disable the DMAMUX sync overrun IT */
        hdma->DMAmuxChannel->CCR &= ~DMAMUX_CxCR_SOIE;
 8101b5a:	687b      	ldr	r3, [r7, #4]
 8101b5c:	6e1b      	ldr	r3, [r3, #96]	; 0x60
 8101b5e:	681a      	ldr	r2, [r3, #0]
 8101b60:	687b      	ldr	r3, [r7, #4]
 8101b62:	6e1b      	ldr	r3, [r3, #96]	; 0x60
 8101b64:	f422 7280 	bic.w	r2, r2, #256	; 0x100
 8101b68:	601a      	str	r2, [r3, #0]

        /* Clear all flags */
        regs_bdma = (BDMA_Base_Registers *)hdma->StreamBaseAddress;
 8101b6a:	687b      	ldr	r3, [r7, #4]
 8101b6c:	6d9b      	ldr	r3, [r3, #88]	; 0x58
 8101b6e:	60fb      	str	r3, [r7, #12]
        regs_bdma->IFCR = ((BDMA_IFCR_CGIF0) << (hdma->StreamIndex & 0x1FU));
 8101b70:	687b      	ldr	r3, [r7, #4]
 8101b72:	6ddb      	ldr	r3, [r3, #92]	; 0x5c
 8101b74:	f003 031f 	and.w	r3, r3, #31
 8101b78:	2201      	movs	r2, #1
 8101b7a:	409a      	lsls	r2, r3
 8101b7c:	68fb      	ldr	r3, [r7, #12]
 8101b7e:	605a      	str	r2, [r3, #4]

        /* Clear the DMAMUX synchro overrun flag */
        hdma->DMAmuxChannelStatus->CFR = hdma->DMAmuxChannelStatusMask;
 8101b80:	687b      	ldr	r3, [r7, #4]
 8101b82:	6e5b      	ldr	r3, [r3, #100]	; 0x64
 8101b84:	687a      	ldr	r2, [r7, #4]
 8101b86:	6e92      	ldr	r2, [r2, #104]	; 0x68
 8101b88:	605a      	str	r2, [r3, #4]

        if(hdma->DMAmuxRequestGen != 0U)
 8101b8a:	687b      	ldr	r3, [r7, #4]
 8101b8c:	6edb      	ldr	r3, [r3, #108]	; 0x6c
 8101b8e:	2b00      	cmp	r3, #0
 8101b90:	d00c      	beq.n	8101bac <HAL_DMA_Abort_IT+0x460>
        {
          /* if using DMAMUX request generator, disable the DMAMUX request generator overrun IT*/
          /* disable the request gen overrun IT */
          hdma->DMAmuxRequestGen->RGCR &= ~DMAMUX_RGxCR_OIE;
 8101b92:	687b      	ldr	r3, [r7, #4]
 8101b94:	6edb      	ldr	r3, [r3, #108]	; 0x6c
 8101b96:	681a      	ldr	r2, [r3, #0]
 8101b98:	687b      	ldr	r3, [r7, #4]
 8101b9a:	6edb      	ldr	r3, [r3, #108]	; 0x6c
 8101b9c:	f422 7280 	bic.w	r2, r2, #256	; 0x100
 8101ba0:	601a      	str	r2, [r3, #0]

          /* Clear the DMAMUX request generator overrun flag */
          hdma->DMAmuxRequestGenStatus->RGCFR = hdma->DMAmuxRequestGenStatusMask;
 8101ba2:	687b      	ldr	r3, [r7, #4]
 8101ba4:	6f1b      	ldr	r3, [r3, #112]	; 0x70
 8101ba6:	687a      	ldr	r2, [r7, #4]
 8101ba8:	6f52      	ldr	r2, [r2, #116]	; 0x74
 8101baa:	605a      	str	r2, [r3, #4]
        }
      }

      /* Change the DMA state */
      hdma->State = HAL_DMA_STATE_READY;
 8101bac:	687b      	ldr	r3, [r7, #4]
 8101bae:	2201      	movs	r2, #1
 8101bb0:	f883 2035 	strb.w	r2, [r3, #53]	; 0x35

      /* Process Unlocked */
      __HAL_UNLOCK(hdma);
 8101bb4:	687b      	ldr	r3, [r7, #4]
 8101bb6:	2200      	movs	r2, #0
 8101bb8:	f883 2034 	strb.w	r2, [r3, #52]	; 0x34

      /* Call User Abort callback */
      if(hdma->XferAbortCallback != NULL)
 8101bbc:	687b      	ldr	r3, [r7, #4]
 8101bbe:	6d1b      	ldr	r3, [r3, #80]	; 0x50
 8101bc0:	2b00      	cmp	r3, #0
 8101bc2:	d003      	beq.n	8101bcc <HAL_DMA_Abort_IT+0x480>
      {
        hdma->XferAbortCallback(hdma);
 8101bc4:	687b      	ldr	r3, [r7, #4]
 8101bc6:	6d1b      	ldr	r3, [r3, #80]	; 0x50
 8101bc8:	6878      	ldr	r0, [r7, #4]
 8101bca:	4798      	blx	r3
      }
    }
  }

  return HAL_OK;
 8101bcc:	2300      	movs	r3, #0
}
 8101bce:	4618      	mov	r0, r3
 8101bd0:	3710      	adds	r7, #16
 8101bd2:	46bd      	mov	sp, r7
 8101bd4:	bd80      	pop	{r7, pc}
 8101bd6:	bf00      	nop

08101bd8 <HAL_DMA_IRQHandler>:
  * @param  hdma: pointer to a DMA_HandleTypeDef structure that contains
  *               the configuration information for the specified DMA Stream.
  * @retval None
  */
void HAL_DMA_IRQHandler(DMA_HandleTypeDef *hdma)
{
 8101bd8:	b580      	push	{r7, lr}
 8101bda:	b08a      	sub	sp, #40	; 0x28
 8101bdc:	af00      	add	r7, sp, #0
 8101bde:	6078      	str	r0, [r7, #4]
  uint32_t tmpisr_dma, tmpisr_bdma;
  uint32_t ccr_reg;
  __IO uint32_t count = 0U;
 8101be0:	2300      	movs	r3, #0
 8101be2:	60fb      	str	r3, [r7, #12]
  uint32_t timeout = SystemCoreClock / 9600U;
 8101be4:	4b67      	ldr	r3, [pc, #412]	; (8101d84 <HAL_DMA_IRQHandler+0x1ac>)
 8101be6:	681b      	ldr	r3, [r3, #0]
 8101be8:	4a67      	ldr	r2, [pc, #412]	; (8101d88 <HAL_DMA_IRQHandler+0x1b0>)
 8101bea:	fba2 2303 	umull	r2, r3, r2, r3
 8101bee:	0a9b      	lsrs	r3, r3, #10
 8101bf0:	627b      	str	r3, [r7, #36]	; 0x24

  /* calculate DMA base and stream number */
  DMA_Base_Registers  *regs_dma  = (DMA_Base_Registers *)hdma->StreamBaseAddress;
 8101bf2:	687b      	ldr	r3, [r7, #4]
 8101bf4:	6d9b      	ldr	r3, [r3, #88]	; 0x58
 8101bf6:	623b      	str	r3, [r7, #32]
  BDMA_Base_Registers *regs_bdma = (BDMA_Base_Registers *)hdma->StreamBaseAddress;
 8101bf8:	687b      	ldr	r3, [r7, #4]
 8101bfa:	6d9b      	ldr	r3, [r3, #88]	; 0x58
 8101bfc:	61fb      	str	r3, [r7, #28]

  tmpisr_dma  = regs_dma->ISR;
 8101bfe:	6a3b      	ldr	r3, [r7, #32]
 8101c00:	681b      	ldr	r3, [r3, #0]
 8101c02:	61bb      	str	r3, [r7, #24]
  tmpisr_bdma = regs_bdma->ISR;
 8101c04:	69fb      	ldr	r3, [r7, #28]
 8101c06:	681b      	ldr	r3, [r3, #0]
 8101c08:	617b      	str	r3, [r7, #20]

  if(IS_DMA_STREAM_INSTANCE(hdma->Instance) != 0U)  /* DMA1 or DMA2 instance */
 8101c0a:	687b      	ldr	r3, [r7, #4]
 8101c0c:	681b      	ldr	r3, [r3, #0]
 8101c0e:	4a5f      	ldr	r2, [pc, #380]	; (8101d8c <HAL_DMA_IRQHandler+0x1b4>)
 8101c10:	4293      	cmp	r3, r2
 8101c12:	d04a      	beq.n	8101caa <HAL_DMA_IRQHandler+0xd2>
 8101c14:	687b      	ldr	r3, [r7, #4]
 8101c16:	681b      	ldr	r3, [r3, #0]
 8101c18:	4a5d      	ldr	r2, [pc, #372]	; (8101d90 <HAL_DMA_IRQHandler+0x1b8>)
 8101c1a:	4293      	cmp	r3, r2
 8101c1c:	d045      	beq.n	8101caa <HAL_DMA_IRQHandler+0xd2>
 8101c1e:	687b      	ldr	r3, [r7, #4]
 8101c20:	681b      	ldr	r3, [r3, #0]
 8101c22:	4a5c      	ldr	r2, [pc, #368]	; (8101d94 <HAL_DMA_IRQHandler+0x1bc>)
 8101c24:	4293      	cmp	r3, r2
 8101c26:	d040      	beq.n	8101caa <HAL_DMA_IRQHandler+0xd2>
 8101c28:	687b      	ldr	r3, [r7, #4]
 8101c2a:	681b      	ldr	r3, [r3, #0]
 8101c2c:	4a5a      	ldr	r2, [pc, #360]	; (8101d98 <HAL_DMA_IRQHandler+0x1c0>)
 8101c2e:	4293      	cmp	r3, r2
 8101c30:	d03b      	beq.n	8101caa <HAL_DMA_IRQHandler+0xd2>
 8101c32:	687b      	ldr	r3, [r7, #4]
 8101c34:	681b      	ldr	r3, [r3, #0]
 8101c36:	4a59      	ldr	r2, [pc, #356]	; (8101d9c <HAL_DMA_IRQHandler+0x1c4>)
 8101c38:	4293      	cmp	r3, r2
 8101c3a:	d036      	beq.n	8101caa <HAL_DMA_IRQHandler+0xd2>
 8101c3c:	687b      	ldr	r3, [r7, #4]
 8101c3e:	681b      	ldr	r3, [r3, #0]
 8101c40:	4a57      	ldr	r2, [pc, #348]	; (8101da0 <HAL_DMA_IRQHandler+0x1c8>)
 8101c42:	4293      	cmp	r3, r2
 8101c44:	d031      	beq.n	8101caa <HAL_DMA_IRQHandler+0xd2>
 8101c46:	687b      	ldr	r3, [r7, #4]
 8101c48:	681b      	ldr	r3, [r3, #0]
 8101c4a:	4a56      	ldr	r2, [pc, #344]	; (8101da4 <HAL_DMA_IRQHandler+0x1cc>)
 8101c4c:	4293      	cmp	r3, r2
 8101c4e:	d02c      	beq.n	8101caa <HAL_DMA_IRQHandler+0xd2>
 8101c50:	687b      	ldr	r3, [r7, #4]
 8101c52:	681b      	ldr	r3, [r3, #0]
 8101c54:	4a54      	ldr	r2, [pc, #336]	; (8101da8 <HAL_DMA_IRQHandler+0x1d0>)
 8101c56:	4293      	cmp	r3, r2
 8101c58:	d027      	beq.n	8101caa <HAL_DMA_IRQHandler+0xd2>
 8101c5a:	687b      	ldr	r3, [r7, #4]
 8101c5c:	681b      	ldr	r3, [r3, #0]
 8101c5e:	4a53      	ldr	r2, [pc, #332]	; (8101dac <HAL_DMA_IRQHandler+0x1d4>)
 8101c60:	4293      	cmp	r3, r2
 8101c62:	d022      	beq.n	8101caa <HAL_DMA_IRQHandler+0xd2>
 8101c64:	687b      	ldr	r3, [r7, #4]
 8101c66:	681b      	ldr	r3, [r3, #0]
 8101c68:	4a51      	ldr	r2, [pc, #324]	; (8101db0 <HAL_DMA_IRQHandler+0x1d8>)
 8101c6a:	4293      	cmp	r3, r2
 8101c6c:	d01d      	beq.n	8101caa <HAL_DMA_IRQHandler+0xd2>
 8101c6e:	687b      	ldr	r3, [r7, #4]
 8101c70:	681b      	ldr	r3, [r3, #0]
 8101c72:	4a50      	ldr	r2, [pc, #320]	; (8101db4 <HAL_DMA_IRQHandler+0x1dc>)
 8101c74:	4293      	cmp	r3, r2
 8101c76:	d018      	beq.n	8101caa <HAL_DMA_IRQHandler+0xd2>
 8101c78:	687b      	ldr	r3, [r7, #4]
 8101c7a:	681b      	ldr	r3, [r3, #0]
 8101c7c:	4a4e      	ldr	r2, [pc, #312]	; (8101db8 <HAL_DMA_IRQHandler+0x1e0>)
 8101c7e:	4293      	cmp	r3, r2
 8101c80:	d013      	beq.n	8101caa <HAL_DMA_IRQHandler+0xd2>
 8101c82:	687b      	ldr	r3, [r7, #4]
 8101c84:	681b      	ldr	r3, [r3, #0]
 8101c86:	4a4d      	ldr	r2, [pc, #308]	; (8101dbc <HAL_DMA_IRQHandler+0x1e4>)
 8101c88:	4293      	cmp	r3, r2
 8101c8a:	d00e      	beq.n	8101caa <HAL_DMA_IRQHandler+0xd2>
 8101c8c:	687b      	ldr	r3, [r7, #4]
 8101c8e:	681b      	ldr	r3, [r3, #0]
 8101c90:	4a4b      	ldr	r2, [pc, #300]	; (8101dc0 <HAL_DMA_IRQHandler+0x1e8>)
 8101c92:	4293      	cmp	r3, r2
 8101c94:	d009      	beq.n	8101caa <HAL_DMA_IRQHandler+0xd2>
 8101c96:	687b      	ldr	r3, [r7, #4]
 8101c98:	681b      	ldr	r3, [r3, #0]
 8101c9a:	4a4a      	ldr	r2, [pc, #296]	; (8101dc4 <HAL_DMA_IRQHandler+0x1ec>)
 8101c9c:	4293      	cmp	r3, r2
 8101c9e:	d004      	beq.n	8101caa <HAL_DMA_IRQHandler+0xd2>
 8101ca0:	687b      	ldr	r3, [r7, #4]
 8101ca2:	681b      	ldr	r3, [r3, #0]
 8101ca4:	4a48      	ldr	r2, [pc, #288]	; (8101dc8 <HAL_DMA_IRQHandler+0x1f0>)
 8101ca6:	4293      	cmp	r3, r2
 8101ca8:	d101      	bne.n	8101cae <HAL_DMA_IRQHandler+0xd6>
 8101caa:	2301      	movs	r3, #1
 8101cac:	e000      	b.n	8101cb0 <HAL_DMA_IRQHandler+0xd8>
 8101cae:	2300      	movs	r3, #0
 8101cb0:	2b00      	cmp	r3, #0
 8101cb2:	f000 842b 	beq.w	810250c <HAL_DMA_IRQHandler+0x934>
  {
    /* Transfer Error Interrupt management ***************************************/
    if ((tmpisr_dma & (DMA_FLAG_TEIF0_4 << (hdma->StreamIndex & 0x1FU))) != 0U)
 8101cb6:	687b      	ldr	r3, [r7, #4]
 8101cb8:	6ddb      	ldr	r3, [r3, #92]	; 0x5c
 8101cba:	f003 031f 	and.w	r3, r3, #31
 8101cbe:	2208      	movs	r2, #8
 8101cc0:	409a      	lsls	r2, r3
 8101cc2:	69bb      	ldr	r3, [r7, #24]
 8101cc4:	4013      	ands	r3, r2
 8101cc6:	2b00      	cmp	r3, #0
 8101cc8:	f000 80a2 	beq.w	8101e10 <HAL_DMA_IRQHandler+0x238>
    {
      if(__HAL_DMA_GET_IT_SOURCE(hdma, DMA_IT_TE) != 0U)
 8101ccc:	687b      	ldr	r3, [r7, #4]
 8101cce:	681b      	ldr	r3, [r3, #0]
 8101cd0:	4a2e      	ldr	r2, [pc, #184]	; (8101d8c <HAL_DMA_IRQHandler+0x1b4>)
 8101cd2:	4293      	cmp	r3, r2
 8101cd4:	d04a      	beq.n	8101d6c <HAL_DMA_IRQHandler+0x194>
 8101cd6:	687b      	ldr	r3, [r7, #4]
 8101cd8:	681b      	ldr	r3, [r3, #0]
 8101cda:	4a2d      	ldr	r2, [pc, #180]	; (8101d90 <HAL_DMA_IRQHandler+0x1b8>)
 8101cdc:	4293      	cmp	r3, r2
 8101cde:	d045      	beq.n	8101d6c <HAL_DMA_IRQHandler+0x194>
 8101ce0:	687b      	ldr	r3, [r7, #4]
 8101ce2:	681b      	ldr	r3, [r3, #0]
 8101ce4:	4a2b      	ldr	r2, [pc, #172]	; (8101d94 <HAL_DMA_IRQHandler+0x1bc>)
 8101ce6:	4293      	cmp	r3, r2
 8101ce8:	d040      	beq.n	8101d6c <HAL_DMA_IRQHandler+0x194>
 8101cea:	687b      	ldr	r3, [r7, #4]
 8101cec:	681b      	ldr	r3, [r3, #0]
 8101cee:	4a2a      	ldr	r2, [pc, #168]	; (8101d98 <HAL_DMA_IRQHandler+0x1c0>)
 8101cf0:	4293      	cmp	r3, r2
 8101cf2:	d03b      	beq.n	8101d6c <HAL_DMA_IRQHandler+0x194>
 8101cf4:	687b      	ldr	r3, [r7, #4]
 8101cf6:	681b      	ldr	r3, [r3, #0]
 8101cf8:	4a28      	ldr	r2, [pc, #160]	; (8101d9c <HAL_DMA_IRQHandler+0x1c4>)
 8101cfa:	4293      	cmp	r3, r2
 8101cfc:	d036      	beq.n	8101d6c <HAL_DMA_IRQHandler+0x194>
 8101cfe:	687b      	ldr	r3, [r7, #4]
 8101d00:	681b      	ldr	r3, [r3, #0]
 8101d02:	4a27      	ldr	r2, [pc, #156]	; (8101da0 <HAL_DMA_IRQHandler+0x1c8>)
 8101d04:	4293      	cmp	r3, r2
 8101d06:	d031      	beq.n	8101d6c <HAL_DMA_IRQHandler+0x194>
 8101d08:	687b      	ldr	r3, [r7, #4]
 8101d0a:	681b      	ldr	r3, [r3, #0]
 8101d0c:	4a25      	ldr	r2, [pc, #148]	; (8101da4 <HAL_DMA_IRQHandler+0x1cc>)
 8101d0e:	4293      	cmp	r3, r2
 8101d10:	d02c      	beq.n	8101d6c <HAL_DMA_IRQHandler+0x194>
 8101d12:	687b      	ldr	r3, [r7, #4]
 8101d14:	681b      	ldr	r3, [r3, #0]
 8101d16:	4a24      	ldr	r2, [pc, #144]	; (8101da8 <HAL_DMA_IRQHandler+0x1d0>)
 8101d18:	4293      	cmp	r3, r2
 8101d1a:	d027      	beq.n	8101d6c <HAL_DMA_IRQHandler+0x194>
 8101d1c:	687b      	ldr	r3, [r7, #4]
 8101d1e:	681b      	ldr	r3, [r3, #0]
 8101d20:	4a22      	ldr	r2, [pc, #136]	; (8101dac <HAL_DMA_IRQHandler+0x1d4>)
 8101d22:	4293      	cmp	r3, r2
 8101d24:	d022      	beq.n	8101d6c <HAL_DMA_IRQHandler+0x194>
 8101d26:	687b      	ldr	r3, [r7, #4]
 8101d28:	681b      	ldr	r3, [r3, #0]
 8101d2a:	4a21      	ldr	r2, [pc, #132]	; (8101db0 <HAL_DMA_IRQHandler+0x1d8>)
 8101d2c:	4293      	cmp	r3, r2
 8101d2e:	d01d      	beq.n	8101d6c <HAL_DMA_IRQHandler+0x194>
 8101d30:	687b      	ldr	r3, [r7, #4]
 8101d32:	681b      	ldr	r3, [r3, #0]
 8101d34:	4a1f      	ldr	r2, [pc, #124]	; (8101db4 <HAL_DMA_IRQHandler+0x1dc>)
 8101d36:	4293      	cmp	r3, r2
 8101d38:	d018      	beq.n	8101d6c <HAL_DMA_IRQHandler+0x194>
 8101d3a:	687b      	ldr	r3, [r7, #4]
 8101d3c:	681b      	ldr	r3, [r3, #0]
 8101d3e:	4a1e      	ldr	r2, [pc, #120]	; (8101db8 <HAL_DMA_IRQHandler+0x1e0>)
 8101d40:	4293      	cmp	r3, r2
 8101d42:	d013      	beq.n	8101d6c <HAL_DMA_IRQHandler+0x194>
 8101d44:	687b      	ldr	r3, [r7, #4]
 8101d46:	681b      	ldr	r3, [r3, #0]
 8101d48:	4a1c      	ldr	r2, [pc, #112]	; (8101dbc <HAL_DMA_IRQHandler+0x1e4>)
 8101d4a:	4293      	cmp	r3, r2
 8101d4c:	d00e      	beq.n	8101d6c <HAL_DMA_IRQHandler+0x194>
 8101d4e:	687b      	ldr	r3, [r7, #4]
 8101d50:	681b      	ldr	r3, [r3, #0]
 8101d52:	4a1b      	ldr	r2, [pc, #108]	; (8101dc0 <HAL_DMA_IRQHandler+0x1e8>)
 8101d54:	4293      	cmp	r3, r2
 8101d56:	d009      	beq.n	8101d6c <HAL_DMA_IRQHandler+0x194>
 8101d58:	687b      	ldr	r3, [r7, #4]
 8101d5a:	681b      	ldr	r3, [r3, #0]
 8101d5c:	4a19      	ldr	r2, [pc, #100]	; (8101dc4 <HAL_DMA_IRQHandler+0x1ec>)
 8101d5e:	4293      	cmp	r3, r2
 8101d60:	d004      	beq.n	8101d6c <HAL_DMA_IRQHandler+0x194>
 8101d62:	687b      	ldr	r3, [r7, #4]
 8101d64:	681b      	ldr	r3, [r3, #0]
 8101d66:	4a18      	ldr	r2, [pc, #96]	; (8101dc8 <HAL_DMA_IRQHandler+0x1f0>)
 8101d68:	4293      	cmp	r3, r2
 8101d6a:	d12f      	bne.n	8101dcc <HAL_DMA_IRQHandler+0x1f4>
 8101d6c:	687b      	ldr	r3, [r7, #4]
 8101d6e:	681b      	ldr	r3, [r3, #0]
 8101d70:	681b      	ldr	r3, [r3, #0]
 8101d72:	f003 0304 	and.w	r3, r3, #4
 8101d76:	2b00      	cmp	r3, #0
 8101d78:	bf14      	ite	ne
 8101d7a:	2301      	movne	r3, #1
 8101d7c:	2300      	moveq	r3, #0
 8101d7e:	b2db      	uxtb	r3, r3
 8101d80:	e02e      	b.n	8101de0 <HAL_DMA_IRQHandler+0x208>
 8101d82:	bf00      	nop
 8101d84:	10000000 	.word	0x10000000
 8101d88:	1b4e81b5 	.word	0x1b4e81b5
 8101d8c:	40020010 	.word	0x40020010
 8101d90:	40020028 	.word	0x40020028
 8101d94:	40020040 	.word	0x40020040
 8101d98:	40020058 	.word	0x40020058
 8101d9c:	40020070 	.word	0x40020070
 8101da0:	40020088 	.word	0x40020088
 8101da4:	400200a0 	.word	0x400200a0
 8101da8:	400200b8 	.word	0x400200b8
 8101dac:	40020410 	.word	0x40020410
 8101db0:	40020428 	.word	0x40020428
 8101db4:	40020440 	.word	0x40020440
 8101db8:	40020458 	.word	0x40020458
 8101dbc:	40020470 	.word	0x40020470
 8101dc0:	40020488 	.word	0x40020488
 8101dc4:	400204a0 	.word	0x400204a0
 8101dc8:	400204b8 	.word	0x400204b8
 8101dcc:	687b      	ldr	r3, [r7, #4]
 8101dce:	681b      	ldr	r3, [r3, #0]
 8101dd0:	681b      	ldr	r3, [r3, #0]
 8101dd2:	f003 0308 	and.w	r3, r3, #8
 8101dd6:	2b00      	cmp	r3, #0
 8101dd8:	bf14      	ite	ne
 8101dda:	2301      	movne	r3, #1
 8101ddc:	2300      	moveq	r3, #0
 8101dde:	b2db      	uxtb	r3, r3
 8101de0:	2b00      	cmp	r3, #0
 8101de2:	d015      	beq.n	8101e10 <HAL_DMA_IRQHandler+0x238>
      {
        /* Disable the transfer error interrupt */
        ((DMA_Stream_TypeDef   *)hdma->Instance)->CR  &= ~(DMA_IT_TE);
 8101de4:	687b      	ldr	r3, [r7, #4]
 8101de6:	681b      	ldr	r3, [r3, #0]
 8101de8:	681a      	ldr	r2, [r3, #0]
 8101dea:	687b      	ldr	r3, [r7, #4]
 8101dec:	681b      	ldr	r3, [r3, #0]
 8101dee:	f022 0204 	bic.w	r2, r2, #4
 8101df2:	601a      	str	r2, [r3, #0]

        /* Clear the transfer error flag */
        regs_dma->IFCR = DMA_FLAG_TEIF0_4 << (hdma->StreamIndex & 0x1FU);
 8101df4:	687b      	ldr	r3, [r7, #4]
 8101df6:	6ddb      	ldr	r3, [r3, #92]	; 0x5c
 8101df8:	f003 031f 	and.w	r3, r3, #31
 8101dfc:	2208      	movs	r2, #8
 8101dfe:	409a      	lsls	r2, r3
 8101e00:	6a3b      	ldr	r3, [r7, #32]
 8101e02:	609a      	str	r2, [r3, #8]

        /* Update error code */
        hdma->ErrorCode |= HAL_DMA_ERROR_TE;
 8101e04:	687b      	ldr	r3, [r7, #4]
 8101e06:	6d5b      	ldr	r3, [r3, #84]	; 0x54
 8101e08:	f043 0201 	orr.w	r2, r3, #1
 8101e0c:	687b      	ldr	r3, [r7, #4]
 8101e0e:	655a      	str	r2, [r3, #84]	; 0x54
      }
    }
    /* FIFO Error Interrupt management ******************************************/
    if ((tmpisr_dma & (DMA_FLAG_FEIF0_4 << (hdma->StreamIndex & 0x1FU))) != 0U)
 8101e10:	687b      	ldr	r3, [r7, #4]
 8101e12:	6ddb      	ldr	r3, [r3, #92]	; 0x5c
 8101e14:	f003 031f 	and.w	r3, r3, #31
 8101e18:	69ba      	ldr	r2, [r7, #24]
 8101e1a:	fa22 f303 	lsr.w	r3, r2, r3
 8101e1e:	f003 0301 	and.w	r3, r3, #1
 8101e22:	2b00      	cmp	r3, #0
 8101e24:	d06e      	beq.n	8101f04 <HAL_DMA_IRQHandler+0x32c>
    {
      if(__HAL_DMA_GET_IT_SOURCE(hdma, DMA_IT_FE) != 0U)
 8101e26:	687b      	ldr	r3, [r7, #4]
 8101e28:	681b      	ldr	r3, [r3, #0]
 8101e2a:	4a69      	ldr	r2, [pc, #420]	; (8101fd0 <HAL_DMA_IRQHandler+0x3f8>)
 8101e2c:	4293      	cmp	r3, r2
 8101e2e:	d04a      	beq.n	8101ec6 <HAL_DMA_IRQHandler+0x2ee>
 8101e30:	687b      	ldr	r3, [r7, #4]
 8101e32:	681b      	ldr	r3, [r3, #0]
 8101e34:	4a67      	ldr	r2, [pc, #412]	; (8101fd4 <HAL_DMA_IRQHandler+0x3fc>)
 8101e36:	4293      	cmp	r3, r2
 8101e38:	d045      	beq.n	8101ec6 <HAL_DMA_IRQHandler+0x2ee>
 8101e3a:	687b      	ldr	r3, [r7, #4]
 8101e3c:	681b      	ldr	r3, [r3, #0]
 8101e3e:	4a66      	ldr	r2, [pc, #408]	; (8101fd8 <HAL_DMA_IRQHandler+0x400>)
 8101e40:	4293      	cmp	r3, r2
 8101e42:	d040      	beq.n	8101ec6 <HAL_DMA_IRQHandler+0x2ee>
 8101e44:	687b      	ldr	r3, [r7, #4]
 8101e46:	681b      	ldr	r3, [r3, #0]
 8101e48:	4a64      	ldr	r2, [pc, #400]	; (8101fdc <HAL_DMA_IRQHandler+0x404>)
 8101e4a:	4293      	cmp	r3, r2
 8101e4c:	d03b      	beq.n	8101ec6 <HAL_DMA_IRQHandler+0x2ee>
 8101e4e:	687b      	ldr	r3, [r7, #4]
 8101e50:	681b      	ldr	r3, [r3, #0]
 8101e52:	4a63      	ldr	r2, [pc, #396]	; (8101fe0 <HAL_DMA_IRQHandler+0x408>)
 8101e54:	4293      	cmp	r3, r2
 8101e56:	d036      	beq.n	8101ec6 <HAL_DMA_IRQHandler+0x2ee>
 8101e58:	687b      	ldr	r3, [r7, #4]
 8101e5a:	681b      	ldr	r3, [r3, #0]
 8101e5c:	4a61      	ldr	r2, [pc, #388]	; (8101fe4 <HAL_DMA_IRQHandler+0x40c>)
 8101e5e:	4293      	cmp	r3, r2
 8101e60:	d031      	beq.n	8101ec6 <HAL_DMA_IRQHandler+0x2ee>
 8101e62:	687b      	ldr	r3, [r7, #4]
 8101e64:	681b      	ldr	r3, [r3, #0]
 8101e66:	4a60      	ldr	r2, [pc, #384]	; (8101fe8 <HAL_DMA_IRQHandler+0x410>)
 8101e68:	4293      	cmp	r3, r2
 8101e6a:	d02c      	beq.n	8101ec6 <HAL_DMA_IRQHandler+0x2ee>
 8101e6c:	687b      	ldr	r3, [r7, #4]
 8101e6e:	681b      	ldr	r3, [r3, #0]
 8101e70:	4a5e      	ldr	r2, [pc, #376]	; (8101fec <HAL_DMA_IRQHandler+0x414>)
 8101e72:	4293      	cmp	r3, r2
 8101e74:	d027      	beq.n	8101ec6 <HAL_DMA_IRQHandler+0x2ee>
 8101e76:	687b      	ldr	r3, [r7, #4]
 8101e78:	681b      	ldr	r3, [r3, #0]
 8101e7a:	4a5d      	ldr	r2, [pc, #372]	; (8101ff0 <HAL_DMA_IRQHandler+0x418>)
 8101e7c:	4293      	cmp	r3, r2
 8101e7e:	d022      	beq.n	8101ec6 <HAL_DMA_IRQHandler+0x2ee>
 8101e80:	687b      	ldr	r3, [r7, #4]
 8101e82:	681b      	ldr	r3, [r3, #0]
 8101e84:	4a5b      	ldr	r2, [pc, #364]	; (8101ff4 <HAL_DMA_IRQHandler+0x41c>)
 8101e86:	4293      	cmp	r3, r2
 8101e88:	d01d      	beq.n	8101ec6 <HAL_DMA_IRQHandler+0x2ee>
 8101e8a:	687b      	ldr	r3, [r7, #4]
 8101e8c:	681b      	ldr	r3, [r3, #0]
 8101e8e:	4a5a      	ldr	r2, [pc, #360]	; (8101ff8 <HAL_DMA_IRQHandler+0x420>)
 8101e90:	4293      	cmp	r3, r2
 8101e92:	d018      	beq.n	8101ec6 <HAL_DMA_IRQHandler+0x2ee>
 8101e94:	687b      	ldr	r3, [r7, #4]
 8101e96:	681b      	ldr	r3, [r3, #0]
 8101e98:	4a58      	ldr	r2, [pc, #352]	; (8101ffc <HAL_DMA_IRQHandler+0x424>)
 8101e9a:	4293      	cmp	r3, r2
 8101e9c:	d013      	beq.n	8101ec6 <HAL_DMA_IRQHandler+0x2ee>
 8101e9e:	687b      	ldr	r3, [r7, #4]
 8101ea0:	681b      	ldr	r3, [r3, #0]
 8101ea2:	4a57      	ldr	r2, [pc, #348]	; (8102000 <HAL_DMA_IRQHandler+0x428>)
 8101ea4:	4293      	cmp	r3, r2
 8101ea6:	d00e      	beq.n	8101ec6 <HAL_DMA_IRQHandler+0x2ee>
 8101ea8:	687b      	ldr	r3, [r7, #4]
 8101eaa:	681b      	ldr	r3, [r3, #0]
 8101eac:	4a55      	ldr	r2, [pc, #340]	; (8102004 <HAL_DMA_IRQHandler+0x42c>)
 8101eae:	4293      	cmp	r3, r2
 8101eb0:	d009      	beq.n	8101ec6 <HAL_DMA_IRQHandler+0x2ee>
 8101eb2:	687b      	ldr	r3, [r7, #4]
 8101eb4:	681b      	ldr	r3, [r3, #0]
 8101eb6:	4a54      	ldr	r2, [pc, #336]	; (8102008 <HAL_DMA_IRQHandler+0x430>)
 8101eb8:	4293      	cmp	r3, r2
 8101eba:	d004      	beq.n	8101ec6 <HAL_DMA_IRQHandler+0x2ee>
 8101ebc:	687b      	ldr	r3, [r7, #4]
 8101ebe:	681b      	ldr	r3, [r3, #0]
 8101ec0:	4a52      	ldr	r2, [pc, #328]	; (810200c <HAL_DMA_IRQHandler+0x434>)
 8101ec2:	4293      	cmp	r3, r2
 8101ec4:	d10a      	bne.n	8101edc <HAL_DMA_IRQHandler+0x304>
 8101ec6:	687b      	ldr	r3, [r7, #4]
 8101ec8:	681b      	ldr	r3, [r3, #0]
 8101eca:	695b      	ldr	r3, [r3, #20]
 8101ecc:	f003 0380 	and.w	r3, r3, #128	; 0x80
 8101ed0:	2b00      	cmp	r3, #0
 8101ed2:	bf14      	ite	ne
 8101ed4:	2301      	movne	r3, #1
 8101ed6:	2300      	moveq	r3, #0
 8101ed8:	b2db      	uxtb	r3, r3
 8101eda:	e003      	b.n	8101ee4 <HAL_DMA_IRQHandler+0x30c>
 8101edc:	687b      	ldr	r3, [r7, #4]
 8101ede:	681b      	ldr	r3, [r3, #0]
 8101ee0:	681b      	ldr	r3, [r3, #0]
 8101ee2:	2300      	movs	r3, #0
 8101ee4:	2b00      	cmp	r3, #0
 8101ee6:	d00d      	beq.n	8101f04 <HAL_DMA_IRQHandler+0x32c>
      {
        /* Clear the FIFO error flag */
        regs_dma->IFCR = DMA_FLAG_FEIF0_4 << (hdma->StreamIndex & 0x1FU);
 8101ee8:	687b      	ldr	r3, [r7, #4]
 8101eea:	6ddb      	ldr	r3, [r3, #92]	; 0x5c
 8101eec:	f003 031f 	and.w	r3, r3, #31
 8101ef0:	2201      	movs	r2, #1
 8101ef2:	409a      	lsls	r2, r3
 8101ef4:	6a3b      	ldr	r3, [r7, #32]
 8101ef6:	609a      	str	r2, [r3, #8]

        /* Update error code */
        hdma->ErrorCode |= HAL_DMA_ERROR_FE;
 8101ef8:	687b      	ldr	r3, [r7, #4]
 8101efa:	6d5b      	ldr	r3, [r3, #84]	; 0x54
 8101efc:	f043 0202 	orr.w	r2, r3, #2
 8101f00:	687b      	ldr	r3, [r7, #4]
 8101f02:	655a      	str	r2, [r3, #84]	; 0x54
      }
    }
    /* Direct Mode Error Interrupt management ***********************************/
    if ((tmpisr_dma & (DMA_FLAG_DMEIF0_4 << (hdma->StreamIndex & 0x1FU))) != 0U)
 8101f04:	687b      	ldr	r3, [r7, #4]
 8101f06:	6ddb      	ldr	r3, [r3, #92]	; 0x5c
 8101f08:	f003 031f 	and.w	r3, r3, #31
 8101f0c:	2204      	movs	r2, #4
 8101f0e:	409a      	lsls	r2, r3
 8101f10:	69bb      	ldr	r3, [r7, #24]
 8101f12:	4013      	ands	r3, r2
 8101f14:	2b00      	cmp	r3, #0
 8101f16:	f000 808f 	beq.w	8102038 <HAL_DMA_IRQHandler+0x460>
    {
      if(__HAL_DMA_GET_IT_SOURCE(hdma, DMA_IT_DME) != 0U)
 8101f1a:	687b      	ldr	r3, [r7, #4]
 8101f1c:	681b      	ldr	r3, [r3, #0]
 8101f1e:	4a2c      	ldr	r2, [pc, #176]	; (8101fd0 <HAL_DMA_IRQHandler+0x3f8>)
 8101f20:	4293      	cmp	r3, r2
 8101f22:	d04a      	beq.n	8101fba <HAL_DMA_IRQHandler+0x3e2>
 8101f24:	687b      	ldr	r3, [r7, #4]
 8101f26:	681b      	ldr	r3, [r3, #0]
 8101f28:	4a2a      	ldr	r2, [pc, #168]	; (8101fd4 <HAL_DMA_IRQHandler+0x3fc>)
 8101f2a:	4293      	cmp	r3, r2
 8101f2c:	d045      	beq.n	8101fba <HAL_DMA_IRQHandler+0x3e2>
 8101f2e:	687b      	ldr	r3, [r7, #4]
 8101f30:	681b      	ldr	r3, [r3, #0]
 8101f32:	4a29      	ldr	r2, [pc, #164]	; (8101fd8 <HAL_DMA_IRQHandler+0x400>)
 8101f34:	4293      	cmp	r3, r2
 8101f36:	d040      	beq.n	8101fba <HAL_DMA_IRQHandler+0x3e2>
 8101f38:	687b      	ldr	r3, [r7, #4]
 8101f3a:	681b      	ldr	r3, [r3, #0]
 8101f3c:	4a27      	ldr	r2, [pc, #156]	; (8101fdc <HAL_DMA_IRQHandler+0x404>)
 8101f3e:	4293      	cmp	r3, r2
 8101f40:	d03b      	beq.n	8101fba <HAL_DMA_IRQHandler+0x3e2>
 8101f42:	687b      	ldr	r3, [r7, #4]
 8101f44:	681b      	ldr	r3, [r3, #0]
 8101f46:	4a26      	ldr	r2, [pc, #152]	; (8101fe0 <HAL_DMA_IRQHandler+0x408>)
 8101f48:	4293      	cmp	r3, r2
 8101f4a:	d036      	beq.n	8101fba <HAL_DMA_IRQHandler+0x3e2>
 8101f4c:	687b      	ldr	r3, [r7, #4]
 8101f4e:	681b      	ldr	r3, [r3, #0]
 8101f50:	4a24      	ldr	r2, [pc, #144]	; (8101fe4 <HAL_DMA_IRQHandler+0x40c>)
 8101f52:	4293      	cmp	r3, r2
 8101f54:	d031      	beq.n	8101fba <HAL_DMA_IRQHandler+0x3e2>
 8101f56:	687b      	ldr	r3, [r7, #4]
 8101f58:	681b      	ldr	r3, [r3, #0]
 8101f5a:	4a23      	ldr	r2, [pc, #140]	; (8101fe8 <HAL_DMA_IRQHandler+0x410>)
 8101f5c:	4293      	cmp	r3, r2
 8101f5e:	d02c      	beq.n	8101fba <HAL_DMA_IRQHandler+0x3e2>
 8101f60:	687b      	ldr	r3, [r7, #4]
 8101f62:	681b      	ldr	r3, [r3, #0]
 8101f64:	4a21      	ldr	r2, [pc, #132]	; (8101fec <HAL_DMA_IRQHandler+0x414>)
 8101f66:	4293      	cmp	r3, r2
 8101f68:	d027      	beq.n	8101fba <HAL_DMA_IRQHandler+0x3e2>
 8101f6a:	687b      	ldr	r3, [r7, #4]
 8101f6c:	681b      	ldr	r3, [r3, #0]
 8101f6e:	4a20      	ldr	r2, [pc, #128]	; (8101ff0 <HAL_DMA_IRQHandler+0x418>)
 8101f70:	4293      	cmp	r3, r2
 8101f72:	d022      	beq.n	8101fba <HAL_DMA_IRQHandler+0x3e2>
 8101f74:	687b      	ldr	r3, [r7, #4]
 8101f76:	681b      	ldr	r3, [r3, #0]
 8101f78:	4a1e      	ldr	r2, [pc, #120]	; (8101ff4 <HAL_DMA_IRQHandler+0x41c>)
 8101f7a:	4293      	cmp	r3, r2
 8101f7c:	d01d      	beq.n	8101fba <HAL_DMA_IRQHandler+0x3e2>
 8101f7e:	687b      	ldr	r3, [r7, #4]
 8101f80:	681b      	ldr	r3, [r3, #0]
 8101f82:	4a1d      	ldr	r2, [pc, #116]	; (8101ff8 <HAL_DMA_IRQHandler+0x420>)
 8101f84:	4293      	cmp	r3, r2
 8101f86:	d018      	beq.n	8101fba <HAL_DMA_IRQHandler+0x3e2>
 8101f88:	687b      	ldr	r3, [r7, #4]
 8101f8a:	681b      	ldr	r3, [r3, #0]
 8101f8c:	4a1b      	ldr	r2, [pc, #108]	; (8101ffc <HAL_DMA_IRQHandler+0x424>)
 8101f8e:	4293      	cmp	r3, r2
 8101f90:	d013      	beq.n	8101fba <HAL_DMA_IRQHandler+0x3e2>
 8101f92:	687b      	ldr	r3, [r7, #4]
 8101f94:	681b      	ldr	r3, [r3, #0]
 8101f96:	4a1a      	ldr	r2, [pc, #104]	; (8102000 <HAL_DMA_IRQHandler+0x428>)
 8101f98:	4293      	cmp	r3, r2
 8101f9a:	d00e      	beq.n	8101fba <HAL_DMA_IRQHandler+0x3e2>
 8101f9c:	687b      	ldr	r3, [r7, #4]
 8101f9e:	681b      	ldr	r3, [r3, #0]
 8101fa0:	4a18      	ldr	r2, [pc, #96]	; (8102004 <HAL_DMA_IRQHandler+0x42c>)
 8101fa2:	4293      	cmp	r3, r2
 8101fa4:	d009      	beq.n	8101fba <HAL_DMA_IRQHandler+0x3e2>
 8101fa6:	687b      	ldr	r3, [r7, #4]
 8101fa8:	681b      	ldr	r3, [r3, #0]
 8101faa:	4a17      	ldr	r2, [pc, #92]	; (8102008 <HAL_DMA_IRQHandler+0x430>)
 8101fac:	4293      	cmp	r3, r2
 8101fae:	d004      	beq.n	8101fba <HAL_DMA_IRQHandler+0x3e2>
 8101fb0:	687b      	ldr	r3, [r7, #4]
 8101fb2:	681b      	ldr	r3, [r3, #0]
 8101fb4:	4a15      	ldr	r2, [pc, #84]	; (810200c <HAL_DMA_IRQHandler+0x434>)
 8101fb6:	4293      	cmp	r3, r2
 8101fb8:	d12a      	bne.n	8102010 <HAL_DMA_IRQHandler+0x438>
 8101fba:	687b      	ldr	r3, [r7, #4]
 8101fbc:	681b      	ldr	r3, [r3, #0]
 8101fbe:	681b      	ldr	r3, [r3, #0]
 8101fc0:	f003 0302 	and.w	r3, r3, #2
 8101fc4:	2b00      	cmp	r3, #0
 8101fc6:	bf14      	ite	ne
 8101fc8:	2301      	movne	r3, #1
 8101fca:	2300      	moveq	r3, #0
 8101fcc:	b2db      	uxtb	r3, r3
 8101fce:	e023      	b.n	8102018 <HAL_DMA_IRQHandler+0x440>
 8101fd0:	40020010 	.word	0x40020010
 8101fd4:	40020028 	.word	0x40020028
 8101fd8:	40020040 	.word	0x40020040
 8101fdc:	40020058 	.word	0x40020058
 8101fe0:	40020070 	.word	0x40020070
 8101fe4:	40020088 	.word	0x40020088
 8101fe8:	400200a0 	.word	0x400200a0
 8101fec:	400200b8 	.word	0x400200b8
 8101ff0:	40020410 	.word	0x40020410
 8101ff4:	40020428 	.word	0x40020428
 8101ff8:	40020440 	.word	0x40020440
 8101ffc:	40020458 	.word	0x40020458
 8102000:	40020470 	.word	0x40020470
 8102004:	40020488 	.word	0x40020488
 8102008:	400204a0 	.word	0x400204a0
 810200c:	400204b8 	.word	0x400204b8
 8102010:	687b      	ldr	r3, [r7, #4]
 8102012:	681b      	ldr	r3, [r3, #0]
 8102014:	681b      	ldr	r3, [r3, #0]
 8102016:	2300      	movs	r3, #0
 8102018:	2b00      	cmp	r3, #0
 810201a:	d00d      	beq.n	8102038 <HAL_DMA_IRQHandler+0x460>
      {
        /* Clear the direct mode error flag */
        regs_dma->IFCR = DMA_FLAG_DMEIF0_4 << (hdma->StreamIndex & 0x1FU);
 810201c:	687b      	ldr	r3, [r7, #4]
 810201e:	6ddb      	ldr	r3, [r3, #92]	; 0x5c
 8102020:	f003 031f 	and.w	r3, r3, #31
 8102024:	2204      	movs	r2, #4
 8102026:	409a      	lsls	r2, r3
 8102028:	6a3b      	ldr	r3, [r7, #32]
 810202a:	609a      	str	r2, [r3, #8]

        /* Update error code */
        hdma->ErrorCode |= HAL_DMA_ERROR_DME;
 810202c:	687b      	ldr	r3, [r7, #4]
 810202e:	6d5b      	ldr	r3, [r3, #84]	; 0x54
 8102030:	f043 0204 	orr.w	r2, r3, #4
 8102034:	687b      	ldr	r3, [r7, #4]
 8102036:	655a      	str	r2, [r3, #84]	; 0x54
      }
    }
    /* Half Transfer Complete Interrupt management ******************************/
    if ((tmpisr_dma & (DMA_FLAG_HTIF0_4 << (hdma->StreamIndex & 0x1FU))) != 0U)
 8102038:	687b      	ldr	r3, [r7, #4]
 810203a:	6ddb      	ldr	r3, [r3, #92]	; 0x5c
 810203c:	f003 031f 	and.w	r3, r3, #31
 8102040:	2210      	movs	r2, #16
 8102042:	409a      	lsls	r2, r3
 8102044:	69bb      	ldr	r3, [r7, #24]
 8102046:	4013      	ands	r3, r2
 8102048:	2b00      	cmp	r3, #0
 810204a:	f000 80a6 	beq.w	810219a <HAL_DMA_IRQHandler+0x5c2>
    {
      if(__HAL_DMA_GET_IT_SOURCE(hdma, DMA_IT_HT) != 0U)
 810204e:	687b      	ldr	r3, [r7, #4]
 8102050:	681b      	ldr	r3, [r3, #0]
 8102052:	4a85      	ldr	r2, [pc, #532]	; (8102268 <HAL_DMA_IRQHandler+0x690>)
 8102054:	4293      	cmp	r3, r2
 8102056:	d04a      	beq.n	81020ee <HAL_DMA_IRQHandler+0x516>
 8102058:	687b      	ldr	r3, [r7, #4]
 810205a:	681b      	ldr	r3, [r3, #0]
 810205c:	4a83      	ldr	r2, [pc, #524]	; (810226c <HAL_DMA_IRQHandler+0x694>)
 810205e:	4293      	cmp	r3, r2
 8102060:	d045      	beq.n	81020ee <HAL_DMA_IRQHandler+0x516>
 8102062:	687b      	ldr	r3, [r7, #4]
 8102064:	681b      	ldr	r3, [r3, #0]
 8102066:	4a82      	ldr	r2, [pc, #520]	; (8102270 <HAL_DMA_IRQHandler+0x698>)
 8102068:	4293      	cmp	r3, r2
 810206a:	d040      	beq.n	81020ee <HAL_DMA_IRQHandler+0x516>
 810206c:	687b      	ldr	r3, [r7, #4]
 810206e:	681b      	ldr	r3, [r3, #0]
 8102070:	4a80      	ldr	r2, [pc, #512]	; (8102274 <HAL_DMA_IRQHandler+0x69c>)
 8102072:	4293      	cmp	r3, r2
 8102074:	d03b      	beq.n	81020ee <HAL_DMA_IRQHandler+0x516>
 8102076:	687b      	ldr	r3, [r7, #4]
 8102078:	681b      	ldr	r3, [r3, #0]
 810207a:	4a7f      	ldr	r2, [pc, #508]	; (8102278 <HAL_DMA_IRQHandler+0x6a0>)
 810207c:	4293      	cmp	r3, r2
 810207e:	d036      	beq.n	81020ee <HAL_DMA_IRQHandler+0x516>
 8102080:	687b      	ldr	r3, [r7, #4]
 8102082:	681b      	ldr	r3, [r3, #0]
 8102084:	4a7d      	ldr	r2, [pc, #500]	; (810227c <HAL_DMA_IRQHandler+0x6a4>)
 8102086:	4293      	cmp	r3, r2
 8102088:	d031      	beq.n	81020ee <HAL_DMA_IRQHandler+0x516>
 810208a:	687b      	ldr	r3, [r7, #4]
 810208c:	681b      	ldr	r3, [r3, #0]
 810208e:	4a7c      	ldr	r2, [pc, #496]	; (8102280 <HAL_DMA_IRQHandler+0x6a8>)
 8102090:	4293      	cmp	r3, r2
 8102092:	d02c      	beq.n	81020ee <HAL_DMA_IRQHandler+0x516>
 8102094:	687b      	ldr	r3, [r7, #4]
 8102096:	681b      	ldr	r3, [r3, #0]
 8102098:	4a7a      	ldr	r2, [pc, #488]	; (8102284 <HAL_DMA_IRQHandler+0x6ac>)
 810209a:	4293      	cmp	r3, r2
 810209c:	d027      	beq.n	81020ee <HAL_DMA_IRQHandler+0x516>
 810209e:	687b      	ldr	r3, [r7, #4]
 81020a0:	681b      	ldr	r3, [r3, #0]
 81020a2:	4a79      	ldr	r2, [pc, #484]	; (8102288 <HAL_DMA_IRQHandler+0x6b0>)
 81020a4:	4293      	cmp	r3, r2
 81020a6:	d022      	beq.n	81020ee <HAL_DMA_IRQHandler+0x516>
 81020a8:	687b      	ldr	r3, [r7, #4]
 81020aa:	681b      	ldr	r3, [r3, #0]
 81020ac:	4a77      	ldr	r2, [pc, #476]	; (810228c <HAL_DMA_IRQHandler+0x6b4>)
 81020ae:	4293      	cmp	r3, r2
 81020b0:	d01d      	beq.n	81020ee <HAL_DMA_IRQHandler+0x516>
 81020b2:	687b      	ldr	r3, [r7, #4]
 81020b4:	681b      	ldr	r3, [r3, #0]
 81020b6:	4a76      	ldr	r2, [pc, #472]	; (8102290 <HAL_DMA_IRQHandler+0x6b8>)
 81020b8:	4293      	cmp	r3, r2
 81020ba:	d018      	beq.n	81020ee <HAL_DMA_IRQHandler+0x516>
 81020bc:	687b      	ldr	r3, [r7, #4]
 81020be:	681b      	ldr	r3, [r3, #0]
 81020c0:	4a74      	ldr	r2, [pc, #464]	; (8102294 <HAL_DMA_IRQHandler+0x6bc>)
 81020c2:	4293      	cmp	r3, r2
 81020c4:	d013      	beq.n	81020ee <HAL_DMA_IRQHandler+0x516>
 81020c6:	687b      	ldr	r3, [r7, #4]
 81020c8:	681b      	ldr	r3, [r3, #0]
 81020ca:	4a73      	ldr	r2, [pc, #460]	; (8102298 <HAL_DMA_IRQHandler+0x6c0>)
 81020cc:	4293      	cmp	r3, r2
 81020ce:	d00e      	beq.n	81020ee <HAL_DMA_IRQHandler+0x516>
 81020d0:	687b      	ldr	r3, [r7, #4]
 81020d2:	681b      	ldr	r3, [r3, #0]
 81020d4:	4a71      	ldr	r2, [pc, #452]	; (810229c <HAL_DMA_IRQHandler+0x6c4>)
 81020d6:	4293      	cmp	r3, r2
 81020d8:	d009      	beq.n	81020ee <HAL_DMA_IRQHandler+0x516>
 81020da:	687b      	ldr	r3, [r7, #4]
 81020dc:	681b      	ldr	r3, [r3, #0]
 81020de:	4a70      	ldr	r2, [pc, #448]	; (81022a0 <HAL_DMA_IRQHandler+0x6c8>)
 81020e0:	4293      	cmp	r3, r2
 81020e2:	d004      	beq.n	81020ee <HAL_DMA_IRQHandler+0x516>
 81020e4:	687b      	ldr	r3, [r7, #4]
 81020e6:	681b      	ldr	r3, [r3, #0]
 81020e8:	4a6e      	ldr	r2, [pc, #440]	; (81022a4 <HAL_DMA_IRQHandler+0x6cc>)
 81020ea:	4293      	cmp	r3, r2
 81020ec:	d10a      	bne.n	8102104 <HAL_DMA_IRQHandler+0x52c>
 81020ee:	687b      	ldr	r3, [r7, #4]
 81020f0:	681b      	ldr	r3, [r3, #0]
 81020f2:	681b      	ldr	r3, [r3, #0]
 81020f4:	f003 0308 	and.w	r3, r3, #8
 81020f8:	2b00      	cmp	r3, #0
 81020fa:	bf14      	ite	ne
 81020fc:	2301      	movne	r3, #1
 81020fe:	2300      	moveq	r3, #0
 8102100:	b2db      	uxtb	r3, r3
 8102102:	e009      	b.n	8102118 <HAL_DMA_IRQHandler+0x540>
 8102104:	687b      	ldr	r3, [r7, #4]
 8102106:	681b      	ldr	r3, [r3, #0]
 8102108:	681b      	ldr	r3, [r3, #0]
 810210a:	f003 0304 	and.w	r3, r3, #4
 810210e:	2b00      	cmp	r3, #0
 8102110:	bf14      	ite	ne
 8102112:	2301      	movne	r3, #1
 8102114:	2300      	moveq	r3, #0
 8102116:	b2db      	uxtb	r3, r3
 8102118:	2b00      	cmp	r3, #0
 810211a:	d03e      	beq.n	810219a <HAL_DMA_IRQHandler+0x5c2>
      {
        /* Clear the half transfer complete flag */
        regs_dma->IFCR = DMA_FLAG_HTIF0_4 << (hdma->StreamIndex & 0x1FU);
 810211c:	687b      	ldr	r3, [r7, #4]
 810211e:	6ddb      	ldr	r3, [r3, #92]	; 0x5c
 8102120:	f003 031f 	and.w	r3, r3, #31
 8102124:	2210      	movs	r2, #16
 8102126:	409a      	lsls	r2, r3
 8102128:	6a3b      	ldr	r3, [r7, #32]
 810212a:	609a      	str	r2, [r3, #8]

        /* Multi_Buffering mode enabled */
        if(((((DMA_Stream_TypeDef   *)hdma->Instance)->CR) & (uint32_t)(DMA_SxCR_DBM)) != 0U)
 810212c:	687b      	ldr	r3, [r7, #4]
 810212e:	681b      	ldr	r3, [r3, #0]
 8102130:	681b      	ldr	r3, [r3, #0]
 8102132:	f403 2380 	and.w	r3, r3, #262144	; 0x40000
 8102136:	2b00      	cmp	r3, #0
 8102138:	d018      	beq.n	810216c <HAL_DMA_IRQHandler+0x594>
        {
          /* Current memory buffer used is Memory 0 */
          if((((DMA_Stream_TypeDef   *)hdma->Instance)->CR & DMA_SxCR_CT) == 0U)
 810213a:	687b      	ldr	r3, [r7, #4]
 810213c:	681b      	ldr	r3, [r3, #0]
 810213e:	681b      	ldr	r3, [r3, #0]
 8102140:	f403 2300 	and.w	r3, r3, #524288	; 0x80000
 8102144:	2b00      	cmp	r3, #0
 8102146:	d108      	bne.n	810215a <HAL_DMA_IRQHandler+0x582>
          {
            if(hdma->XferHalfCpltCallback != NULL)
 8102148:	687b      	ldr	r3, [r7, #4]
 810214a:	6c1b      	ldr	r3, [r3, #64]	; 0x40
 810214c:	2b00      	cmp	r3, #0
 810214e:	d024      	beq.n	810219a <HAL_DMA_IRQHandler+0x5c2>
            {
              /* Half transfer callback */
              hdma->XferHalfCpltCallback(hdma);
 8102150:	687b      	ldr	r3, [r7, #4]
 8102152:	6c1b      	ldr	r3, [r3, #64]	; 0x40
 8102154:	6878      	ldr	r0, [r7, #4]
 8102156:	4798      	blx	r3
 8102158:	e01f      	b.n	810219a <HAL_DMA_IRQHandler+0x5c2>
            }
          }
          /* Current memory buffer used is Memory 1 */
          else
          {
            if(hdma->XferM1HalfCpltCallback != NULL)
 810215a:	687b      	ldr	r3, [r7, #4]
 810215c:	6c9b      	ldr	r3, [r3, #72]	; 0x48
 810215e:	2b00      	cmp	r3, #0
 8102160:	d01b      	beq.n	810219a <HAL_DMA_IRQHandler+0x5c2>
            {
              /* Half transfer callback */
              hdma->XferM1HalfCpltCallback(hdma);
 8102162:	687b      	ldr	r3, [r7, #4]
 8102164:	6c9b      	ldr	r3, [r3, #72]	; 0x48
 8102166:	6878      	ldr	r0, [r7, #4]
 8102168:	4798      	blx	r3
 810216a:	e016      	b.n	810219a <HAL_DMA_IRQHandler+0x5c2>
          }
        }
        else
        {
          /* Disable the half transfer interrupt if the DMA mode is not CIRCULAR */
          if((((DMA_Stream_TypeDef   *)hdma->Instance)->CR & DMA_SxCR_CIRC) == 0U)
 810216c:	687b      	ldr	r3, [r7, #4]
 810216e:	681b      	ldr	r3, [r3, #0]
 8102170:	681b      	ldr	r3, [r3, #0]
 8102172:	f403 7380 	and.w	r3, r3, #256	; 0x100
 8102176:	2b00      	cmp	r3, #0
 8102178:	d107      	bne.n	810218a <HAL_DMA_IRQHandler+0x5b2>
          {
            /* Disable the half transfer interrupt */
            ((DMA_Stream_TypeDef   *)hdma->Instance)->CR  &= ~(DMA_IT_HT);
 810217a:	687b      	ldr	r3, [r7, #4]
 810217c:	681b      	ldr	r3, [r3, #0]
 810217e:	681a      	ldr	r2, [r3, #0]
 8102180:	687b      	ldr	r3, [r7, #4]
 8102182:	681b      	ldr	r3, [r3, #0]
 8102184:	f022 0208 	bic.w	r2, r2, #8
 8102188:	601a      	str	r2, [r3, #0]
          }

          if(hdma->XferHalfCpltCallback != NULL)
 810218a:	687b      	ldr	r3, [r7, #4]
 810218c:	6c1b      	ldr	r3, [r3, #64]	; 0x40
 810218e:	2b00      	cmp	r3, #0
 8102190:	d003      	beq.n	810219a <HAL_DMA_IRQHandler+0x5c2>
          {
            /* Half transfer callback */
            hdma->XferHalfCpltCallback(hdma);
 8102192:	687b      	ldr	r3, [r7, #4]
 8102194:	6c1b      	ldr	r3, [r3, #64]	; 0x40
 8102196:	6878      	ldr	r0, [r7, #4]
 8102198:	4798      	blx	r3
          }
        }
      }
    }
    /* Transfer Complete Interrupt management ***********************************/
